{"abi":[{"anonymous":false,"inputs":[{"indexed":true,"internalType":"address","name":"provider","type":"address"},{"indexed":false,"internalType":"uint256[]","name":"tokenAmounts","type":"uint256[]"},{"indexed":false,"internalType":"uint256[]","name":"fees","type":"uint256[]"},{"indexed":false,"internalType":"uint256","name":"invariant","type":"uint256"},{"indexed":false,"internalType":"uint256","name":"lpTokenSupply","type":"uint256"}],"name":"AddLiquidity","type":"event"},{"anonymous":false,"inputs":[{"indexed":false,"internalType":"uint256","name":"newAdminFee","type":"uint256"}],"name":"NewAdminFee","type":"event"},{"anonymous":false,"inputs":[{"indexed":false,"internalType":"uint256","name":"newDepositFee","type":"uint256"}],"name":"NewDepositFee","type":"event"},{"anonymous":false,"inputs":[{"indexed":false,"internalType":"uint256","name":"newSwapFee","type":"uint256"}],"name":"NewSwapFee","type":"event"},{"anonymous":false,"inputs":[{"indexed":false,"internalType":"uint256","name":"newWithdrawFee","type":"uint256"}],"name":"NewWithdrawFee","type":"event"},{"anonymous":false,"inputs":[{"indexed":false,"internalType":"uint256","name":"oldA","type":"uint256"},{"indexed":false,"internalType":"uint256","name":"newA","type":"uint256"},{"indexed":false,"internalType":"uint256","name":"initialTime","type":"uint256"},{"indexed":false,"internalType":"uint256","name":"futureTime","type":"uint256"}],"name":"RampA","type":"event"},{"anonymous":false,"inputs":[{"indexed":true,"internalType":"address","name":"provider","type":"address"},{"indexed":false,"internalType":"uint256[]","name":"tokenAmounts","type":"uint256[]"},{"indexed":false,"internalType":"uint256","name":"lpTokenSupply","type":"uint256"}],"name":"RemoveLiquidity","type":"event"},{"anonymous":false,"inputs":[{"indexed":true,"internalType":"address","name":"provider","type":"address"},{"indexed":false,"internalType":"uint256[]","name":"tokenAmounts","type":"uint256[]"},{"indexed":false,"internalType":"uint256[]","name":"fees","type":"uint256[]"},{"indexed":false,"internalType":"uint256","name":"invariant","type":"uint256"},{"indexed":false,"internalType":"uint256","name":"lpTokenSupply","type":"uint256"}],"name":"RemoveLiquidityImbalance","type":"event"},{"anonymous":false,"inputs":[{"indexed":true,"internalType":"address","name":"provider","type":"address"},{"indexed":false,"internalType":"uint256","name":"lpTokenAmount","type":"uint256"},{"indexed":false,"internalType":"uint256","name":"lpTokenSupply","type":"uint256"},{"indexed":false,"internalType":"uint256","name":"boughtId","type":"uint256"},{"indexed":false,"internalType":"uint256","name":"tokensBought","type":"uint256"}],"name":"RemoveLiquidityOne","type":"event"},{"anonymous":false,"inputs":[{"indexed":false,"internalType":"uint256","name":"currentA","type":"uint256"},{"indexed":false,"internalType":"uint256","name":"time","type":"uint256"}],"name":"StopRampA","type":"event"},{"anonymous":false,"inputs":[{"indexed":true,"internalType":"address","name":"buyer","type":"address"},{"indexed":false,"internalType":"uint256","name":"tokensSold","type":"uint256"},{"indexed":false,"internalType":"uint256","name":"tokensBought","type":"uint256"},{"indexed":false,"internalType":"uint128","name":"soldId","type":"uint128"},{"indexed":false,"internalType":"uint128","name":"boughtId","type":"uint128"}],"name":"TokenSwap","type":"event"},{"inputs":[],"name":"A_PRECISION","outputs":[{"internalType":"uint256","name":"","type":"uint256"}],"stateMutability":"view","type":"function"},{"inputs":[],"name":"MAX_A","outputs":[{"internalType":"uint256","name":"","type":"uint256"}],"stateMutability":"view","type":"function"},{"inputs":[],"name":"MAX_ADMIN_FEE","outputs":[{"internalType":"uint256","name":"","type":"uint256"}],"stateMutability":"view","type":"function"},{"inputs":[],"name":"MAX_DEPOSIT_FEE","outputs":[{"internalType":"uint256","name":"","type":"uint256"}],"stateMutability":"view","type":"function"},{"inputs":[],"name":"MAX_SWAP_FEE","outputs":[{"internalType":"uint256","name":"","type":"uint256"}],"stateMutability":"view","type":"function"},{"inputs":[],"name":"MAX_WITHDRAW_FEE","outputs":[{"internalType":"uint256","name":"","type":"uint256"}],"stateMutability":"view","type":"function"},{"inputs":[],"name":"POOL_PRECISION_DECIMALS","outputs":[{"internalType":"uint8","name":"","type":"uint8"}],"stateMutability":"view","type":"function"}],"bytecode":"61489e610026600b82828239805160001a60731461001957fe5b30600052607381538281f3fe73000000000000000000000000000000000000000030146080604052600436106101ef5760003560e01c8063968e559411610119578063d4b0de2f116100ac578063e9252d461161007b578063e9252d4614610854578063f14e211e14610893578063f3de0362146108bd578063f967a81f146108c5576101ef565b8063d4b0de2f1461071b578063e4a9a0da14610795578063e7a4db81146107e9578063e8c47a5414610828576101ef565b8063c6d87dd5116100e8578063c6d87dd51461071b578063c9b64dcb14610740578063d011f9181461075d578063d2a3948714610765576101ef565b8063968e5594146106a6578063a5397b22146106d2578063ab3d85441461071b578063b0a14cfc14610723576101ef565b80634b23603c1161019157806371906c2c1161016057806371906c2c1461055f57806373fd6b3e1461057c5780637d048160146106535780638ab7697e14610676576101ef565b80634b23603c1461043e57806358fdd79b146104745780635e58579c146104aa578063704672761461052f576101ef565b806340370edf116101cd57806340370edf1461026757806341b91c261461031e5780634386c7ce146103d5578063467e186c1461040e576101ef565b80630296ab50146101f457806324c5c75114610212578063396984151461024d575b600080fd5b6101fc6108f7565b6040805160ff9092168252519081900360200190f35b81801561021e57600080fd5b5061024b6004803603604081101561023557600080fd5b50803590602001356001600160a01b03166108fc565b005b6102556109fd565b60408051918252519081900360200190f35b81801561027357600080fd5b506102556004803603606081101561028a57600080fd5b81359190810190604081016020820135600160201b8111156102ab57600080fd5b8201836020820111156102bd57600080fd5b803590602001918460208302840111600160201b831117156102de57600080fd5b9190808060200260200160405190810160405280939291908181526020018383602002808284376000920191909152509295505091359250610a04915050565b81801561032a57600080fd5b506102556004803603606081101561034157600080fd5b81359190810190604081016020820135600160201b81111561036257600080fd5b82018360208201111561037457600080fd5b803590602001918460208302840111600160201b8311171561039557600080fd5b91908080602002602001604051908101604052809392919081815260200183836020028082843760009201919091525092955050913592506113b1915050565b8180156103e157600080fd5b5061024b600480360360408110156103f857600080fd5b50803590602001356001600160a01b0316611b53565b81801561041a57600080fd5b5061024b6004803603604081101561043157600080fd5b5080359060200135611c09565b6102556004803603608081101561045457600080fd5b5080359060ff602082013581169160408101359091169060600135611c92565b81801561048057600080fd5b5061024b6004803603606081101561049757600080fd5b5080359060208101359060400135611caa565b610255600480360360808110156104c057600080fd5b8135916001600160a01b0360208201351691810190606081016040820135600160201b8111156104ef57600080fd5b82018360208201111561050157600080fd5b803590602001918460208302840111600160201b8311171561052257600080fd5b9193509150351515611f0b565b81801561053b57600080fd5b5061024b6004803603604081101561055257600080fd5b508035906020013561218e565b6102556004803603602081101561057557600080fd5b5035612218565b81801561058857600080fd5b506106036004803603606081101561059f57600080fd5b813591602081013591810190606081016040820135600160201b8111156105c557600080fd5b8201836020820111156105d757600080fd5b803590602001918460208302840111600160201b831117156105f857600080fd5b509092509050612362565b60408051602080825283518183015283519192839290830191858101910280838360005b8381101561063f578181015183820152602001610627565b505050509050019250505060405180910390f35b6102556004803603604081101561066957600080fd5b5080359060200135612712565b81801561068257600080fd5b5061024b6004803603604081101561069957600080fd5b508035906020013561279d565b610255600480360360408110156106bc57600080fd5b50803590602001356001600160a01b0316612826565b8180156106de57600080fd5b50610255600480360360a08110156106f557600080fd5b5080359060ff6020820135811691604081013590911690606081013590608001356128cd565b610255612c0f565b6102556004803603602081101561073957600080fd5b5035612c17565b6102556004803603602081101561075657600080fd5b5035612c22565b610255612c2d565b81801561077157600080fd5b5061024b6004803603604081101561078857600080fd5b5080359060200135612c32565b6107d0600480360360808110156107ab57600080fd5b5080359060208101356001600160a01b0316906040810135906060013560ff16612cbb565b6040805192835260208301919091528051918290030190f35b8180156107f557600080fd5b506102556004803603608081101561080c57600080fd5b5080359060208101359060ff6040820135169060600135612d45565b6102556004803603604081101561083e57600080fd5b50803590602001356001600160a01b0316613061565b81801561086057600080fd5b5061024b6004803603606081101561087757600080fd5b508035906001600160a01b036020820135169060400135613080565b81801561089f57600080fd5b5061024b600480360360208110156108b657600080fd5b503561308b565b610255613148565b610603600480360360608110156108db57600080fd5b508035906001600160a01b036020820135169060400135613151565b601281565b60005b600a8301548110156109f857600083600a01828154811061091c57fe5b6000918252602082200154600c860180546001600160a01b0390921693506109d2918590811061094857fe5b9060005260206000200154836001600160a01b03166370a08231306040518263ffffffff1660e01b815260040180826001600160a01b0316815260200191505060206040518083038186803b1580156109a057600080fd5b505afa1580156109b4573d6000803e3d6000fd5b505050506040513d60208110156109ca57600080fd5b50519061315e565b905080156109ee576109ee6001600160a01b03831685836131bb565b50506001016108ff565b505050565b620f424081565b600a830154825160009114610a60576040805162461bcd60e51b815260206004820181905260248201527f416d6f756e7473206d757374206d6174636820706f6f6c656420746f6b656e73604482015290519081900360640190fd5b600a84015460609067ffffffffffffffff81118015610a7e57600080fd5b50604051908082528060200260200182016040528015610aa8578160200160208202803683370190505b50905060008560090160009054906101000a90046001600160a01b03166001600160a01b03166318160ddd6040518163ffffffff1660e01b815260040160206040518083038186803b158015610afd57600080fd5b505afa158015610b11573d6000803e3d6000fd5b505050506040513d6020811015610b2757600080fd5b50519050610b33614743565b60405180608001604052806000815260200160008152602001600081526020016000815250905081600014610b6e57610b6b8761320d565b81525b606087600c01805480602002602001604051908101604052809291908181526020018280548015610bbe57602002820191906000526020600020905b815481526020019060010190808311610baa575b5050505050905060005b600a890154811015610e145783151580610bf557506000888281518110610beb57fe5b6020026020010151115b610c46576040805162461bcd60e51b815260206004820152601e60248201527f4d75737420737570706c7920616c6c20746f6b656e7320696e20706f6f6c0000604482015290519081900360640190fd5b878181518110610c5257fe5b6020026020010151600014610db657600089600a018281548110610c7257fe5b60009182526020918290200154604080516370a0823160e01b815230600482015290516001600160a01b03909216926370a0823192602480840193829003018186803b158015610cc157600080fd5b505afa158015610cd5573d6000803e3d6000fd5b505050506040513d6020811015610ceb57600080fd5b50518951909150610d3a90339030908c9086908110610d0657fe5b60200260200101518d600a018681548110610d1d57fe5b6000918252602090912001546001600160a01b0316929190613224565b610d9c818b600a018481548110610d4d57fe5b60009182526020918290200154604080516370a0823160e01b815230600482015290516001600160a01b03909216926370a0823192602480840193829003018186803b1580156109a057600080fd5b898381518110610da857fe5b602002602001018181525050505b610df5888281518110610dc557fe5b60200260200101518a600c018381548110610ddc57fe5b906000526020600020015461328490919063ffffffff16565b828281518110610e0157fe5b6020908102919091010152600101610bc8565b50610e1e886132de565b6060830152610e3a610e308983613373565b83606001516133d1565b60208301819052825110610e89576040805162461bcd60e51b8152602060048201526011602482015270442073686f756c6420696e63726561736560781b604482015290519081900360640190fd5b602082015160408301528215611095576000610ea4896135ae565b905060005b600a8a0154811015611072576000610ef58560000151610eef8d600c018581548110610ed157fe5b906000526020600020015488602001516135db90919063ffffffff16565b90613634565b9050610fa26402540be400610eef8373__MathUtils_____________________________63a95cb7f79091898881518110610f2c57fe5b60200260200101516040518363ffffffff1660e01b8152600401808381526020018281526020019250505060206040518083038186803b158015610f6f57600080fd5b505af4158015610f83573d6000803e3d6000fd5b505050506040513d6020811015610f9957600080fd5b505186906135db565b878381518110610fae57fe5b602002602001018181525050611012610ff06402540be400610eef8e600501548b8781518110610fda57fe5b60200260200101516135db90919063ffffffff16565b858481518110610ffc57fe5b602002602001015161315e90919063ffffffff16565b8b600c01838154811061102157fe5b906000526020600020018190555061105287838151811061103e57fe5b6020026020010151858481518110610ffc57fe5b84838151811061105e57fe5b602090810291909101015250600101610ea9565b5061108a6110808a84613373565b84606001516133d1565b6040840152506110ac565b80516110aa90600c8a0190602084019061476b565b505b60008080856110c157846020015192506110e6565b845160408601516110e39190610eef9089906110dd908461315e565b906135db565b92505b8883101561113b576040805162461bcd60e51b815260206004820152601b60248201527f436f756c646e2774206d696e74206d696e207265717565737465640000000000604482015290519081900360640190fd5b60068b01546111b65760098b0154604080516340c10f1960e01b81523360048201526024810186905290516001600160a01b03909216916340c10f199160448082019260009290919082900301818387803b15801561119957600080fd5b505af11580156111ad573d6000803e3d6000fd5b505050506112c5565b6111d66402540be400610eef8d60060154866135db90919063ffffffff16565b91506111e2838361315e565b60098c015460088d0154604080516340c10f1960e01b81526001600160a01b0392831660048201526024810187905290519394509116916340c10f199160448082019260009290919082900301818387803b15801561124057600080fd5b505af1158015611254573d6000803e3d6000fd5b50505060098c0154604080516340c10f1960e01b81523360048201526024810185905290516001600160a01b0390921692506340c10f1991604480830192600092919082900301818387803b1580156112ac57600080fd5b505af11580156112c0573d6000803e3d6000fd5b505050505b336001600160a01b03167f189c623b666b1b45b83d7178f39b8c087cb09774317ca2f53c2d3c3726f222a28b898860200151878b01604051808060200180602001858152602001848152602001838103835287818151815260200191508051906020019060200280838360005b8381101561134a578181015183820152602001611332565b50505050905001838103825286818151815260200191508051906020019060200280838360005b83811015611389578181015183820152602001611371565b50505050905001965050505050505060405180910390a25090955050505050505b9392505050565b600a83015482516000911461140d576040805162461bcd60e51b815260206004820181905260248201527f416d6f756e74732073686f756c64206d6174636820706f6f6c20746f6b656e73604482015290519081900360640190fd5b6009840154604080516370a0823160e01b815233600482015290516001600160a01b03909216916370a0823191602480820192602092909190829003018186803b15801561145a57600080fd5b505afa15801561146e573d6000803e3d6000fd5b505050506040513d602081101561148457600080fd5b5051821180159061149457508115155b6114d5576040805162461bcd60e51b815260206004820152600d60248201526c1f2628173130b630b731b2a7b360991b604482015290519081900360640190fd5b6114dd614743565b60405180608001604052806000815260200160008152602001600081526020016000815250905060008560090160009054906101000a90046001600160a01b03166001600160a01b03166318160ddd6040518163ffffffff1660e01b815260040160206040518083038186803b15801561155657600080fd5b505afa15801561156a573d6000803e3d6000fd5b505050506040513d602081101561158057600080fd5b50519050600061158f876135ae565b9050606087600c018054806020026020016040519081016040528092919081815260200182805480156115e157602002820191906000526020600020905b8154815260200190600101908083116115cd575b505050505090506115f1886132de565b606085015261160c6116028961369b565b85606001516133d1565b845260005b600a89015481101561168f5761167088828151811061162c57fe5b60200260200101516040518060600160405280602381526020016148466023913984848151811061165957fe5b60200260200101516137499092919063ffffffff16565b82828151811061167c57fe5b6020908102919091010152600101611611565b5061169d6116028983613373565b6020850152600a88015460609067ffffffffffffffff811180156116c057600080fd5b506040519080825280602002602001820160405280156116ea578160200160208202803683370190505b50905060005b600a8a015481101561188c5760006117368760000151610eef8d600c01858154811061171857fe5b90600052602060002001548a602001516135db90919063ffffffff16565b905060008173__MathUtils_____________________________63a95cb7f7909187868151811061176357fe5b60200260200101516040518363ffffffff1660e01b8152600401808381526020018281526020019250505060206040518083038186803b1580156117a657600080fd5b505af41580156117ba573d6000803e3d6000fd5b505050506040513d60208110156117d057600080fd5b505190506117e76402540be400610eef88846135db565b8484815181106117f357fe5b60200260200101818152505061182b61181f6402540be400610eef8f60050154888881518110610fda57fe5b868581518110610ffc57fe5b8c600c01848154811061183a57fe5b906000526020600020018190555061186b84848151811061185757fe5b6020026020010151868581518110610ffc57fe5b85848151811061187757fe5b602090810291909101015250506001016116f0565b506118a461189a8a84613373565b86606001516133d1565b6040860181905285516000916118c69190610eef9088906110dd90849061315e565b90508061191a576040805162461bcd60e51b815260206004820152601b60248201527f4275726e7420616d6f756e742063616e6e6f74206265207a65726f0000000000604482015290519081900360640190fd5b61194a61193661192a8c33612826565b6402540be4009061315e565b610eef6402540be4006110dd856001613284565b9050878111156119a1576040805162461bcd60e51b815260206004820152601b60248201527f746f6b656e416d6f756e74203e206d61784275726e416d6f756e740000000000604482015290519081900360640190fd5b60098a01546040805163079cc67960e41b81523360048201526024810184905290516001600160a01b03909216916379cc67909160448082019260009290919082900301818387803b1580156119f657600080fd5b505af1158015611a0a573d6000803e3d6000fd5b5050505060005b600a8b0154811015611a6857611a60338b8381518110611a2d57fe5b60200260200101518d600a018481548110611a4457fe5b6000918252602090912001546001600160a01b031691906131bb565b600101611a11565b50602086015133907f3631c28b1f9dd213e0319fb167b554d76b6c283a41143eb400a0d1adb1af1755908b908590611aa08a8761315e565b604051808060200180602001858152602001848152602001838103835287818151815260200191508051906020019060200280838360005b83811015611af0578181015183820152602001611ad8565b50505050905001838103825286818151815260200191508051906020019060200280838360005b83811015611b2f578181015183820152602001611b17565b50505050905001965050505050505060405180910390a29998505050505050505050565b60088201546001600160a01b03163314611ba0576040805162461bcd60e51b81526020600482015260096024820152686465763a207775743f60b81b604482015290519081900360640190fd5b33611be4576040805162461bcd60e51b815260206004820152600f60248201526e696e76616c6964206164647265737360881b604482015290519081900360640190fd5b60089190910180546001600160a01b0319166001600160a01b03909216919091179055565b6305f5e100811115611c54576040805162461bcd60e51b815260206004820152600f60248201526e08ccaca40d2e640e8dede40d0d2ced608b1b604482015290519081900360640190fd5b600482018190556040805182815290517fd88ea5155021c6f8dafa1a741e173f595cdf77ce7c17d43342131d7f06afdfe59181900360200190a15050565b6000611ca0858585856137e0565b5095945050505050565b6002830154611cbc9062015180613284565b421015611d10576040805162461bcd60e51b815260206004820152601f60248201527f57616974203120646179206265666f7265207374617274696e672072616d7000604482015290519081900360640190fd5b611d1d4262127500613284565b811015611d6a576040805162461bcd60e51b8152602060048201526016602482015275496e73756666696369656e742072616d702074696d6560501b604482015290519081900360640190fd5b600082118015611d7c5750620f424082105b611dcd576040805162461bcd60e51b815260206004820181905260248201527f667574757265415f206d757374206265203e203020616e64203c204d41585f41604482015290519081900360640190fd5b6000611dd8846132de565b90506000611de78460646135db565b905081811015611e4d5781611dfd8260026135db565b1015611e48576040805162461bcd60e51b8152602060048201526015602482015274199d5d1d5c995057c81a5cc81d1bdbc81cdb585b1b605a1b604482015290519081900360640190fd5b611ea4565b611e588260026135db565b811115611ea4576040805162461bcd60e51b8152602060048201526015602482015274667574757265415f20697320746f6f206c6172676560581b604482015290519081900360640190fd5b8185556001850181905542600286018190556003860184905560408051848152602081018490528082019290925260608201859052517fa2b71ec6df949300b59aab36b55e189697b750119dd349fcfa8c0f779e83c2549181900360800190a15050505050565b600a85015460009081611f1d886132de565b90506000611f86611f808a8b600c01805480602002602001604051908101604052809291908181526020018280548015611f7657602002820191906000526020600020905b815481526020019060010190808311611f62575b5050505050613373565b836133d1565b9050606089600c01805480602002602001604051908101604052809291908181526020018280548015611fd857602002820191906000526020600020905b815481526020019060010190808311611fc4575b5050505050905060005b848110156120a157861561204557612028898983818110611fff57fe5b9050602002013583838151811061201257fe5b602002602001015161328490919063ffffffff16565b82828151811061203457fe5b602002602001018181525050612099565b61208089898381811061205457fe5b905060200201356040518060600160405280602381526020016148466023913984848151811061165957fe5b82828151811061208c57fe5b6020026020010181815250505b600101611fe2565b5060006120b76120b18c84613373565b856133d1565b905060008b60090160009054906101000a90046001600160a01b03166001600160a01b03166318160ddd6040518163ffffffff1660e01b815260040160206040518083038186803b15801561210b57600080fd5b505afa15801561211f573d6000803e3d6000fd5b505050506040513d602081101561213557600080fd5b50519050871561215e5761215184610eef836110dd868461315e565b9650505050505050612185565b61215161216e61192a8e8e612826565b610eef6402540be4006110dd88838783838b61315e565b95945050505050565b6402540be4008111156121da576040805162461bcd60e51b815260206004820152600f60248201526e08ccaca40d2e640e8dede40d0d2ced608b1b604482015290519081900360640190fd5b600582018190556040805182815290517fab599d640ca80cde2b09b128a4154a8dfe608cb80f4c9399c8b954b01fd35f389181900360200190a15050565b6000806122356122278461369b565b612230856132de565b6133d1565b905060008360090160009054906101000a90046001600160a01b03166001600160a01b03166318160ddd6040518163ffffffff1660e01b815260040160206040518083038186803b15801561228957600080fd5b505afa15801561229d573d6000803e3d6000fd5b505050506040513d60208110156122b357600080fd5b5051905080156123565761234d81610eef8660090160009054906101000a90046001600160a01b03166001600160a01b031663313ce5676040518163ffffffff1660e01b815260040160206040518083038186803b15801561231457600080fd5b505afa158015612328573d6000803e3d6000fd5b505050506040513d602081101561233e57600080fd5b5051859060ff16600a0a6135db565b9250505061235d565b6000925050505b919050565b6009840154604080516370a0823160e01b815233600482015290516060926001600160a01b0316916370a08231916024808301926020929190829003018186803b1580156123af57600080fd5b505afa1580156123c3573d6000803e3d6000fd5b505050506040513d60208110156123d957600080fd5b505184111561241f576040805162461bcd60e51b815260206004820152600d60248201526c1f2628173130b630b731b2a7b360991b604482015290519081900360640190fd5b600a8501548214612477576040805162461bcd60e51b815260206004820181905260248201527f6d696e416d6f756e7473206d757374206d6174636820706f6f6c546f6b656e73604482015290519081900360640190fd5b6060612484863387613925565b905060005b81518110156125975784848281811061249e57fe5b905060200201358282815181106124b157fe5b6020026020010151101561250c576040805162461bcd60e51b815260206004820152601a60248201527f616d6f756e74735b695d203c206d696e416d6f756e74735b695d000000000000604482015290519081900360640190fd5b61254b82828151811061251b57fe5b602002602001015188600c01838154811061253257fe5b906000526020600020015461315e90919063ffffffff16565b87600c01828154811061255a57fe5b906000526020600020018190555061258f3383838151811061257857fe5b602002602001015189600a018481548110611a4457fe5b600101612489565b5060098601546040805163079cc67960e41b81523360048201526024810188905290516001600160a01b03909216916379cc67909160448082019260009290919082900301818387803b1580156125ed57600080fd5b505af1158015612601573d6000803e3d6000fd5b50505050336001600160a01b03167f88d38ed598fdd809c2bf01ee49cd24b7fdabf379a83d29567952b60324d58cef828860090160009054906101000a90046001600160a01b03166001600160a01b03166318160ddd6040518163ffffffff1660e01b815260040160206040518083038186803b15801561268157600080fd5b505afa158015612695573d6000803e3d6000fd5b505050506040513d60208110156126ab57600080fd5b50516040805160208181018490528282528451928201929092528351909182916060830191868101910280838360005b838110156126f35781810151838201526020016126db565b50505050905001935050505060405180910390a290505b949350505050565b600a8201546000908210612768576040805162461bcd60e51b8152602060048201526018602482015277546f6b656e20696e646578206f7574206f662072616e676560401b604482015290519081900360640190fd5b61279483600c01838154811061277a57fe5b906000526020600020015484600a018481548110610d4d57fe5b90505b92915050565b6305f5e1008111156127e8576040805162461bcd60e51b815260206004820152600f60248201526e08ccaca40d2e640e8dede40d0d2ced608b1b604482015290519081900360640190fd5b600782018190556040805182815290517fd5fe46099fa396290a7f57e36c3c3c8774e2562c18ed5d1dcc0fa75071e03f1d9181900360200190a15050565b6001600160a01b0381166000908152600d830160205260408120548190612850906224ea00613284565b9050428111156128c3576000612866824261315e565b90506128ba6402540be400610eef6224ea00610eef856110dd8b600e0160008c6001600160a01b03166001600160a01b03168152602001908152602001600020548c600701546135db90919063ffffffff16565b92505050612797565b5060009392505050565b600085600a018560ff16815481106128e157fe5b60009182526020918290200154604080516370a0823160e01b815233600482015290516001600160a01b03909216926370a0823192602480840193829003018186803b15801561293057600080fd5b505afa158015612944573d6000803e3d6000fd5b505050506040513d602081101561295a57600080fd5b50518311156129b0576040805162461bcd60e51b815260206004820152601d60248201527f43616e6e6f742073776170206d6f7265207468616e20796f75206f776e000000604482015290519081900360640190fd5b600086600a018660ff16815481106129c457fe5b60009182526020918290200154604080516370a0823160e01b815230600482015290516001600160a01b03909216926370a0823192602480840193829003018186803b158015612a1357600080fd5b505afa158015612a27573d6000803e3d6000fd5b505050506040513d6020811015612a3d57600080fd5b5051600a88018054919250612a60913391309188919060ff8c16908110610d1d57fe5b6000612a788289600a018960ff1681548110610d4d57fe5b9050600080612a898a8a8a866137e0565b9150915085821015612ae2576040805162461bcd60e51b815260206004820181905260248201527f53776170206469646e277420726573756c7420696e206d696e20746f6b656e73604482015290519081900360640190fd5b6000612b248b600b018a60ff1681548110612af957fe5b9060005260206000200154610eef6402540be400610eef8f60050154876135db90919063ffffffff16565b9050612b3c848c600c018c60ff1681548110610ddc57fe5b8b600c018b60ff1681548110612b4e57fe5b9060005260206000200181905550612b7c81612b76858e600c018d60ff168154811061253257fe5b9061315e565b8b600c018a60ff1681548110612b8e57fe5b9060005260206000200181905550612bb333848d600a018c60ff1681548110611a4457fe5b604080518581526020810185905260ff808d16828401528b166060820152905133917fc6c1e0630dbe9130cc068028486c0d118ddcea348550819defd5cb8c257f8a38919081900360800190a250909998505050505050505050565b6305f5e10081565b600061279782613ab2565b6000612797826132de565b606481565b6305f5e100811115612c7d576040805162461bcd60e51b815260206004820152600f60248201526e08ccaca40d2e640e8dede40d0d2ced608b1b604482015290519081900360640190fd5b600682018190556040805182815290517f5237b692334926d9ab50f9d1ac513fe7e153f0cd81dd7c55a09d281d2985d8089181900360200190a15050565b600080600080612ccc888688613ac2565b80925081935050506000612d1583612b768b600b018960ff1681548110612cef57fe5b9060005260206000200154610eef86612d078f61369b565b8c60ff1681518110610ffc57fe5b9050612d376402540be400610eef612d3061192a8d8d612826565b86906135db565b999098509650505050505050565b6000808560090160009054906101000a90046001600160a01b03166001600160a01b03166318160ddd6040518163ffffffff1660e01b815260040160206040518083038186803b158015612d9857600080fd5b505afa158015612dac573d6000803e3d6000fd5b505050506040513d6020811015612dc257600080fd5b5051600a8701546009880154604080516370a0823160e01b8152336004820152905193945091926001600160a01b03909116916370a08231916024808301926020929190829003018186803b158015612e1a57600080fd5b505afa158015612e2e573d6000803e3d6000fd5b505050506040513d6020811015612e4457600080fd5b5051861115612e8a576040805162461bcd60e51b815260206004820152600d60248201526c1f2628173130b630b731b2a7b360991b604482015290519081900360640190fd5b808560ff1610612ed3576040805162461bcd60e51b815260206004820152600f60248201526e151bdad95b881b9bdd08199bdd5b99608a1b604482015290519081900360640190fd5b600080612ee289338a8a612cbb565b9250905085811015612f2c576040805162461bcd60e51b815260206004820152600e60248201526d191e480f081b5a5b905b5bdd5b9d60921b604482015290519081900360640190fd5b612f6b612f59612f526402540be400610eef8d60050154876135db90919063ffffffff16565b8390613284565b8a600c018960ff168154811061253257fe5b89600c018860ff1681548110612f7d57fe5b600091825260208220019190915560098a01546040805163079cc67960e41b8152336004820152602481018c905290516001600160a01b03909216926379cc67909260448084019382900301818387803b158015612fda57600080fd5b505af1158015612fee573d6000803e3d6000fd5b5050505061300933828b600a018a60ff1681548110611a4457fe5b604080518981526020810186905260ff89168183015260608101839052905133917f43fb02998f4e03da2e0e6fff53fdbf0c40a9f45f145dc377fc30615d7d7a8a64919081900360800190a298975050505050505050565b6001600160a01b03166000908152600d91909101602052604090205490565b6109f8838383613e0e565b428160030154116130e3576040805162461bcd60e51b815260206004820152601760248201527f52616d7020697320616c72656164792073746f70706564000000000000000000604482015290519081900360640190fd5b60006130ee826132de565b8083556001830181905542600284018190556003840181905560408051838152602081019290925280519293507f46e22fb3709ad289f62ce63d469248536dbc78d82b84a3d7e74ad606dc20193892918290030190a15050565b6402540be40081565b606061270a848484613925565b6000828211156131b5576040805162461bcd60e51b815260206004820152601e60248201527f536166654d6174683a207375627472616374696f6e206f766572666c6f770000604482015290519081900360640190fd5b50900390565b604080516001600160a01b038416602482015260448082018490528251808303909101815260649091019091526020810180516001600160e01b031663a9059cbb60e01b1790526109f8908490613f64565b600061279761321b8361369b565b612230846132de565b604080516001600160a01b0380861660248301528416604482015260648082018490528251808303909101815260849091019091526020810180516001600160e01b03166323b872dd60e01b17905261327e908590613f64565b50505050565b600082820183811015612794576040805162461bcd60e51b815260206004820152601b60248201527f536166654d6174683a206164646974696f6e206f766572666c6f770000000000604482015290519081900360640190fd5b60038101546001820154600091904282111561336a57600284015484548083111561333c5761333161332a613313868561315e565b610eef613320428761315e565b6110dd888761315e565b8290613284565b94505050505061235d565b61333161336361334c868561315e565b610eef613359428761315e565b6110dd868961315e565b829061315e565b915061235d9050565b60606127948284600b018054806020026020016040519081016040528092919081815260200182805480156133c757602002820191906000526020600020905b8154815260200190600101908083116133b3575b5050505050614015565b815160009081805b82811015613411576134078682815181106133f057fe5b60200260200101518361328490919063ffffffff16565b91506001016133d9565b508061342257600092505050612797565b6000818161343087866135db565b905060005b61010081101561356a578260005b878110156134725761346861345e898d8481518110610fda57fe5b610eef84886135db565b9150600101613443565b5092935083926134c66134a661348d836110dd8b6001613284565b6134a06064610eef896110dd8a8461315e565b90613284565b610eef866110dd6134b7868d6135db565b6134a06064610eef8b8f6135db565b93508373__MathUtils_____________________________6313a1ec759091876040518363ffffffff1660e01b8152600401808381526020018281526020019250505060206040518083038186803b15801561352157600080fd5b505af4158015613535573d6000803e3d6000fd5b505050506040513d602081101561354b57600080fd5b5051156135615783975050505050505050612797565b50600101613435565b506040805162461bcd60e51b81526020600482015260136024820152724420646f6573206e6f7420636f6e766572676560681b604482015290519081900360640190fd5b600a810154600090612797906135cc906004906110dd90600161315e565b600a8401546004850154610eef915b6000826135ea57506000612797565b828202828482816135f757fe5b04146127945760405162461bcd60e51b81526004018080602001828103825260218152602001806147fb6021913960400191505060405180910390fd5b600080821161368a576040805162461bcd60e51b815260206004820152601a60248201527f536166654d6174683a206469766973696f6e206279207a65726f000000000000604482015290519081900360640190fd5b81838161369357fe5b049392505050565b606061279782600c018054806020026020016040519081016040528092919081815260200182805480156136ee57602002820191906000526020600020905b8154815260200190600101908083116136da575b505050505083600b018054806020026020016040519081016040528092919081815260200182805480156133c757602002820191906000526020600020908154815260200190600101908083116133b3575050505050614015565b600081848411156137d85760405162461bcd60e51b81526004018080602001828103825283818151815260200191508051906020019080838360005b8381101561379d578181015183820152602001613785565b50505050905090810190601f1680156137ca5780820380516001836020036101000a031916815260200191505b509250505060405180910390fd5b505050900390565b60008060606137ee8761369b565b905080518660ff16108015613806575080518560ff16105b613852576040805162461bcd60e51b8152602060048201526018602482015277546f6b656e20696e646578206f7574206f662072616e676560401b604482015290519081900360640190fd5b600061389d828860ff168151811061386657fe5b60200260200101516134a08a600b018a60ff168154811061388357fe5b9060005260206000200154886135db90919063ffffffff16565b905060006138ae898989858761410c565b90506138c86001612b7683868b60ff1681518110610ffc57fe5b94506138ea6402540be400610eef8b60040154886135db90919063ffffffff16565b935061391789600b018860ff168154811061390157fe5b600091825260209091200154610eef878761315e565b945050505094509492505050565b606060008460090160009054906101000a90046001600160a01b03166001600160a01b03166318160ddd6040518163ffffffff1660e01b815260040160206040518083038186803b15801561397957600080fd5b505afa15801561398d573d6000803e3d6000fd5b505050506040513d60208110156139a357600080fd5b50519050808311156139fc576040805162461bcd60e51b815260206004820152601a60248201527f43616e6e6f742065786365656420746f74616c20737570706c79000000000000604482015290519081900360640190fd5b600a850154839060609067ffffffffffffffff81118015613a1c57600080fd5b50604051908082528060200260200182016040528015613a46578160200160208202803683370190505b50905060005b600a880154811015613aa757613a8884610eef858b600c018581548110613a6f57fe5b90600052602060002001546135db90919063ffffffff16565b828281518110613a9457fe5b6020908102919091010152600101613a4c565b509695505050505050565b60006127976064610eef846132de565b600a830154600090819060ff851610613b1d576040805162461bcd60e51b8152602060048201526018602482015277546f6b656e20696e646578206f7574206f662072616e676560401b604482015290519081900360640190fd5b6060613b288661369b565b9050613b326147b6565b6040518060a001604052806000815260200160008152602001600081526020016000815260200160008152509050613b69876132de565b60808201819052613b7b9083906133d1565b81526009870154604080516318160ddd60e01b81529051613c0d92613c05926001600160a01b03909116916318160ddd91600480820192602092909190829003018186803b158015613bcc57600080fd5b505afa158015613be0573d6000803e3d6000fd5b505050506040513d6020811015613bf657600080fd5b50518351610eef9089906135db565b82519061315e565b60208201528151829060ff8816908110613c2357fe5b6020026020010151851115613c7f576040805162461bcd60e51b815260206004820152601a60248201527f5769746864726177206578636565647320617661696c61626c65000000000000604482015290519081900360640190fd5b613c938160800151878484602001516143d7565b6040820152815160609067ffffffffffffffff81118015613cb357600080fd5b50604051908082528060200260200182016040528015613cdd578160200160208202803683370190505b509050613ce9886135ae565b606083015260005b600a890154811015613da0576000848281518110613d0b57fe5b60200260200101519050613d806133636402540be400610eef87606001518d60ff168714613d5957885160208a0151613d5491613d4d91610eef908a906135db565b879061315e565b6110dd565b6110dd8960400151612b768b60000151610eef8d602001518b6135db90919063ffffffff16565b838381518110613d8c57fe5b602090810291909101015250600101613cf1565b506000613dc9613dba84608001518a8587602001516143d7565b838a60ff1681518110610ffc57fe5b9050613df789600b018960ff1681548110613de057fe5b600091825260209091200154610eef83600161315e565b604090930151929550919350505050935093915050565b6001600160a01b038216613e21576109f8565b6007830154613e51576001600160a01b0382166000908152600e8401602052604090206402540be4009055613f43565b6000613e5d8484612826565b6009850154604080516370a0823160e01b81526001600160a01b038781166004830152915193945060009391909216916370a08231916024808301926020929190829003018186803b158015613eb257600080fd5b505afa158015613ec6573d6000803e3d6000fd5b505050506040513d6020811015613edc57600080fd5b50516007860154909150613f2590613ef8906110dd8685613284565b610eef6402540be4006110dd613f1b8a60070154896135db90919063ffffffff16565b6134a087896135db565b6001600160a01b0385166000908152600e8701602052604090205550505b506001600160a01b03166000908152600d9190910160205260409020429055565b6060613fb9826040518060400160405280602081526020017f5361666545524332303a206c6f772d6c6576656c2063616c6c206661696c6564815250856001600160a01b03166145b19092919063ffffffff16565b8051909150156109f857808060200190516020811015613fd857600080fd5b50516109f85760405162461bcd60e51b815260040180806020018281038252602a81526020018061481c602a913960400191505060405180910390fd5b81518151606091908114614070576040805162461bcd60e51b815260206004820152601f60248201527f42616c616e636573206d757374206d61746368206d756c7469706c6965727300604482015290519081900360640190fd5b60608167ffffffffffffffff8111801561408957600080fd5b506040519080825280602002602001820160405280156140b3578160200160208202803683370190505b50905060005b82811015614103576140e48582815181106140d057fe5b6020026020010151878381518110610fda57fe5b8282815181106140f057fe5b60209081029190910101526001016140b9565b50949350505050565b600a85015460009060ff868116908616141561416f576040805162461bcd60e51b815260206004820152601d60248201527f43616e277420636f6d7061726520746f6b656e20746f20697473656c66000000604482015290519081900360640190fd5b808660ff161080156141835750808560ff16105b6141cd576040805162461bcd60e51b8152602060048201526016602482015275151bdad95b9cc81b5d5cdd081899481a5b881c1bdbdb60521b604482015290519081900360640190fd5b60006141d8886132de565b905060006141e685836133d1565b9050806000806141f686866135db565b90506000805b8781101561426f578c60ff16811415614217578a9150614241565b8b60ff16811461423c5789818151811061422d57fe5b60200260200101519150614241565b614267565b61424b8483613284565b935061426461425a838a6135db565b610eef87896135db565b94505b6001016141fc565b5061428c61427d83896135db565b610eef60646110dd888a6135db565b935060006142a96142a284610eef8960646135db565b8590613284565b9050600086815b6101008110156143895790915081906142e36142d58a612b76876134a08760026135db565b610eef8a6134a086806135db565b91508173__MathUtils_____________________________6313a1ec759091856040518363ffffffff1660e01b8152600401808381526020018281526020019250505060206040518083038186803b15801561433e57600080fd5b505af4158015614352573d6000803e3d6000fd5b505050506040513d602081101561436857600080fd5b5051156143815750995061218598505050505050505050565b6001016142b0565b506040805162461bcd60e51b815260206004820152601e60248201527f417070726f78696d6174696f6e20646964206e6f7420636f6e76657267650000604482015290519081900360640190fd5b815160009060ff85168111614425576040805162461bcd60e51b815260206004820152600f60248201526e151bdad95b881b9bdd08199bdd5b99608a1b604482015290519081900360640190fd5b8260008061443389856135db565b905060005b8481101561449a578860ff1681146144925761447088828151811061445957fe5b60200260200101518461328490919063ffffffff16565b925061448f614485868a8481518110610fda57fe5b610eef868a6135db565b93505b600101614438565b506144b76144a882866135db565b610eef60646110dd878b6135db565b925060006144d46144cd83610eef8a60646135db565b8490613284565b9050600087815b61010081101561438957909150819061450e6145008b612b76876134a08760026135db565b610eef896134a086806135db565b91508173__MathUtils_____________________________6313a1ec759091856040518363ffffffff1660e01b8152600401808381526020018281526020019250505060206040518083038186803b15801561456957600080fd5b505af415801561457d573d6000803e3d6000fd5b505050506040513d602081101561459357600080fd5b5051156145a95750965061270a95505050505050565b6001016144db565b606061270a8484600085856145c5856146d7565b614616576040805162461bcd60e51b815260206004820152601d60248201527f416464726573733a2063616c6c20746f206e6f6e2d636f6e7472616374000000604482015290519081900360640190fd5b60006060866001600160a01b031685876040518082805190602001908083835b602083106146555780518252601f199092019160209182019101614636565b6001836020036101000a03801982511681845116808217855250505050505090500191505060006040518083038185875af1925050503d80600081146146b7576040519150601f19603f3d011682016040523d82523d6000602084013e6146bc565b606091505b50915091506146cc8282866146dd565b979650505050505050565b3b151590565b606083156146ec5750816113aa565b8251156146fc5782518084602001fd5b60405162461bcd60e51b815260206004820181815284516024840152845185939192839260440191908501908083836000831561379d578181015183820152602001613785565b6040518060800160405280600081526020016000815260200160008152602001600081525090565b8280548282559060005260206000209081019282156147a6579160200282015b828111156147a657825182559160200191906001019061478b565b506147b29291506147e5565b5090565b6040518060a0016040528060008152602001600081526020016000815260200160008152602001600081525090565b5b808211156147b257600081556001016147e656fe536166654d6174683a206d756c7469706c69636174696f6e206f766572666c6f775361666545524332303a204552433230206f7065726174696f6e20646964206e6f74207375636365656443616e6e6f74207769746864726177206d6f7265207468616e20617661696c61626c65a2646970667358221220775075ae969c511de7a4c6c49d120dbace069d36ea74d2c582c3fb557500233164736f6c634300060c0033","bytecodeSha1":"c805eb61687e418f26a3dedc7eedbb567008cc8a","compiler":{"evm_version":"istanbul","optimizer":{"enabled":true,"runs":200},"version":"0.6.12+commit.27d51765"},"contractName":"SwapUtils","deployedBytecode":"73000000000000000000000000000000000000000030146080604052600436106101ef5760003560e01c8063968e559411610119578063d4b0de2f116100ac578063e9252d461161007b578063e9252d4614610854578063f14e211e14610893578063f3de0362146108bd578063f967a81f146108c5576101ef565b8063d4b0de2f1461071b578063e4a9a0da14610795578063e7a4db81146107e9578063e8c47a5414610828576101ef565b8063c6d87dd5116100e8578063c6d87dd51461071b578063c9b64dcb14610740578063d011f9181461075d578063d2a3948714610765576101ef565b8063968e5594146106a6578063a5397b22146106d2578063ab3d85441461071b578063b0a14cfc14610723576101ef565b80634b23603c1161019157806371906c2c1161016057806371906c2c1461055f57806373fd6b3e1461057c5780637d048160146106535780638ab7697e14610676576101ef565b80634b23603c1461043e57806358fdd79b146104745780635e58579c146104aa578063704672761461052f576101ef565b806340370edf116101cd57806340370edf1461026757806341b91c261461031e5780634386c7ce146103d5578063467e186c1461040e576101ef565b80630296ab50146101f457806324c5c75114610212578063396984151461024d575b600080fd5b6101fc6108f7565b6040805160ff9092168252519081900360200190f35b81801561021e57600080fd5b5061024b6004803603604081101561023557600080fd5b50803590602001356001600160a01b03166108fc565b005b6102556109fd565b60408051918252519081900360200190f35b81801561027357600080fd5b506102556004803603606081101561028a57600080fd5b81359190810190604081016020820135600160201b8111156102ab57600080fd5b8201836020820111156102bd57600080fd5b803590602001918460208302840111600160201b831117156102de57600080fd5b9190808060200260200160405190810160405280939291908181526020018383602002808284376000920191909152509295505091359250610a04915050565b81801561032a57600080fd5b506102556004803603606081101561034157600080fd5b81359190810190604081016020820135600160201b81111561036257600080fd5b82018360208201111561037457600080fd5b803590602001918460208302840111600160201b8311171561039557600080fd5b91908080602002602001604051908101604052809392919081815260200183836020028082843760009201919091525092955050913592506113b1915050565b8180156103e157600080fd5b5061024b600480360360408110156103f857600080fd5b50803590602001356001600160a01b0316611b53565b81801561041a57600080fd5b5061024b6004803603604081101561043157600080fd5b5080359060200135611c09565b6102556004803603608081101561045457600080fd5b5080359060ff602082013581169160408101359091169060600135611c92565b81801561048057600080fd5b5061024b6004803603606081101561049757600080fd5b5080359060208101359060400135611caa565b610255600480360360808110156104c057600080fd5b8135916001600160a01b0360208201351691810190606081016040820135600160201b8111156104ef57600080fd5b82018360208201111561050157600080fd5b803590602001918460208302840111600160201b8311171561052257600080fd5b9193509150351515611f0b565b81801561053b57600080fd5b5061024b6004803603604081101561055257600080fd5b508035906020013561218e565b6102556004803603602081101561057557600080fd5b5035612218565b81801561058857600080fd5b506106036004803603606081101561059f57600080fd5b813591602081013591810190606081016040820135600160201b8111156105c557600080fd5b8201836020820111156105d757600080fd5b803590602001918460208302840111600160201b831117156105f857600080fd5b509092509050612362565b60408051602080825283518183015283519192839290830191858101910280838360005b8381101561063f578181015183820152602001610627565b505050509050019250505060405180910390f35b6102556004803603604081101561066957600080fd5b5080359060200135612712565b81801561068257600080fd5b5061024b6004803603604081101561069957600080fd5b508035906020013561279d565b610255600480360360408110156106bc57600080fd5b50803590602001356001600160a01b0316612826565b8180156106de57600080fd5b50610255600480360360a08110156106f557600080fd5b5080359060ff6020820135811691604081013590911690606081013590608001356128cd565b610255612c0f565b6102556004803603602081101561073957600080fd5b5035612c17565b6102556004803603602081101561075657600080fd5b5035612c22565b610255612c2d565b81801561077157600080fd5b5061024b6004803603604081101561078857600080fd5b5080359060200135612c32565b6107d0600480360360808110156107ab57600080fd5b5080359060208101356001600160a01b0316906040810135906060013560ff16612cbb565b6040805192835260208301919091528051918290030190f35b8180156107f557600080fd5b506102556004803603608081101561080c57600080fd5b5080359060208101359060ff6040820135169060600135612d45565b6102556004803603604081101561083e57600080fd5b50803590602001356001600160a01b0316613061565b81801561086057600080fd5b5061024b6004803603606081101561087757600080fd5b508035906001600160a01b036020820135169060400135613080565b81801561089f57600080fd5b5061024b600480360360208110156108b657600080fd5b503561308b565b610255613148565b610603600480360360608110156108db57600080fd5b508035906001600160a01b036020820135169060400135613151565b601281565b60005b600a8301548110156109f857600083600a01828154811061091c57fe5b6000918252602082200154600c860180546001600160a01b0390921693506109d2918590811061094857fe5b9060005260206000200154836001600160a01b03166370a08231306040518263ffffffff1660e01b815260040180826001600160a01b0316815260200191505060206040518083038186803b1580156109a057600080fd5b505afa1580156109b4573d6000803e3d6000fd5b505050506040513d60208110156109ca57600080fd5b50519061315e565b905080156109ee576109ee6001600160a01b03831685836131bb565b50506001016108ff565b505050565b620f424081565b600a830154825160009114610a60576040805162461bcd60e51b815260206004820181905260248201527f416d6f756e7473206d757374206d6174636820706f6f6c656420746f6b656e73604482015290519081900360640190fd5b600a84015460609067ffffffffffffffff81118015610a7e57600080fd5b50604051908082528060200260200182016040528015610aa8578160200160208202803683370190505b50905060008560090160009054906101000a90046001600160a01b03166001600160a01b03166318160ddd6040518163ffffffff1660e01b815260040160206040518083038186803b158015610afd57600080fd5b505afa158015610b11573d6000803e3d6000fd5b505050506040513d6020811015610b2757600080fd5b50519050610b33614743565b60405180608001604052806000815260200160008152602001600081526020016000815250905081600014610b6e57610b6b8761320d565b81525b606087600c01805480602002602001604051908101604052809291908181526020018280548015610bbe57602002820191906000526020600020905b815481526020019060010190808311610baa575b5050505050905060005b600a890154811015610e145783151580610bf557506000888281518110610beb57fe5b6020026020010151115b610c46576040805162461bcd60e51b815260206004820152601e60248201527f4d75737420737570706c7920616c6c20746f6b656e7320696e20706f6f6c0000604482015290519081900360640190fd5b878181518110610c5257fe5b6020026020010151600014610db657600089600a018281548110610c7257fe5b60009182526020918290200154604080516370a0823160e01b815230600482015290516001600160a01b03909216926370a0823192602480840193829003018186803b158015610cc157600080fd5b505afa158015610cd5573d6000803e3d6000fd5b505050506040513d6020811015610ceb57600080fd5b50518951909150610d3a90339030908c9086908110610d0657fe5b60200260200101518d600a018681548110610d1d57fe5b6000918252602090912001546001600160a01b0316929190613224565b610d9c818b600a018481548110610d4d57fe5b60009182526020918290200154604080516370a0823160e01b815230600482015290516001600160a01b03909216926370a0823192602480840193829003018186803b1580156109a057600080fd5b898381518110610da857fe5b602002602001018181525050505b610df5888281518110610dc557fe5b60200260200101518a600c018381548110610ddc57fe5b906000526020600020015461328490919063ffffffff16565b828281518110610e0157fe5b6020908102919091010152600101610bc8565b50610e1e886132de565b6060830152610e3a610e308983613373565b83606001516133d1565b60208301819052825110610e89576040805162461bcd60e51b8152602060048201526011602482015270442073686f756c6420696e63726561736560781b604482015290519081900360640190fd5b602082015160408301528215611095576000610ea4896135ae565b905060005b600a8a0154811015611072576000610ef58560000151610eef8d600c018581548110610ed157fe5b906000526020600020015488602001516135db90919063ffffffff16565b90613634565b9050610fa26402540be400610eef8373__$5dc460cc747dc4210092f6da12cdb25a64$__63a95cb7f79091898881518110610f2c57fe5b60200260200101516040518363ffffffff1660e01b8152600401808381526020018281526020019250505060206040518083038186803b158015610f6f57600080fd5b505af4158015610f83573d6000803e3d6000fd5b505050506040513d6020811015610f9957600080fd5b505186906135db565b878381518110610fae57fe5b602002602001018181525050611012610ff06402540be400610eef8e600501548b8781518110610fda57fe5b60200260200101516135db90919063ffffffff16565b858481518110610ffc57fe5b602002602001015161315e90919063ffffffff16565b8b600c01838154811061102157fe5b906000526020600020018190555061105287838151811061103e57fe5b6020026020010151858481518110610ffc57fe5b84838151811061105e57fe5b602090810291909101015250600101610ea9565b5061108a6110808a84613373565b84606001516133d1565b6040840152506110ac565b80516110aa90600c8a0190602084019061476b565b505b60008080856110c157846020015192506110e6565b845160408601516110e39190610eef9089906110dd908461315e565b906135db565b92505b8883101561113b576040805162461bcd60e51b815260206004820152601b60248201527f436f756c646e2774206d696e74206d696e207265717565737465640000000000604482015290519081900360640190fd5b60068b01546111b65760098b0154604080516340c10f1960e01b81523360048201526024810186905290516001600160a01b03909216916340c10f199160448082019260009290919082900301818387803b15801561119957600080fd5b505af11580156111ad573d6000803e3d6000fd5b505050506112c5565b6111d66402540be400610eef8d60060154866135db90919063ffffffff16565b91506111e2838361315e565b60098c015460088d0154604080516340c10f1960e01b81526001600160a01b0392831660048201526024810187905290519394509116916340c10f199160448082019260009290919082900301818387803b15801561124057600080fd5b505af1158015611254573d6000803e3d6000fd5b50505060098c0154604080516340c10f1960e01b81523360048201526024810185905290516001600160a01b0390921692506340c10f1991604480830192600092919082900301818387803b1580156112ac57600080fd5b505af11580156112c0573d6000803e3d6000fd5b505050505b336001600160a01b03167f189c623b666b1b45b83d7178f39b8c087cb09774317ca2f53c2d3c3726f222a28b898860200151878b01604051808060200180602001858152602001848152602001838103835287818151815260200191508051906020019060200280838360005b8381101561134a578181015183820152602001611332565b50505050905001838103825286818151815260200191508051906020019060200280838360005b83811015611389578181015183820152602001611371565b50505050905001965050505050505060405180910390a25090955050505050505b9392505050565b600a83015482516000911461140d576040805162461bcd60e51b815260206004820181905260248201527f416d6f756e74732073686f756c64206d6174636820706f6f6c20746f6b656e73604482015290519081900360640190fd5b6009840154604080516370a0823160e01b815233600482015290516001600160a01b03909216916370a0823191602480820192602092909190829003018186803b15801561145a57600080fd5b505afa15801561146e573d6000803e3d6000fd5b505050506040513d602081101561148457600080fd5b5051821180159061149457508115155b6114d5576040805162461bcd60e51b815260206004820152600d60248201526c1f2628173130b630b731b2a7b360991b604482015290519081900360640190fd5b6114dd614743565b60405180608001604052806000815260200160008152602001600081526020016000815250905060008560090160009054906101000a90046001600160a01b03166001600160a01b03166318160ddd6040518163ffffffff1660e01b815260040160206040518083038186803b15801561155657600080fd5b505afa15801561156a573d6000803e3d6000fd5b505050506040513d602081101561158057600080fd5b50519050600061158f876135ae565b9050606087600c018054806020026020016040519081016040528092919081815260200182805480156115e157602002820191906000526020600020905b8154815260200190600101908083116115cd575b505050505090506115f1886132de565b606085015261160c6116028961369b565b85606001516133d1565b845260005b600a89015481101561168f5761167088828151811061162c57fe5b60200260200101516040518060600160405280602381526020016148466023913984848151811061165957fe5b60200260200101516137499092919063ffffffff16565b82828151811061167c57fe5b6020908102919091010152600101611611565b5061169d6116028983613373565b6020850152600a88015460609067ffffffffffffffff811180156116c057600080fd5b506040519080825280602002602001820160405280156116ea578160200160208202803683370190505b50905060005b600a8a015481101561188c5760006117368760000151610eef8d600c01858154811061171857fe5b90600052602060002001548a602001516135db90919063ffffffff16565b905060008173__$5dc460cc747dc4210092f6da12cdb25a64$__63a95cb7f7909187868151811061176357fe5b60200260200101516040518363ffffffff1660e01b8152600401808381526020018281526020019250505060206040518083038186803b1580156117a657600080fd5b505af41580156117ba573d6000803e3d6000fd5b505050506040513d60208110156117d057600080fd5b505190506117e76402540be400610eef88846135db565b8484815181106117f357fe5b60200260200101818152505061182b61181f6402540be400610eef8f60050154888881518110610fda57fe5b868581518110610ffc57fe5b8c600c01848154811061183a57fe5b906000526020600020018190555061186b84848151811061185757fe5b6020026020010151868581518110610ffc57fe5b85848151811061187757fe5b602090810291909101015250506001016116f0565b506118a461189a8a84613373565b86606001516133d1565b6040860181905285516000916118c69190610eef9088906110dd90849061315e565b90508061191a576040805162461bcd60e51b815260206004820152601b60248201527f4275726e7420616d6f756e742063616e6e6f74206265207a65726f0000000000604482015290519081900360640190fd5b61194a61193661192a8c33612826565b6402540be4009061315e565b610eef6402540be4006110dd856001613284565b9050878111156119a1576040805162461bcd60e51b815260206004820152601b60248201527f746f6b656e416d6f756e74203e206d61784275726e416d6f756e740000000000604482015290519081900360640190fd5b60098a01546040805163079cc67960e41b81523360048201526024810184905290516001600160a01b03909216916379cc67909160448082019260009290919082900301818387803b1580156119f657600080fd5b505af1158015611a0a573d6000803e3d6000fd5b5050505060005b600a8b0154811015611a6857611a60338b8381518110611a2d57fe5b60200260200101518d600a018481548110611a4457fe5b6000918252602090912001546001600160a01b031691906131bb565b600101611a11565b50602086015133907f3631c28b1f9dd213e0319fb167b554d76b6c283a41143eb400a0d1adb1af1755908b908590611aa08a8761315e565b604051808060200180602001858152602001848152602001838103835287818151815260200191508051906020019060200280838360005b83811015611af0578181015183820152602001611ad8565b50505050905001838103825286818151815260200191508051906020019060200280838360005b83811015611b2f578181015183820152602001611b17565b50505050905001965050505050505060405180910390a29998505050505050505050565b60088201546001600160a01b03163314611ba0576040805162461bcd60e51b81526020600482015260096024820152686465763a207775743f60b81b604482015290519081900360640190fd5b33611be4576040805162461bcd60e51b815260206004820152600f60248201526e696e76616c6964206164647265737360881b604482015290519081900360640190fd5b60089190910180546001600160a01b0319166001600160a01b03909216919091179055565b6305f5e100811115611c54576040805162461bcd60e51b815260206004820152600f60248201526e08ccaca40d2e640e8dede40d0d2ced608b1b604482015290519081900360640190fd5b600482018190556040805182815290517fd88ea5155021c6f8dafa1a741e173f595cdf77ce7c17d43342131d7f06afdfe59181900360200190a15050565b6000611ca0858585856137e0565b5095945050505050565b6002830154611cbc9062015180613284565b421015611d10576040805162461bcd60e51b815260206004820152601f60248201527f57616974203120646179206265666f7265207374617274696e672072616d7000604482015290519081900360640190fd5b611d1d4262127500613284565b811015611d6a576040805162461bcd60e51b8152602060048201526016602482015275496e73756666696369656e742072616d702074696d6560501b604482015290519081900360640190fd5b600082118015611d7c5750620f424082105b611dcd576040805162461bcd60e51b815260206004820181905260248201527f667574757265415f206d757374206265203e203020616e64203c204d41585f41604482015290519081900360640190fd5b6000611dd8846132de565b90506000611de78460646135db565b905081811015611e4d5781611dfd8260026135db565b1015611e48576040805162461bcd60e51b8152602060048201526015602482015274199d5d1d5c995057c81a5cc81d1bdbc81cdb585b1b605a1b604482015290519081900360640190fd5b611ea4565b611e588260026135db565b811115611ea4576040805162461bcd60e51b8152602060048201526015602482015274667574757265415f20697320746f6f206c6172676560581b604482015290519081900360640190fd5b8185556001850181905542600286018190556003860184905560408051848152602081018490528082019290925260608201859052517fa2b71ec6df949300b59aab36b55e189697b750119dd349fcfa8c0f779e83c2549181900360800190a15050505050565b600a85015460009081611f1d886132de565b90506000611f86611f808a8b600c01805480602002602001604051908101604052809291908181526020018280548015611f7657602002820191906000526020600020905b815481526020019060010190808311611f62575b5050505050613373565b836133d1565b9050606089600c01805480602002602001604051908101604052809291908181526020018280548015611fd857602002820191906000526020600020905b815481526020019060010190808311611fc4575b5050505050905060005b848110156120a157861561204557612028898983818110611fff57fe5b9050602002013583838151811061201257fe5b602002602001015161328490919063ffffffff16565b82828151811061203457fe5b602002602001018181525050612099565b61208089898381811061205457fe5b905060200201356040518060600160405280602381526020016148466023913984848151811061165957fe5b82828151811061208c57fe5b6020026020010181815250505b600101611fe2565b5060006120b76120b18c84613373565b856133d1565b905060008b60090160009054906101000a90046001600160a01b03166001600160a01b03166318160ddd6040518163ffffffff1660e01b815260040160206040518083038186803b15801561210b57600080fd5b505afa15801561211f573d6000803e3d6000fd5b505050506040513d602081101561213557600080fd5b50519050871561215e5761215184610eef836110dd868461315e565b9650505050505050612185565b61215161216e61192a8e8e612826565b610eef6402540be4006110dd88838783838b61315e565b95945050505050565b6402540be4008111156121da576040805162461bcd60e51b815260206004820152600f60248201526e08ccaca40d2e640e8dede40d0d2ced608b1b604482015290519081900360640190fd5b600582018190556040805182815290517fab599d640ca80cde2b09b128a4154a8dfe608cb80f4c9399c8b954b01fd35f389181900360200190a15050565b6000806122356122278461369b565b612230856132de565b6133d1565b905060008360090160009054906101000a90046001600160a01b03166001600160a01b03166318160ddd6040518163ffffffff1660e01b815260040160206040518083038186803b15801561228957600080fd5b505afa15801561229d573d6000803e3d6000fd5b505050506040513d60208110156122b357600080fd5b5051905080156123565761234d81610eef8660090160009054906101000a90046001600160a01b03166001600160a01b031663313ce5676040518163ffffffff1660e01b815260040160206040518083038186803b15801561231457600080fd5b505afa158015612328573d6000803e3d6000fd5b505050506040513d602081101561233e57600080fd5b5051859060ff16600a0a6135db565b9250505061235d565b6000925050505b919050565b6009840154604080516370a0823160e01b815233600482015290516060926001600160a01b0316916370a08231916024808301926020929190829003018186803b1580156123af57600080fd5b505afa1580156123c3573d6000803e3d6000fd5b505050506040513d60208110156123d957600080fd5b505184111561241f576040805162461bcd60e51b815260206004820152600d60248201526c1f2628173130b630b731b2a7b360991b604482015290519081900360640190fd5b600a8501548214612477576040805162461bcd60e51b815260206004820181905260248201527f6d696e416d6f756e7473206d757374206d6174636820706f6f6c546f6b656e73604482015290519081900360640190fd5b6060612484863387613925565b905060005b81518110156125975784848281811061249e57fe5b905060200201358282815181106124b157fe5b6020026020010151101561250c576040805162461bcd60e51b815260206004820152601a60248201527f616d6f756e74735b695d203c206d696e416d6f756e74735b695d000000000000604482015290519081900360640190fd5b61254b82828151811061251b57fe5b602002602001015188600c01838154811061253257fe5b906000526020600020015461315e90919063ffffffff16565b87600c01828154811061255a57fe5b906000526020600020018190555061258f3383838151811061257857fe5b602002602001015189600a018481548110611a4457fe5b600101612489565b5060098601546040805163079cc67960e41b81523360048201526024810188905290516001600160a01b03909216916379cc67909160448082019260009290919082900301818387803b1580156125ed57600080fd5b505af1158015612601573d6000803e3d6000fd5b50505050336001600160a01b03167f88d38ed598fdd809c2bf01ee49cd24b7fdabf379a83d29567952b60324d58cef828860090160009054906101000a90046001600160a01b03166001600160a01b03166318160ddd6040518163ffffffff1660e01b815260040160206040518083038186803b15801561268157600080fd5b505afa158015612695573d6000803e3d6000fd5b505050506040513d60208110156126ab57600080fd5b50516040805160208181018490528282528451928201929092528351909182916060830191868101910280838360005b838110156126f35781810151838201526020016126db565b50505050905001935050505060405180910390a290505b949350505050565b600a8201546000908210612768576040805162461bcd60e51b8152602060048201526018602482015277546f6b656e20696e646578206f7574206f662072616e676560401b604482015290519081900360640190fd5b61279483600c01838154811061277a57fe5b906000526020600020015484600a018481548110610d4d57fe5b90505b92915050565b6305f5e1008111156127e8576040805162461bcd60e51b815260206004820152600f60248201526e08ccaca40d2e640e8dede40d0d2ced608b1b604482015290519081900360640190fd5b600782018190556040805182815290517fd5fe46099fa396290a7f57e36c3c3c8774e2562c18ed5d1dcc0fa75071e03f1d9181900360200190a15050565b6001600160a01b0381166000908152600d830160205260408120548190612850906224ea00613284565b9050428111156128c3576000612866824261315e565b90506128ba6402540be400610eef6224ea00610eef856110dd8b600e0160008c6001600160a01b03166001600160a01b03168152602001908152602001600020548c600701546135db90919063ffffffff16565b92505050612797565b5060009392505050565b600085600a018560ff16815481106128e157fe5b60009182526020918290200154604080516370a0823160e01b815233600482015290516001600160a01b03909216926370a0823192602480840193829003018186803b15801561293057600080fd5b505afa158015612944573d6000803e3d6000fd5b505050506040513d602081101561295a57600080fd5b50518311156129b0576040805162461bcd60e51b815260206004820152601d60248201527f43616e6e6f742073776170206d6f7265207468616e20796f75206f776e000000604482015290519081900360640190fd5b600086600a018660ff16815481106129c457fe5b60009182526020918290200154604080516370a0823160e01b815230600482015290516001600160a01b03909216926370a0823192602480840193829003018186803b158015612a1357600080fd5b505afa158015612a27573d6000803e3d6000fd5b505050506040513d6020811015612a3d57600080fd5b5051600a88018054919250612a60913391309188919060ff8c16908110610d1d57fe5b6000612a788289600a018960ff1681548110610d4d57fe5b9050600080612a898a8a8a866137e0565b9150915085821015612ae2576040805162461bcd60e51b815260206004820181905260248201527f53776170206469646e277420726573756c7420696e206d696e20746f6b656e73604482015290519081900360640190fd5b6000612b248b600b018a60ff1681548110612af957fe5b9060005260206000200154610eef6402540be400610eef8f60050154876135db90919063ffffffff16565b9050612b3c848c600c018c60ff1681548110610ddc57fe5b8b600c018b60ff1681548110612b4e57fe5b9060005260206000200181905550612b7c81612b76858e600c018d60ff168154811061253257fe5b9061315e565b8b600c018a60ff1681548110612b8e57fe5b9060005260206000200181905550612bb333848d600a018c60ff1681548110611a4457fe5b604080518581526020810185905260ff808d16828401528b166060820152905133917fc6c1e0630dbe9130cc068028486c0d118ddcea348550819defd5cb8c257f8a38919081900360800190a250909998505050505050505050565b6305f5e10081565b600061279782613ab2565b6000612797826132de565b606481565b6305f5e100811115612c7d576040805162461bcd60e51b815260206004820152600f60248201526e08ccaca40d2e640e8dede40d0d2ced608b1b604482015290519081900360640190fd5b600682018190556040805182815290517f5237b692334926d9ab50f9d1ac513fe7e153f0cd81dd7c55a09d281d2985d8089181900360200190a15050565b600080600080612ccc888688613ac2565b80925081935050506000612d1583612b768b600b018960ff1681548110612cef57fe5b9060005260206000200154610eef86612d078f61369b565b8c60ff1681518110610ffc57fe5b9050612d376402540be400610eef612d3061192a8d8d612826565b86906135db565b999098509650505050505050565b6000808560090160009054906101000a90046001600160a01b03166001600160a01b03166318160ddd6040518163ffffffff1660e01b815260040160206040518083038186803b158015612d9857600080fd5b505afa158015612dac573d6000803e3d6000fd5b505050506040513d6020811015612dc257600080fd5b5051600a8701546009880154604080516370a0823160e01b8152336004820152905193945091926001600160a01b03909116916370a08231916024808301926020929190829003018186803b158015612e1a57600080fd5b505afa158015612e2e573d6000803e3d6000fd5b505050506040513d6020811015612e4457600080fd5b5051861115612e8a576040805162461bcd60e51b815260206004820152600d60248201526c1f2628173130b630b731b2a7b360991b604482015290519081900360640190fd5b808560ff1610612ed3576040805162461bcd60e51b815260206004820152600f60248201526e151bdad95b881b9bdd08199bdd5b99608a1b604482015290519081900360640190fd5b600080612ee289338a8a612cbb565b9250905085811015612f2c576040805162461bcd60e51b815260206004820152600e60248201526d191e480f081b5a5b905b5bdd5b9d60921b604482015290519081900360640190fd5b612f6b612f59612f526402540be400610eef8d60050154876135db90919063ffffffff16565b8390613284565b8a600c018960ff168154811061253257fe5b89600c018860ff1681548110612f7d57fe5b600091825260208220019190915560098a01546040805163079cc67960e41b8152336004820152602481018c905290516001600160a01b03909216926379cc67909260448084019382900301818387803b158015612fda57600080fd5b505af1158015612fee573d6000803e3d6000fd5b5050505061300933828b600a018a60ff1681548110611a4457fe5b604080518981526020810186905260ff89168183015260608101839052905133917f43fb02998f4e03da2e0e6fff53fdbf0c40a9f45f145dc377fc30615d7d7a8a64919081900360800190a298975050505050505050565b6001600160a01b03166000908152600d91909101602052604090205490565b6109f8838383613e0e565b428160030154116130e3576040805162461bcd60e51b815260206004820152601760248201527f52616d7020697320616c72656164792073746f70706564000000000000000000604482015290519081900360640190fd5b60006130ee826132de565b8083556001830181905542600284018190556003840181905560408051838152602081019290925280519293507f46e22fb3709ad289f62ce63d469248536dbc78d82b84a3d7e74ad606dc20193892918290030190a15050565b6402540be40081565b606061270a848484613925565b6000828211156131b5576040805162461bcd60e51b815260206004820152601e60248201527f536166654d6174683a207375627472616374696f6e206f766572666c6f770000604482015290519081900360640190fd5b50900390565b604080516001600160a01b038416602482015260448082018490528251808303909101815260649091019091526020810180516001600160e01b031663a9059cbb60e01b1790526109f8908490613f64565b600061279761321b8361369b565b612230846132de565b604080516001600160a01b0380861660248301528416604482015260648082018490528251808303909101815260849091019091526020810180516001600160e01b03166323b872dd60e01b17905261327e908590613f64565b50505050565b600082820183811015612794576040805162461bcd60e51b815260206004820152601b60248201527f536166654d6174683a206164646974696f6e206f766572666c6f770000000000604482015290519081900360640190fd5b60038101546001820154600091904282111561336a57600284015484548083111561333c5761333161332a613313868561315e565b610eef613320428761315e565b6110dd888761315e565b8290613284565b94505050505061235d565b61333161336361334c868561315e565b610eef613359428761315e565b6110dd868961315e565b829061315e565b915061235d9050565b60606127948284600b018054806020026020016040519081016040528092919081815260200182805480156133c757602002820191906000526020600020905b8154815260200190600101908083116133b3575b5050505050614015565b815160009081805b82811015613411576134078682815181106133f057fe5b60200260200101518361328490919063ffffffff16565b91506001016133d9565b508061342257600092505050612797565b6000818161343087866135db565b905060005b61010081101561356a578260005b878110156134725761346861345e898d8481518110610fda57fe5b610eef84886135db565b9150600101613443565b5092935083926134c66134a661348d836110dd8b6001613284565b6134a06064610eef896110dd8a8461315e565b90613284565b610eef866110dd6134b7868d6135db565b6134a06064610eef8b8f6135db565b93508373__$5dc460cc747dc4210092f6da12cdb25a64$__6313a1ec759091876040518363ffffffff1660e01b8152600401808381526020018281526020019250505060206040518083038186803b15801561352157600080fd5b505af4158015613535573d6000803e3d6000fd5b505050506040513d602081101561354b57600080fd5b5051156135615783975050505050505050612797565b50600101613435565b506040805162461bcd60e51b81526020600482015260136024820152724420646f6573206e6f7420636f6e766572676560681b604482015290519081900360640190fd5b600a810154600090612797906135cc906004906110dd90600161315e565b600a8401546004850154610eef915b6000826135ea57506000612797565b828202828482816135f757fe5b04146127945760405162461bcd60e51b81526004018080602001828103825260218152602001806147fb6021913960400191505060405180910390fd5b600080821161368a576040805162461bcd60e51b815260206004820152601a60248201527f536166654d6174683a206469766973696f6e206279207a65726f000000000000604482015290519081900360640190fd5b81838161369357fe5b049392505050565b606061279782600c018054806020026020016040519081016040528092919081815260200182805480156136ee57602002820191906000526020600020905b8154815260200190600101908083116136da575b505050505083600b018054806020026020016040519081016040528092919081815260200182805480156133c757602002820191906000526020600020908154815260200190600101908083116133b3575050505050614015565b600081848411156137d85760405162461bcd60e51b81526004018080602001828103825283818151815260200191508051906020019080838360005b8381101561379d578181015183820152602001613785565b50505050905090810190601f1680156137ca5780820380516001836020036101000a031916815260200191505b509250505060405180910390fd5b505050900390565b60008060606137ee8761369b565b905080518660ff16108015613806575080518560ff16105b613852576040805162461bcd60e51b8152602060048201526018602482015277546f6b656e20696e646578206f7574206f662072616e676560401b604482015290519081900360640190fd5b600061389d828860ff168151811061386657fe5b60200260200101516134a08a600b018a60ff168154811061388357fe5b9060005260206000200154886135db90919063ffffffff16565b905060006138ae898989858761410c565b90506138c86001612b7683868b60ff1681518110610ffc57fe5b94506138ea6402540be400610eef8b60040154886135db90919063ffffffff16565b935061391789600b018860ff168154811061390157fe5b600091825260209091200154610eef878761315e565b945050505094509492505050565b606060008460090160009054906101000a90046001600160a01b03166001600160a01b03166318160ddd6040518163ffffffff1660e01b815260040160206040518083038186803b15801561397957600080fd5b505afa15801561398d573d6000803e3d6000fd5b505050506040513d60208110156139a357600080fd5b50519050808311156139fc576040805162461bcd60e51b815260206004820152601a60248201527f43616e6e6f742065786365656420746f74616c20737570706c79000000000000604482015290519081900360640190fd5b600a850154839060609067ffffffffffffffff81118015613a1c57600080fd5b50604051908082528060200260200182016040528015613a46578160200160208202803683370190505b50905060005b600a880154811015613aa757613a8884610eef858b600c018581548110613a6f57fe5b90600052602060002001546135db90919063ffffffff16565b828281518110613a9457fe5b6020908102919091010152600101613a4c565b509695505050505050565b60006127976064610eef846132de565b600a830154600090819060ff851610613b1d576040805162461bcd60e51b8152602060048201526018602482015277546f6b656e20696e646578206f7574206f662072616e676560401b604482015290519081900360640190fd5b6060613b288661369b565b9050613b326147b6565b6040518060a001604052806000815260200160008152602001600081526020016000815260200160008152509050613b69876132de565b60808201819052613b7b9083906133d1565b81526009870154604080516318160ddd60e01b81529051613c0d92613c05926001600160a01b03909116916318160ddd91600480820192602092909190829003018186803b158015613bcc57600080fd5b505afa158015613be0573d6000803e3d6000fd5b505050506040513d6020811015613bf657600080fd5b50518351610eef9089906135db565b82519061315e565b60208201528151829060ff8816908110613c2357fe5b6020026020010151851115613c7f576040805162461bcd60e51b815260206004820152601a60248201527f5769746864726177206578636565647320617661696c61626c65000000000000604482015290519081900360640190fd5b613c938160800151878484602001516143d7565b6040820152815160609067ffffffffffffffff81118015613cb357600080fd5b50604051908082528060200260200182016040528015613cdd578160200160208202803683370190505b509050613ce9886135ae565b606083015260005b600a890154811015613da0576000848281518110613d0b57fe5b60200260200101519050613d806133636402540be400610eef87606001518d60ff168714613d5957885160208a0151613d5491613d4d91610eef908a906135db565b879061315e565b6110dd565b6110dd8960400151612b768b60000151610eef8d602001518b6135db90919063ffffffff16565b838381518110613d8c57fe5b602090810291909101015250600101613cf1565b506000613dc9613dba84608001518a8587602001516143d7565b838a60ff1681518110610ffc57fe5b9050613df789600b018960ff1681548110613de057fe5b600091825260209091200154610eef83600161315e565b604090930151929550919350505050935093915050565b6001600160a01b038216613e21576109f8565b6007830154613e51576001600160a01b0382166000908152600e8401602052604090206402540be4009055613f43565b6000613e5d8484612826565b6009850154604080516370a0823160e01b81526001600160a01b038781166004830152915193945060009391909216916370a08231916024808301926020929190829003018186803b158015613eb257600080fd5b505afa158015613ec6573d6000803e3d6000fd5b505050506040513d6020811015613edc57600080fd5b50516007860154909150613f2590613ef8906110dd8685613284565b610eef6402540be4006110dd613f1b8a60070154896135db90919063ffffffff16565b6134a087896135db565b6001600160a01b0385166000908152600e8701602052604090205550505b506001600160a01b03166000908152600d9190910160205260409020429055565b6060613fb9826040518060400160405280602081526020017f5361666545524332303a206c6f772d6c6576656c2063616c6c206661696c6564815250856001600160a01b03166145b19092919063ffffffff16565b8051909150156109f857808060200190516020811015613fd857600080fd5b50516109f85760405162461bcd60e51b815260040180806020018281038252602a81526020018061481c602a913960400191505060405180910390fd5b81518151606091908114614070576040805162461bcd60e51b815260206004820152601f60248201527f42616c616e636573206d757374206d61746368206d756c7469706c6965727300604482015290519081900360640190fd5b60608167ffffffffffffffff8111801561408957600080fd5b506040519080825280602002602001820160405280156140b3578160200160208202803683370190505b50905060005b82811015614103576140e48582815181106140d057fe5b6020026020010151878381518110610fda57fe5b8282815181106140f057fe5b60209081029190910101526001016140b9565b50949350505050565b600a85015460009060ff868116908616141561416f576040805162461bcd60e51b815260206004820152601d60248201527f43616e277420636f6d7061726520746f6b656e20746f20697473656c66000000604482015290519081900360640190fd5b808660ff161080156141835750808560ff16105b6141cd576040805162461bcd60e51b8152602060048201526016602482015275151bdad95b9cc81b5d5cdd081899481a5b881c1bdbdb60521b604482015290519081900360640190fd5b60006141d8886132de565b905060006141e685836133d1565b9050806000806141f686866135db565b90506000805b8781101561426f578c60ff16811415614217578a9150614241565b8b60ff16811461423c5789818151811061422d57fe5b60200260200101519150614241565b614267565b61424b8483613284565b935061426461425a838a6135db565b610eef87896135db565b94505b6001016141fc565b5061428c61427d83896135db565b610eef60646110dd888a6135db565b935060006142a96142a284610eef8960646135db565b8590613284565b9050600086815b6101008110156143895790915081906142e36142d58a612b76876134a08760026135db565b610eef8a6134a086806135db565b91508173__$5dc460cc747dc4210092f6da12cdb25a64$__6313a1ec759091856040518363ffffffff1660e01b8152600401808381526020018281526020019250505060206040518083038186803b15801561433e57600080fd5b505af4158015614352573d6000803e3d6000fd5b505050506040513d602081101561436857600080fd5b5051156143815750995061218598505050505050505050565b6001016142b0565b506040805162461bcd60e51b815260206004820152601e60248201527f417070726f78696d6174696f6e20646964206e6f7420636f6e76657267650000604482015290519081900360640190fd5b815160009060ff85168111614425576040805162461bcd60e51b815260206004820152600f60248201526e151bdad95b881b9bdd08199bdd5b99608a1b604482015290519081900360640190fd5b8260008061443389856135db565b905060005b8481101561449a578860ff1681146144925761447088828151811061445957fe5b60200260200101518461328490919063ffffffff16565b925061448f614485868a8481518110610fda57fe5b610eef868a6135db565b93505b600101614438565b506144b76144a882866135db565b610eef60646110dd878b6135db565b925060006144d46144cd83610eef8a60646135db565b8490613284565b9050600087815b61010081101561438957909150819061450e6145008b612b76876134a08760026135db565b610eef896134a086806135db565b91508173__$5dc460cc747dc4210092f6da12cdb25a64$__6313a1ec759091856040518363ffffffff1660e01b8152600401808381526020018281526020019250505060206040518083038186803b15801561456957600080fd5b505af415801561457d573d6000803e3d6000fd5b505050506040513d602081101561459357600080fd5b5051156145a95750965061270a95505050505050565b6001016144db565b606061270a8484600085856145c5856146d7565b614616576040805162461bcd60e51b815260206004820152601d60248201527f416464726573733a2063616c6c20746f206e6f6e2d636f6e7472616374000000604482015290519081900360640190fd5b60006060866001600160a01b031685876040518082805190602001908083835b602083106146555780518252601f199092019160209182019101614636565b6001836020036101000a03801982511681845116808217855250505050505090500191505060006040518083038185875af1925050503d80600081146146b7576040519150601f19603f3d011682016040523d82523d6000602084013e6146bc565b606091505b50915091506146cc8282866146dd565b979650505050505050565b3b151590565b606083156146ec5750816113aa565b8251156146fc5782518084602001fd5b60405162461bcd60e51b815260206004820181815284516024840152845185939192839260440191908501908083836000831561379d578181015183820152602001613785565b6040518060800160405280600081526020016000815260200160008152602001600081525090565b8280548282559060005260206000209081019282156147a6579160200282015b828111156147a657825182559160200191906001019061478b565b506147b29291506147e5565b5090565b6040518060a0016040528060008152602001600081526020016000815260200160008152602001600081525090565b5b808211156147b257600081556001016147e656fe536166654d6174683a206d756c7469706c69636174696f6e206f766572666c6f775361666545524332303a204552433230206f7065726174696f6e20646964206e6f74207375636365656443616e6e6f74207769746864726177206d6f7265207468616e20617661696c61626c65a2646970667358221220775075ae969c511de7a4c6c49d120dbace069d36ea74d2c582c3fb557500233164736f6c634300060c0033","language":"Solidity","natspec":{"details":"Contracts relying on this library must initialize SwapUtils.Swap struct then use this library for SwapUtils.Swap struct. Note that this library contains both functions called by users and admins. Admin functions should be protected within contracts using this library.","kind":"dev","methods":{"addLiquidity(SwapUtils.Swap storage,uint256[],uint256)":{"notice":"Add liquidity to the pool","params":{"amounts":"the amounts of each token to add, in their native precision","minToMint":"the minimum LP tokens adding this amount of liquidity should mint, otherwise revert. Handy for front-running mitigation","self":"Swap struct to read from and write to"},"returns":{"_0":"amount of LP token user received"}},"calculateCurrentWithdrawFee(SwapUtils.Swap storage,address)":{"notice":"Calculate the fee that is applied when the given user withdraws. Withdraw fee decays linearly over 4 weeks.","params":{"user":"address you want to calculate withdraw fee of"},"returns":{"_0":"current withdraw fee of the user"}},"calculateRemoveLiquidity(SwapUtils.Swap storage,address,uint256)":{"notice":"A simple method to calculate amount of each underlying tokens that is returned upon burning given amount of LP tokens","params":{"account":"the address that is removing liquidity. required for withdraw fee calculation","amount":"the amount of LP tokens that would to be burned on withdrawal"},"returns":{"_0":"array of amounts of tokens user will receive"}},"calculateSwap(SwapUtils.Swap storage,uint8,uint8,uint256)":{"notice":"Externally calculates a swap between two tokens.","params":{"dx":"the number of tokens to sell. If the token charges a fee on transfers, use the amount that gets transferred after the fee.","self":"Swap struct to read from","tokenIndexFrom":"the token to sell","tokenIndexTo":"the token to buy"},"returns":{"dy":"the number of tokens the user will get"}},"calculateTokenAmount(SwapUtils.Swap storage,address,uint256[],bool)":{"details":"This shouldn't be used outside frontends for user estimates.","notice":"A simple method to calculate prices from deposits or withdrawals, excluding fees but including slippage. This is helpful as an input into the various \"min\" parameters on calls to fight front-running","params":{"account":"address of the account depositing or withdrawing tokens","amounts":"an array of token amounts to deposit or withdrawal, corresponding to pooledTokens. The amount should be in each pooled token's native precision. If a token charges a fee on transfers, use the amount that gets transferred after the fee.","deposit":"whether this is a deposit or a withdrawal","self":"Swap struct to read from"},"returns":{"_0":"if deposit was true, total amount of lp token that will be minted and if deposit was false, total amount of lp token that will be burned"}},"calculateWithdrawOneToken(SwapUtils.Swap storage,address,uint256,uint8)":{"notice":"Calculate the dy, the amount of selected token that user receives and the fee of withdrawing in one token","params":{"account":"the address that is withdrawing","self":"Swap struct to read from","tokenAmount":"the amount to withdraw in the pool's precision","tokenIndex":"which token will be withdrawn"},"returns":{"_0":"the amount of token user will receive and the associated swap fee"}},"getA(SwapUtils.Swap storage)":{"details":"See the StableSwap paper for details","notice":"Return A, the amplification coefficient * n * (n - 1)","params":{"self":"Swap struct to read from"},"returns":{"_0":"A parameter"}},"getAPrecise(SwapUtils.Swap storage)":{"details":"See the StableSwap paper for details","notice":"Return A in its raw precision","params":{"self":"Swap struct to read from"},"returns":{"_0":"A parameter in its raw precision form"}},"getAdminBalance(SwapUtils.Swap storage,uint256)":{"notice":"return accumulated amount of admin fees of the token with given index","params":{"index":"Index of the pooled token","self":"Swap struct to read from"},"returns":{"_0":"admin balance in the token's precision"}},"getDepositTimestamp(SwapUtils.Swap storage,address)":{"notice":"Retrieves the timestamp of last deposit made by the given address","params":{"self":"Swap struct to read from"},"returns":{"_0":"timestamp of last deposit"}},"getVirtualPrice(SwapUtils.Swap storage)":{"notice":"Get the virtual price, to help calculate profit","params":{"self":"Swap struct to read from"},"returns":{"_0":"the virtual price, scaled to precision of POOL_PRECISION_DECIMALS"}},"rampA(SwapUtils.Swap storage,uint256,uint256)":{"notice":"Start ramping up or down A parameter towards given futureA_ and futureTime_ Checks if the change is too rapid, and commits the new A value only when it falls under the limit range.","params":{"futureA_":"the new A to ramp towards","futureTime_":"timestamp when the new A should be reached","self":"Swap struct to update"}},"removeLiquidity(SwapUtils.Swap storage,uint256,uint256[])":{"details":"Liquidity can always be removed, even when the pool is paused.","notice":"Burn LP tokens to remove liquidity from the pool.","params":{"amount":"the amount of LP tokens to burn","minAmounts":"the minimum amounts of each token in the pool acceptable for this burn. Useful as a front-running mitigation","self":"Swap struct to read from and write to"},"returns":{"_0":"amounts of tokens the user received"}},"removeLiquidityImbalance(SwapUtils.Swap storage,uint256[],uint256)":{"notice":"Remove liquidity from the pool, weighted differently than the pool's current balances.","params":{"amounts":"how much of each token to withdraw","maxBurnAmount":"the max LP token provider is willing to pay to remove liquidity. Useful as a front-running mitigation.","self":"Swap struct to read from and write to"},"returns":{"_0":"actual amount of LP tokens burned in the withdrawal"}},"removeLiquidityOneToken(SwapUtils.Swap storage,uint256,uint8,uint256)":{"notice":"Remove liquidity from the pool all in one token.","params":{"minAmount":"the minimum amount to withdraw, otherwise revert","self":"Swap struct to read from and write to","tokenAmount":"the amount of the lp tokens to burn","tokenIndex":"the index of the token you want to receive"},"returns":{"_0":"amount chosen token that user received"}},"setAdminFee(SwapUtils.Swap storage,uint256)":{"details":"adminFee cannot be higher than 100% of the swap fee","notice":"Sets the admin fee","params":{"newAdminFee":"new admin fee to be applied on future transactions","self":"Swap struct to update"}},"setDefaultDepositFee(SwapUtils.Swap storage,uint256)":{"notice":"update the default deposit fee. ","params":{"newDepositFee":"new deposit fee to be applied","self":"Swap struct to update"}},"setDefaultWithdrawFee(SwapUtils.Swap storage,uint256)":{"notice":"update the default withdraw fee. This also affects deposits made in the past as well.","params":{"newWithdrawFee":"new withdraw fee to be applied","self":"Swap struct to update"}},"setSwapFee(SwapUtils.Swap storage,uint256)":{"details":"fee cannot be higher than 1% of each swap","notice":"update the swap fee","params":{"newSwapFee":"new swap fee to be applied on future transactions","self":"Swap struct to update"}},"stopRampA(SwapUtils.Swap storage)":{"notice":"Stops ramping A immediately. Once this function is called, rampA() cannot be called for another 24 hours","params":{"self":"Swap struct to update"}},"swap(SwapUtils.Swap storage,uint8,uint8,uint256,uint256)":{"notice":"swap two tokens in the pool","params":{"dx":"the amount of tokens the user wants to sell","minDy":"the min amount the user would like to receive, or revert.","self":"Swap struct to read from and write to","tokenIndexFrom":"the token the user wants to sell","tokenIndexTo":"the token the user wants to buy"},"returns":{"_0":"amount of token user received on swap"}},"updateUserWithdrawFee(SwapUtils.Swap storage,address,uint256)":{"notice":"Update the withdraw fee for `user`. If the user is currently not providing liquidity in the pool, sets to default value. If not, recalculate the starting withdraw fee based on the last deposit's time & amount relative to the new deposit.","params":{"self":"Swap struct to read from and write to","toMint":"amount of pool tokens to be minted","user":"address of the user depositing tokens"}},"withdrawAdminFees(SwapUtils.Swap storage,address)":{"notice":"withdraw all admin fees to a given address","params":{"self":"Swap struct to withdraw fees from","to":"Address to send the fees to"}}},"notice":"A library to be used within Swap.sol. Contains functions responsible for custody and AMM functionalities.","title":"SwapUtils library","version":1},"opcodes":"PUSH20 0x0 ADDRESS EQ PUSH1 0x80 PUSH1 0x40 MSTORE PUSH1 0x4 CALLDATASIZE LT PUSH2 0x1EF JUMPI PUSH1 0x0 CALLDATALOAD PUSH1 0xE0 SHR DUP1 PUSH4 0x968E5594 GT PUSH2 0x119 JUMPI DUP1 PUSH4 0xD4B0DE2F GT PUSH2 0xAC JUMPI DUP1 PUSH4 0xE9252D46 GT PUSH2 0x7B JUMPI DUP1 PUSH4 0xE9252D46 EQ PUSH2 0x854 JUMPI DUP1 PUSH4 0xF14E211E EQ PUSH2 0x893 JUMPI DUP1 PUSH4 0xF3DE0362 EQ PUSH2 0x8BD JUMPI DUP1 PUSH4 0xF967A81F EQ PUSH2 0x8C5 JUMPI PUSH2 0x1EF JUMP JUMPDEST DUP1 PUSH4 0xD4B0DE2F EQ PUSH2 0x71B JUMPI DUP1 PUSH4 0xE4A9A0DA EQ PUSH2 0x795 JUMPI DUP1 PUSH4 0xE7A4DB81 EQ PUSH2 0x7E9 JUMPI DUP1 PUSH4 0xE8C47A54 EQ PUSH2 0x828 JUMPI PUSH2 0x1EF JUMP JUMPDEST DUP1 PUSH4 0xC6D87DD5 GT PUSH2 0xE8 JUMPI DUP1 PUSH4 0xC6D87DD5 EQ PUSH2 0x71B JUMPI DUP1 PUSH4 0xC9B64DCB EQ PUSH2 0x740 JUMPI DUP1 PUSH4 0xD011F918 EQ PUSH2 0x75D JUMPI DUP1 PUSH4 0xD2A39487 EQ PUSH2 0x765 JUMPI PUSH2 0x1EF JUMP JUMPDEST DUP1 PUSH4 0x968E5594 EQ PUSH2 0x6A6 JUMPI DUP1 PUSH4 0xA5397B22 EQ PUSH2 0x6D2 JUMPI DUP1 PUSH4 0xAB3D8544 EQ PUSH2 0x71B JUMPI DUP1 PUSH4 0xB0A14CFC EQ PUSH2 0x723 JUMPI PUSH2 0x1EF JUMP JUMPDEST DUP1 PUSH4 0x4B23603C GT PUSH2 0x191 JUMPI DUP1 PUSH4 0x71906C2C GT PUSH2 0x160 JUMPI DUP1 PUSH4 0x71906C2C EQ PUSH2 0x55F JUMPI DUP1 PUSH4 0x73FD6B3E EQ PUSH2 0x57C JUMPI DUP1 PUSH4 0x7D048160 EQ PUSH2 0x653 JUMPI DUP1 PUSH4 0x8AB7697E EQ PUSH2 0x676 JUMPI PUSH2 0x1EF JUMP JUMPDEST DUP1 PUSH4 0x4B23603C EQ PUSH2 0x43E JUMPI DUP1 PUSH4 0x58FDD79B EQ PUSH2 0x474 JUMPI DUP1 PUSH4 0x5E58579C EQ PUSH2 0x4AA JUMPI DUP1 PUSH4 0x70467276 EQ PUSH2 0x52F JUMPI PUSH2 0x1EF JUMP JUMPDEST DUP1 PUSH4 0x40370EDF GT PUSH2 0x1CD JUMPI DUP1 PUSH4 0x40370EDF EQ PUSH2 0x267 JUMPI DUP1 PUSH4 0x41B91C26 EQ PUSH2 0x31E JUMPI DUP1 PUSH4 0x4386C7CE EQ PUSH2 0x3D5 JUMPI DUP1 PUSH4 0x467E186C EQ PUSH2 0x40E JUMPI PUSH2 0x1EF JUMP JUMPDEST DUP1 PUSH4 0x296AB50 EQ PUSH2 0x1F4 JUMPI DUP1 PUSH4 0x24C5C751 EQ PUSH2 0x212 JUMPI DUP1 PUSH4 0x39698415 EQ PUSH2 0x24D JUMPI JUMPDEST PUSH1 0x0 DUP1 REVERT JUMPDEST PUSH2 0x1FC PUSH2 0x8F7 JUMP JUMPDEST PUSH1 0x40 DUP1 MLOAD PUSH1 0xFF SWAP1 SWAP3 AND DUP3 MSTORE MLOAD SWAP1 DUP2 SWAP1 SUB PUSH1 0x20 ADD SWAP1 RETURN JUMPDEST DUP2 DUP1 ISZERO PUSH2 0x21E JUMPI PUSH1 0x0 DUP1 REVERT JUMPDEST POP PUSH2 0x24B PUSH1 0x4 DUP1 CALLDATASIZE SUB PUSH1 0x40 DUP2 LT ISZERO PUSH2 0x235 JUMPI PUSH1 0x0 DUP1 REVERT JUMPDEST POP DUP1 CALLDATALOAD SWAP1 PUSH1 0x20 ADD CALLDATALOAD PUSH1 0x1 PUSH1 0x1 PUSH1 0xA0 SHL SUB AND PUSH2 0x8FC JUMP JUMPDEST STOP JUMPDEST PUSH2 0x255 PUSH2 0x9FD JUMP JUMPDEST PUSH1 0x40 DUP1 MLOAD SWAP2 DUP3 MSTORE MLOAD SWAP1 DUP2 SWAP1 SUB PUSH1 0x20 ADD SWAP1 RETURN JUMPDEST DUP2 DUP1 ISZERO PUSH2 0x273 JUMPI PUSH1 0x0 DUP1 REVERT JUMPDEST POP PUSH2 0x255 PUSH1 0x4 DUP1 CALLDATASIZE SUB PUSH1 0x60 DUP2 LT ISZERO PUSH2 0x28A JUMPI PUSH1 0x0 DUP1 REVERT JUMPDEST DUP2 CALLDATALOAD SWAP2 SWAP1 DUP2 ADD SWAP1 PUSH1 0x40 DUP2 ADD PUSH1 0x20 DUP3 ADD CALLDATALOAD PUSH1 0x1 PUSH1 0x20 SHL DUP2 GT ISZERO PUSH2 0x2AB JUMPI PUSH1 0x0 DUP1 REVERT JUMPDEST DUP3 ADD DUP4 PUSH1 0x20 DUP3 ADD GT ISZERO PUSH2 0x2BD JUMPI PUSH1 0x0 DUP1 REVERT JUMPDEST DUP1 CALLDATALOAD SWAP1 PUSH1 0x20 ADD SWAP2 DUP5 PUSH1 0x20 DUP4 MUL DUP5 ADD GT PUSH1 0x1 PUSH1 0x20 SHL DUP4 GT OR ISZERO PUSH2 0x2DE JUMPI PUSH1 0x0 DUP1 REVERT JUMPDEST SWAP2 SWAP1 DUP1 DUP1 PUSH1 0x20 MUL PUSH1 0x20 ADD PUSH1 0x40 MLOAD SWAP1 DUP2 ADD PUSH1 0x40 MSTORE DUP1 SWAP4 SWAP3 SWAP2 SWAP1 DUP2 DUP2 MSTORE PUSH1 0x20 ADD DUP4 DUP4 PUSH1 0x20 MUL DUP1 DUP3 DUP5 CALLDATACOPY PUSH1 0x0 SWAP3 ADD SWAP2 SWAP1 SWAP2 MSTORE POP SWAP3 SWAP6 POP POP SWAP2 CALLDATALOAD SWAP3 POP PUSH2 0xA04 SWAP2 POP POP JUMP JUMPDEST DUP2 DUP1 ISZERO PUSH2 0x32A JUMPI PUSH1 0x0 DUP1 REVERT JUMPDEST POP PUSH2 0x255 PUSH1 0x4 DUP1 CALLDATASIZE SUB PUSH1 0x60 DUP2 LT ISZERO PUSH2 0x341 JUMPI PUSH1 0x0 DUP1 REVERT JUMPDEST DUP2 CALLDATALOAD SWAP2 SWAP1 DUP2 ADD SWAP1 PUSH1 0x40 DUP2 ADD PUSH1 0x20 DUP3 ADD CALLDATALOAD PUSH1 0x1 PUSH1 0x20 SHL DUP2 GT ISZERO PUSH2 0x362 JUMPI PUSH1 0x0 DUP1 REVERT JUMPDEST DUP3 ADD DUP4 PUSH1 0x20 DUP3 ADD GT ISZERO PUSH2 0x374 JUMPI PUSH1 0x0 DUP1 REVERT JUMPDEST DUP1 CALLDATALOAD SWAP1 PUSH1 0x20 ADD SWAP2 DUP5 PUSH1 0x20 DUP4 MUL DUP5 ADD GT PUSH1 0x1 PUSH1 0x20 SHL DUP4 GT OR ISZERO PUSH2 0x395 JUMPI PUSH1 0x0 DUP1 REVERT JUMPDEST SWAP2 SWAP1 DUP1 DUP1 PUSH1 0x20 MUL PUSH1 0x20 ADD PUSH1 0x40 MLOAD SWAP1 DUP2 ADD PUSH1 0x40 MSTORE DUP1 SWAP4 SWAP3 SWAP2 SWAP1 DUP2 DUP2 MSTORE PUSH1 0x20 ADD DUP4 DUP4 PUSH1 0x20 MUL DUP1 DUP3 DUP5 CALLDATACOPY PUSH1 0x0 SWAP3 ADD SWAP2 SWAP1 SWAP2 MSTORE POP SWAP3 SWAP6 POP POP SWAP2 CALLDATALOAD SWAP3 POP PUSH2 0x13B1 SWAP2 POP POP JUMP JUMPDEST DUP2 DUP1 ISZERO PUSH2 0x3E1 JUMPI PUSH1 0x0 DUP1 REVERT JUMPDEST POP PUSH2 0x24B PUSH1 0x4 DUP1 CALLDATASIZE SUB PUSH1 0x40 DUP2 LT ISZERO PUSH2 0x3F8 JUMPI PUSH1 0x0 DUP1 REVERT JUMPDEST POP DUP1 CALLDATALOAD SWAP1 PUSH1 0x20 ADD CALLDATALOAD PUSH1 0x1 PUSH1 0x1 PUSH1 0xA0 SHL SUB AND PUSH2 0x1B53 JUMP JUMPDEST DUP2 DUP1 ISZERO PUSH2 0x41A JUMPI PUSH1 0x0 DUP1 REVERT JUMPDEST POP PUSH2 0x24B PUSH1 0x4 DUP1 CALLDATASIZE SUB PUSH1 0x40 DUP2 LT ISZERO PUSH2 0x431 JUMPI PUSH1 0x0 DUP1 REVERT JUMPDEST POP DUP1 CALLDATALOAD SWAP1 PUSH1 0x20 ADD CALLDATALOAD PUSH2 0x1C09 JUMP JUMPDEST PUSH2 0x255 PUSH1 0x4 DUP1 CALLDATASIZE SUB PUSH1 0x80 DUP2 LT ISZERO PUSH2 0x454 JUMPI PUSH1 0x0 DUP1 REVERT JUMPDEST POP DUP1 CALLDATALOAD SWAP1 PUSH1 0xFF PUSH1 0x20 DUP3 ADD CALLDATALOAD DUP2 AND SWAP2 PUSH1 0x40 DUP2 ADD CALLDATALOAD SWAP1 SWAP2 AND SWAP1 PUSH1 0x60 ADD CALLDATALOAD PUSH2 0x1C92 JUMP JUMPDEST DUP2 DUP1 ISZERO PUSH2 0x480 JUMPI PUSH1 0x0 DUP1 REVERT JUMPDEST POP PUSH2 0x24B PUSH1 0x4 DUP1 CALLDATASIZE SUB PUSH1 0x60 DUP2 LT ISZERO PUSH2 0x497 JUMPI PUSH1 0x0 DUP1 REVERT JUMPDEST POP DUP1 CALLDATALOAD SWAP1 PUSH1 0x20 DUP2 ADD CALLDATALOAD SWAP1 PUSH1 0x40 ADD CALLDATALOAD PUSH2 0x1CAA JUMP JUMPDEST PUSH2 0x255 PUSH1 0x4 DUP1 CALLDATASIZE SUB PUSH1 0x80 DUP2 LT ISZERO PUSH2 0x4C0 JUMPI PUSH1 0x0 DUP1 REVERT JUMPDEST DUP2 CALLDATALOAD SWAP2 PUSH1 0x1 PUSH1 0x1 PUSH1 0xA0 SHL SUB PUSH1 0x20 DUP3 ADD CALLDATALOAD AND SWAP2 DUP2 ADD SWAP1 PUSH1 0x60 DUP2 ADD PUSH1 0x40 DUP3 ADD CALLDATALOAD PUSH1 0x1 PUSH1 0x20 SHL DUP2 GT ISZERO PUSH2 0x4EF JUMPI PUSH1 0x0 DUP1 REVERT JUMPDEST DUP3 ADD DUP4 PUSH1 0x20 DUP3 ADD GT ISZERO PUSH2 0x501 JUMPI PUSH1 0x0 DUP1 REVERT JUMPDEST DUP1 CALLDATALOAD SWAP1 PUSH1 0x20 ADD SWAP2 DUP5 PUSH1 0x20 DUP4 MUL DUP5 ADD GT PUSH1 0x1 PUSH1 0x20 SHL DUP4 GT OR ISZERO PUSH2 0x522 JUMPI PUSH1 0x0 DUP1 REVERT JUMPDEST SWAP2 SWAP4 POP SWAP2 POP CALLDATALOAD ISZERO ISZERO PUSH2 0x1F0B JUMP JUMPDEST DUP2 DUP1 ISZERO PUSH2 0x53B JUMPI PUSH1 0x0 DUP1 REVERT JUMPDEST POP PUSH2 0x24B PUSH1 0x4 DUP1 CALLDATASIZE SUB PUSH1 0x40 DUP2 LT ISZERO PUSH2 0x552 JUMPI PUSH1 0x0 DUP1 REVERT JUMPDEST POP DUP1 CALLDATALOAD SWAP1 PUSH1 0x20 ADD CALLDATALOAD PUSH2 0x218E JUMP JUMPDEST PUSH2 0x255 PUSH1 0x4 DUP1 CALLDATASIZE SUB PUSH1 0x20 DUP2 LT ISZERO PUSH2 0x575 JUMPI PUSH1 0x0 DUP1 REVERT JUMPDEST POP CALLDATALOAD PUSH2 0x2218 JUMP JUMPDEST DUP2 DUP1 ISZERO PUSH2 0x588 JUMPI PUSH1 0x0 DUP1 REVERT JUMPDEST POP PUSH2 0x603 PUSH1 0x4 DUP1 CALLDATASIZE SUB PUSH1 0x60 DUP2 LT ISZERO PUSH2 0x59F JUMPI PUSH1 0x0 DUP1 REVERT JUMPDEST DUP2 CALLDATALOAD SWAP2 PUSH1 0x20 DUP2 ADD CALLDATALOAD SWAP2 DUP2 ADD SWAP1 PUSH1 0x60 DUP2 ADD PUSH1 0x40 DUP3 ADD CALLDATALOAD PUSH1 0x1 PUSH1 0x20 SHL DUP2 GT ISZERO PUSH2 0x5C5 JUMPI PUSH1 0x0 DUP1 REVERT JUMPDEST DUP3 ADD DUP4 PUSH1 0x20 DUP3 ADD GT ISZERO PUSH2 0x5D7 JUMPI PUSH1 0x0 DUP1 REVERT JUMPDEST DUP1 CALLDATALOAD SWAP1 PUSH1 0x20 ADD SWAP2 DUP5 PUSH1 0x20 DUP4 MUL DUP5 ADD GT PUSH1 0x1 PUSH1 0x20 SHL DUP4 GT OR ISZERO PUSH2 0x5F8 JUMPI PUSH1 0x0 DUP1 REVERT JUMPDEST POP SWAP1 SWAP3 POP SWAP1 POP PUSH2 0x2362 JUMP JUMPDEST PUSH1 0x40 DUP1 MLOAD PUSH1 0x20 DUP1 DUP3 MSTORE DUP4 MLOAD DUP2 DUP4 ADD MSTORE DUP4 MLOAD SWAP2 SWAP3 DUP4 SWAP3 SWAP1 DUP4 ADD SWAP2 DUP6 DUP2 ADD SWAP2 MUL DUP1 DUP4 DUP4 PUSH1 0x0 JUMPDEST DUP4 DUP2 LT ISZERO PUSH2 0x63F JUMPI DUP2 DUP2 ADD MLOAD DUP4 DUP3 ADD MSTORE PUSH1 0x20 ADD PUSH2 0x627 JUMP JUMPDEST POP POP POP POP SWAP1 POP ADD SWAP3 POP POP POP PUSH1 0x40 MLOAD DUP1 SWAP2 SUB SWAP1 RETURN JUMPDEST PUSH2 0x255 PUSH1 0x4 DUP1 CALLDATASIZE SUB PUSH1 0x40 DUP2 LT ISZERO PUSH2 0x669 JUMPI PUSH1 0x0 DUP1 REVERT JUMPDEST POP DUP1 CALLDATALOAD SWAP1 PUSH1 0x20 ADD CALLDATALOAD PUSH2 0x2712 JUMP JUMPDEST DUP2 DUP1 ISZERO PUSH2 0x682 JUMPI PUSH1 0x0 DUP1 REVERT JUMPDEST POP PUSH2 0x24B PUSH1 0x4 DUP1 CALLDATASIZE SUB PUSH1 0x40 DUP2 LT ISZERO PUSH2 0x699 JUMPI PUSH1 0x0 DUP1 REVERT JUMPDEST POP DUP1 CALLDATALOAD SWAP1 PUSH1 0x20 ADD CALLDATALOAD PUSH2 0x279D JUMP JUMPDEST PUSH2 0x255 PUSH1 0x4 DUP1 CALLDATASIZE SUB PUSH1 0x40 DUP2 LT ISZERO PUSH2 0x6BC JUMPI PUSH1 0x0 DUP1 REVERT JUMPDEST POP DUP1 CALLDATALOAD SWAP1 PUSH1 0x20 ADD CALLDATALOAD PUSH1 0x1 PUSH1 0x1 PUSH1 0xA0 SHL SUB AND PUSH2 0x2826 JUMP JUMPDEST DUP2 DUP1 ISZERO PUSH2 0x6DE JUMPI PUSH1 0x0 DUP1 REVERT JUMPDEST POP PUSH2 0x255 PUSH1 0x4 DUP1 CALLDATASIZE SUB PUSH1 0xA0 DUP2 LT ISZERO PUSH2 0x6F5 JUMPI PUSH1 0x0 DUP1 REVERT JUMPDEST POP DUP1 CALLDATALOAD SWAP1 PUSH1 0xFF PUSH1 0x20 DUP3 ADD CALLDATALOAD DUP2 AND SWAP2 PUSH1 0x40 DUP2 ADD CALLDATALOAD SWAP1 SWAP2 AND SWAP1 PUSH1 0x60 DUP2 ADD CALLDATALOAD SWAP1 PUSH1 0x80 ADD CALLDATALOAD PUSH2 0x28CD JUMP JUMPDEST PUSH2 0x255 PUSH2 0x2C0F JUMP JUMPDEST PUSH2 0x255 PUSH1 0x4 DUP1 CALLDATASIZE SUB PUSH1 0x20 DUP2 LT ISZERO PUSH2 0x739 JUMPI PUSH1 0x0 DUP1 REVERT JUMPDEST POP CALLDATALOAD PUSH2 0x2C17 JUMP JUMPDEST PUSH2 0x255 PUSH1 0x4 DUP1 CALLDATASIZE SUB PUSH1 0x20 DUP2 LT ISZERO PUSH2 0x756 JUMPI PUSH1 0x0 DUP1 REVERT JUMPDEST POP CALLDATALOAD PUSH2 0x2C22 JUMP JUMPDEST PUSH2 0x255 PUSH2 0x2C2D JUMP JUMPDEST DUP2 DUP1 ISZERO PUSH2 0x771 JUMPI PUSH1 0x0 DUP1 REVERT JUMPDEST POP PUSH2 0x24B PUSH1 0x4 DUP1 CALLDATASIZE SUB PUSH1 0x40 DUP2 LT ISZERO PUSH2 0x788 JUMPI PUSH1 0x0 DUP1 REVERT JUMPDEST POP DUP1 CALLDATALOAD SWAP1 PUSH1 0x20 ADD CALLDATALOAD PUSH2 0x2C32 JUMP JUMPDEST PUSH2 0x7D0 PUSH1 0x4 DUP1 CALLDATASIZE SUB PUSH1 0x80 DUP2 LT ISZERO PUSH2 0x7AB JUMPI PUSH1 0x0 DUP1 REVERT JUMPDEST POP DUP1 CALLDATALOAD SWAP1 PUSH1 0x20 DUP2 ADD CALLDATALOAD PUSH1 0x1 PUSH1 0x1 PUSH1 0xA0 SHL SUB AND SWAP1 PUSH1 0x40 DUP2 ADD CALLDATALOAD SWAP1 PUSH1 0x60 ADD CALLDATALOAD PUSH1 0xFF AND PUSH2 0x2CBB JUMP JUMPDEST PUSH1 0x40 DUP1 MLOAD SWAP3 DUP4 MSTORE PUSH1 0x20 DUP4 ADD SWAP2 SWAP1 SWAP2 MSTORE DUP1 MLOAD SWAP2 DUP3 SWAP1 SUB ADD SWAP1 RETURN JUMPDEST DUP2 DUP1 ISZERO PUSH2 0x7F5 JUMPI PUSH1 0x0 DUP1 REVERT JUMPDEST POP PUSH2 0x255 PUSH1 0x4 DUP1 CALLDATASIZE SUB PUSH1 0x80 DUP2 LT ISZERO PUSH2 0x80C JUMPI PUSH1 0x0 DUP1 REVERT JUMPDEST POP DUP1 CALLDATALOAD SWAP1 PUSH1 0x20 DUP2 ADD CALLDATALOAD SWAP1 PUSH1 0xFF PUSH1 0x40 DUP3 ADD CALLDATALOAD AND SWAP1 PUSH1 0x60 ADD CALLDATALOAD PUSH2 0x2D45 JUMP JUMPDEST PUSH2 0x255 PUSH1 0x4 DUP1 CALLDATASIZE SUB PUSH1 0x40 DUP2 LT ISZERO PUSH2 0x83E JUMPI PUSH1 0x0 DUP1 REVERT JUMPDEST POP DUP1 CALLDATALOAD SWAP1 PUSH1 0x20 ADD CALLDATALOAD PUSH1 0x1 PUSH1 0x1 PUSH1 0xA0 SHL SUB AND PUSH2 0x3061 JUMP JUMPDEST DUP2 DUP1 ISZERO PUSH2 0x860 JUMPI PUSH1 0x0 DUP1 REVERT JUMPDEST POP PUSH2 0x24B PUSH1 0x4 DUP1 CALLDATASIZE SUB PUSH1 0x60 DUP2 LT ISZERO PUSH2 0x877 JUMPI PUSH1 0x0 DUP1 REVERT JUMPDEST POP DUP1 CALLDATALOAD SWAP1 PUSH1 0x1 PUSH1 0x1 PUSH1 0xA0 SHL SUB PUSH1 0x20 DUP3 ADD CALLDATALOAD AND SWAP1 PUSH1 0x40 ADD CALLDATALOAD PUSH2 0x3080 JUMP JUMPDEST DUP2 DUP1 ISZERO PUSH2 0x89F JUMPI PUSH1 0x0 DUP1 REVERT JUMPDEST POP PUSH2 0x24B PUSH1 0x4 DUP1 CALLDATASIZE SUB PUSH1 0x20 DUP2 LT ISZERO PUSH2 0x8B6 JUMPI PUSH1 0x0 DUP1 REVERT JUMPDEST POP CALLDATALOAD PUSH2 0x308B JUMP JUMPDEST PUSH2 0x255 PUSH2 0x3148 JUMP JUMPDEST PUSH2 0x603 PUSH1 0x4 DUP1 CALLDATASIZE SUB PUSH1 0x60 DUP2 LT ISZERO PUSH2 0x8DB JUMPI PUSH1 0x0 DUP1 REVERT JUMPDEST POP DUP1 CALLDATALOAD SWAP1 PUSH1 0x1 PUSH1 0x1 PUSH1 0xA0 SHL SUB PUSH1 0x20 DUP3 ADD CALLDATALOAD AND SWAP1 PUSH1 0x40 ADD CALLDATALOAD PUSH2 0x3151 JUMP JUMPDEST PUSH1 0x12 DUP2 JUMP JUMPDEST PUSH1 0x0 JUMPDEST PUSH1 0xA DUP4 ADD SLOAD DUP2 LT ISZERO PUSH2 0x9F8 JUMPI PUSH1 0x0 DUP4 PUSH1 0xA ADD DUP3 DUP2 SLOAD DUP2 LT PUSH2 0x91C JUMPI INVALID JUMPDEST PUSH1 0x0 SWAP2 DUP3 MSTORE PUSH1 0x20 DUP3 KECCAK256 ADD SLOAD PUSH1 0xC DUP7 ADD DUP1 SLOAD PUSH1 0x1 PUSH1 0x1 PUSH1 0xA0 SHL SUB SWAP1 SWAP3 AND SWAP4 POP PUSH2 0x9D2 SWAP2 DUP6 SWAP1 DUP2 LT PUSH2 0x948 JUMPI INVALID JUMPDEST SWAP1 PUSH1 0x0 MSTORE PUSH1 0x20 PUSH1 0x0 KECCAK256 ADD SLOAD DUP4 PUSH1 0x1 PUSH1 0x1 PUSH1 0xA0 SHL SUB AND PUSH4 0x70A08231 ADDRESS PUSH1 0x40 MLOAD DUP3 PUSH4 0xFFFFFFFF AND PUSH1 0xE0 SHL DUP2 MSTORE PUSH1 0x4 ADD DUP1 DUP3 PUSH1 0x1 PUSH1 0x1 PUSH1 0xA0 SHL SUB AND DUP2 MSTORE PUSH1 0x20 ADD SWAP2 POP POP PUSH1 0x20 PUSH1 0x40 MLOAD DUP1 DUP4 SUB DUP2 DUP7 DUP1 EXTCODESIZE ISZERO DUP1 ISZERO PUSH2 0x9A0 JUMPI PUSH1 0x0 DUP1 REVERT JUMPDEST POP GAS STATICCALL ISZERO DUP1 ISZERO PUSH2 0x9B4 JUMPI RETURNDATASIZE PUSH1 0x0 DUP1 RETURNDATACOPY RETURNDATASIZE PUSH1 0x0 REVERT JUMPDEST POP POP POP POP PUSH1 0x40 MLOAD RETURNDATASIZE PUSH1 0x20 DUP2 LT ISZERO PUSH2 0x9CA JUMPI PUSH1 0x0 DUP1 REVERT JUMPDEST POP MLOAD SWAP1 PUSH2 0x315E JUMP JUMPDEST SWAP1 POP DUP1 ISZERO PUSH2 0x9EE JUMPI PUSH2 0x9EE PUSH1 0x1 PUSH1 0x1 PUSH1 0xA0 SHL SUB DUP4 AND DUP6 DUP4 PUSH2 0x31BB JUMP JUMPDEST POP POP PUSH1 0x1 ADD PUSH2 0x8FF JUMP JUMPDEST POP POP POP JUMP JUMPDEST PUSH3 0xF4240 DUP2 JUMP JUMPDEST PUSH1 0xA DUP4 ADD SLOAD DUP3 MLOAD PUSH1 0x0 SWAP2 EQ PUSH2 0xA60 JUMPI PUSH1 0x40 DUP1 MLOAD PUSH3 0x461BCD PUSH1 0xE5 SHL DUP2 MSTORE PUSH1 0x20 PUSH1 0x4 DUP3 ADD DUP2 SWAP1 MSTORE PUSH1 0x24 DUP3 ADD MSTORE PUSH32 0x416D6F756E7473206D757374206D6174636820706F6F6C656420746F6B656E73 PUSH1 0x44 DUP3 ADD MSTORE SWAP1 MLOAD SWAP1 DUP2 SWAP1 SUB PUSH1 0x64 ADD SWAP1 REVERT JUMPDEST PUSH1 0xA DUP5 ADD SLOAD PUSH1 0x60 SWAP1 PUSH8 0xFFFFFFFFFFFFFFFF DUP2 GT DUP1 ISZERO PUSH2 0xA7E JUMPI PUSH1 0x0 DUP1 REVERT JUMPDEST POP PUSH1 0x40 MLOAD SWAP1 DUP1 DUP3 MSTORE DUP1 PUSH1 0x20 MUL PUSH1 0x20 ADD DUP3 ADD PUSH1 0x40 MSTORE DUP1 ISZERO PUSH2 0xAA8 JUMPI DUP2 PUSH1 0x20 ADD PUSH1 0x20 DUP3 MUL DUP1 CALLDATASIZE DUP4 CALLDATACOPY ADD SWAP1 POP JUMPDEST POP SWAP1 POP PUSH1 0x0 DUP6 PUSH1 0x9 ADD PUSH1 0x0 SWAP1 SLOAD SWAP1 PUSH2 0x100 EXP SWAP1 DIV PUSH1 0x1 PUSH1 0x1 PUSH1 0xA0 SHL SUB AND PUSH1 0x1 PUSH1 0x1 PUSH1 0xA0 SHL SUB AND PUSH4 0x18160DDD PUSH1 0x40 MLOAD DUP2 PUSH4 0xFFFFFFFF AND PUSH1 0xE0 SHL DUP2 MSTORE PUSH1 0x4 ADD PUSH1 0x20 PUSH1 0x40 MLOAD DUP1 DUP4 SUB DUP2 DUP7 DUP1 EXTCODESIZE ISZERO DUP1 ISZERO PUSH2 0xAFD JUMPI PUSH1 0x0 DUP1 REVERT JUMPDEST POP GAS STATICCALL ISZERO DUP1 ISZERO PUSH2 0xB11 JUMPI RETURNDATASIZE PUSH1 0x0 DUP1 RETURNDATACOPY RETURNDATASIZE PUSH1 0x0 REVERT JUMPDEST POP POP POP POP PUSH1 0x40 MLOAD RETURNDATASIZE PUSH1 0x20 DUP2 LT ISZERO PUSH2 0xB27 JUMPI PUSH1 0x0 DUP1 REVERT JUMPDEST POP MLOAD SWAP1 POP PUSH2 0xB33 PUSH2 0x4743 JUMP JUMPDEST PUSH1 0x40 MLOAD DUP1 PUSH1 0x80 ADD PUSH1 0x40 MSTORE DUP1 PUSH1 0x0 DUP2 MSTORE PUSH1 0x20 ADD PUSH1 0x0 DUP2 MSTORE PUSH1 0x20 ADD PUSH1 0x0 DUP2 MSTORE PUSH1 0x20 ADD PUSH1 0x0 DUP2 MSTORE POP SWAP1 POP DUP2 PUSH1 0x0 EQ PUSH2 0xB6E JUMPI PUSH2 0xB6B DUP8 PUSH2 0x320D JUMP JUMPDEST DUP2 MSTORE JUMPDEST PUSH1 0x60 DUP8 PUSH1 0xC ADD DUP1 SLOAD DUP1 PUSH1 0x20 MUL PUSH1 0x20 ADD PUSH1 0x40 MLOAD SWAP1 DUP2 ADD PUSH1 0x40 MSTORE DUP1 SWAP3 SWAP2 SWAP1 DUP2 DUP2 MSTORE PUSH1 0x20 ADD DUP3 DUP1 SLOAD DUP1 ISZERO PUSH2 0xBBE JUMPI PUSH1 0x20 MUL DUP3 ADD SWAP2 SWAP1 PUSH1 0x0 MSTORE PUSH1 0x20 PUSH1 0x0 KECCAK256 SWAP1 JUMPDEST DUP2 SLOAD DUP2 MSTORE PUSH1 0x20 ADD SWAP1 PUSH1 0x1 ADD SWAP1 DUP1 DUP4 GT PUSH2 0xBAA JUMPI JUMPDEST POP POP POP POP POP SWAP1 POP PUSH1 0x0 JUMPDEST PUSH1 0xA DUP10 ADD SLOAD DUP2 LT ISZERO PUSH2 0xE14 JUMPI DUP4 ISZERO ISZERO DUP1 PUSH2 0xBF5 JUMPI POP PUSH1 0x0 DUP9 DUP3 DUP2 MLOAD DUP2 LT PUSH2 0xBEB JUMPI INVALID JUMPDEST PUSH1 0x20 MUL PUSH1 0x20 ADD ADD MLOAD GT JUMPDEST PUSH2 0xC46 JUMPI PUSH1 0x40 DUP1 MLOAD PUSH3 0x461BCD PUSH1 0xE5 SHL DUP2 MSTORE PUSH1 0x20 PUSH1 0x4 DUP3 ADD MSTORE PUSH1 0x1E PUSH1 0x24 DUP3 ADD MSTORE PUSH32 0x4D75737420737570706C7920616C6C20746F6B656E7320696E20706F6F6C0000 PUSH1 0x44 DUP3 ADD MSTORE SWAP1 MLOAD SWAP1 DUP2 SWAP1 SUB PUSH1 0x64 ADD SWAP1 REVERT JUMPDEST DUP8 DUP2 DUP2 MLOAD DUP2 LT PUSH2 0xC52 JUMPI INVALID JUMPDEST PUSH1 0x20 MUL PUSH1 0x20 ADD ADD MLOAD PUSH1 0x0 EQ PUSH2 0xDB6 JUMPI PUSH1 0x0 DUP10 PUSH1 0xA ADD DUP3 DUP2 SLOAD DUP2 LT PUSH2 0xC72 JUMPI INVALID JUMPDEST PUSH1 0x0 SWAP2 DUP3 MSTORE PUSH1 0x20 SWAP2 DUP3 SWAP1 KECCAK256 ADD SLOAD PUSH1 0x40 DUP1 MLOAD PUSH4 0x70A08231 PUSH1 0xE0 SHL DUP2 MSTORE ADDRESS PUSH1 0x4 DUP3 ADD MSTORE SWAP1 MLOAD PUSH1 0x1 PUSH1 0x1 PUSH1 0xA0 SHL SUB SWAP1 SWAP3 AND SWAP3 PUSH4 0x70A08231 SWAP3 PUSH1 0x24 DUP1 DUP5 ADD SWAP4 DUP3 SWAP1 SUB ADD DUP2 DUP7 DUP1 EXTCODESIZE ISZERO DUP1 ISZERO PUSH2 0xCC1 JUMPI PUSH1 0x0 DUP1 REVERT JUMPDEST POP GAS STATICCALL ISZERO DUP1 ISZERO PUSH2 0xCD5 JUMPI RETURNDATASIZE PUSH1 0x0 DUP1 RETURNDATACOPY RETURNDATASIZE PUSH1 0x0 REVERT JUMPDEST POP POP POP POP PUSH1 0x40 MLOAD RETURNDATASIZE PUSH1 0x20 DUP2 LT ISZERO PUSH2 0xCEB JUMPI PUSH1 0x0 DUP1 REVERT JUMPDEST POP MLOAD DUP10 MLOAD SWAP1 SWAP2 POP PUSH2 0xD3A SWAP1 CALLER SWAP1 ADDRESS SWAP1 DUP13 SWAP1 DUP7 SWAP1 DUP2 LT PUSH2 0xD06 JUMPI INVALID JUMPDEST PUSH1 0x20 MUL PUSH1 0x20 ADD ADD MLOAD DUP14 PUSH1 0xA ADD DUP7 DUP2 SLOAD DUP2 LT PUSH2 0xD1D JUMPI INVALID JUMPDEST PUSH1 0x0 SWAP2 DUP3 MSTORE PUSH1 0x20 SWAP1 SWAP2 KECCAK256 ADD SLOAD PUSH1 0x1 PUSH1 0x1 PUSH1 0xA0 SHL SUB AND SWAP3 SWAP2 SWAP1 PUSH2 0x3224 JUMP JUMPDEST PUSH2 0xD9C DUP2 DUP12 PUSH1 0xA ADD DUP5 DUP2 SLOAD DUP2 LT PUSH2 0xD4D JUMPI INVALID JUMPDEST PUSH1 0x0 SWAP2 DUP3 MSTORE PUSH1 0x20 SWAP2 DUP3 SWAP1 KECCAK256 ADD SLOAD PUSH1 0x40 DUP1 MLOAD PUSH4 0x70A08231 PUSH1 0xE0 SHL DUP2 MSTORE ADDRESS PUSH1 0x4 DUP3 ADD MSTORE SWAP1 MLOAD PUSH1 0x1 PUSH1 0x1 PUSH1 0xA0 SHL SUB SWAP1 SWAP3 AND SWAP3 PUSH4 0x70A08231 SWAP3 PUSH1 0x24 DUP1 DUP5 ADD SWAP4 DUP3 SWAP1 SUB ADD DUP2 DUP7 DUP1 EXTCODESIZE ISZERO DUP1 ISZERO PUSH2 0x9A0 JUMPI PUSH1 0x0 DUP1 REVERT JUMPDEST DUP10 DUP4 DUP2 MLOAD DUP2 LT PUSH2 0xDA8 JUMPI INVALID JUMPDEST PUSH1 0x20 MUL PUSH1 0x20 ADD ADD DUP2 DUP2 MSTORE POP POP POP JUMPDEST PUSH2 0xDF5 DUP9 DUP3 DUP2 MLOAD DUP2 LT PUSH2 0xDC5 JUMPI INVALID JUMPDEST PUSH1 0x20 MUL PUSH1 0x20 ADD ADD MLOAD DUP11 PUSH1 0xC ADD DUP4 DUP2 SLOAD DUP2 LT PUSH2 0xDDC JUMPI INVALID JUMPDEST SWAP1 PUSH1 0x0 MSTORE PUSH1 0x20 PUSH1 0x0 KECCAK256 ADD SLOAD PUSH2 0x3284 SWAP1 SWAP2 SWAP1 PUSH4 0xFFFFFFFF AND JUMP JUMPDEST DUP3 DUP3 DUP2 MLOAD DUP2 LT PUSH2 0xE01 JUMPI INVALID JUMPDEST PUSH1 0x20 SWAP1 DUP2 MUL SWAP2 SWAP1 SWAP2 ADD ADD MSTORE PUSH1 0x1 ADD PUSH2 0xBC8 JUMP JUMPDEST POP PUSH2 0xE1E DUP9 PUSH2 0x32DE JUMP JUMPDEST PUSH1 0x60 DUP4 ADD MSTORE PUSH2 0xE3A PUSH2 0xE30 DUP10 DUP4 PUSH2 0x3373 JUMP JUMPDEST DUP4 PUSH1 0x60 ADD MLOAD PUSH2 0x33D1 JUMP JUMPDEST PUSH1 0x20 DUP4 ADD DUP2 SWAP1 MSTORE DUP3 MLOAD LT PUSH2 0xE89 JUMPI PUSH1 0x40 DUP1 MLOAD PUSH3 0x461BCD PUSH1 0xE5 SHL DUP2 MSTORE PUSH1 0x20 PUSH1 0x4 DUP3 ADD MSTORE PUSH1 0x11 PUSH1 0x24 DUP3 ADD MSTORE PUSH17 0x442073686F756C6420696E637265617365 PUSH1 0x78 SHL PUSH1 0x44 DUP3 ADD MSTORE SWAP1 MLOAD SWAP1 DUP2 SWAP1 SUB PUSH1 0x64 ADD SWAP1 REVERT JUMPDEST PUSH1 0x20 DUP3 ADD MLOAD PUSH1 0x40 DUP4 ADD MSTORE DUP3 ISZERO PUSH2 0x1095 JUMPI PUSH1 0x0 PUSH2 0xEA4 DUP10 PUSH2 0x35AE JUMP JUMPDEST SWAP1 POP PUSH1 0x0 JUMPDEST PUSH1 0xA DUP11 ADD SLOAD DUP2 LT ISZERO PUSH2 0x1072 JUMPI PUSH1 0x0 PUSH2 0xEF5 DUP6 PUSH1 0x0 ADD MLOAD PUSH2 0xEEF DUP14 PUSH1 0xC ADD DUP6 DUP2 SLOAD DUP2 LT PUSH2 0xED1 JUMPI INVALID JUMPDEST SWAP1 PUSH1 0x0 MSTORE PUSH1 0x20 PUSH1 0x0 KECCAK256 ADD SLOAD DUP9 PUSH1 0x20 ADD MLOAD PUSH2 0x35DB SWAP1 SWAP2 SWAP1 PUSH4 0xFFFFFFFF AND JUMP JUMPDEST SWAP1 PUSH2 0x3634 JUMP JUMPDEST SWAP1 POP PUSH2 0xFA2 PUSH5 0x2540BE400 PUSH2 0xEEF DUP4 PUSH20 0x0 PUSH4 0xA95CB7F7 SWAP1 SWAP2 DUP10 DUP9 DUP2 MLOAD DUP2 LT PUSH2 0xF2C JUMPI INVALID JUMPDEST PUSH1 0x20 MUL PUSH1 0x20 ADD ADD MLOAD PUSH1 0x40 MLOAD DUP4 PUSH4 0xFFFFFFFF AND PUSH1 0xE0 SHL DUP2 MSTORE PUSH1 0x4 ADD DUP1 DUP4 DUP2 MSTORE PUSH1 0x20 ADD DUP3 DUP2 MSTORE PUSH1 0x20 ADD SWAP3 POP POP POP PUSH1 0x20 PUSH1 0x40 MLOAD DUP1 DUP4 SUB DUP2 DUP7 DUP1 EXTCODESIZE ISZERO DUP1 ISZERO PUSH2 0xF6F JUMPI PUSH1 0x0 DUP1 REVERT JUMPDEST POP GAS DELEGATECALL ISZERO DUP1 ISZERO PUSH2 0xF83 JUMPI RETURNDATASIZE PUSH1 0x0 DUP1 RETURNDATACOPY RETURNDATASIZE PUSH1 0x0 REVERT JUMPDEST POP POP POP POP PUSH1 0x40 MLOAD RETURNDATASIZE PUSH1 0x20 DUP2 LT ISZERO PUSH2 0xF99 JUMPI PUSH1 0x0 DUP1 REVERT JUMPDEST POP MLOAD DUP7 SWAP1 PUSH2 0x35DB JUMP JUMPDEST DUP8 DUP4 DUP2 MLOAD DUP2 LT PUSH2 0xFAE JUMPI INVALID JUMPDEST PUSH1 0x20 MUL PUSH1 0x20 ADD ADD DUP2 DUP2 MSTORE POP POP PUSH2 0x1012 PUSH2 0xFF0 PUSH5 0x2540BE400 PUSH2 0xEEF DUP15 PUSH1 0x5 ADD SLOAD DUP12 DUP8 DUP2 MLOAD DUP2 LT PUSH2 0xFDA JUMPI INVALID JUMPDEST PUSH1 0x20 MUL PUSH1 0x20 ADD ADD MLOAD PUSH2 0x35DB SWAP1 SWAP2 SWAP1 PUSH4 0xFFFFFFFF AND JUMP JUMPDEST DUP6 DUP5 DUP2 MLOAD DUP2 LT PUSH2 0xFFC JUMPI INVALID JUMPDEST PUSH1 0x20 MUL PUSH1 0x20 ADD ADD MLOAD PUSH2 0x315E SWAP1 SWAP2 SWAP1 PUSH4 0xFFFFFFFF AND JUMP JUMPDEST DUP12 PUSH1 0xC ADD DUP4 DUP2 SLOAD DUP2 LT PUSH2 0x1021 JUMPI INVALID JUMPDEST SWAP1 PUSH1 0x0 MSTORE PUSH1 0x20 PUSH1 0x0 KECCAK256 ADD DUP2 SWAP1 SSTORE POP PUSH2 0x1052 DUP8 DUP4 DUP2 MLOAD DUP2 LT PUSH2 0x103E JUMPI INVALID JUMPDEST PUSH1 0x20 MUL PUSH1 0x20 ADD ADD MLOAD DUP6 DUP5 DUP2 MLOAD DUP2 LT PUSH2 0xFFC JUMPI INVALID JUMPDEST DUP5 DUP4 DUP2 MLOAD DUP2 LT PUSH2 0x105E JUMPI INVALID JUMPDEST PUSH1 0x20 SWAP1 DUP2 MUL SWAP2 SWAP1 SWAP2 ADD ADD MSTORE POP PUSH1 0x1 ADD PUSH2 0xEA9 JUMP JUMPDEST POP PUSH2 0x108A PUSH2 0x1080 DUP11 DUP5 PUSH2 0x3373 JUMP JUMPDEST DUP5 PUSH1 0x60 ADD MLOAD PUSH2 0x33D1 JUMP JUMPDEST PUSH1 0x40 DUP5 ADD MSTORE POP PUSH2 0x10AC JUMP JUMPDEST DUP1 MLOAD PUSH2 0x10AA SWAP1 PUSH1 0xC DUP11 ADD SWAP1 PUSH1 0x20 DUP5 ADD SWAP1 PUSH2 0x476B JUMP JUMPDEST POP JUMPDEST PUSH1 0x0 DUP1 DUP1 DUP6 PUSH2 0x10C1 JUMPI DUP5 PUSH1 0x20 ADD MLOAD SWAP3 POP PUSH2 0x10E6 JUMP JUMPDEST DUP5 MLOAD PUSH1 0x40 DUP7 ADD MLOAD PUSH2 0x10E3 SWAP2 SWAP1 PUSH2 0xEEF SWAP1 DUP10 SWAP1 PUSH2 0x10DD SWAP1 DUP5 PUSH2 0x315E JUMP JUMPDEST SWAP1 PUSH2 0x35DB JUMP JUMPDEST SWAP3 POP JUMPDEST DUP9 DUP4 LT ISZERO PUSH2 0x113B JUMPI PUSH1 0x40 DUP1 MLOAD PUSH3 0x461BCD PUSH1 0xE5 SHL DUP2 MSTORE PUSH1 0x20 PUSH1 0x4 DUP3 ADD MSTORE PUSH1 0x1B PUSH1 0x24 DUP3 ADD MSTORE PUSH32 0x436F756C646E2774206D696E74206D696E207265717565737465640000000000 PUSH1 0x44 DUP3 ADD MSTORE SWAP1 MLOAD SWAP1 DUP2 SWAP1 SUB PUSH1 0x64 ADD SWAP1 REVERT JUMPDEST PUSH1 0x6 DUP12 ADD SLOAD PUSH2 0x11B6 JUMPI PUSH1 0x9 DUP12 ADD SLOAD PUSH1 0x40 DUP1 MLOAD PUSH4 0x40C10F19 PUSH1 0xE0 SHL DUP2 MSTORE CALLER PUSH1 0x4 DUP3 ADD MSTORE PUSH1 0x24 DUP2 ADD DUP7 SWAP1 MSTORE SWAP1 MLOAD PUSH1 0x1 PUSH1 0x1 PUSH1 0xA0 SHL SUB SWAP1 SWAP3 AND SWAP2 PUSH4 0x40C10F19 SWAP2 PUSH1 0x44 DUP1 DUP3 ADD SWAP3 PUSH1 0x0 SWAP3 SWAP1 SWAP2 SWAP1 DUP3 SWAP1 SUB ADD DUP2 DUP4 DUP8 DUP1 EXTCODESIZE ISZERO DUP1 ISZERO PUSH2 0x1199 JUMPI PUSH1 0x0 DUP1 REVERT JUMPDEST POP GAS CALL ISZERO DUP1 ISZERO PUSH2 0x11AD JUMPI RETURNDATASIZE PUSH1 0x0 DUP1 RETURNDATACOPY RETURNDATASIZE PUSH1 0x0 REVERT JUMPDEST POP POP POP POP PUSH2 0x12C5 JUMP JUMPDEST PUSH2 0x11D6 PUSH5 0x2540BE400 PUSH2 0xEEF DUP14 PUSH1 0x6 ADD SLOAD DUP7 PUSH2 0x35DB SWAP1 SWAP2 SWAP1 PUSH4 0xFFFFFFFF AND JUMP JUMPDEST SWAP2 POP PUSH2 0x11E2 DUP4 DUP4 PUSH2 0x315E JUMP JUMPDEST PUSH1 0x9 DUP13 ADD SLOAD PUSH1 0x8 DUP14 ADD SLOAD PUSH1 0x40 DUP1 MLOAD PUSH4 0x40C10F19 PUSH1 0xE0 SHL DUP2 MSTORE PUSH1 0x1 PUSH1 0x1 PUSH1 0xA0 SHL SUB SWAP3 DUP4 AND PUSH1 0x4 DUP3 ADD MSTORE PUSH1 0x24 DUP2 ADD DUP8 SWAP1 MSTORE SWAP1 MLOAD SWAP4 SWAP5 POP SWAP2 AND SWAP2 PUSH4 0x40C10F19 SWAP2 PUSH1 0x44 DUP1 DUP3 ADD SWAP3 PUSH1 0x0 SWAP3 SWAP1 SWAP2 SWAP1 DUP3 SWAP1 SUB ADD DUP2 DUP4 DUP8 DUP1 EXTCODESIZE ISZERO DUP1 ISZERO PUSH2 0x1240 JUMPI PUSH1 0x0 DUP1 REVERT JUMPDEST POP GAS CALL ISZERO DUP1 ISZERO PUSH2 0x1254 JUMPI RETURNDATASIZE PUSH1 0x0 DUP1 RETURNDATACOPY RETURNDATASIZE PUSH1 0x0 REVERT JUMPDEST POP POP POP PUSH1 0x9 DUP13 ADD SLOAD PUSH1 0x40 DUP1 MLOAD PUSH4 0x40C10F19 PUSH1 0xE0 SHL DUP2 MSTORE CALLER PUSH1 0x4 DUP3 ADD MSTORE PUSH1 0x24 DUP2 ADD DUP6 SWAP1 MSTORE SWAP1 MLOAD PUSH1 0x1 PUSH1 0x1 PUSH1 0xA0 SHL SUB SWAP1 SWAP3 AND SWAP3 POP PUSH4 0x40C10F19 SWAP2 PUSH1 0x44 DUP1 DUP4 ADD SWAP3 PUSH1 0x0 SWAP3 SWAP2 SWAP1 DUP3 SWAP1 SUB ADD DUP2 DUP4 DUP8 DUP1 EXTCODESIZE ISZERO DUP1 ISZERO PUSH2 0x12AC JUMPI PUSH1 0x0 DUP1 REVERT JUMPDEST POP GAS CALL ISZERO DUP1 ISZERO PUSH2 0x12C0 JUMPI RETURNDATASIZE PUSH1 0x0 DUP1 RETURNDATACOPY RETURNDATASIZE PUSH1 0x0 REVERT JUMPDEST POP POP POP POP JUMPDEST CALLER PUSH1 0x1 PUSH1 0x1 PUSH1 0xA0 SHL SUB AND PUSH32 0x189C623B666B1B45B83D7178F39B8C087CB09774317CA2F53C2D3C3726F222A2 DUP12 DUP10 DUP9 PUSH1 0x20 ADD MLOAD DUP8 DUP12 ADD PUSH1 0x40 MLOAD DUP1 DUP1 PUSH1 0x20 ADD DUP1 PUSH1 0x20 ADD DUP6 DUP2 MSTORE PUSH1 0x20 ADD DUP5 DUP2 MSTORE PUSH1 0x20 ADD DUP4 DUP2 SUB DUP4 MSTORE DUP8 DUP2 DUP2 MLOAD DUP2 MSTORE PUSH1 0x20 ADD SWAP2 POP DUP1 MLOAD SWAP1 PUSH1 0x20 ADD SWAP1 PUSH1 0x20 MUL DUP1 DUP4 DUP4 PUSH1 0x0 JUMPDEST DUP4 DUP2 LT ISZERO PUSH2 0x134A JUMPI DUP2 DUP2 ADD MLOAD DUP4 DUP3 ADD MSTORE PUSH1 0x20 ADD PUSH2 0x1332 JUMP JUMPDEST POP POP POP POP SWAP1 POP ADD DUP4 DUP2 SUB DUP3 MSTORE DUP7 DUP2 DUP2 MLOAD DUP2 MSTORE PUSH1 0x20 ADD SWAP2 POP DUP1 MLOAD SWAP1 PUSH1 0x20 ADD SWAP1 PUSH1 0x20 MUL DUP1 DUP4 DUP4 PUSH1 0x0 JUMPDEST DUP4 DUP2 LT ISZERO PUSH2 0x1389 JUMPI DUP2 DUP2 ADD MLOAD DUP4 DUP3 ADD MSTORE PUSH1 0x20 ADD PUSH2 0x1371 JUMP JUMPDEST POP POP POP POP SWAP1 POP ADD SWAP7 POP POP POP POP POP POP POP PUSH1 0x40 MLOAD DUP1 SWAP2 SUB SWAP1 LOG2 POP SWAP1 SWAP6 POP POP POP POP POP POP JUMPDEST SWAP4 SWAP3 POP POP POP JUMP JUMPDEST PUSH1 0xA DUP4 ADD SLOAD DUP3 MLOAD PUSH1 0x0 SWAP2 EQ PUSH2 0x140D JUMPI PUSH1 0x40 DUP1 MLOAD PUSH3 0x461BCD PUSH1 0xE5 SHL DUP2 MSTORE PUSH1 0x20 PUSH1 0x4 DUP3 ADD DUP2 SWAP1 MSTORE PUSH1 0x24 DUP3 ADD MSTORE PUSH32 0x416D6F756E74732073686F756C64206D6174636820706F6F6C20746F6B656E73 PUSH1 0x44 DUP3 ADD MSTORE SWAP1 MLOAD SWAP1 DUP2 SWAP1 SUB PUSH1 0x64 ADD SWAP1 REVERT JUMPDEST PUSH1 0x9 DUP5 ADD SLOAD PUSH1 0x40 DUP1 MLOAD PUSH4 0x70A08231 PUSH1 0xE0 SHL DUP2 MSTORE CALLER PUSH1 0x4 DUP3 ADD MSTORE SWAP1 MLOAD PUSH1 0x1 PUSH1 0x1 PUSH1 0xA0 SHL SUB SWAP1 SWAP3 AND SWAP2 PUSH4 0x70A08231 SWAP2 PUSH1 0x24 DUP1 DUP3 ADD SWAP3 PUSH1 0x20 SWAP3 SWAP1 SWAP2 SWAP1 DUP3 SWAP1 SUB ADD DUP2 DUP7 DUP1 EXTCODESIZE ISZERO DUP1 ISZERO PUSH2 0x145A JUMPI PUSH1 0x0 DUP1 REVERT JUMPDEST POP GAS STATICCALL ISZERO DUP1 ISZERO PUSH2 0x146E JUMPI RETURNDATASIZE PUSH1 0x0 DUP1 RETURNDATACOPY RETURNDATASIZE PUSH1 0x0 REVERT JUMPDEST POP POP POP POP PUSH1 0x40 MLOAD RETURNDATASIZE PUSH1 0x20 DUP2 LT ISZERO PUSH2 0x1484 JUMPI PUSH1 0x0 DUP1 REVERT JUMPDEST POP MLOAD DUP3 GT DUP1 ISZERO SWAP1 PUSH2 0x1494 JUMPI POP DUP2 ISZERO ISZERO JUMPDEST PUSH2 0x14D5 JUMPI PUSH1 0x40 DUP1 MLOAD PUSH3 0x461BCD PUSH1 0xE5 SHL DUP2 MSTORE PUSH1 0x20 PUSH1 0x4 DUP3 ADD MSTORE PUSH1 0xD PUSH1 0x24 DUP3 ADD MSTORE PUSH13 0x1F2628173130B630B731B2A7B3 PUSH1 0x99 SHL PUSH1 0x44 DUP3 ADD MSTORE SWAP1 MLOAD SWAP1 DUP2 SWAP1 SUB PUSH1 0x64 ADD SWAP1 REVERT JUMPDEST PUSH2 0x14DD PUSH2 0x4743 JUMP JUMPDEST PUSH1 0x40 MLOAD DUP1 PUSH1 0x80 ADD PUSH1 0x40 MSTORE DUP1 PUSH1 0x0 DUP2 MSTORE PUSH1 0x20 ADD PUSH1 0x0 DUP2 MSTORE PUSH1 0x20 ADD PUSH1 0x0 DUP2 MSTORE PUSH1 0x20 ADD PUSH1 0x0 DUP2 MSTORE POP SWAP1 POP PUSH1 0x0 DUP6 PUSH1 0x9 ADD PUSH1 0x0 SWAP1 SLOAD SWAP1 PUSH2 0x100 EXP SWAP1 DIV PUSH1 0x1 PUSH1 0x1 PUSH1 0xA0 SHL SUB AND PUSH1 0x1 PUSH1 0x1 PUSH1 0xA0 SHL SUB AND PUSH4 0x18160DDD PUSH1 0x40 MLOAD DUP2 PUSH4 0xFFFFFFFF AND PUSH1 0xE0 SHL DUP2 MSTORE PUSH1 0x4 ADD PUSH1 0x20 PUSH1 0x40 MLOAD DUP1 DUP4 SUB DUP2 DUP7 DUP1 EXTCODESIZE ISZERO DUP1 ISZERO PUSH2 0x1556 JUMPI PUSH1 0x0 DUP1 REVERT JUMPDEST POP GAS STATICCALL ISZERO DUP1 ISZERO PUSH2 0x156A JUMPI RETURNDATASIZE PUSH1 0x0 DUP1 RETURNDATACOPY RETURNDATASIZE PUSH1 0x0 REVERT JUMPDEST POP POP POP POP PUSH1 0x40 MLOAD RETURNDATASIZE PUSH1 0x20 DUP2 LT ISZERO PUSH2 0x1580 JUMPI PUSH1 0x0 DUP1 REVERT JUMPDEST POP MLOAD SWAP1 POP PUSH1 0x0 PUSH2 0x158F DUP8 PUSH2 0x35AE JUMP JUMPDEST SWAP1 POP PUSH1 0x60 DUP8 PUSH1 0xC ADD DUP1 SLOAD DUP1 PUSH1 0x20 MUL PUSH1 0x20 ADD PUSH1 0x40 MLOAD SWAP1 DUP2 ADD PUSH1 0x40 MSTORE DUP1 SWAP3 SWAP2 SWAP1 DUP2 DUP2 MSTORE PUSH1 0x20 ADD DUP3 DUP1 SLOAD DUP1 ISZERO PUSH2 0x15E1 JUMPI PUSH1 0x20 MUL DUP3 ADD SWAP2 SWAP1 PUSH1 0x0 MSTORE PUSH1 0x20 PUSH1 0x0 KECCAK256 SWAP1 JUMPDEST DUP2 SLOAD DUP2 MSTORE PUSH1 0x20 ADD SWAP1 PUSH1 0x1 ADD SWAP1 DUP1 DUP4 GT PUSH2 0x15CD JUMPI JUMPDEST POP POP POP POP POP SWAP1 POP PUSH2 0x15F1 DUP9 PUSH2 0x32DE JUMP JUMPDEST PUSH1 0x60 DUP6 ADD MSTORE PUSH2 0x160C PUSH2 0x1602 DUP10 PUSH2 0x369B JUMP JUMPDEST DUP6 PUSH1 0x60 ADD MLOAD PUSH2 0x33D1 JUMP JUMPDEST DUP5 MSTORE PUSH1 0x0 JUMPDEST PUSH1 0xA DUP10 ADD SLOAD DUP2 LT ISZERO PUSH2 0x168F JUMPI PUSH2 0x1670 DUP9 DUP3 DUP2 MLOAD DUP2 LT PUSH2 0x162C JUMPI INVALID JUMPDEST PUSH1 0x20 MUL PUSH1 0x20 ADD ADD MLOAD PUSH1 0x40 MLOAD DUP1 PUSH1 0x60 ADD PUSH1 0x40 MSTORE DUP1 PUSH1 0x23 DUP2 MSTORE PUSH1 0x20 ADD PUSH2 0x4846 PUSH1 0x23 SWAP2 CODECOPY DUP5 DUP5 DUP2 MLOAD DUP2 LT PUSH2 0x1659 JUMPI INVALID JUMPDEST PUSH1 0x20 MUL PUSH1 0x20 ADD ADD MLOAD PUSH2 0x3749 SWAP1 SWAP3 SWAP2 SWAP1 PUSH4 0xFFFFFFFF AND JUMP JUMPDEST DUP3 DUP3 DUP2 MLOAD DUP2 LT PUSH2 0x167C JUMPI INVALID JUMPDEST PUSH1 0x20 SWAP1 DUP2 MUL SWAP2 SWAP1 SWAP2 ADD ADD MSTORE PUSH1 0x1 ADD PUSH2 0x1611 JUMP JUMPDEST POP PUSH2 0x169D PUSH2 0x1602 DUP10 DUP4 PUSH2 0x3373 JUMP JUMPDEST PUSH1 0x20 DUP6 ADD MSTORE PUSH1 0xA DUP9 ADD SLOAD PUSH1 0x60 SWAP1 PUSH8 0xFFFFFFFFFFFFFFFF DUP2 GT DUP1 ISZERO PUSH2 0x16C0 JUMPI PUSH1 0x0 DUP1 REVERT JUMPDEST POP PUSH1 0x40 MLOAD SWAP1 DUP1 DUP3 MSTORE DUP1 PUSH1 0x20 MUL PUSH1 0x20 ADD DUP3 ADD PUSH1 0x40 MSTORE DUP1 ISZERO PUSH2 0x16EA JUMPI DUP2 PUSH1 0x20 ADD PUSH1 0x20 DUP3 MUL DUP1 CALLDATASIZE DUP4 CALLDATACOPY ADD SWAP1 POP JUMPDEST POP SWAP1 POP PUSH1 0x0 JUMPDEST PUSH1 0xA DUP11 ADD SLOAD DUP2 LT ISZERO PUSH2 0x188C JUMPI PUSH1 0x0 PUSH2 0x1736 DUP8 PUSH1 0x0 ADD MLOAD PUSH2 0xEEF DUP14 PUSH1 0xC ADD DUP6 DUP2 SLOAD DUP2 LT PUSH2 0x1718 JUMPI INVALID JUMPDEST SWAP1 PUSH1 0x0 MSTORE PUSH1 0x20 PUSH1 0x0 KECCAK256 ADD SLOAD DUP11 PUSH1 0x20 ADD MLOAD PUSH2 0x35DB SWAP1 SWAP2 SWAP1 PUSH4 0xFFFFFFFF AND JUMP JUMPDEST SWAP1 POP PUSH1 0x0 DUP2 PUSH20 0x0 PUSH4 0xA95CB7F7 SWAP1 SWAP2 DUP8 DUP7 DUP2 MLOAD DUP2 LT PUSH2 0x1763 JUMPI INVALID JUMPDEST PUSH1 0x20 MUL PUSH1 0x20 ADD ADD MLOAD PUSH1 0x40 MLOAD DUP4 PUSH4 0xFFFFFFFF AND PUSH1 0xE0 SHL DUP2 MSTORE PUSH1 0x4 ADD DUP1 DUP4 DUP2 MSTORE PUSH1 0x20 ADD DUP3 DUP2 MSTORE PUSH1 0x20 ADD SWAP3 POP POP POP PUSH1 0x20 PUSH1 0x40 MLOAD DUP1 DUP4 SUB DUP2 DUP7 DUP1 EXTCODESIZE ISZERO DUP1 ISZERO PUSH2 0x17A6 JUMPI PUSH1 0x0 DUP1 REVERT JUMPDEST POP GAS DELEGATECALL ISZERO DUP1 ISZERO PUSH2 0x17BA JUMPI RETURNDATASIZE PUSH1 0x0 DUP1 RETURNDATACOPY RETURNDATASIZE PUSH1 0x0 REVERT JUMPDEST POP POP POP POP PUSH1 0x40 MLOAD RETURNDATASIZE PUSH1 0x20 DUP2 LT ISZERO PUSH2 0x17D0 JUMPI PUSH1 0x0 DUP1 REVERT JUMPDEST POP MLOAD SWAP1 POP PUSH2 0x17E7 PUSH5 0x2540BE400 PUSH2 0xEEF DUP9 DUP5 PUSH2 0x35DB JUMP JUMPDEST DUP5 DUP5 DUP2 MLOAD DUP2 LT PUSH2 0x17F3 JUMPI INVALID JUMPDEST PUSH1 0x20 MUL PUSH1 0x20 ADD ADD DUP2 DUP2 MSTORE POP POP PUSH2 0x182B PUSH2 0x181F PUSH5 0x2540BE400 PUSH2 0xEEF DUP16 PUSH1 0x5 ADD SLOAD DUP9 DUP9 DUP2 MLOAD DUP2 LT PUSH2 0xFDA JUMPI INVALID JUMPDEST DUP7 DUP6 DUP2 MLOAD DUP2 LT PUSH2 0xFFC JUMPI INVALID JUMPDEST DUP13 PUSH1 0xC ADD DUP5 DUP2 SLOAD DUP2 LT PUSH2 0x183A JUMPI INVALID JUMPDEST SWAP1 PUSH1 0x0 MSTORE PUSH1 0x20 PUSH1 0x0 KECCAK256 ADD DUP2 SWAP1 SSTORE POP PUSH2 0x186B DUP5 DUP5 DUP2 MLOAD DUP2 LT PUSH2 0x1857 JUMPI INVALID JUMPDEST PUSH1 0x20 MUL PUSH1 0x20 ADD ADD MLOAD DUP7 DUP6 DUP2 MLOAD DUP2 LT PUSH2 0xFFC JUMPI INVALID JUMPDEST DUP6 DUP5 DUP2 MLOAD DUP2 LT PUSH2 0x1877 JUMPI INVALID JUMPDEST PUSH1 0x20 SWAP1 DUP2 MUL SWAP2 SWAP1 SWAP2 ADD ADD MSTORE POP POP PUSH1 0x1 ADD PUSH2 0x16F0 JUMP JUMPDEST POP PUSH2 0x18A4 PUSH2 0x189A DUP11 DUP5 PUSH2 0x3373 JUMP JUMPDEST DUP7 PUSH1 0x60 ADD MLOAD PUSH2 0x33D1 JUMP JUMPDEST PUSH1 0x40 DUP7 ADD DUP2 SWAP1 MSTORE DUP6 MLOAD PUSH1 0x0 SWAP2 PUSH2 0x18C6 SWAP2 SWAP1 PUSH2 0xEEF SWAP1 DUP9 SWAP1 PUSH2 0x10DD SWAP1 DUP5 SWAP1 PUSH2 0x315E JUMP JUMPDEST SWAP1 POP DUP1 PUSH2 0x191A JUMPI PUSH1 0x40 DUP1 MLOAD PUSH3 0x461BCD PUSH1 0xE5 SHL DUP2 MSTORE PUSH1 0x20 PUSH1 0x4 DUP3 ADD MSTORE PUSH1 0x1B PUSH1 0x24 DUP3 ADD MSTORE PUSH32 0x4275726E7420616D6F756E742063616E6E6F74206265207A65726F0000000000 PUSH1 0x44 DUP3 ADD MSTORE SWAP1 MLOAD SWAP1 DUP2 SWAP1 SUB PUSH1 0x64 ADD SWAP1 REVERT JUMPDEST PUSH2 0x194A PUSH2 0x1936 PUSH2 0x192A DUP13 CALLER PUSH2 0x2826 JUMP JUMPDEST PUSH5 0x2540BE400 SWAP1 PUSH2 0x315E JUMP JUMPDEST PUSH2 0xEEF PUSH5 0x2540BE400 PUSH2 0x10DD DUP6 PUSH1 0x1 PUSH2 0x3284 JUMP JUMPDEST SWAP1 POP DUP8 DUP2 GT ISZERO PUSH2 0x19A1 JUMPI PUSH1 0x40 DUP1 MLOAD PUSH3 0x461BCD PUSH1 0xE5 SHL DUP2 MSTORE PUSH1 0x20 PUSH1 0x4 DUP3 ADD MSTORE PUSH1 0x1B PUSH1 0x24 DUP3 ADD MSTORE PUSH32 0x746F6B656E416D6F756E74203E206D61784275726E416D6F756E740000000000 PUSH1 0x44 DUP3 ADD MSTORE SWAP1 MLOAD SWAP1 DUP2 SWAP1 SUB PUSH1 0x64 ADD SWAP1 REVERT JUMPDEST PUSH1 0x9 DUP11 ADD SLOAD PUSH1 0x40 DUP1 MLOAD PUSH4 0x79CC679 PUSH1 0xE4 SHL DUP2 MSTORE CALLER PUSH1 0x4 DUP3 ADD MSTORE PUSH1 0x24 DUP2 ADD DUP5 SWAP1 MSTORE SWAP1 MLOAD PUSH1 0x1 PUSH1 0x1 PUSH1 0xA0 SHL SUB SWAP1 SWAP3 AND SWAP2 PUSH4 0x79CC6790 SWAP2 PUSH1 0x44 DUP1 DUP3 ADD SWAP3 PUSH1 0x0 SWAP3 SWAP1 SWAP2 SWAP1 DUP3 SWAP1 SUB ADD DUP2 DUP4 DUP8 DUP1 EXTCODESIZE ISZERO DUP1 ISZERO PUSH2 0x19F6 JUMPI PUSH1 0x0 DUP1 REVERT JUMPDEST POP GAS CALL ISZERO DUP1 ISZERO PUSH2 0x1A0A JUMPI RETURNDATASIZE PUSH1 0x0 DUP1 RETURNDATACOPY RETURNDATASIZE PUSH1 0x0 REVERT JUMPDEST POP POP POP POP PUSH1 0x0 JUMPDEST PUSH1 0xA DUP12 ADD SLOAD DUP2 LT ISZERO PUSH2 0x1A68 JUMPI PUSH2 0x1A60 CALLER DUP12 DUP4 DUP2 MLOAD DUP2 LT PUSH2 0x1A2D JUMPI INVALID JUMPDEST PUSH1 0x20 MUL PUSH1 0x20 ADD ADD MLOAD DUP14 PUSH1 0xA ADD DUP5 DUP2 SLOAD DUP2 LT PUSH2 0x1A44 JUMPI INVALID JUMPDEST PUSH1 0x0 SWAP2 DUP3 MSTORE PUSH1 0x20 SWAP1 SWAP2 KECCAK256 ADD SLOAD PUSH1 0x1 PUSH1 0x1 PUSH1 0xA0 SHL SUB AND SWAP2 SWAP1 PUSH2 0x31BB JUMP JUMPDEST PUSH1 0x1 ADD PUSH2 0x1A11 JUMP JUMPDEST POP PUSH1 0x20 DUP7 ADD MLOAD CALLER SWAP1 PUSH32 0x3631C28B1F9DD213E0319FB167B554D76B6C283A41143EB400A0D1ADB1AF1755 SWAP1 DUP12 SWAP1 DUP6 SWAP1 PUSH2 0x1AA0 DUP11 DUP8 PUSH2 0x315E JUMP JUMPDEST PUSH1 0x40 MLOAD DUP1 DUP1 PUSH1 0x20 ADD DUP1 PUSH1 0x20 ADD DUP6 DUP2 MSTORE PUSH1 0x20 ADD DUP5 DUP2 MSTORE PUSH1 0x20 ADD DUP4 DUP2 SUB DUP4 MSTORE DUP8 DUP2 DUP2 MLOAD DUP2 MSTORE PUSH1 0x20 ADD SWAP2 POP DUP1 MLOAD SWAP1 PUSH1 0x20 ADD SWAP1 PUSH1 0x20 MUL DUP1 DUP4 DUP4 PUSH1 0x0 JUMPDEST DUP4 DUP2 LT ISZERO PUSH2 0x1AF0 JUMPI DUP2 DUP2 ADD MLOAD DUP4 DUP3 ADD MSTORE PUSH1 0x20 ADD PUSH2 0x1AD8 JUMP JUMPDEST POP POP POP POP SWAP1 POP ADD DUP4 DUP2 SUB DUP3 MSTORE DUP7 DUP2 DUP2 MLOAD DUP2 MSTORE PUSH1 0x20 ADD SWAP2 POP DUP1 MLOAD SWAP1 PUSH1 0x20 ADD SWAP1 PUSH1 0x20 MUL DUP1 DUP4 DUP4 PUSH1 0x0 JUMPDEST DUP4 DUP2 LT ISZERO PUSH2 0x1B2F JUMPI DUP2 DUP2 ADD MLOAD DUP4 DUP3 ADD MSTORE PUSH1 0x20 ADD PUSH2 0x1B17 JUMP JUMPDEST POP POP POP POP SWAP1 POP ADD SWAP7 POP POP POP POP POP POP POP PUSH1 0x40 MLOAD DUP1 SWAP2 SUB SWAP1 LOG2 SWAP10 SWAP9 POP POP POP POP POP POP POP POP POP JUMP JUMPDEST PUSH1 0x8 DUP3 ADD SLOAD PUSH1 0x1 PUSH1 0x1 PUSH1 0xA0 SHL SUB AND CALLER EQ PUSH2 0x1BA0 JUMPI PUSH1 0x40 DUP1 MLOAD PUSH3 0x461BCD PUSH1 0xE5 SHL DUP2 MSTORE PUSH1 0x20 PUSH1 0x4 DUP3 ADD MSTORE PUSH1 0x9 PUSH1 0x24 DUP3 ADD MSTORE PUSH9 0x6465763A207775743F PUSH1 0xB8 SHL PUSH1 0x44 DUP3 ADD MSTORE SWAP1 MLOAD SWAP1 DUP2 SWAP1 SUB PUSH1 0x64 ADD SWAP1 REVERT JUMPDEST CALLER PUSH2 0x1BE4 JUMPI PUSH1 0x40 DUP1 MLOAD PUSH3 0x461BCD PUSH1 0xE5 SHL DUP2 MSTORE PUSH1 0x20 PUSH1 0x4 DUP3 ADD MSTORE PUSH1 0xF PUSH1 0x24 DUP3 ADD MSTORE PUSH15 0x696E76616C69642061646472657373 PUSH1 0x88 SHL PUSH1 0x44 DUP3 ADD MSTORE SWAP1 MLOAD SWAP1 DUP2 SWAP1 SUB PUSH1 0x64 ADD SWAP1 REVERT JUMPDEST PUSH1 0x8 SWAP2 SWAP1 SWAP2 ADD DUP1 SLOAD PUSH1 0x1 PUSH1 0x1 PUSH1 0xA0 SHL SUB NOT AND PUSH1 0x1 PUSH1 0x1 PUSH1 0xA0 SHL SUB SWAP1 SWAP3 AND SWAP2 SWAP1 SWAP2 OR SWAP1 SSTORE JUMP JUMPDEST PUSH4 0x5F5E100 DUP2 GT ISZERO PUSH2 0x1C54 JUMPI PUSH1 0x40 DUP1 MLOAD PUSH3 0x461BCD PUSH1 0xE5 SHL DUP2 MSTORE PUSH1 0x20 PUSH1 0x4 DUP3 ADD MSTORE PUSH1 0xF PUSH1 0x24 DUP3 ADD MSTORE PUSH15 0x8CCACA40D2E640E8DEDE40D0D2CED PUSH1 0x8B SHL PUSH1 0x44 DUP3 ADD MSTORE SWAP1 MLOAD SWAP1 DUP2 SWAP1 SUB PUSH1 0x64 ADD SWAP1 REVERT JUMPDEST PUSH1 0x4 DUP3 ADD DUP2 SWAP1 SSTORE PUSH1 0x40 DUP1 MLOAD DUP3 DUP2 MSTORE SWAP1 MLOAD PUSH32 0xD88EA5155021C6F8DAFA1A741E173F595CDF77CE7C17D43342131D7F06AFDFE5 SWAP2 DUP2 SWAP1 SUB PUSH1 0x20 ADD SWAP1 LOG1 POP POP JUMP JUMPDEST PUSH1 0x0 PUSH2 0x1CA0 DUP6 DUP6 DUP6 DUP6 PUSH2 0x37E0 JUMP JUMPDEST POP SWAP6 SWAP5 POP POP POP POP POP JUMP JUMPDEST PUSH1 0x2 DUP4 ADD SLOAD PUSH2 0x1CBC SWAP1 PUSH3 0x15180 PUSH2 0x3284 JUMP JUMPDEST TIMESTAMP LT ISZERO PUSH2 0x1D10 JUMPI PUSH1 0x40 DUP1 MLOAD PUSH3 0x461BCD PUSH1 0xE5 SHL DUP2 MSTORE PUSH1 0x20 PUSH1 0x4 DUP3 ADD MSTORE PUSH1 0x1F PUSH1 0x24 DUP3 ADD MSTORE PUSH32 0x57616974203120646179206265666F7265207374617274696E672072616D7000 PUSH1 0x44 DUP3 ADD MSTORE SWAP1 MLOAD SWAP1 DUP2 SWAP1 SUB PUSH1 0x64 ADD SWAP1 REVERT JUMPDEST PUSH2 0x1D1D TIMESTAMP PUSH3 0x127500 PUSH2 0x3284 JUMP JUMPDEST DUP2 LT ISZERO PUSH2 0x1D6A JUMPI PUSH1 0x40 DUP1 MLOAD PUSH3 0x461BCD PUSH1 0xE5 SHL DUP2 MSTORE PUSH1 0x20 PUSH1 0x4 DUP3 ADD MSTORE PUSH1 0x16 PUSH1 0x24 DUP3 ADD MSTORE PUSH22 0x496E73756666696369656E742072616D702074696D65 PUSH1 0x50 SHL PUSH1 0x44 DUP3 ADD MSTORE SWAP1 MLOAD SWAP1 DUP2 SWAP1 SUB PUSH1 0x64 ADD SWAP1 REVERT JUMPDEST PUSH1 0x0 DUP3 GT DUP1 ISZERO PUSH2 0x1D7C JUMPI POP PUSH3 0xF4240 DUP3 LT JUMPDEST PUSH2 0x1DCD JUMPI PUSH1 0x40 DUP1 MLOAD PUSH3 0x461BCD PUSH1 0xE5 SHL DUP2 MSTORE PUSH1 0x20 PUSH1 0x4 DUP3 ADD DUP2 SWAP1 MSTORE PUSH1 0x24 DUP3 ADD MSTORE PUSH32 0x667574757265415F206D757374206265203E203020616E64203C204D41585F41 PUSH1 0x44 DUP3 ADD MSTORE SWAP1 MLOAD SWAP1 DUP2 SWAP1 SUB PUSH1 0x64 ADD SWAP1 REVERT JUMPDEST PUSH1 0x0 PUSH2 0x1DD8 DUP5 PUSH2 0x32DE JUMP JUMPDEST SWAP1 POP PUSH1 0x0 PUSH2 0x1DE7 DUP5 PUSH1 0x64 PUSH2 0x35DB JUMP JUMPDEST SWAP1 POP DUP2 DUP2 LT ISZERO PUSH2 0x1E4D JUMPI DUP2 PUSH2 0x1DFD DUP3 PUSH1 0x2 PUSH2 0x35DB JUMP JUMPDEST LT ISZERO PUSH2 0x1E48 JUMPI PUSH1 0x40 DUP1 MLOAD PUSH3 0x461BCD PUSH1 0xE5 SHL DUP2 MSTORE PUSH1 0x20 PUSH1 0x4 DUP3 ADD MSTORE PUSH1 0x15 PUSH1 0x24 DUP3 ADD MSTORE PUSH21 0x199D5D1D5C995057C81A5CC81D1BDBC81CDB585B1B PUSH1 0x5A SHL PUSH1 0x44 DUP3 ADD MSTORE SWAP1 MLOAD SWAP1 DUP2 SWAP1 SUB PUSH1 0x64 ADD SWAP1 REVERT JUMPDEST PUSH2 0x1EA4 JUMP JUMPDEST PUSH2 0x1E58 DUP3 PUSH1 0x2 PUSH2 0x35DB JUMP JUMPDEST DUP2 GT ISZERO PUSH2 0x1EA4 JUMPI PUSH1 0x40 DUP1 MLOAD PUSH3 0x461BCD PUSH1 0xE5 SHL DUP2 MSTORE PUSH1 0x20 PUSH1 0x4 DUP3 ADD MSTORE PUSH1 0x15 PUSH1 0x24 DUP3 ADD MSTORE PUSH21 0x667574757265415F20697320746F6F206C61726765 PUSH1 0x58 SHL PUSH1 0x44 DUP3 ADD MSTORE SWAP1 MLOAD SWAP1 DUP2 SWAP1 SUB PUSH1 0x64 ADD SWAP1 REVERT JUMPDEST DUP2 DUP6 SSTORE PUSH1 0x1 DUP6 ADD DUP2 SWAP1 SSTORE TIMESTAMP PUSH1 0x2 DUP7 ADD DUP2 SWAP1 SSTORE PUSH1 0x3 DUP7 ADD DUP5 SWAP1 SSTORE PUSH1 0x40 DUP1 MLOAD DUP5 DUP2 MSTORE PUSH1 0x20 DUP2 ADD DUP5 SWAP1 MSTORE DUP1 DUP3 ADD SWAP3 SWAP1 SWAP3 MSTORE PUSH1 0x60 DUP3 ADD DUP6 SWAP1 MSTORE MLOAD PUSH32 0xA2B71EC6DF949300B59AAB36B55E189697B750119DD349FCFA8C0F779E83C254 SWAP2 DUP2 SWAP1 SUB PUSH1 0x80 ADD SWAP1 LOG1 POP POP POP POP POP JUMP JUMPDEST PUSH1 0xA DUP6 ADD SLOAD PUSH1 0x0 SWAP1 DUP2 PUSH2 0x1F1D DUP9 PUSH2 0x32DE JUMP JUMPDEST SWAP1 POP PUSH1 0x0 PUSH2 0x1F86 PUSH2 0x1F80 DUP11 DUP12 PUSH1 0xC ADD DUP1 SLOAD DUP1 PUSH1 0x20 MUL PUSH1 0x20 ADD PUSH1 0x40 MLOAD SWAP1 DUP2 ADD PUSH1 0x40 MSTORE DUP1 SWAP3 SWAP2 SWAP1 DUP2 DUP2 MSTORE PUSH1 0x20 ADD DUP3 DUP1 SLOAD DUP1 ISZERO PUSH2 0x1F76 JUMPI PUSH1 0x20 MUL DUP3 ADD SWAP2 SWAP1 PUSH1 0x0 MSTORE PUSH1 0x20 PUSH1 0x0 KECCAK256 SWAP1 JUMPDEST DUP2 SLOAD DUP2 MSTORE PUSH1 0x20 ADD SWAP1 PUSH1 0x1 ADD SWAP1 DUP1 DUP4 GT PUSH2 0x1F62 JUMPI JUMPDEST POP POP POP POP POP PUSH2 0x3373 JUMP JUMPDEST DUP4 PUSH2 0x33D1 JUMP JUMPDEST SWAP1 POP PUSH1 0x60 DUP10 PUSH1 0xC ADD DUP1 SLOAD DUP1 PUSH1 0x20 MUL PUSH1 0x20 ADD PUSH1 0x40 MLOAD SWAP1 DUP2 ADD PUSH1 0x40 MSTORE DUP1 SWAP3 SWAP2 SWAP1 DUP2 DUP2 MSTORE PUSH1 0x20 ADD DUP3 DUP1 SLOAD DUP1 ISZERO PUSH2 0x1FD8 JUMPI PUSH1 0x20 MUL DUP3 ADD SWAP2 SWAP1 PUSH1 0x0 MSTORE PUSH1 0x20 PUSH1 0x0 KECCAK256 SWAP1 JUMPDEST DUP2 SLOAD DUP2 MSTORE PUSH1 0x20 ADD SWAP1 PUSH1 0x1 ADD SWAP1 DUP1 DUP4 GT PUSH2 0x1FC4 JUMPI JUMPDEST POP POP POP POP POP SWAP1 POP PUSH1 0x0 JUMPDEST DUP5 DUP2 LT ISZERO PUSH2 0x20A1 JUMPI DUP7 ISZERO PUSH2 0x2045 JUMPI PUSH2 0x2028 DUP10 DUP10 DUP4 DUP2 DUP2 LT PUSH2 0x1FFF JUMPI INVALID JUMPDEST SWAP1 POP PUSH1 0x20 MUL ADD CALLDATALOAD DUP4 DUP4 DUP2 MLOAD DUP2 LT PUSH2 0x2012 JUMPI INVALID JUMPDEST PUSH1 0x20 MUL PUSH1 0x20 ADD ADD MLOAD PUSH2 0x3284 SWAP1 SWAP2 SWAP1 PUSH4 0xFFFFFFFF AND JUMP JUMPDEST DUP3 DUP3 DUP2 MLOAD DUP2 LT PUSH2 0x2034 JUMPI INVALID JUMPDEST PUSH1 0x20 MUL PUSH1 0x20 ADD ADD DUP2 DUP2 MSTORE POP POP PUSH2 0x2099 JUMP JUMPDEST PUSH2 0x2080 DUP10 DUP10 DUP4 DUP2 DUP2 LT PUSH2 0x2054 JUMPI INVALID JUMPDEST SWAP1 POP PUSH1 0x20 MUL ADD CALLDATALOAD PUSH1 0x40 MLOAD DUP1 PUSH1 0x60 ADD PUSH1 0x40 MSTORE DUP1 PUSH1 0x23 DUP2 MSTORE PUSH1 0x20 ADD PUSH2 0x4846 PUSH1 0x23 SWAP2 CODECOPY DUP5 DUP5 DUP2 MLOAD DUP2 LT PUSH2 0x1659 JUMPI INVALID JUMPDEST DUP3 DUP3 DUP2 MLOAD DUP2 LT PUSH2 0x208C JUMPI INVALID JUMPDEST PUSH1 0x20 MUL PUSH1 0x20 ADD ADD DUP2 DUP2 MSTORE POP POP JUMPDEST PUSH1 0x1 ADD PUSH2 0x1FE2 JUMP JUMPDEST POP PUSH1 0x0 PUSH2 0x20B7 PUSH2 0x20B1 DUP13 DUP5 PUSH2 0x3373 JUMP JUMPDEST DUP6 PUSH2 0x33D1 JUMP JUMPDEST SWAP1 POP PUSH1 0x0 DUP12 PUSH1 0x9 ADD PUSH1 0x0 SWAP1 SLOAD SWAP1 PUSH2 0x100 EXP SWAP1 DIV PUSH1 0x1 PUSH1 0x1 PUSH1 0xA0 SHL SUB AND PUSH1 0x1 PUSH1 0x1 PUSH1 0xA0 SHL SUB AND PUSH4 0x18160DDD PUSH1 0x40 MLOAD DUP2 PUSH4 0xFFFFFFFF AND PUSH1 0xE0 SHL DUP2 MSTORE PUSH1 0x4 ADD PUSH1 0x20 PUSH1 0x40 MLOAD DUP1 DUP4 SUB DUP2 DUP7 DUP1 EXTCODESIZE ISZERO DUP1 ISZERO PUSH2 0x210B JUMPI PUSH1 0x0 DUP1 REVERT JUMPDEST POP GAS STATICCALL ISZERO DUP1 ISZERO PUSH2 0x211F JUMPI RETURNDATASIZE PUSH1 0x0 DUP1 RETURNDATACOPY RETURNDATASIZE PUSH1 0x0 REVERT JUMPDEST POP POP POP POP PUSH1 0x40 MLOAD RETURNDATASIZE PUSH1 0x20 DUP2 LT ISZERO PUSH2 0x2135 JUMPI PUSH1 0x0 DUP1 REVERT JUMPDEST POP MLOAD SWAP1 POP DUP8 ISZERO PUSH2 0x215E JUMPI PUSH2 0x2151 DUP5 PUSH2 0xEEF DUP4 PUSH2 0x10DD DUP7 DUP5 PUSH2 0x315E JUMP JUMPDEST SWAP7 POP POP POP POP POP POP POP PUSH2 0x2185 JUMP JUMPDEST PUSH2 0x2151 PUSH2 0x216E PUSH2 0x192A DUP15 DUP15 PUSH2 0x2826 JUMP JUMPDEST PUSH2 0xEEF PUSH5 0x2540BE400 PUSH2 0x10DD DUP9 DUP4 DUP8 DUP4 DUP4 DUP12 PUSH2 0x315E JUMP JUMPDEST SWAP6 SWAP5 POP POP POP POP POP JUMP JUMPDEST PUSH5 0x2540BE400 DUP2 GT ISZERO PUSH2 0x21DA JUMPI PUSH1 0x40 DUP1 MLOAD PUSH3 0x461BCD PUSH1 0xE5 SHL DUP2 MSTORE PUSH1 0x20 PUSH1 0x4 DUP3 ADD MSTORE PUSH1 0xF PUSH1 0x24 DUP3 ADD MSTORE PUSH15 0x8CCACA40D2E640E8DEDE40D0D2CED PUSH1 0x8B SHL PUSH1 0x44 DUP3 ADD MSTORE SWAP1 MLOAD SWAP1 DUP2 SWAP1 SUB PUSH1 0x64 ADD SWAP1 REVERT JUMPDEST PUSH1 0x5 DUP3 ADD DUP2 SWAP1 SSTORE PUSH1 0x40 DUP1 MLOAD DUP3 DUP2 MSTORE SWAP1 MLOAD PUSH32 0xAB599D640CA80CDE2B09B128A4154A8DFE608CB80F4C9399C8B954B01FD35F38 SWAP2 DUP2 SWAP1 SUB PUSH1 0x20 ADD SWAP1 LOG1 POP POP JUMP JUMPDEST PUSH1 0x0 DUP1 PUSH2 0x2235 PUSH2 0x2227 DUP5 PUSH2 0x369B JUMP JUMPDEST PUSH2 0x2230 DUP6 PUSH2 0x32DE JUMP JUMPDEST PUSH2 0x33D1 JUMP JUMPDEST SWAP1 POP PUSH1 0x0 DUP4 PUSH1 0x9 ADD PUSH1 0x0 SWAP1 SLOAD SWAP1 PUSH2 0x100 EXP SWAP1 DIV PUSH1 0x1 PUSH1 0x1 PUSH1 0xA0 SHL SUB AND PUSH1 0x1 PUSH1 0x1 PUSH1 0xA0 SHL SUB AND PUSH4 0x18160DDD PUSH1 0x40 MLOAD DUP2 PUSH4 0xFFFFFFFF AND PUSH1 0xE0 SHL DUP2 MSTORE PUSH1 0x4 ADD PUSH1 0x20 PUSH1 0x40 MLOAD DUP1 DUP4 SUB DUP2 DUP7 DUP1 EXTCODESIZE ISZERO DUP1 ISZERO PUSH2 0x2289 JUMPI PUSH1 0x0 DUP1 REVERT JUMPDEST POP GAS STATICCALL ISZERO DUP1 ISZERO PUSH2 0x229D JUMPI RETURNDATASIZE PUSH1 0x0 DUP1 RETURNDATACOPY RETURNDATASIZE PUSH1 0x0 REVERT JUMPDEST POP POP POP POP PUSH1 0x40 MLOAD RETURNDATASIZE PUSH1 0x20 DUP2 LT ISZERO PUSH2 0x22B3 JUMPI PUSH1 0x0 DUP1 REVERT JUMPDEST POP MLOAD SWAP1 POP DUP1 ISZERO PUSH2 0x2356 JUMPI PUSH2 0x234D DUP2 PUSH2 0xEEF DUP7 PUSH1 0x9 ADD PUSH1 0x0 SWAP1 SLOAD SWAP1 PUSH2 0x100 EXP SWAP1 DIV PUSH1 0x1 PUSH1 0x1 PUSH1 0xA0 SHL SUB AND PUSH1 0x1 PUSH1 0x1 PUSH1 0xA0 SHL SUB AND PUSH4 0x313CE567 PUSH1 0x40 MLOAD DUP2 PUSH4 0xFFFFFFFF AND PUSH1 0xE0 SHL DUP2 MSTORE PUSH1 0x4 ADD PUSH1 0x20 PUSH1 0x40 MLOAD DUP1 DUP4 SUB DUP2 DUP7 DUP1 EXTCODESIZE ISZERO DUP1 ISZERO PUSH2 0x2314 JUMPI PUSH1 0x0 DUP1 REVERT JUMPDEST POP GAS STATICCALL ISZERO DUP1 ISZERO PUSH2 0x2328 JUMPI RETURNDATASIZE PUSH1 0x0 DUP1 RETURNDATACOPY RETURNDATASIZE PUSH1 0x0 REVERT JUMPDEST POP POP POP POP PUSH1 0x40 MLOAD RETURNDATASIZE PUSH1 0x20 DUP2 LT ISZERO PUSH2 0x233E JUMPI PUSH1 0x0 DUP1 REVERT JUMPDEST POP MLOAD DUP6 SWAP1 PUSH1 0xFF AND PUSH1 0xA EXP PUSH2 0x35DB JUMP JUMPDEST SWAP3 POP POP POP PUSH2 0x235D JUMP JUMPDEST PUSH1 0x0 SWAP3 POP POP POP JUMPDEST SWAP2 SWAP1 POP JUMP JUMPDEST PUSH1 0x9 DUP5 ADD SLOAD PUSH1 0x40 DUP1 MLOAD PUSH4 0x70A08231 PUSH1 0xE0 SHL DUP2 MSTORE CALLER PUSH1 0x4 DUP3 ADD MSTORE SWAP1 MLOAD PUSH1 0x60 SWAP3 PUSH1 0x1 PUSH1 0x1 PUSH1 0xA0 SHL SUB AND SWAP2 PUSH4 0x70A08231 SWAP2 PUSH1 0x24 DUP1 DUP4 ADD SWAP3 PUSH1 0x20 SWAP3 SWAP2 SWAP1 DUP3 SWAP1 SUB ADD DUP2 DUP7 DUP1 EXTCODESIZE ISZERO DUP1 ISZERO PUSH2 0x23AF JUMPI PUSH1 0x0 DUP1 REVERT JUMPDEST POP GAS STATICCALL ISZERO DUP1 ISZERO PUSH2 0x23C3 JUMPI RETURNDATASIZE PUSH1 0x0 DUP1 RETURNDATACOPY RETURNDATASIZE PUSH1 0x0 REVERT JUMPDEST POP POP POP POP PUSH1 0x40 MLOAD RETURNDATASIZE PUSH1 0x20 DUP2 LT ISZERO PUSH2 0x23D9 JUMPI PUSH1 0x0 DUP1 REVERT JUMPDEST POP MLOAD DUP5 GT ISZERO PUSH2 0x241F JUMPI PUSH1 0x40 DUP1 MLOAD PUSH3 0x461BCD PUSH1 0xE5 SHL DUP2 MSTORE PUSH1 0x20 PUSH1 0x4 DUP3 ADD MSTORE PUSH1 0xD PUSH1 0x24 DUP3 ADD MSTORE PUSH13 0x1F2628173130B630B731B2A7B3 PUSH1 0x99 SHL PUSH1 0x44 DUP3 ADD MSTORE SWAP1 MLOAD SWAP1 DUP2 SWAP1 SUB PUSH1 0x64 ADD SWAP1 REVERT JUMPDEST PUSH1 0xA DUP6 ADD SLOAD DUP3 EQ PUSH2 0x2477 JUMPI PUSH1 0x40 DUP1 MLOAD PUSH3 0x461BCD PUSH1 0xE5 SHL DUP2 MSTORE PUSH1 0x20 PUSH1 0x4 DUP3 ADD DUP2 SWAP1 MSTORE PUSH1 0x24 DUP3 ADD MSTORE PUSH32 0x6D696E416D6F756E7473206D757374206D6174636820706F6F6C546F6B656E73 PUSH1 0x44 DUP3 ADD MSTORE SWAP1 MLOAD SWAP1 DUP2 SWAP1 SUB PUSH1 0x64 ADD SWAP1 REVERT JUMPDEST PUSH1 0x60 PUSH2 0x2484 DUP7 CALLER DUP8 PUSH2 0x3925 JUMP JUMPDEST SWAP1 POP PUSH1 0x0 JUMPDEST DUP2 MLOAD DUP2 LT ISZERO PUSH2 0x2597 JUMPI DUP5 DUP5 DUP3 DUP2 DUP2 LT PUSH2 0x249E JUMPI INVALID JUMPDEST SWAP1 POP PUSH1 0x20 MUL ADD CALLDATALOAD DUP3 DUP3 DUP2 MLOAD DUP2 LT PUSH2 0x24B1 JUMPI INVALID JUMPDEST PUSH1 0x20 MUL PUSH1 0x20 ADD ADD MLOAD LT ISZERO PUSH2 0x250C JUMPI PUSH1 0x40 DUP1 MLOAD PUSH3 0x461BCD PUSH1 0xE5 SHL DUP2 MSTORE PUSH1 0x20 PUSH1 0x4 DUP3 ADD MSTORE PUSH1 0x1A PUSH1 0x24 DUP3 ADD MSTORE PUSH32 0x616D6F756E74735B695D203C206D696E416D6F756E74735B695D000000000000 PUSH1 0x44 DUP3 ADD MSTORE SWAP1 MLOAD SWAP1 DUP2 SWAP1 SUB PUSH1 0x64 ADD SWAP1 REVERT JUMPDEST PUSH2 0x254B DUP3 DUP3 DUP2 MLOAD DUP2 LT PUSH2 0x251B JUMPI INVALID JUMPDEST PUSH1 0x20 MUL PUSH1 0x20 ADD ADD MLOAD DUP9 PUSH1 0xC ADD DUP4 DUP2 SLOAD DUP2 LT PUSH2 0x2532 JUMPI INVALID JUMPDEST SWAP1 PUSH1 0x0 MSTORE PUSH1 0x20 PUSH1 0x0 KECCAK256 ADD SLOAD PUSH2 0x315E SWAP1 SWAP2 SWAP1 PUSH4 0xFFFFFFFF AND JUMP JUMPDEST DUP8 PUSH1 0xC ADD DUP3 DUP2 SLOAD DUP2 LT PUSH2 0x255A JUMPI INVALID JUMPDEST SWAP1 PUSH1 0x0 MSTORE PUSH1 0x20 PUSH1 0x0 KECCAK256 ADD DUP2 SWAP1 SSTORE POP PUSH2 0x258F CALLER DUP4 DUP4 DUP2 MLOAD DUP2 LT PUSH2 0x2578 JUMPI INVALID JUMPDEST PUSH1 0x20 MUL PUSH1 0x20 ADD ADD MLOAD DUP10 PUSH1 0xA ADD DUP5 DUP2 SLOAD DUP2 LT PUSH2 0x1A44 JUMPI INVALID JUMPDEST PUSH1 0x1 ADD PUSH2 0x2489 JUMP JUMPDEST POP PUSH1 0x9 DUP7 ADD SLOAD PUSH1 0x40 DUP1 MLOAD PUSH4 0x79CC679 PUSH1 0xE4 SHL DUP2 MSTORE CALLER PUSH1 0x4 DUP3 ADD MSTORE PUSH1 0x24 DUP2 ADD DUP9 SWAP1 MSTORE SWAP1 MLOAD PUSH1 0x1 PUSH1 0x1 PUSH1 0xA0 SHL SUB SWAP1 SWAP3 AND SWAP2 PUSH4 0x79CC6790 SWAP2 PUSH1 0x44 DUP1 DUP3 ADD SWAP3 PUSH1 0x0 SWAP3 SWAP1 SWAP2 SWAP1 DUP3 SWAP1 SUB ADD DUP2 DUP4 DUP8 DUP1 EXTCODESIZE ISZERO DUP1 ISZERO PUSH2 0x25ED JUMPI PUSH1 0x0 DUP1 REVERT JUMPDEST POP GAS CALL ISZERO DUP1 ISZERO PUSH2 0x2601 JUMPI RETURNDATASIZE PUSH1 0x0 DUP1 RETURNDATACOPY RETURNDATASIZE PUSH1 0x0 REVERT JUMPDEST POP POP POP POP CALLER PUSH1 0x1 PUSH1 0x1 PUSH1 0xA0 SHL SUB AND PUSH32 0x88D38ED598FDD809C2BF01EE49CD24B7FDABF379A83D29567952B60324D58CEF DUP3 DUP9 PUSH1 0x9 ADD PUSH1 0x0 SWAP1 SLOAD SWAP1 PUSH2 0x100 EXP SWAP1 DIV PUSH1 0x1 PUSH1 0x1 PUSH1 0xA0 SHL SUB AND PUSH1 0x1 PUSH1 0x1 PUSH1 0xA0 SHL SUB AND PUSH4 0x18160DDD PUSH1 0x40 MLOAD DUP2 PUSH4 0xFFFFFFFF AND PUSH1 0xE0 SHL DUP2 MSTORE PUSH1 0x4 ADD PUSH1 0x20 PUSH1 0x40 MLOAD DUP1 DUP4 SUB DUP2 DUP7 DUP1 EXTCODESIZE ISZERO DUP1 ISZERO PUSH2 0x2681 JUMPI PUSH1 0x0 DUP1 REVERT JUMPDEST POP GAS STATICCALL ISZERO DUP1 ISZERO PUSH2 0x2695 JUMPI RETURNDATASIZE PUSH1 0x0 DUP1 RETURNDATACOPY RETURNDATASIZE PUSH1 0x0 REVERT JUMPDEST POP POP POP POP PUSH1 0x40 MLOAD RETURNDATASIZE PUSH1 0x20 DUP2 LT ISZERO PUSH2 0x26AB JUMPI PUSH1 0x0 DUP1 REVERT JUMPDEST POP MLOAD PUSH1 0x40 DUP1 MLOAD PUSH1 0x20 DUP2 DUP2 ADD DUP5 SWAP1 MSTORE DUP3 DUP3 MSTORE DUP5 MLOAD SWAP3 DUP3 ADD SWAP3 SWAP1 SWAP3 MSTORE DUP4 MLOAD SWAP1 SWAP2 DUP3 SWAP2 PUSH1 0x60 DUP4 ADD SWAP2 DUP7 DUP2 ADD SWAP2 MUL DUP1 DUP4 DUP4 PUSH1 0x0 JUMPDEST DUP4 DUP2 LT ISZERO PUSH2 0x26F3 JUMPI DUP2 DUP2 ADD MLOAD DUP4 DUP3 ADD MSTORE PUSH1 0x20 ADD PUSH2 0x26DB JUMP JUMPDEST POP POP POP POP SWAP1 POP ADD SWAP4 POP POP POP POP PUSH1 0x40 MLOAD DUP1 SWAP2 SUB SWAP1 LOG2 SWAP1 POP JUMPDEST SWAP5 SWAP4 POP POP POP POP JUMP JUMPDEST PUSH1 0xA DUP3 ADD SLOAD PUSH1 0x0 SWAP1 DUP3 LT PUSH2 0x2768 JUMPI PUSH1 0x40 DUP1 MLOAD PUSH3 0x461BCD PUSH1 0xE5 SHL DUP2 MSTORE PUSH1 0x20 PUSH1 0x4 DUP3 ADD MSTORE PUSH1 0x18 PUSH1 0x24 DUP3 ADD MSTORE PUSH24 0x546F6B656E20696E646578206F7574206F662072616E6765 PUSH1 0x40 SHL PUSH1 0x44 DUP3 ADD MSTORE SWAP1 MLOAD SWAP1 DUP2 SWAP1 SUB PUSH1 0x64 ADD SWAP1 REVERT JUMPDEST PUSH2 0x2794 DUP4 PUSH1 0xC ADD DUP4 DUP2 SLOAD DUP2 LT PUSH2 0x277A JUMPI INVALID JUMPDEST SWAP1 PUSH1 0x0 MSTORE PUSH1 0x20 PUSH1 0x0 KECCAK256 ADD SLOAD DUP5 PUSH1 0xA ADD DUP5 DUP2 SLOAD DUP2 LT PUSH2 0xD4D JUMPI INVALID JUMPDEST SWAP1 POP JUMPDEST SWAP3 SWAP2 POP POP JUMP JUMPDEST PUSH4 0x5F5E100 DUP2 GT ISZERO PUSH2 0x27E8 JUMPI PUSH1 0x40 DUP1 MLOAD PUSH3 0x461BCD PUSH1 0xE5 SHL DUP2 MSTORE PUSH1 0x20 PUSH1 0x4 DUP3 ADD MSTORE PUSH1 0xF PUSH1 0x24 DUP3 ADD MSTORE PUSH15 0x8CCACA40D2E640E8DEDE40D0D2CED PUSH1 0x8B SHL PUSH1 0x44 DUP3 ADD MSTORE SWAP1 MLOAD SWAP1 DUP2 SWAP1 SUB PUSH1 0x64 ADD SWAP1 REVERT JUMPDEST PUSH1 0x7 DUP3 ADD DUP2 SWAP1 SSTORE PUSH1 0x40 DUP1 MLOAD DUP3 DUP2 MSTORE SWAP1 MLOAD PUSH32 0xD5FE46099FA396290A7F57E36C3C3C8774E2562C18ED5D1DCC0FA75071E03F1D SWAP2 DUP2 SWAP1 SUB PUSH1 0x20 ADD SWAP1 LOG1 POP POP JUMP JUMPDEST PUSH1 0x1 PUSH1 0x1 PUSH1 0xA0 SHL SUB DUP2 AND PUSH1 0x0 SWAP1 DUP2 MSTORE PUSH1 0xD DUP4 ADD PUSH1 0x20 MSTORE PUSH1 0x40 DUP2 KECCAK256 SLOAD DUP2 SWAP1 PUSH2 0x2850 SWAP1 PUSH3 0x24EA00 PUSH2 0x3284 JUMP JUMPDEST SWAP1 POP TIMESTAMP DUP2 GT ISZERO PUSH2 0x28C3 JUMPI PUSH1 0x0 PUSH2 0x2866 DUP3 TIMESTAMP PUSH2 0x315E JUMP JUMPDEST SWAP1 POP PUSH2 0x28BA PUSH5 0x2540BE400 PUSH2 0xEEF PUSH3 0x24EA00 PUSH2 0xEEF DUP6 PUSH2 0x10DD DUP12 PUSH1 0xE ADD PUSH1 0x0 DUP13 PUSH1 0x1 PUSH1 0x1 PUSH1 0xA0 SHL SUB AND PUSH1 0x1 PUSH1 0x1 PUSH1 0xA0 SHL SUB AND DUP2 MSTORE PUSH1 0x20 ADD SWAP1 DUP2 MSTORE PUSH1 0x20 ADD PUSH1 0x0 KECCAK256 SLOAD DUP13 PUSH1 0x7 ADD SLOAD PUSH2 0x35DB SWAP1 SWAP2 SWAP1 PUSH4 0xFFFFFFFF AND JUMP JUMPDEST SWAP3 POP POP POP PUSH2 0x2797 JUMP JUMPDEST POP PUSH1 0x0 SWAP4 SWAP3 POP POP POP JUMP JUMPDEST PUSH1 0x0 DUP6 PUSH1 0xA ADD DUP6 PUSH1 0xFF AND DUP2 SLOAD DUP2 LT PUSH2 0x28E1 JUMPI INVALID JUMPDEST PUSH1 0x0 SWAP2 DUP3 MSTORE PUSH1 0x20 SWAP2 DUP3 SWAP1 KECCAK256 ADD SLOAD PUSH1 0x40 DUP1 MLOAD PUSH4 0x70A08231 PUSH1 0xE0 SHL DUP2 MSTORE CALLER PUSH1 0x4 DUP3 ADD MSTORE SWAP1 MLOAD PUSH1 0x1 PUSH1 0x1 PUSH1 0xA0 SHL SUB SWAP1 SWAP3 AND SWAP3 PUSH4 0x70A08231 SWAP3 PUSH1 0x24 DUP1 DUP5 ADD SWAP4 DUP3 SWAP1 SUB ADD DUP2 DUP7 DUP1 EXTCODESIZE ISZERO DUP1 ISZERO PUSH2 0x2930 JUMPI PUSH1 0x0 DUP1 REVERT JUMPDEST POP GAS STATICCALL ISZERO DUP1 ISZERO PUSH2 0x2944 JUMPI RETURNDATASIZE PUSH1 0x0 DUP1 RETURNDATACOPY RETURNDATASIZE PUSH1 0x0 REVERT JUMPDEST POP POP POP POP PUSH1 0x40 MLOAD RETURNDATASIZE PUSH1 0x20 DUP2 LT ISZERO PUSH2 0x295A JUMPI PUSH1 0x0 DUP1 REVERT JUMPDEST POP MLOAD DUP4 GT ISZERO PUSH2 0x29B0 JUMPI PUSH1 0x40 DUP1 MLOAD PUSH3 0x461BCD PUSH1 0xE5 SHL DUP2 MSTORE PUSH1 0x20 PUSH1 0x4 DUP3 ADD MSTORE PUSH1 0x1D PUSH1 0x24 DUP3 ADD MSTORE PUSH32 0x43616E6E6F742073776170206D6F7265207468616E20796F75206F776E000000 PUSH1 0x44 DUP3 ADD MSTORE SWAP1 MLOAD SWAP1 DUP2 SWAP1 SUB PUSH1 0x64 ADD SWAP1 REVERT JUMPDEST PUSH1 0x0 DUP7 PUSH1 0xA ADD DUP7 PUSH1 0xFF AND DUP2 SLOAD DUP2 LT PUSH2 0x29C4 JUMPI INVALID JUMPDEST PUSH1 0x0 SWAP2 DUP3 MSTORE PUSH1 0x20 SWAP2 DUP3 SWAP1 KECCAK256 ADD SLOAD PUSH1 0x40 DUP1 MLOAD PUSH4 0x70A08231 PUSH1 0xE0 SHL DUP2 MSTORE ADDRESS PUSH1 0x4 DUP3 ADD MSTORE SWAP1 MLOAD PUSH1 0x1 PUSH1 0x1 PUSH1 0xA0 SHL SUB SWAP1 SWAP3 AND SWAP3 PUSH4 0x70A08231 SWAP3 PUSH1 0x24 DUP1 DUP5 ADD SWAP4 DUP3 SWAP1 SUB ADD DUP2 DUP7 DUP1 EXTCODESIZE ISZERO DUP1 ISZERO PUSH2 0x2A13 JUMPI PUSH1 0x0 DUP1 REVERT JUMPDEST POP GAS STATICCALL ISZERO DUP1 ISZERO PUSH2 0x2A27 JUMPI RETURNDATASIZE PUSH1 0x0 DUP1 RETURNDATACOPY RETURNDATASIZE PUSH1 0x0 REVERT JUMPDEST POP POP POP POP PUSH1 0x40 MLOAD RETURNDATASIZE PUSH1 0x20 DUP2 LT ISZERO PUSH2 0x2A3D JUMPI PUSH1 0x0 DUP1 REVERT JUMPDEST POP MLOAD PUSH1 0xA DUP9 ADD DUP1 SLOAD SWAP2 SWAP3 POP PUSH2 0x2A60 SWAP2 CALLER SWAP2 ADDRESS SWAP2 DUP9 SWAP2 SWAP1 PUSH1 0xFF DUP13 AND SWAP1 DUP2 LT PUSH2 0xD1D JUMPI INVALID JUMPDEST PUSH1 0x0 PUSH2 0x2A78 DUP3 DUP10 PUSH1 0xA ADD DUP10 PUSH1 0xFF AND DUP2 SLOAD DUP2 LT PUSH2 0xD4D JUMPI INVALID JUMPDEST SWAP1 POP PUSH1 0x0 DUP1 PUSH2 0x2A89 DUP11 DUP11 DUP11 DUP7 PUSH2 0x37E0 JUMP JUMPDEST SWAP2 POP SWAP2 POP DUP6 DUP3 LT ISZERO PUSH2 0x2AE2 JUMPI PUSH1 0x40 DUP1 MLOAD PUSH3 0x461BCD PUSH1 0xE5 SHL DUP2 MSTORE PUSH1 0x20 PUSH1 0x4 DUP3 ADD DUP2 SWAP1 MSTORE PUSH1 0x24 DUP3 ADD MSTORE PUSH32 0x53776170206469646E277420726573756C7420696E206D696E20746F6B656E73 PUSH1 0x44 DUP3 ADD MSTORE SWAP1 MLOAD SWAP1 DUP2 SWAP1 SUB PUSH1 0x64 ADD SWAP1 REVERT JUMPDEST PUSH1 0x0 PUSH2 0x2B24 DUP12 PUSH1 0xB ADD DUP11 PUSH1 0xFF AND DUP2 SLOAD DUP2 LT PUSH2 0x2AF9 JUMPI INVALID JUMPDEST SWAP1 PUSH1 0x0 MSTORE PUSH1 0x20 PUSH1 0x0 KECCAK256 ADD SLOAD PUSH2 0xEEF PUSH5 0x2540BE400 PUSH2 0xEEF DUP16 PUSH1 0x5 ADD SLOAD DUP8 PUSH2 0x35DB SWAP1 SWAP2 SWAP1 PUSH4 0xFFFFFFFF AND JUMP JUMPDEST SWAP1 POP PUSH2 0x2B3C DUP5 DUP13 PUSH1 0xC ADD DUP13 PUSH1 0xFF AND DUP2 SLOAD DUP2 LT PUSH2 0xDDC JUMPI INVALID JUMPDEST DUP12 PUSH1 0xC ADD DUP12 PUSH1 0xFF AND DUP2 SLOAD DUP2 LT PUSH2 0x2B4E JUMPI INVALID JUMPDEST SWAP1 PUSH1 0x0 MSTORE PUSH1 0x20 PUSH1 0x0 KECCAK256 ADD DUP2 SWAP1 SSTORE POP PUSH2 0x2B7C DUP2 PUSH2 0x2B76 DUP6 DUP15 PUSH1 0xC ADD DUP14 PUSH1 0xFF AND DUP2 SLOAD DUP2 LT PUSH2 0x2532 JUMPI INVALID JUMPDEST SWAP1 PUSH2 0x315E JUMP JUMPDEST DUP12 PUSH1 0xC ADD DUP11 PUSH1 0xFF AND DUP2 SLOAD DUP2 LT PUSH2 0x2B8E JUMPI INVALID JUMPDEST SWAP1 PUSH1 0x0 MSTORE PUSH1 0x20 PUSH1 0x0 KECCAK256 ADD DUP2 SWAP1 SSTORE POP PUSH2 0x2BB3 CALLER DUP5 DUP14 PUSH1 0xA ADD DUP13 PUSH1 0xFF AND DUP2 SLOAD DUP2 LT PUSH2 0x1A44 JUMPI INVALID JUMPDEST PUSH1 0x40 DUP1 MLOAD DUP6 DUP2 MSTORE PUSH1 0x20 DUP2 ADD DUP6 SWAP1 MSTORE PUSH1 0xFF DUP1 DUP14 AND DUP3 DUP5 ADD MSTORE DUP12 AND PUSH1 0x60 DUP3 ADD MSTORE SWAP1 MLOAD CALLER SWAP2 PUSH32 0xC6C1E0630DBE9130CC068028486C0D118DDCEA348550819DEFD5CB8C257F8A38 SWAP2 SWAP1 DUP2 SWAP1 SUB PUSH1 0x80 ADD SWAP1 LOG2 POP SWAP1 SWAP10 SWAP9 POP POP POP POP POP POP POP POP POP JUMP JUMPDEST PUSH4 0x5F5E100 DUP2 JUMP JUMPDEST PUSH1 0x0 PUSH2 0x2797 DUP3 PUSH2 0x3AB2 JUMP JUMPDEST PUSH1 0x0 PUSH2 0x2797 DUP3 PUSH2 0x32DE JUMP JUMPDEST PUSH1 0x64 DUP2 JUMP JUMPDEST PUSH4 0x5F5E100 DUP2 GT ISZERO PUSH2 0x2C7D JUMPI PUSH1 0x40 DUP1 MLOAD PUSH3 0x461BCD PUSH1 0xE5 SHL DUP2 MSTORE PUSH1 0x20 PUSH1 0x4 DUP3 ADD MSTORE PUSH1 0xF PUSH1 0x24 DUP3 ADD MSTORE PUSH15 0x8CCACA40D2E640E8DEDE40D0D2CED PUSH1 0x8B SHL PUSH1 0x44 DUP3 ADD MSTORE SWAP1 MLOAD SWAP1 DUP2 SWAP1 SUB PUSH1 0x64 ADD SWAP1 REVERT JUMPDEST PUSH1 0x6 DUP3 ADD DUP2 SWAP1 SSTORE PUSH1 0x40 DUP1 MLOAD DUP3 DUP2 MSTORE SWAP1 MLOAD PUSH32 0x5237B692334926D9AB50F9D1AC513FE7E153F0CD81DD7C55A09D281D2985D808 SWAP2 DUP2 SWAP1 SUB PUSH1 0x20 ADD SWAP1 LOG1 POP POP JUMP JUMPDEST PUSH1 0x0 DUP1 PUSH1 0x0 DUP1 PUSH2 0x2CCC DUP9 DUP7 DUP9 PUSH2 0x3AC2 JUMP JUMPDEST DUP1 SWAP3 POP DUP2 SWAP4 POP POP POP PUSH1 0x0 PUSH2 0x2D15 DUP4 PUSH2 0x2B76 DUP12 PUSH1 0xB ADD DUP10 PUSH1 0xFF AND DUP2 SLOAD DUP2 LT PUSH2 0x2CEF JUMPI INVALID JUMPDEST SWAP1 PUSH1 0x0 MSTORE PUSH1 0x20 PUSH1 0x0 KECCAK256 ADD SLOAD PUSH2 0xEEF DUP7 PUSH2 0x2D07 DUP16 PUSH2 0x369B JUMP JUMPDEST DUP13 PUSH1 0xFF AND DUP2 MLOAD DUP2 LT PUSH2 0xFFC JUMPI INVALID JUMPDEST SWAP1 POP PUSH2 0x2D37 PUSH5 0x2540BE400 PUSH2 0xEEF PUSH2 0x2D30 PUSH2 0x192A DUP14 DUP14 PUSH2 0x2826 JUMP JUMPDEST DUP7 SWAP1 PUSH2 0x35DB JUMP JUMPDEST SWAP10 SWAP1 SWAP9 POP SWAP7 POP POP POP POP POP POP POP JUMP JUMPDEST PUSH1 0x0 DUP1 DUP6 PUSH1 0x9 ADD PUSH1 0x0 SWAP1 SLOAD SWAP1 PUSH2 0x100 EXP SWAP1 DIV PUSH1 0x1 PUSH1 0x1 PUSH1 0xA0 SHL SUB AND PUSH1 0x1 PUSH1 0x1 PUSH1 0xA0 SHL SUB AND PUSH4 0x18160DDD PUSH1 0x40 MLOAD DUP2 PUSH4 0xFFFFFFFF AND PUSH1 0xE0 SHL DUP2 MSTORE PUSH1 0x4 ADD PUSH1 0x20 PUSH1 0x40 MLOAD DUP1 DUP4 SUB DUP2 DUP7 DUP1 EXTCODESIZE ISZERO DUP1 ISZERO PUSH2 0x2D98 JUMPI PUSH1 0x0 DUP1 REVERT JUMPDEST POP GAS STATICCALL ISZERO DUP1 ISZERO PUSH2 0x2DAC JUMPI RETURNDATASIZE PUSH1 0x0 DUP1 RETURNDATACOPY RETURNDATASIZE PUSH1 0x0 REVERT JUMPDEST POP POP POP POP PUSH1 0x40 MLOAD RETURNDATASIZE PUSH1 0x20 DUP2 LT ISZERO PUSH2 0x2DC2 JUMPI PUSH1 0x0 DUP1 REVERT JUMPDEST POP MLOAD PUSH1 0xA DUP8 ADD SLOAD PUSH1 0x9 DUP9 ADD SLOAD PUSH1 0x40 DUP1 MLOAD PUSH4 0x70A08231 PUSH1 0xE0 SHL DUP2 MSTORE CALLER PUSH1 0x4 DUP3 ADD MSTORE SWAP1 MLOAD SWAP4 SWAP5 POP SWAP2 SWAP3 PUSH1 0x1 PUSH1 0x1 PUSH1 0xA0 SHL SUB SWAP1 SWAP2 AND SWAP2 PUSH4 0x70A08231 SWAP2 PUSH1 0x24 DUP1 DUP4 ADD SWAP3 PUSH1 0x20 SWAP3 SWAP2 SWAP1 DUP3 SWAP1 SUB ADD DUP2 DUP7 DUP1 EXTCODESIZE ISZERO DUP1 ISZERO PUSH2 0x2E1A JUMPI PUSH1 0x0 DUP1 REVERT JUMPDEST POP GAS STATICCALL ISZERO DUP1 ISZERO PUSH2 0x2E2E JUMPI RETURNDATASIZE PUSH1 0x0 DUP1 RETURNDATACOPY RETURNDATASIZE PUSH1 0x0 REVERT JUMPDEST POP POP POP POP PUSH1 0x40 MLOAD RETURNDATASIZE PUSH1 0x20 DUP2 LT ISZERO PUSH2 0x2E44 JUMPI PUSH1 0x0 DUP1 REVERT JUMPDEST POP MLOAD DUP7 GT ISZERO PUSH2 0x2E8A JUMPI PUSH1 0x40 DUP1 MLOAD PUSH3 0x461BCD PUSH1 0xE5 SHL DUP2 MSTORE PUSH1 0x20 PUSH1 0x4 DUP3 ADD MSTORE PUSH1 0xD PUSH1 0x24 DUP3 ADD MSTORE PUSH13 0x1F2628173130B630B731B2A7B3 PUSH1 0x99 SHL PUSH1 0x44 DUP3 ADD MSTORE SWAP1 MLOAD SWAP1 DUP2 SWAP1 SUB PUSH1 0x64 ADD SWAP1 REVERT JUMPDEST DUP1 DUP6 PUSH1 0xFF AND LT PUSH2 0x2ED3 JUMPI PUSH1 0x40 DUP1 MLOAD PUSH3 0x461BCD PUSH1 0xE5 SHL DUP2 MSTORE PUSH1 0x20 PUSH1 0x4 DUP3 ADD MSTORE PUSH1 0xF PUSH1 0x24 DUP3 ADD MSTORE PUSH15 0x151BDAD95B881B9BDD08199BDD5B99 PUSH1 0x8A SHL PUSH1 0x44 DUP3 ADD MSTORE SWAP1 MLOAD SWAP1 DUP2 SWAP1 SUB PUSH1 0x64 ADD SWAP1 REVERT JUMPDEST PUSH1 0x0 DUP1 PUSH2 0x2EE2 DUP10 CALLER DUP11 DUP11 PUSH2 0x2CBB JUMP JUMPDEST SWAP3 POP SWAP1 POP DUP6 DUP2 LT ISZERO PUSH2 0x2F2C JUMPI PUSH1 0x40 DUP1 MLOAD PUSH3 0x461BCD PUSH1 0xE5 SHL DUP2 MSTORE PUSH1 0x20 PUSH1 0x4 DUP3 ADD MSTORE PUSH1 0xE PUSH1 0x24 DUP3 ADD MSTORE PUSH14 0x191E480F081B5A5B905B5BDD5B9D PUSH1 0x92 SHL PUSH1 0x44 DUP3 ADD MSTORE SWAP1 MLOAD SWAP1 DUP2 SWAP1 SUB PUSH1 0x64 ADD SWAP1 REVERT JUMPDEST PUSH2 0x2F6B PUSH2 0x2F59 PUSH2 0x2F52 PUSH5 0x2540BE400 PUSH2 0xEEF DUP14 PUSH1 0x5 ADD SLOAD DUP8 PUSH2 0x35DB SWAP1 SWAP2 SWAP1 PUSH4 0xFFFFFFFF AND JUMP JUMPDEST DUP4 SWAP1 PUSH2 0x3284 JUMP JUMPDEST DUP11 PUSH1 0xC ADD DUP10 PUSH1 0xFF AND DUP2 SLOAD DUP2 LT PUSH2 0x2532 JUMPI INVALID JUMPDEST DUP10 PUSH1 0xC ADD DUP9 PUSH1 0xFF AND DUP2 SLOAD DUP2 LT PUSH2 0x2F7D JUMPI INVALID JUMPDEST PUSH1 0x0 SWAP2 DUP3 MSTORE PUSH1 0x20 DUP3 KECCAK256 ADD SWAP2 SWAP1 SWAP2 SSTORE PUSH1 0x9 DUP11 ADD SLOAD PUSH1 0x40 DUP1 MLOAD PUSH4 0x79CC679 PUSH1 0xE4 SHL DUP2 MSTORE CALLER PUSH1 0x4 DUP3 ADD MSTORE PUSH1 0x24 DUP2 ADD DUP13 SWAP1 MSTORE SWAP1 MLOAD PUSH1 0x1 PUSH1 0x1 PUSH1 0xA0 SHL SUB SWAP1 SWAP3 AND SWAP3 PUSH4 0x79CC6790 SWAP3 PUSH1 0x44 DUP1 DUP5 ADD SWAP4 DUP3 SWAP1 SUB ADD DUP2 DUP4 DUP8 DUP1 EXTCODESIZE ISZERO DUP1 ISZERO PUSH2 0x2FDA JUMPI PUSH1 0x0 DUP1 REVERT JUMPDEST POP GAS CALL ISZERO DUP1 ISZERO PUSH2 0x2FEE JUMPI RETURNDATASIZE PUSH1 0x0 DUP1 RETURNDATACOPY RETURNDATASIZE PUSH1 0x0 REVERT JUMPDEST POP POP POP POP PUSH2 0x3009 CALLER DUP3 DUP12 PUSH1 0xA ADD DUP11 PUSH1 0xFF AND DUP2 SLOAD DUP2 LT PUSH2 0x1A44 JUMPI INVALID JUMPDEST PUSH1 0x40 DUP1 MLOAD DUP10 DUP2 MSTORE PUSH1 0x20 DUP2 ADD DUP7 SWAP1 MSTORE PUSH1 0xFF DUP10 AND DUP2 DUP4 ADD MSTORE PUSH1 0x60 DUP2 ADD DUP4 SWAP1 MSTORE SWAP1 MLOAD CALLER SWAP2 PUSH32 0x43FB02998F4E03DA2E0E6FFF53FDBF0C40A9F45F145DC377FC30615D7D7A8A64 SWAP2 SWAP1 DUP2 SWAP1 SUB PUSH1 0x80 ADD SWAP1 LOG2 SWAP9 SWAP8 POP POP POP POP POP POP POP POP JUMP JUMPDEST PUSH1 0x1 PUSH1 0x1 PUSH1 0xA0 SHL SUB AND PUSH1 0x0 SWAP1 DUP2 MSTORE PUSH1 0xD SWAP2 SWAP1 SWAP2 ADD PUSH1 0x20 MSTORE PUSH1 0x40 SWAP1 KECCAK256 SLOAD SWAP1 JUMP JUMPDEST PUSH2 0x9F8 DUP4 DUP4 DUP4 PUSH2 0x3E0E JUMP JUMPDEST TIMESTAMP DUP2 PUSH1 0x3 ADD SLOAD GT PUSH2 0x30E3 JUMPI PUSH1 0x40 DUP1 MLOAD PUSH3 0x461BCD PUSH1 0xE5 SHL DUP2 MSTORE PUSH1 0x20 PUSH1 0x4 DUP3 ADD MSTORE PUSH1 0x17 PUSH1 0x24 DUP3 ADD MSTORE PUSH32 0x52616D7020697320616C72656164792073746F70706564000000000000000000 PUSH1 0x44 DUP3 ADD MSTORE SWAP1 MLOAD SWAP1 DUP2 SWAP1 SUB PUSH1 0x64 ADD SWAP1 REVERT JUMPDEST PUSH1 0x0 PUSH2 0x30EE DUP3 PUSH2 0x32DE JUMP JUMPDEST DUP1 DUP4 SSTORE PUSH1 0x1 DUP4 ADD DUP2 SWAP1 SSTORE TIMESTAMP PUSH1 0x2 DUP5 ADD DUP2 SWAP1 SSTORE PUSH1 0x3 DUP5 ADD DUP2 SWAP1 SSTORE PUSH1 0x40 DUP1 MLOAD DUP4 DUP2 MSTORE PUSH1 0x20 DUP2 ADD SWAP3 SWAP1 SWAP3 MSTORE DUP1 MLOAD SWAP3 SWAP4 POP PUSH32 0x46E22FB3709AD289F62CE63D469248536DBC78D82B84A3D7E74AD606DC201938 SWAP3 SWAP2 DUP3 SWAP1 SUB ADD SWAP1 LOG1 POP POP JUMP JUMPDEST PUSH5 0x2540BE400 DUP2 JUMP JUMPDEST PUSH1 0x60 PUSH2 0x270A DUP5 DUP5 DUP5 PUSH2 0x3925 JUMP JUMPDEST PUSH1 0x0 DUP3 DUP3 GT ISZERO PUSH2 0x31B5 JUMPI PUSH1 0x40 DUP1 MLOAD PUSH3 0x461BCD PUSH1 0xE5 SHL DUP2 MSTORE PUSH1 0x20 PUSH1 0x4 DUP3 ADD MSTORE PUSH1 0x1E PUSH1 0x24 DUP3 ADD MSTORE PUSH32 0x536166654D6174683A207375627472616374696F6E206F766572666C6F770000 PUSH1 0x44 DUP3 ADD MSTORE SWAP1 MLOAD SWAP1 DUP2 SWAP1 SUB PUSH1 0x64 ADD SWAP1 REVERT JUMPDEST POP SWAP1 SUB SWAP1 JUMP JUMPDEST PUSH1 0x40 DUP1 MLOAD PUSH1 0x1 PUSH1 0x1 PUSH1 0xA0 SHL SUB DUP5 AND PUSH1 0x24 DUP3 ADD MSTORE PUSH1 0x44 DUP1 DUP3 ADD DUP5 SWAP1 MSTORE DUP3 MLOAD DUP1 DUP4 SUB SWAP1 SWAP2 ADD DUP2 MSTORE PUSH1 0x64 SWAP1 SWAP2 ADD SWAP1 SWAP2 MSTORE PUSH1 0x20 DUP2 ADD DUP1 MLOAD PUSH1 0x1 PUSH1 0x1 PUSH1 0xE0 SHL SUB AND PUSH4 0xA9059CBB PUSH1 0xE0 SHL OR SWAP1 MSTORE PUSH2 0x9F8 SWAP1 DUP5 SWAP1 PUSH2 0x3F64 JUMP JUMPDEST PUSH1 0x0 PUSH2 0x2797 PUSH2 0x321B DUP4 PUSH2 0x369B JUMP JUMPDEST PUSH2 0x2230 DUP5 PUSH2 0x32DE JUMP JUMPDEST PUSH1 0x40 DUP1 MLOAD PUSH1 0x1 PUSH1 0x1 PUSH1 0xA0 SHL SUB DUP1 DUP7 AND PUSH1 0x24 DUP4 ADD MSTORE DUP5 AND PUSH1 0x44 DUP3 ADD MSTORE PUSH1 0x64 DUP1 DUP3 ADD DUP5 SWAP1 MSTORE DUP3 MLOAD DUP1 DUP4 SUB SWAP1 SWAP2 ADD DUP2 MSTORE PUSH1 0x84 SWAP1 SWAP2 ADD SWAP1 SWAP2 MSTORE PUSH1 0x20 DUP2 ADD DUP1 MLOAD PUSH1 0x1 PUSH1 0x1 PUSH1 0xE0 SHL SUB AND PUSH4 0x23B872DD PUSH1 0xE0 SHL OR SWAP1 MSTORE PUSH2 0x327E SWAP1 DUP6 SWAP1 PUSH2 0x3F64 JUMP JUMPDEST POP POP POP POP JUMP JUMPDEST PUSH1 0x0 DUP3 DUP3 ADD DUP4 DUP2 LT ISZERO PUSH2 0x2794 JUMPI PUSH1 0x40 DUP1 MLOAD PUSH3 0x461BCD PUSH1 0xE5 SHL DUP2 MSTORE PUSH1 0x20 PUSH1 0x4 DUP3 ADD MSTORE PUSH1 0x1B PUSH1 0x24 DUP3 ADD MSTORE PUSH32 0x536166654D6174683A206164646974696F6E206F766572666C6F770000000000 PUSH1 0x44 DUP3 ADD MSTORE SWAP1 MLOAD SWAP1 DUP2 SWAP1 SUB PUSH1 0x64 ADD SWAP1 REVERT JUMPDEST PUSH1 0x3 DUP2 ADD SLOAD PUSH1 0x1 DUP3 ADD SLOAD PUSH1 0x0 SWAP2 SWAP1 TIMESTAMP DUP3 GT ISZERO PUSH2 0x336A JUMPI PUSH1 0x2 DUP5 ADD SLOAD DUP5 SLOAD DUP1 DUP4 GT ISZERO PUSH2 0x333C JUMPI PUSH2 0x3331 PUSH2 0x332A PUSH2 0x3313 DUP7 DUP6 PUSH2 0x315E JUMP JUMPDEST PUSH2 0xEEF PUSH2 0x3320 TIMESTAMP DUP8 PUSH2 0x315E JUMP JUMPDEST PUSH2 0x10DD DUP9 DUP8 PUSH2 0x315E JUMP JUMPDEST DUP3 SWAP1 PUSH2 0x3284 JUMP JUMPDEST SWAP5 POP POP POP POP POP PUSH2 0x235D JUMP JUMPDEST PUSH2 0x3331 PUSH2 0x3363 PUSH2 0x334C DUP7 DUP6 PUSH2 0x315E JUMP JUMPDEST PUSH2 0xEEF PUSH2 0x3359 TIMESTAMP DUP8 PUSH2 0x315E JUMP JUMPDEST PUSH2 0x10DD DUP7 DUP10 PUSH2 0x315E JUMP JUMPDEST DUP3 SWAP1 PUSH2 0x315E JUMP JUMPDEST SWAP2 POP PUSH2 0x235D SWAP1 POP JUMP JUMPDEST PUSH1 0x60 PUSH2 0x2794 DUP3 DUP5 PUSH1 0xB ADD DUP1 SLOAD DUP1 PUSH1 0x20 MUL PUSH1 0x20 ADD PUSH1 0x40 MLOAD SWAP1 DUP2 ADD PUSH1 0x40 MSTORE DUP1 SWAP3 SWAP2 SWAP1 DUP2 DUP2 MSTORE PUSH1 0x20 ADD DUP3 DUP1 SLOAD DUP1 ISZERO PUSH2 0x33C7 JUMPI PUSH1 0x20 MUL DUP3 ADD SWAP2 SWAP1 PUSH1 0x0 MSTORE PUSH1 0x20 PUSH1 0x0 KECCAK256 SWAP1 JUMPDEST DUP2 SLOAD DUP2 MSTORE PUSH1 0x20 ADD SWAP1 PUSH1 0x1 ADD SWAP1 DUP1 DUP4 GT PUSH2 0x33B3 JUMPI JUMPDEST POP POP POP POP POP PUSH2 0x4015 JUMP JUMPDEST DUP2 MLOAD PUSH1 0x0 SWAP1 DUP2 DUP1 JUMPDEST DUP3 DUP2 LT ISZERO PUSH2 0x3411 JUMPI PUSH2 0x3407 DUP7 DUP3 DUP2 MLOAD DUP2 LT PUSH2 0x33F0 JUMPI INVALID JUMPDEST PUSH1 0x20 MUL PUSH1 0x20 ADD ADD MLOAD DUP4 PUSH2 0x3284 SWAP1 SWAP2 SWAP1 PUSH4 0xFFFFFFFF AND JUMP JUMPDEST SWAP2 POP PUSH1 0x1 ADD PUSH2 0x33D9 JUMP JUMPDEST POP DUP1 PUSH2 0x3422 JUMPI PUSH1 0x0 SWAP3 POP POP POP PUSH2 0x2797 JUMP JUMPDEST PUSH1 0x0 DUP2 DUP2 PUSH2 0x3430 DUP8 DUP7 PUSH2 0x35DB JUMP JUMPDEST SWAP1 POP PUSH1 0x0 JUMPDEST PUSH2 0x100 DUP2 LT ISZERO PUSH2 0x356A JUMPI DUP3 PUSH1 0x0 JUMPDEST DUP8 DUP2 LT ISZERO PUSH2 0x3472 JUMPI PUSH2 0x3468 PUSH2 0x345E DUP10 DUP14 DUP5 DUP2 MLOAD DUP2 LT PUSH2 0xFDA JUMPI INVALID JUMPDEST PUSH2 0xEEF DUP5 DUP9 PUSH2 0x35DB JUMP JUMPDEST SWAP2 POP PUSH1 0x1 ADD PUSH2 0x3443 JUMP JUMPDEST POP SWAP3 SWAP4 POP DUP4 SWAP3 PUSH2 0x34C6 PUSH2 0x34A6 PUSH2 0x348D DUP4 PUSH2 0x10DD DUP12 PUSH1 0x1 PUSH2 0x3284 JUMP JUMPDEST PUSH2 0x34A0 PUSH1 0x64 PUSH2 0xEEF DUP10 PUSH2 0x10DD DUP11 DUP5 PUSH2 0x315E JUMP JUMPDEST SWAP1 PUSH2 0x3284 JUMP JUMPDEST PUSH2 0xEEF DUP7 PUSH2 0x10DD PUSH2 0x34B7 DUP7 DUP14 PUSH2 0x35DB JUMP JUMPDEST PUSH2 0x34A0 PUSH1 0x64 PUSH2 0xEEF DUP12 DUP16 PUSH2 0x35DB JUMP JUMPDEST SWAP4 POP DUP4 PUSH20 0x0 PUSH4 0x13A1EC75 SWAP1 SWAP2 DUP8 PUSH1 0x40 MLOAD DUP4 PUSH4 0xFFFFFFFF AND PUSH1 0xE0 SHL DUP2 MSTORE PUSH1 0x4 ADD DUP1 DUP4 DUP2 MSTORE PUSH1 0x20 ADD DUP3 DUP2 MSTORE PUSH1 0x20 ADD SWAP3 POP POP POP PUSH1 0x20 PUSH1 0x40 MLOAD DUP1 DUP4 SUB DUP2 DUP7 DUP1 EXTCODESIZE ISZERO DUP1 ISZERO PUSH2 0x3521 JUMPI PUSH1 0x0 DUP1 REVERT JUMPDEST POP GAS DELEGATECALL ISZERO DUP1 ISZERO PUSH2 0x3535 JUMPI RETURNDATASIZE PUSH1 0x0 DUP1 RETURNDATACOPY RETURNDATASIZE PUSH1 0x0 REVERT JUMPDEST POP POP POP POP PUSH1 0x40 MLOAD RETURNDATASIZE PUSH1 0x20 DUP2 LT ISZERO PUSH2 0x354B JUMPI PUSH1 0x0 DUP1 REVERT JUMPDEST POP MLOAD ISZERO PUSH2 0x3561 JUMPI DUP4 SWAP8 POP POP POP POP POP POP POP POP PUSH2 0x2797 JUMP JUMPDEST POP PUSH1 0x1 ADD PUSH2 0x3435 JUMP JUMPDEST POP PUSH1 0x40 DUP1 MLOAD PUSH3 0x461BCD PUSH1 0xE5 SHL DUP2 MSTORE PUSH1 0x20 PUSH1 0x4 DUP3 ADD MSTORE PUSH1 0x13 PUSH1 0x24 DUP3 ADD MSTORE PUSH19 0x4420646F6573206E6F7420636F6E7665726765 PUSH1 0x68 SHL PUSH1 0x44 DUP3 ADD MSTORE SWAP1 MLOAD SWAP1 DUP2 SWAP1 SUB PUSH1 0x64 ADD SWAP1 REVERT JUMPDEST PUSH1 0xA DUP2 ADD SLOAD PUSH1 0x0 SWAP1 PUSH2 0x2797 SWAP1 PUSH2 0x35CC SWAP1 PUSH1 0x4 SWAP1 PUSH2 0x10DD SWAP1 PUSH1 0x1 PUSH2 0x315E JUMP JUMPDEST PUSH1 0xA DUP5 ADD SLOAD PUSH1 0x4 DUP6 ADD SLOAD PUSH2 0xEEF SWAP2 JUMPDEST PUSH1 0x0 DUP3 PUSH2 0x35EA JUMPI POP PUSH1 0x0 PUSH2 0x2797 JUMP JUMPDEST DUP3 DUP3 MUL DUP3 DUP5 DUP3 DUP2 PUSH2 0x35F7 JUMPI INVALID JUMPDEST DIV EQ PUSH2 0x2794 JUMPI PUSH1 0x40 MLOAD PUSH3 0x461BCD PUSH1 0xE5 SHL DUP2 MSTORE PUSH1 0x4 ADD DUP1 DUP1 PUSH1 0x20 ADD DUP3 DUP2 SUB DUP3 MSTORE PUSH1 0x21 DUP2 MSTORE PUSH1 0x20 ADD DUP1 PUSH2 0x47FB PUSH1 0x21 SWAP2 CODECOPY PUSH1 0x40 ADD SWAP2 POP POP PUSH1 0x40 MLOAD DUP1 SWAP2 SUB SWAP1 REVERT JUMPDEST PUSH1 0x0 DUP1 DUP3 GT PUSH2 0x368A JUMPI PUSH1 0x40 DUP1 MLOAD PUSH3 0x461BCD PUSH1 0xE5 SHL DUP2 MSTORE PUSH1 0x20 PUSH1 0x4 DUP3 ADD MSTORE PUSH1 0x1A PUSH1 0x24 DUP3 ADD MSTORE PUSH32 0x536166654D6174683A206469766973696F6E206279207A65726F000000000000 PUSH1 0x44 DUP3 ADD MSTORE SWAP1 MLOAD SWAP1 DUP2 SWAP1 SUB PUSH1 0x64 ADD SWAP1 REVERT JUMPDEST DUP2 DUP4 DUP2 PUSH2 0x3693 JUMPI INVALID JUMPDEST DIV SWAP4 SWAP3 POP POP POP JUMP JUMPDEST PUSH1 0x60 PUSH2 0x2797 DUP3 PUSH1 0xC ADD DUP1 SLOAD DUP1 PUSH1 0x20 MUL PUSH1 0x20 ADD PUSH1 0x40 MLOAD SWAP1 DUP2 ADD PUSH1 0x40 MSTORE DUP1 SWAP3 SWAP2 SWAP1 DUP2 DUP2 MSTORE PUSH1 0x20 ADD DUP3 DUP1 SLOAD DUP1 ISZERO PUSH2 0x36EE JUMPI PUSH1 0x20 MUL DUP3 ADD SWAP2 SWAP1 PUSH1 0x0 MSTORE PUSH1 0x20 PUSH1 0x0 KECCAK256 SWAP1 JUMPDEST DUP2 SLOAD DUP2 MSTORE PUSH1 0x20 ADD SWAP1 PUSH1 0x1 ADD SWAP1 DUP1 DUP4 GT PUSH2 0x36DA JUMPI JUMPDEST POP POP POP POP POP DUP4 PUSH1 0xB ADD DUP1 SLOAD DUP1 PUSH1 0x20 MUL PUSH1 0x20 ADD PUSH1 0x40 MLOAD SWAP1 DUP2 ADD PUSH1 0x40 MSTORE DUP1 SWAP3 SWAP2 SWAP1 DUP2 DUP2 MSTORE PUSH1 0x20 ADD DUP3 DUP1 SLOAD DUP1 ISZERO PUSH2 0x33C7 JUMPI PUSH1 0x20 MUL DUP3 ADD SWAP2 SWAP1 PUSH1 0x0 MSTORE PUSH1 0x20 PUSH1 0x0 KECCAK256 SWAP1 DUP2 SLOAD DUP2 MSTORE PUSH1 0x20 ADD SWAP1 PUSH1 0x1 ADD SWAP1 DUP1 DUP4 GT PUSH2 0x33B3 JUMPI POP POP POP POP POP PUSH2 0x4015 JUMP JUMPDEST PUSH1 0x0 DUP2 DUP5 DUP5 GT ISZERO PUSH2 0x37D8 JUMPI PUSH1 0x40 MLOAD PUSH3 0x461BCD PUSH1 0xE5 SHL DUP2 MSTORE PUSH1 0x4 ADD DUP1 DUP1 PUSH1 0x20 ADD DUP3 DUP2 SUB DUP3 MSTORE DUP4 DUP2 DUP2 MLOAD DUP2 MSTORE PUSH1 0x20 ADD SWAP2 POP DUP1 MLOAD SWAP1 PUSH1 0x20 ADD SWAP1 DUP1 DUP4 DUP4 PUSH1 0x0 JUMPDEST DUP4 DUP2 LT ISZERO PUSH2 0x379D JUMPI DUP2 DUP2 ADD MLOAD DUP4 DUP3 ADD MSTORE PUSH1 0x20 ADD PUSH2 0x3785 JUMP JUMPDEST POP POP POP POP SWAP1 POP SWAP1 DUP2 ADD SWAP1 PUSH1 0x1F AND DUP1 ISZERO PUSH2 0x37CA JUMPI DUP1 DUP3 SUB DUP1 MLOAD PUSH1 0x1 DUP4 PUSH1 0x20 SUB PUSH2 0x100 EXP SUB NOT AND DUP2 MSTORE PUSH1 0x20 ADD SWAP2 POP JUMPDEST POP SWAP3 POP POP POP PUSH1 0x40 MLOAD DUP1 SWAP2 SUB SWAP1 REVERT JUMPDEST POP POP POP SWAP1 SUB SWAP1 JUMP JUMPDEST PUSH1 0x0 DUP1 PUSH1 0x60 PUSH2 0x37EE DUP8 PUSH2 0x369B JUMP JUMPDEST SWAP1 POP DUP1 MLOAD DUP7 PUSH1 0xFF AND LT DUP1 ISZERO PUSH2 0x3806 JUMPI POP DUP1 MLOAD DUP6 PUSH1 0xFF AND LT JUMPDEST PUSH2 0x3852 JUMPI PUSH1 0x40 DUP1 MLOAD PUSH3 0x461BCD PUSH1 0xE5 SHL DUP2 MSTORE PUSH1 0x20 PUSH1 0x4 DUP3 ADD MSTORE PUSH1 0x18 PUSH1 0x24 DUP3 ADD MSTORE PUSH24 0x546F6B656E20696E646578206F7574206F662072616E6765 PUSH1 0x40 SHL PUSH1 0x44 DUP3 ADD MSTORE SWAP1 MLOAD SWAP1 DUP2 SWAP1 SUB PUSH1 0x64 ADD SWAP1 REVERT JUMPDEST PUSH1 0x0 PUSH2 0x389D DUP3 DUP9 PUSH1 0xFF AND DUP2 MLOAD DUP2 LT PUSH2 0x3866 JUMPI INVALID JUMPDEST PUSH1 0x20 MUL PUSH1 0x20 ADD ADD MLOAD PUSH2 0x34A0 DUP11 PUSH1 0xB ADD DUP11 PUSH1 0xFF AND DUP2 SLOAD DUP2 LT PUSH2 0x3883 JUMPI INVALID JUMPDEST SWAP1 PUSH1 0x0 MSTORE PUSH1 0x20 PUSH1 0x0 KECCAK256 ADD SLOAD DUP9 PUSH2 0x35DB SWAP1 SWAP2 SWAP1 PUSH4 0xFFFFFFFF AND JUMP JUMPDEST SWAP1 POP PUSH1 0x0 PUSH2 0x38AE DUP10 DUP10 DUP10 DUP6 DUP8 PUSH2 0x410C JUMP JUMPDEST SWAP1 POP PUSH2 0x38C8 PUSH1 0x1 PUSH2 0x2B76 DUP4 DUP7 DUP12 PUSH1 0xFF AND DUP2 MLOAD DUP2 LT PUSH2 0xFFC JUMPI INVALID JUMPDEST SWAP5 POP PUSH2 0x38EA PUSH5 0x2540BE400 PUSH2 0xEEF DUP12 PUSH1 0x4 ADD SLOAD DUP9 PUSH2 0x35DB SWAP1 SWAP2 SWAP1 PUSH4 0xFFFFFFFF AND JUMP JUMPDEST SWAP4 POP PUSH2 0x3917 DUP10 PUSH1 0xB ADD DUP9 PUSH1 0xFF AND DUP2 SLOAD DUP2 LT PUSH2 0x3901 JUMPI INVALID JUMPDEST PUSH1 0x0 SWAP2 DUP3 MSTORE PUSH1 0x20 SWAP1 SWAP2 KECCAK256 ADD SLOAD PUSH2 0xEEF DUP8 DUP8 PUSH2 0x315E JUMP JUMPDEST SWAP5 POP POP POP POP SWAP5 POP SWAP5 SWAP3 POP POP POP JUMP JUMPDEST PUSH1 0x60 PUSH1 0x0 DUP5 PUSH1 0x9 ADD PUSH1 0x0 SWAP1 SLOAD SWAP1 PUSH2 0x100 EXP SWAP1 DIV PUSH1 0x1 PUSH1 0x1 PUSH1 0xA0 SHL SUB AND PUSH1 0x1 PUSH1 0x1 PUSH1 0xA0 SHL SUB AND PUSH4 0x18160DDD PUSH1 0x40 MLOAD DUP2 PUSH4 0xFFFFFFFF AND PUSH1 0xE0 SHL DUP2 MSTORE PUSH1 0x4 ADD PUSH1 0x20 PUSH1 0x40 MLOAD DUP1 DUP4 SUB DUP2 DUP7 DUP1 EXTCODESIZE ISZERO DUP1 ISZERO PUSH2 0x3979 JUMPI PUSH1 0x0 DUP1 REVERT JUMPDEST POP GAS STATICCALL ISZERO DUP1 ISZERO PUSH2 0x398D JUMPI RETURNDATASIZE PUSH1 0x0 DUP1 RETURNDATACOPY RETURNDATASIZE PUSH1 0x0 REVERT JUMPDEST POP POP POP POP PUSH1 0x40 MLOAD RETURNDATASIZE PUSH1 0x20 DUP2 LT ISZERO PUSH2 0x39A3 JUMPI PUSH1 0x0 DUP1 REVERT JUMPDEST POP MLOAD SWAP1 POP DUP1 DUP4 GT ISZERO PUSH2 0x39FC JUMPI PUSH1 0x40 DUP1 MLOAD PUSH3 0x461BCD PUSH1 0xE5 SHL DUP2 MSTORE PUSH1 0x20 PUSH1 0x4 DUP3 ADD MSTORE PUSH1 0x1A PUSH1 0x24 DUP3 ADD MSTORE PUSH32 0x43616E6E6F742065786365656420746F74616C20737570706C79000000000000 PUSH1 0x44 DUP3 ADD MSTORE SWAP1 MLOAD SWAP1 DUP2 SWAP1 SUB PUSH1 0x64 ADD SWAP1 REVERT JUMPDEST PUSH1 0xA DUP6 ADD SLOAD DUP4 SWAP1 PUSH1 0x60 SWAP1 PUSH8 0xFFFFFFFFFFFFFFFF DUP2 GT DUP1 ISZERO PUSH2 0x3A1C JUMPI PUSH1 0x0 DUP1 REVERT JUMPDEST POP PUSH1 0x40 MLOAD SWAP1 DUP1 DUP3 MSTORE DUP1 PUSH1 0x20 MUL PUSH1 0x20 ADD DUP3 ADD PUSH1 0x40 MSTORE DUP1 ISZERO PUSH2 0x3A46 JUMPI DUP2 PUSH1 0x20 ADD PUSH1 0x20 DUP3 MUL DUP1 CALLDATASIZE DUP4 CALLDATACOPY ADD SWAP1 POP JUMPDEST POP SWAP1 POP PUSH1 0x0 JUMPDEST PUSH1 0xA DUP9 ADD SLOAD DUP2 LT ISZERO PUSH2 0x3AA7 JUMPI PUSH2 0x3A88 DUP5 PUSH2 0xEEF DUP6 DUP12 PUSH1 0xC ADD DUP6 DUP2 SLOAD DUP2 LT PUSH2 0x3A6F JUMPI INVALID JUMPDEST SWAP1 PUSH1 0x0 MSTORE PUSH1 0x20 PUSH1 0x0 KECCAK256 ADD SLOAD PUSH2 0x35DB SWAP1 SWAP2 SWAP1 PUSH4 0xFFFFFFFF AND JUMP JUMPDEST DUP3 DUP3 DUP2 MLOAD DUP2 LT PUSH2 0x3A94 JUMPI INVALID JUMPDEST PUSH1 0x20 SWAP1 DUP2 MUL SWAP2 SWAP1 SWAP2 ADD ADD MSTORE PUSH1 0x1 ADD PUSH2 0x3A4C JUMP JUMPDEST POP SWAP7 SWAP6 POP POP POP POP POP POP JUMP JUMPDEST PUSH1 0x0 PUSH2 0x2797 PUSH1 0x64 PUSH2 0xEEF DUP5 PUSH2 0x32DE JUMP JUMPDEST PUSH1 0xA DUP4 ADD SLOAD PUSH1 0x0 SWAP1 DUP2 SWAP1 PUSH1 0xFF DUP6 AND LT PUSH2 0x3B1D JUMPI PUSH1 0x40 DUP1 MLOAD PUSH3 0x461BCD PUSH1 0xE5 SHL DUP2 MSTORE PUSH1 0x20 PUSH1 0x4 DUP3 ADD MSTORE PUSH1 0x18 PUSH1 0x24 DUP3 ADD MSTORE PUSH24 0x546F6B656E20696E646578206F7574206F662072616E6765 PUSH1 0x40 SHL PUSH1 0x44 DUP3 ADD MSTORE SWAP1 MLOAD SWAP1 DUP2 SWAP1 SUB PUSH1 0x64 ADD SWAP1 REVERT JUMPDEST PUSH1 0x60 PUSH2 0x3B28 DUP7 PUSH2 0x369B JUMP JUMPDEST SWAP1 POP PUSH2 0x3B32 PUSH2 0x47B6 JUMP JUMPDEST PUSH1 0x40 MLOAD DUP1 PUSH1 0xA0 ADD PUSH1 0x40 MSTORE DUP1 PUSH1 0x0 DUP2 MSTORE PUSH1 0x20 ADD PUSH1 0x0 DUP2 MSTORE PUSH1 0x20 ADD PUSH1 0x0 DUP2 MSTORE PUSH1 0x20 ADD PUSH1 0x0 DUP2 MSTORE PUSH1 0x20 ADD PUSH1 0x0 DUP2 MSTORE POP SWAP1 POP PUSH2 0x3B69 DUP8 PUSH2 0x32DE JUMP JUMPDEST PUSH1 0x80 DUP3 ADD DUP2 SWAP1 MSTORE PUSH2 0x3B7B SWAP1 DUP4 SWAP1 PUSH2 0x33D1 JUMP JUMPDEST DUP2 MSTORE PUSH1 0x9 DUP8 ADD SLOAD PUSH1 0x40 DUP1 MLOAD PUSH4 0x18160DDD PUSH1 0xE0 SHL DUP2 MSTORE SWAP1 MLOAD PUSH2 0x3C0D SWAP3 PUSH2 0x3C05 SWAP3 PUSH1 0x1 PUSH1 0x1 PUSH1 0xA0 SHL SUB SWAP1 SWAP2 AND SWAP2 PUSH4 0x18160DDD SWAP2 PUSH1 0x4 DUP1 DUP3 ADD SWAP3 PUSH1 0x20 SWAP3 SWAP1 SWAP2 SWAP1 DUP3 SWAP1 SUB ADD DUP2 DUP7 DUP1 EXTCODESIZE ISZERO DUP1 ISZERO PUSH2 0x3BCC JUMPI PUSH1 0x0 DUP1 REVERT JUMPDEST POP GAS STATICCALL ISZERO DUP1 ISZERO PUSH2 0x3BE0 JUMPI RETURNDATASIZE PUSH1 0x0 DUP1 RETURNDATACOPY RETURNDATASIZE PUSH1 0x0 REVERT JUMPDEST POP POP POP POP PUSH1 0x40 MLOAD RETURNDATASIZE PUSH1 0x20 DUP2 LT ISZERO PUSH2 0x3BF6 JUMPI PUSH1 0x0 DUP1 REVERT JUMPDEST POP MLOAD DUP4 MLOAD PUSH2 0xEEF SWAP1 DUP10 SWAP1 PUSH2 0x35DB JUMP JUMPDEST DUP3 MLOAD SWAP1 PUSH2 0x315E JUMP JUMPDEST PUSH1 0x20 DUP3 ADD MSTORE DUP2 MLOAD DUP3 SWAP1 PUSH1 0xFF DUP9 AND SWAP1 DUP2 LT PUSH2 0x3C23 JUMPI INVALID JUMPDEST PUSH1 0x20 MUL PUSH1 0x20 ADD ADD MLOAD DUP6 GT ISZERO PUSH2 0x3C7F JUMPI PUSH1 0x40 DUP1 MLOAD PUSH3 0x461BCD PUSH1 0xE5 SHL DUP2 MSTORE PUSH1 0x20 PUSH1 0x4 DUP3 ADD MSTORE PUSH1 0x1A PUSH1 0x24 DUP3 ADD MSTORE PUSH32 0x5769746864726177206578636565647320617661696C61626C65000000000000 PUSH1 0x44 DUP3 ADD MSTORE SWAP1 MLOAD SWAP1 DUP2 SWAP1 SUB PUSH1 0x64 ADD SWAP1 REVERT JUMPDEST PUSH2 0x3C93 DUP2 PUSH1 0x80 ADD MLOAD DUP8 DUP5 DUP5 PUSH1 0x20 ADD MLOAD PUSH2 0x43D7 JUMP JUMPDEST PUSH1 0x40 DUP3 ADD MSTORE DUP2 MLOAD PUSH1 0x60 SWAP1 PUSH8 0xFFFFFFFFFFFFFFFF DUP2 GT DUP1 ISZERO PUSH2 0x3CB3 JUMPI PUSH1 0x0 DUP1 REVERT JUMPDEST POP PUSH1 0x40 MLOAD SWAP1 DUP1 DUP3 MSTORE DUP1 PUSH1 0x20 MUL PUSH1 0x20 ADD DUP3 ADD PUSH1 0x40 MSTORE DUP1 ISZERO PUSH2 0x3CDD JUMPI DUP2 PUSH1 0x20 ADD PUSH1 0x20 DUP3 MUL DUP1 CALLDATASIZE DUP4 CALLDATACOPY ADD SWAP1 POP JUMPDEST POP SWAP1 POP PUSH2 0x3CE9 DUP9 PUSH2 0x35AE JUMP JUMPDEST PUSH1 0x60 DUP4 ADD MSTORE PUSH1 0x0 JUMPDEST PUSH1 0xA DUP10 ADD SLOAD DUP2 LT ISZERO PUSH2 0x3DA0 JUMPI PUSH1 0x0 DUP5 DUP3 DUP2 MLOAD DUP2 LT PUSH2 0x3D0B JUMPI INVALID JUMPDEST PUSH1 0x20 MUL PUSH1 0x20 ADD ADD MLOAD SWAP1 POP PUSH2 0x3D80 PUSH2 0x3363 PUSH5 0x2540BE400 PUSH2 0xEEF DUP8 PUSH1 0x60 ADD MLOAD DUP14 PUSH1 0xFF AND DUP8 EQ PUSH2 0x3D59 JUMPI DUP9 MLOAD PUSH1 0x20 DUP11 ADD MLOAD PUSH2 0x3D54 SWAP2 PUSH2 0x3D4D SWAP2 PUSH2 0xEEF SWAP1 DUP11 SWAP1 PUSH2 0x35DB JUMP JUMPDEST DUP8 SWAP1 PUSH2 0x315E JUMP JUMPDEST PUSH2 0x10DD JUMP JUMPDEST PUSH2 0x10DD DUP10 PUSH1 0x40 ADD MLOAD PUSH2 0x2B76 DUP12 PUSH1 0x0 ADD MLOAD PUSH2 0xEEF DUP14 PUSH1 0x20 ADD MLOAD DUP12 PUSH2 0x35DB SWAP1 SWAP2 SWAP1 PUSH4 0xFFFFFFFF AND JUMP JUMPDEST DUP4 DUP4 DUP2 MLOAD DUP2 LT PUSH2 0x3D8C JUMPI INVALID JUMPDEST PUSH1 0x20 SWAP1 DUP2 MUL SWAP2 SWAP1 SWAP2 ADD ADD MSTORE POP PUSH1 0x1 ADD PUSH2 0x3CF1 JUMP JUMPDEST POP PUSH1 0x0 PUSH2 0x3DC9 PUSH2 0x3DBA DUP5 PUSH1 0x80 ADD MLOAD DUP11 DUP6 DUP8 PUSH1 0x20 ADD MLOAD PUSH2 0x43D7 JUMP JUMPDEST DUP4 DUP11 PUSH1 0xFF AND DUP2 MLOAD DUP2 LT PUSH2 0xFFC JUMPI INVALID JUMPDEST SWAP1 POP PUSH2 0x3DF7 DUP10 PUSH1 0xB ADD DUP10 PUSH1 0xFF AND DUP2 SLOAD DUP2 LT PUSH2 0x3DE0 JUMPI INVALID JUMPDEST PUSH1 0x0 SWAP2 DUP3 MSTORE PUSH1 0x20 SWAP1 SWAP2 KECCAK256 ADD SLOAD PUSH2 0xEEF DUP4 PUSH1 0x1 PUSH2 0x315E JUMP JUMPDEST PUSH1 0x40 SWAP1 SWAP4 ADD MLOAD SWAP3 SWAP6 POP SWAP2 SWAP4 POP POP POP POP SWAP4 POP SWAP4 SWAP2 POP POP JUMP JUMPDEST PUSH1 0x1 PUSH1 0x1 PUSH1 0xA0 SHL SUB DUP3 AND PUSH2 0x3E21 JUMPI PUSH2 0x9F8 JUMP JUMPDEST PUSH1 0x7 DUP4 ADD SLOAD PUSH2 0x3E51 JUMPI PUSH1 0x1 PUSH1 0x1 PUSH1 0xA0 SHL SUB DUP3 AND PUSH1 0x0 SWAP1 DUP2 MSTORE PUSH1 0xE DUP5 ADD PUSH1 0x20 MSTORE PUSH1 0x40 SWAP1 KECCAK256 PUSH5 0x2540BE400 SWAP1 SSTORE PUSH2 0x3F43 JUMP JUMPDEST PUSH1 0x0 PUSH2 0x3E5D DUP5 DUP5 PUSH2 0x2826 JUMP JUMPDEST PUSH1 0x9 DUP6 ADD SLOAD PUSH1 0x40 DUP1 MLOAD PUSH4 0x70A08231 PUSH1 0xE0 SHL DUP2 MSTORE PUSH1 0x1 PUSH1 0x1 PUSH1 0xA0 SHL SUB DUP8 DUP2 AND PUSH1 0x4 DUP4 ADD MSTORE SWAP2 MLOAD SWAP4 SWAP5 POP PUSH1 0x0 SWAP4 SWAP2 SWAP1 SWAP3 AND SWAP2 PUSH4 0x70A08231 SWAP2 PUSH1 0x24 DUP1 DUP4 ADD SWAP3 PUSH1 0x20 SWAP3 SWAP2 SWAP1 DUP3 SWAP1 SUB ADD DUP2 DUP7 DUP1 EXTCODESIZE ISZERO DUP1 ISZERO PUSH2 0x3EB2 JUMPI PUSH1 0x0 DUP1 REVERT JUMPDEST POP GAS STATICCALL ISZERO DUP1 ISZERO PUSH2 0x3EC6 JUMPI RETURNDATASIZE PUSH1 0x0 DUP1 RETURNDATACOPY RETURNDATASIZE PUSH1 0x0 REVERT JUMPDEST POP POP POP POP PUSH1 0x40 MLOAD RETURNDATASIZE PUSH1 0x20 DUP2 LT ISZERO PUSH2 0x3EDC JUMPI PUSH1 0x0 DUP1 REVERT JUMPDEST POP MLOAD PUSH1 0x7 DUP7 ADD SLOAD SWAP1 SWAP2 POP PUSH2 0x3F25 SWAP1 PUSH2 0x3EF8 SWAP1 PUSH2 0x10DD DUP7 DUP6 PUSH2 0x3284 JUMP JUMPDEST PUSH2 0xEEF PUSH5 0x2540BE400 PUSH2 0x10DD PUSH2 0x3F1B DUP11 PUSH1 0x7 ADD SLOAD DUP10 PUSH2 0x35DB SWAP1 SWAP2 SWAP1 PUSH4 0xFFFFFFFF AND JUMP JUMPDEST PUSH2 0x34A0 DUP8 DUP10 PUSH2 0x35DB JUMP JUMPDEST PUSH1 0x1 PUSH1 0x1 PUSH1 0xA0 SHL SUB DUP6 AND PUSH1 0x0 SWAP1 DUP2 MSTORE PUSH1 0xE DUP8 ADD PUSH1 0x20 MSTORE PUSH1 0x40 SWAP1 KECCAK256 SSTORE POP POP JUMPDEST POP PUSH1 0x1 PUSH1 0x1 PUSH1 0xA0 SHL SUB AND PUSH1 0x0 SWAP1 DUP2 MSTORE PUSH1 0xD SWAP2 SWAP1 SWAP2 ADD PUSH1 0x20 MSTORE PUSH1 0x40 SWAP1 KECCAK256 TIMESTAMP SWAP1 SSTORE JUMP JUMPDEST PUSH1 0x60 PUSH2 0x3FB9 DUP3 PUSH1 0x40 MLOAD DUP1 PUSH1 0x40 ADD PUSH1 0x40 MSTORE DUP1 PUSH1 0x20 DUP2 MSTORE PUSH1 0x20 ADD PUSH32 0x5361666545524332303A206C6F772D6C6576656C2063616C6C206661696C6564 DUP2 MSTORE POP DUP6 PUSH1 0x1 PUSH1 0x1 PUSH1 0xA0 SHL SUB AND PUSH2 0x45B1 SWAP1 SWAP3 SWAP2 SWAP1 PUSH4 0xFFFFFFFF AND JUMP JUMPDEST DUP1 MLOAD SWAP1 SWAP2 POP ISZERO PUSH2 0x9F8 JUMPI DUP1 DUP1 PUSH1 0x20 ADD SWAP1 MLOAD PUSH1 0x20 DUP2 LT ISZERO PUSH2 0x3FD8 JUMPI PUSH1 0x0 DUP1 REVERT JUMPDEST POP MLOAD PUSH2 0x9F8 JUMPI PUSH1 0x40 MLOAD PUSH3 0x461BCD PUSH1 0xE5 SHL DUP2 MSTORE PUSH1 0x4 ADD DUP1 DUP1 PUSH1 0x20 ADD DUP3 DUP2 SUB DUP3 MSTORE PUSH1 0x2A DUP2 MSTORE PUSH1 0x20 ADD DUP1 PUSH2 0x481C PUSH1 0x2A SWAP2 CODECOPY PUSH1 0x40 ADD SWAP2 POP POP PUSH1 0x40 MLOAD DUP1 SWAP2 SUB SWAP1 REVERT JUMPDEST DUP2 MLOAD DUP2 MLOAD PUSH1 0x60 SWAP2 SWAP1 DUP2 EQ PUSH2 0x4070 JUMPI PUSH1 0x40 DUP1 MLOAD PUSH3 0x461BCD PUSH1 0xE5 SHL DUP2 MSTORE PUSH1 0x20 PUSH1 0x4 DUP3 ADD MSTORE PUSH1 0x1F PUSH1 0x24 DUP3 ADD MSTORE PUSH32 0x42616C616E636573206D757374206D61746368206D756C7469706C6965727300 PUSH1 0x44 DUP3 ADD MSTORE SWAP1 MLOAD SWAP1 DUP2 SWAP1 SUB PUSH1 0x64 ADD SWAP1 REVERT JUMPDEST PUSH1 0x60 DUP2 PUSH8 0xFFFFFFFFFFFFFFFF DUP2 GT DUP1 ISZERO PUSH2 0x4089 JUMPI PUSH1 0x0 DUP1 REVERT JUMPDEST POP PUSH1 0x40 MLOAD SWAP1 DUP1 DUP3 MSTORE DUP1 PUSH1 0x20 MUL PUSH1 0x20 ADD DUP3 ADD PUSH1 0x40 MSTORE DUP1 ISZERO PUSH2 0x40B3 JUMPI DUP2 PUSH1 0x20 ADD PUSH1 0x20 DUP3 MUL DUP1 CALLDATASIZE DUP4 CALLDATACOPY ADD SWAP1 POP JUMPDEST POP SWAP1 POP PUSH1 0x0 JUMPDEST DUP3 DUP2 LT ISZERO PUSH2 0x4103 JUMPI PUSH2 0x40E4 DUP6 DUP3 DUP2 MLOAD DUP2 LT PUSH2 0x40D0 JUMPI INVALID JUMPDEST PUSH1 0x20 MUL PUSH1 0x20 ADD ADD MLOAD DUP8 DUP4 DUP2 MLOAD DUP2 LT PUSH2 0xFDA JUMPI INVALID JUMPDEST DUP3 DUP3 DUP2 MLOAD DUP2 LT PUSH2 0x40F0 JUMPI INVALID JUMPDEST PUSH1 0x20 SWAP1 DUP2 MUL SWAP2 SWAP1 SWAP2 ADD ADD MSTORE PUSH1 0x1 ADD PUSH2 0x40B9 JUMP JUMPDEST POP SWAP5 SWAP4 POP POP POP POP JUMP JUMPDEST PUSH1 0xA DUP6 ADD SLOAD PUSH1 0x0 SWAP1 PUSH1 0xFF DUP7 DUP2 AND SWAP1 DUP7 AND EQ ISZERO PUSH2 0x416F JUMPI PUSH1 0x40 DUP1 MLOAD PUSH3 0x461BCD PUSH1 0xE5 SHL DUP2 MSTORE PUSH1 0x20 PUSH1 0x4 DUP3 ADD MSTORE PUSH1 0x1D PUSH1 0x24 DUP3 ADD MSTORE PUSH32 0x43616E277420636F6D7061726520746F6B656E20746F20697473656C66000000 PUSH1 0x44 DUP3 ADD MSTORE SWAP1 MLOAD SWAP1 DUP2 SWAP1 SUB PUSH1 0x64 ADD SWAP1 REVERT JUMPDEST DUP1 DUP7 PUSH1 0xFF AND LT DUP1 ISZERO PUSH2 0x4183 JUMPI POP DUP1 DUP6 PUSH1 0xFF AND LT JUMPDEST PUSH2 0x41CD JUMPI PUSH1 0x40 DUP1 MLOAD PUSH3 0x461BCD PUSH1 0xE5 SHL DUP2 MSTORE PUSH1 0x20 PUSH1 0x4 DUP3 ADD MSTORE PUSH1 0x16 PUSH1 0x24 DUP3 ADD MSTORE PUSH22 0x151BDAD95B9CC81B5D5CDD081899481A5B881C1BDBDB PUSH1 0x52 SHL PUSH1 0x44 DUP3 ADD MSTORE SWAP1 MLOAD SWAP1 DUP2 SWAP1 SUB PUSH1 0x64 ADD SWAP1 REVERT JUMPDEST PUSH1 0x0 PUSH2 0x41D8 DUP9 PUSH2 0x32DE JUMP JUMPDEST SWAP1 POP PUSH1 0x0 PUSH2 0x41E6 DUP6 DUP4 PUSH2 0x33D1 JUMP JUMPDEST SWAP1 POP DUP1 PUSH1 0x0 DUP1 PUSH2 0x41F6 DUP7 DUP7 PUSH2 0x35DB JUMP JUMPDEST SWAP1 POP PUSH1 0x0 DUP1 JUMPDEST DUP8 DUP2 LT ISZERO PUSH2 0x426F JUMPI DUP13 PUSH1 0xFF AND DUP2 EQ ISZERO PUSH2 0x4217 JUMPI DUP11 SWAP2 POP PUSH2 0x4241 JUMP JUMPDEST DUP12 PUSH1 0xFF AND DUP2 EQ PUSH2 0x423C JUMPI DUP10 DUP2 DUP2 MLOAD DUP2 LT PUSH2 0x422D JUMPI INVALID JUMPDEST PUSH1 0x20 MUL PUSH1 0x20 ADD ADD MLOAD SWAP2 POP PUSH2 0x4241 JUMP JUMPDEST PUSH2 0x4267 JUMP JUMPDEST PUSH2 0x424B DUP5 DUP4 PUSH2 0x3284 JUMP JUMPDEST SWAP4 POP PUSH2 0x4264 PUSH2 0x425A DUP4 DUP11 PUSH2 0x35DB JUMP JUMPDEST PUSH2 0xEEF DUP8 DUP10 PUSH2 0x35DB JUMP JUMPDEST SWAP5 POP JUMPDEST PUSH1 0x1 ADD PUSH2 0x41FC JUMP JUMPDEST POP PUSH2 0x428C PUSH2 0x427D DUP4 DUP10 PUSH2 0x35DB JUMP JUMPDEST PUSH2 0xEEF PUSH1 0x64 PUSH2 0x10DD DUP9 DUP11 PUSH2 0x35DB JUMP JUMPDEST SWAP4 POP PUSH1 0x0 PUSH2 0x42A9 PUSH2 0x42A2 DUP5 PUSH2 0xEEF DUP10 PUSH1 0x64 PUSH2 0x35DB JUMP JUMPDEST DUP6 SWAP1 PUSH2 0x3284 JUMP JUMPDEST SWAP1 POP PUSH1 0x0 DUP7 DUP2 JUMPDEST PUSH2 0x100 DUP2 LT ISZERO PUSH2 0x4389 JUMPI SWAP1 SWAP2 POP DUP2 SWAP1 PUSH2 0x42E3 PUSH2 0x42D5 DUP11 PUSH2 0x2B76 DUP8 PUSH2 0x34A0 DUP8 PUSH1 0x2 PUSH2 0x35DB JUMP JUMPDEST PUSH2 0xEEF DUP11 PUSH2 0x34A0 DUP7 DUP1 PUSH2 0x35DB JUMP JUMPDEST SWAP2 POP DUP2 PUSH20 0x0 PUSH4 0x13A1EC75 SWAP1 SWAP2 DUP6 PUSH1 0x40 MLOAD DUP4 PUSH4 0xFFFFFFFF AND PUSH1 0xE0 SHL DUP2 MSTORE PUSH1 0x4 ADD DUP1 DUP4 DUP2 MSTORE PUSH1 0x20 ADD DUP3 DUP2 MSTORE PUSH1 0x20 ADD SWAP3 POP POP POP PUSH1 0x20 PUSH1 0x40 MLOAD DUP1 DUP4 SUB DUP2 DUP7 DUP1 EXTCODESIZE ISZERO DUP1 ISZERO PUSH2 0x433E JUMPI PUSH1 0x0 DUP1 REVERT JUMPDEST POP GAS DELEGATECALL ISZERO DUP1 ISZERO PUSH2 0x4352 JUMPI RETURNDATASIZE PUSH1 0x0 DUP1 RETURNDATACOPY RETURNDATASIZE PUSH1 0x0 REVERT JUMPDEST POP POP POP POP PUSH1 0x40 MLOAD RETURNDATASIZE PUSH1 0x20 DUP2 LT ISZERO PUSH2 0x4368 JUMPI PUSH1 0x0 DUP1 REVERT JUMPDEST POP MLOAD ISZERO PUSH2 0x4381 JUMPI POP SWAP10 POP PUSH2 0x2185 SWAP9 POP POP POP POP POP POP POP POP POP JUMP JUMPDEST PUSH1 0x1 ADD PUSH2 0x42B0 JUMP JUMPDEST POP PUSH1 0x40 DUP1 MLOAD PUSH3 0x461BCD PUSH1 0xE5 SHL DUP2 MSTORE PUSH1 0x20 PUSH1 0x4 DUP3 ADD MSTORE PUSH1 0x1E PUSH1 0x24 DUP3 ADD MSTORE PUSH32 0x417070726F78696D6174696F6E20646964206E6F7420636F6E76657267650000 PUSH1 0x44 DUP3 ADD MSTORE SWAP1 MLOAD SWAP1 DUP2 SWAP1 SUB PUSH1 0x64 ADD SWAP1 REVERT JUMPDEST DUP2 MLOAD PUSH1 0x0 SWAP1 PUSH1 0xFF DUP6 AND DUP2 GT PUSH2 0x4425 JUMPI PUSH1 0x40 DUP1 MLOAD PUSH3 0x461BCD PUSH1 0xE5 SHL DUP2 MSTORE PUSH1 0x20 PUSH1 0x4 DUP3 ADD MSTORE PUSH1 0xF PUSH1 0x24 DUP3 ADD MSTORE PUSH15 0x151BDAD95B881B9BDD08199BDD5B99 PUSH1 0x8A SHL PUSH1 0x44 DUP3 ADD MSTORE SWAP1 MLOAD SWAP1 DUP2 SWAP1 SUB PUSH1 0x64 ADD SWAP1 REVERT JUMPDEST DUP3 PUSH1 0x0 DUP1 PUSH2 0x4433 DUP10 DUP6 PUSH2 0x35DB JUMP JUMPDEST SWAP1 POP PUSH1 0x0 JUMPDEST DUP5 DUP2 LT ISZERO PUSH2 0x449A JUMPI DUP9 PUSH1 0xFF AND DUP2 EQ PUSH2 0x4492 JUMPI PUSH2 0x4470 DUP9 DUP3 DUP2 MLOAD DUP2 LT PUSH2 0x4459 JUMPI INVALID JUMPDEST PUSH1 0x20 MUL PUSH1 0x20 ADD ADD MLOAD DUP5 PUSH2 0x3284 SWAP1 SWAP2 SWAP1 PUSH4 0xFFFFFFFF AND JUMP JUMPDEST SWAP3 POP PUSH2 0x448F PUSH2 0x4485 DUP7 DUP11 DUP5 DUP2 MLOAD DUP2 LT PUSH2 0xFDA JUMPI INVALID JUMPDEST PUSH2 0xEEF DUP7 DUP11 PUSH2 0x35DB JUMP JUMPDEST SWAP4 POP JUMPDEST PUSH1 0x1 ADD PUSH2 0x4438 JUMP JUMPDEST POP PUSH2 0x44B7 PUSH2 0x44A8 DUP3 DUP7 PUSH2 0x35DB JUMP JUMPDEST PUSH2 0xEEF PUSH1 0x64 PUSH2 0x10DD DUP8 DUP12 PUSH2 0x35DB JUMP JUMPDEST SWAP3 POP PUSH1 0x0 PUSH2 0x44D4 PUSH2 0x44CD DUP4 PUSH2 0xEEF DUP11 PUSH1 0x64 PUSH2 0x35DB JUMP JUMPDEST DUP5 SWAP1 PUSH2 0x3284 JUMP JUMPDEST SWAP1 POP PUSH1 0x0 DUP8 DUP2 JUMPDEST PUSH2 0x100 DUP2 LT ISZERO PUSH2 0x4389 JUMPI SWAP1 SWAP2 POP DUP2 SWAP1 PUSH2 0x450E PUSH2 0x4500 DUP12 PUSH2 0x2B76 DUP8 PUSH2 0x34A0 DUP8 PUSH1 0x2 PUSH2 0x35DB JUMP JUMPDEST PUSH2 0xEEF DUP10 PUSH2 0x34A0 DUP7 DUP1 PUSH2 0x35DB JUMP JUMPDEST SWAP2 POP DUP2 PUSH20 0x0 PUSH4 0x13A1EC75 SWAP1 SWAP2 DUP6 PUSH1 0x40 MLOAD DUP4 PUSH4 0xFFFFFFFF AND PUSH1 0xE0 SHL DUP2 MSTORE PUSH1 0x4 ADD DUP1 DUP4 DUP2 MSTORE PUSH1 0x20 ADD DUP3 DUP2 MSTORE PUSH1 0x20 ADD SWAP3 POP POP POP PUSH1 0x20 PUSH1 0x40 MLOAD DUP1 DUP4 SUB DUP2 DUP7 DUP1 EXTCODESIZE ISZERO DUP1 ISZERO PUSH2 0x4569 JUMPI PUSH1 0x0 DUP1 REVERT JUMPDEST POP GAS DELEGATECALL ISZERO DUP1 ISZERO PUSH2 0x457D JUMPI RETURNDATASIZE PUSH1 0x0 DUP1 RETURNDATACOPY RETURNDATASIZE PUSH1 0x0 REVERT JUMPDEST POP POP POP POP PUSH1 0x40 MLOAD RETURNDATASIZE PUSH1 0x20 DUP2 LT ISZERO PUSH2 0x4593 JUMPI PUSH1 0x0 DUP1 REVERT JUMPDEST POP MLOAD ISZERO PUSH2 0x45A9 JUMPI POP SWAP7 POP PUSH2 0x270A SWAP6 POP POP POP POP POP POP JUMP JUMPDEST PUSH1 0x1 ADD PUSH2 0x44DB JUMP JUMPDEST PUSH1 0x60 PUSH2 0x270A DUP5 DUP5 PUSH1 0x0 DUP6 DUP6 PUSH2 0x45C5 DUP6 PUSH2 0x46D7 JUMP JUMPDEST PUSH2 0x4616 JUMPI PUSH1 0x40 DUP1 MLOAD PUSH3 0x461BCD PUSH1 0xE5 SHL DUP2 MSTORE PUSH1 0x20 PUSH1 0x4 DUP3 ADD MSTORE PUSH1 0x1D PUSH1 0x24 DUP3 ADD MSTORE PUSH32 0x416464726573733A2063616C6C20746F206E6F6E2D636F6E7472616374000000 PUSH1 0x44 DUP3 ADD MSTORE SWAP1 MLOAD SWAP1 DUP2 SWAP1 SUB PUSH1 0x64 ADD SWAP1 REVERT JUMPDEST PUSH1 0x0 PUSH1 0x60 DUP7 PUSH1 0x1 PUSH1 0x1 PUSH1 0xA0 SHL SUB AND DUP6 DUP8 PUSH1 0x40 MLOAD DUP1 DUP3 DUP1 MLOAD SWAP1 PUSH1 0x20 ADD SWAP1 DUP1 DUP4 DUP4 JUMPDEST PUSH1 0x20 DUP4 LT PUSH2 0x4655 JUMPI DUP1 MLOAD DUP3 MSTORE PUSH1 0x1F NOT SWAP1 SWAP3 ADD SWAP2 PUSH1 0x20 SWAP2 DUP3 ADD SWAP2 ADD PUSH2 0x4636 JUMP JUMPDEST PUSH1 0x1 DUP4 PUSH1 0x20 SUB PUSH2 0x100 EXP SUB DUP1 NOT DUP3 MLOAD AND DUP2 DUP5 MLOAD AND DUP1 DUP3 OR DUP6 MSTORE POP POP POP POP POP POP SWAP1 POP ADD SWAP2 POP POP PUSH1 0x0 PUSH1 0x40 MLOAD DUP1 DUP4 SUB DUP2 DUP6 DUP8 GAS CALL SWAP3 POP POP POP RETURNDATASIZE DUP1 PUSH1 0x0 DUP2 EQ PUSH2 0x46B7 JUMPI PUSH1 0x40 MLOAD SWAP2 POP PUSH1 0x1F NOT PUSH1 0x3F RETURNDATASIZE ADD AND DUP3 ADD PUSH1 0x40 MSTORE RETURNDATASIZE DUP3 MSTORE RETURNDATASIZE PUSH1 0x0 PUSH1 0x20 DUP5 ADD RETURNDATACOPY PUSH2 0x46BC JUMP JUMPDEST PUSH1 0x60 SWAP2 POP JUMPDEST POP SWAP2 POP SWAP2 POP PUSH2 0x46CC DUP3 DUP3 DUP7 PUSH2 0x46DD JUMP JUMPDEST SWAP8 SWAP7 POP POP POP POP POP POP POP JUMP JUMPDEST EXTCODESIZE ISZERO ISZERO SWAP1 JUMP JUMPDEST PUSH1 0x60 DUP4 ISZERO PUSH2 0x46EC JUMPI POP DUP2 PUSH2 0x13AA JUMP JUMPDEST DUP3 MLOAD ISZERO PUSH2 0x46FC JUMPI DUP3 MLOAD DUP1 DUP5 PUSH1 0x20 ADD REVERT JUMPDEST PUSH1 0x40 MLOAD PUSH3 0x461BCD PUSH1 0xE5 SHL DUP2 MSTORE PUSH1 0x20 PUSH1 0x4 DUP3 ADD DUP2 DUP2 MSTORE DUP5 MLOAD PUSH1 0x24 DUP5 ADD MSTORE DUP5 MLOAD DUP6 SWAP4 SWAP2 SWAP3 DUP4 SWAP3 PUSH1 0x44 ADD SWAP2 SWAP1 DUP6 ADD SWAP1 DUP1 DUP4 DUP4 PUSH1 0x0 DUP4 ISZERO PUSH2 0x379D JUMPI DUP2 DUP2 ADD MLOAD DUP4 DUP3 ADD MSTORE PUSH1 0x20 ADD PUSH2 0x3785 JUMP JUMPDEST PUSH1 0x40 MLOAD DUP1 PUSH1 0x80 ADD PUSH1 0x40 MSTORE DUP1 PUSH1 0x0 DUP2 MSTORE PUSH1 0x20 ADD PUSH1 0x0 DUP2 MSTORE PUSH1 0x20 ADD PUSH1 0x0 DUP2 MSTORE PUSH1 0x20 ADD PUSH1 0x0 DUP2 MSTORE POP SWAP1 JUMP JUMPDEST DUP3 DUP1 SLOAD DUP3 DUP3 SSTORE SWAP1 PUSH1 0x0 MSTORE PUSH1 0x20 PUSH1 0x0 KECCAK256 SWAP1 DUP2 ADD SWAP3 DUP3 ISZERO PUSH2 0x47A6 JUMPI SWAP2 PUSH1 0x20 MUL DUP3 ADD JUMPDEST DUP3 DUP2 GT ISZERO PUSH2 0x47A6 JUMPI DUP3 MLOAD DUP3 SSTORE SWAP2 PUSH1 0x20 ADD SWAP2 SWAP1 PUSH1 0x1 ADD SWAP1 PUSH2 0x478B JUMP JUMPDEST POP PUSH2 0x47B2 SWAP3 SWAP2 POP PUSH2 0x47E5 JUMP JUMPDEST POP SWAP1 JUMP JUMPDEST PUSH1 0x40 MLOAD DUP1 PUSH1 0xA0 ADD PUSH1 0x40 MSTORE DUP1 PUSH1 0x0 DUP2 MSTORE PUSH1 0x20 ADD PUSH1 0x0 DUP2 MSTORE PUSH1 0x20 ADD PUSH1 0x0 DUP2 MSTORE PUSH1 0x20 ADD PUSH1 0x0 DUP2 MSTORE PUSH1 0x20 ADD PUSH1 0x0 DUP2 MSTORE POP SWAP1 JUMP JUMPDEST JUMPDEST DUP1 DUP3 GT ISZERO PUSH2 0x47B2 JUMPI PUSH1 0x0 DUP2 SSTORE PUSH1 0x1 ADD PUSH2 0x47E6 JUMP INVALID MSTORE8 PUSH2 0x6665 0x4D PUSH2 0x7468 GASPRICE KECCAK256 PUSH14 0x756C7469706C69636174696F6E20 PUSH16 0x766572666C6F77536166654552433230 GASPRICE KECCAK256 GASLIMIT MSTORE NUMBER ORIGIN ADDRESS KECCAK256 PUSH16 0x7065726174696F6E20646964206E6F74 KECCAK256 PUSH20 0x75636365656443616E6E6F742077697468647261 PUSH24 0x206D6F7265207468616E20617661696C61626C65A2646970 PUSH7 0x73582212207750 PUSH22 0xAE969C511DE7A4C6C49D120DBACE069D36EA74D2C582 0xC3 0xFB SSTORE PUSH22 0x233164736F6C634300060C00330000000000000000 ","sha1":"4ee3d21004e453ddc00ea4c5f19c9607f1c2088c","source":"// SPDX-License-Identifier: MIT\n\npragma solidity 0.6.12;\n\nimport './openzeppelin-contracts@3.4.0/contracts/math/SafeMath.sol';\nimport './openzeppelin-contracts@3.4.0/contracts/token/ERC20/SafeERC20.sol';\nimport \"./LPToken.sol\";\nimport \"./MathUtils.sol\";\n\n/**\n * @title SwapUtils library\n * @notice A library to be used within Swap.sol. Contains functions responsible for custody and AMM functionalities.\n * @dev Contracts relying on this library must initialize SwapUtils.Swap struct then use this library\n * for SwapUtils.Swap struct. Note that this library contains both functions called by users and admins.\n * Admin functions should be protected within contracts using this library.\n */\nlibrary SwapUtils {\n    using SafeERC20 for IERC20;\n    using SafeMath for uint256;\n    using MathUtils for uint256;\n\n    /*** EVENTS ***/\n\n    event TokenSwap(\n        address indexed buyer,\n        uint256 tokensSold,\n        uint256 tokensBought,\n        uint128 soldId,\n        uint128 boughtId\n    );\n    event AddLiquidity(\n        address indexed provider,\n        uint256[] tokenAmounts,\n        uint256[] fees,\n        uint256 invariant,\n        uint256 lpTokenSupply\n    );\n    event RemoveLiquidity(\n        address indexed provider,\n        uint256[] tokenAmounts,\n        uint256 lpTokenSupply\n    );\n    event RemoveLiquidityOne(\n        address indexed provider,\n        uint256 lpTokenAmount,\n        uint256 lpTokenSupply,\n        uint256 boughtId,\n        uint256 tokensBought\n    );\n    event RemoveLiquidityImbalance(\n        address indexed provider,\n        uint256[] tokenAmounts,\n        uint256[] fees,\n        uint256 invariant,\n        uint256 lpTokenSupply\n    );\n    event NewAdminFee(uint256 newAdminFee);\n    event NewSwapFee(uint256 newSwapFee);\n    event NewWithdrawFee(uint256 newWithdrawFee);\n    event NewDepositFee(uint256 newDepositFee);\n    event RampA(\n        uint256 oldA,\n        uint256 newA,\n        uint256 initialTime,\n        uint256 futureTime\n    );\n    event StopRampA(uint256 currentA, uint256 time);\n\n    struct Swap {\n        // variables around the ramp management of A,\n        // the amplification coefficient * n * (n - 1)\n        // see https://www.curve.fi/stableswap-paper.pdf for details\n        uint256 initialA;\n        uint256 futureA;\n        uint256 initialATime;\n        uint256 futureATime;\n        // fee calculation\n        uint256 swapFee;\n        uint256 adminFee;\n        uint256 defaultDepositFee;\n        uint256 defaultWithdrawFee;\n        address devaddr;\n        LPToken lpToken;\n        // contract references for all tokens being pooled\n        IERC20[] pooledTokens;\n        // multipliers for each pooled token's precision to get to POOL_PRECISION_DECIMALS\n        // for example, TBTC has 18 decimals, so the multiplier should be 1. WBTC\n        // has 8, so the multiplier should be 10 ** 18 / 10 ** 8 => 10 ** 10\n        uint256[] tokenPrecisionMultipliers;\n        // the pool balance of each token, in the token's precision\n        // the contract's actual token balance might differ\n        uint256[] balances;\n        mapping(address => uint256) depositTimestamp;\n        mapping(address => uint256) withdrawFeeMultiplier;\n    }\n\n    // Struct storing variables used in calculations in the\n    // calculateWithdrawOneTokenDY function to avoid stack too deep errors\n    struct CalculateWithdrawOneTokenDYInfo {\n        uint256 d0;\n        uint256 d1;\n        uint256 newY;\n        uint256 feePerToken;\n        uint256 preciseA;\n    }\n\n    // Struct storing variables used in calculation in addLiquidity function\n    // to avoid stack too deep error\n    struct AddLiquidityInfo {\n        uint256 d0;\n        uint256 d1;\n        uint256 d2;\n        uint256 preciseA;\n    }\n\n    // Struct storing variables used in calculation in removeLiquidityImbalance function\n    // to avoid stack too deep error\n    struct RemoveLiquidityImbalanceInfo {\n        uint256 d0;\n        uint256 d1;\n        uint256 d2;\n        uint256 preciseA;\n    }\n\n    // the precision all pools tokens will be converted to\n    uint8 public constant POOL_PRECISION_DECIMALS = 18;\n\n    // the denominator used to calculate admin and LP fees. For example, an\n    // LP fee might be something like tradeAmount.mul(fee).div(FEE_DENOMINATOR)\n    uint256 private constant FEE_DENOMINATOR = 10**10;\n\n    // Max swap fee is 1% or 100bps of each swap\n    uint256 public constant MAX_SWAP_FEE = 10**8;\n\n    // Max adminFee is 100% of the swapFee\n    // adminFee does not add additional fee on top of swapFee\n    // Instead it takes a certain % of the swapFee. Therefore it has no impact on the\n    // users but only on the earnings of LPs\n    uint256 public constant MAX_ADMIN_FEE = 10**10;\n\n    // Max withdrawFee is 1% of the value withdrawn\n    // Fee will be redistributed to the LPs in the pool, rewarding\n    // long term providers.\n    uint256 public constant MAX_WITHDRAW_FEE = 10**8;\n\n    // Max depositFee is 1% of the value deposited\n    uint256 public constant MAX_DEPOSIT_FEE = 10**8;\n    \n    // Constant value used as max loop limit\n    uint256 private constant MAX_LOOP_LIMIT = 256;\n\n    // Constant values used in ramping A calculations\n    uint256 public constant A_PRECISION = 100;\n    uint256 public constant MAX_A = 10**6;\n    uint256 private constant MAX_A_CHANGE = 2;\n    uint256 private constant MIN_RAMP_TIME = 14 days;\n\n    /*** VIEW & PURE FUNCTIONS ***/\n\n    /**\n     * @notice Return A, the amplification coefficient * n * (n - 1)\n     * @dev See the StableSwap paper for details\n     * @param self Swap struct to read from\n     * @return A parameter\n     */\n    function getA(Swap storage self) external view returns (uint256) {\n        return _getA(self);\n    }\n\n    /**\n     * @notice Return A, the amplification coefficient * n * (n - 1)\n     * @dev See the StableSwap paper for details\n     * @param self Swap struct to read from\n     * @return A parameter\n     */\n    function _getA(Swap storage self) internal view returns (uint256) {\n        return _getAPrecise(self).div(A_PRECISION);\n    }\n\n    /**\n     * @notice Return A in its raw precision\n     * @dev See the StableSwap paper for details\n     * @param self Swap struct to read from\n     * @return A parameter in its raw precision form\n     */\n    function getAPrecise(Swap storage self) external view returns (uint256) {\n        return _getAPrecise(self);\n    }\n\n    /**\n     * @notice Calculates and returns A based on the ramp settings\n     * @dev See the StableSwap paper for details\n     * @param self Swap struct to read from\n     * @return A parameter in its raw precision form\n     */\n    function _getAPrecise(Swap storage self) internal view returns (uint256) {\n        uint256 t1 = self.futureATime; // time when ramp is finished\n        uint256 a1 = self.futureA; // final A value when ramp is finished\n\n        if (block.timestamp < t1) {\n            uint256 t0 = self.initialATime; // time when ramp is started\n            uint256 a0 = self.initialA; // initial A value when ramp is started\n            if (a1 > a0) {\n                // a0 + (a1 - a0) * (block.timestamp - t0) / (t1 - t0)\n                return\n                    a0.add(\n                        a1.sub(a0).mul(block.timestamp.sub(t0)).div(t1.sub(t0))\n                    );\n            } else {\n                // a0 - (a0 - a1) * (block.timestamp - t0) / (t1 - t0)\n                return\n                    a0.sub(\n                        a0.sub(a1).mul(block.timestamp.sub(t0)).div(t1.sub(t0))\n                    );\n            }\n        } else {\n            return a1;\n        }\n    }\n\n    /**\n     * @notice Retrieves the timestamp of last deposit made by the given address\n     * @param self Swap struct to read from\n     * @return timestamp of last deposit\n     */\n    function getDepositTimestamp(Swap storage self, address user)\n        external\n        view\n        returns (uint256)\n    {\n        return self.depositTimestamp[user];\n    }\n\n    /**\n     * @notice Calculate the dy, the amount of selected token that user receives and\n     * the fee of withdrawing in one token\n     * @param account the address that is withdrawing\n     * @param tokenAmount the amount to withdraw in the pool's precision\n     * @param tokenIndex which token will be withdrawn\n     * @param self Swap struct to read from\n     * @return the amount of token user will receive and the associated swap fee\n     */\n    function calculateWithdrawOneToken(\n        Swap storage self,\n        address account,\n        uint256 tokenAmount,\n        uint8 tokenIndex\n    ) public view returns (uint256, uint256) {\n        uint256 dy;\n        uint256 newY;\n\n        (dy, newY) = calculateWithdrawOneTokenDY(self, tokenIndex, tokenAmount);\n\n        // dy_0 (without fees)\n        // dy, dy_0 - dy\n\n        uint256 dySwapFee =\n            _xp(self)[tokenIndex]\n                .sub(newY)\n                .div(self.tokenPrecisionMultipliers[tokenIndex])\n                .sub(dy);\n\n        dy = dy\n            .mul(\n            FEE_DENOMINATOR.sub(calculateCurrentWithdrawFee(self, account))\n        )\n            .div(FEE_DENOMINATOR);\n\n        return (dy, dySwapFee);\n    }\n\n    /**\n     * @notice Calculate the dy of withdrawing in one token\n     * @param self Swap struct to read from\n     * @param tokenIndex which token will be withdrawn\n     * @param tokenAmount the amount to withdraw in the pools precision\n     * @return the d and the new y after withdrawing one token\n     */\n    function calculateWithdrawOneTokenDY(\n        Swap storage self,\n        uint8 tokenIndex,\n        uint256 tokenAmount\n    ) internal view returns (uint256, uint256) {\n        require(\n            tokenIndex < self.pooledTokens.length,\n            \"Token index out of range\"\n        );\n\n        // Get the current D, then solve the stableswap invariant\n        // y_i for D - tokenAmount\n        uint256[] memory xp = _xp(self);\n        CalculateWithdrawOneTokenDYInfo memory v =\n            CalculateWithdrawOneTokenDYInfo(0, 0, 0, 0, 0);\n        v.preciseA = _getAPrecise(self);\n        v.d0 = getD(xp, v.preciseA);\n        v.d1 = v.d0.sub(tokenAmount.mul(v.d0).div(self.lpToken.totalSupply()));\n\n        require(tokenAmount <= xp[tokenIndex], \"Withdraw exceeds available\");\n\n        v.newY = getYD(v.preciseA, tokenIndex, xp, v.d1);\n\n        uint256[] memory xpReduced = new uint256[](xp.length);\n\n        v.feePerToken = _feePerToken(self);\n        for (uint256 i = 0; i < self.pooledTokens.length; i++) {\n            uint256 xpi = xp[i];\n            // if i == tokenIndex, dxExpected = xp[i] * d1 / d0 - newY\n            // else dxExpected = xp[i] - (xp[i] * d1 / d0)\n            // xpReduced[i] -= dxExpected * fee / FEE_DENOMINATOR\n            xpReduced[i] = xpi.sub(\n                (\n                    (i == tokenIndex)\n                        ? xpi.mul(v.d1).div(v.d0).sub(v.newY)\n                        : xpi.sub(xpi.mul(v.d1).div(v.d0))\n                )\n                    .mul(v.feePerToken)\n                    .div(FEE_DENOMINATOR)\n            );\n        }\n\n        uint256 dy =\n            xpReduced[tokenIndex].sub(\n                getYD(v.preciseA, tokenIndex, xpReduced, v.d1)\n            );\n        dy = dy.sub(1).div(self.tokenPrecisionMultipliers[tokenIndex]);\n\n        return (dy, v.newY);\n    }\n\n    /**\n     * @notice Calculate the price of a token in the pool with given\n     * precision-adjusted balances and a particular D.\n     *\n     * @dev This is accomplished via solving the invariant iteratively.\n     * See the StableSwap paper and Curve.fi implementation for further details.\n     *\n     * x_1**2 + x1 * (sum' - (A*n**n - 1) * D / (A * n**n)) = D ** (n + 1) / (n ** (2 * n) * prod' * A)\n     * x_1**2 + b*x_1 = c\n     * x_1 = (x_1**2 + c) / (2*x_1 + b)\n     *\n     * @param a the amplification coefficient * n * (n - 1). See the StableSwap paper for details.\n     * @param tokenIndex Index of token we are calculating for.\n     * @param xp a precision-adjusted set of pool balances. Array should be\n     * the same cardinality as the pool.\n     * @param d the stableswap invariant\n     * @return the price of the token, in the same precision as in xp\n     */\n    function getYD(\n        uint256 a,\n        uint8 tokenIndex,\n        uint256[] memory xp,\n        uint256 d\n    ) internal pure returns (uint256) {\n        uint256 numTokens = xp.length;\n        require(tokenIndex < numTokens, \"Token not found\");\n\n        uint256 c = d;\n        uint256 s;\n        uint256 nA = a.mul(numTokens);\n\n        for (uint256 i = 0; i < numTokens; i++) {\n            if (i != tokenIndex) {\n                s = s.add(xp[i]);\n                c = c.mul(d).div(xp[i].mul(numTokens));\n                // If we were to protect the division loss we would have to keep the denominator separate\n                // and divide at the end. However this leads to overflow with large numTokens or/and D.\n                // c = c * D * D * D * ... overflow!\n            }\n        }\n        c = c.mul(d).mul(A_PRECISION).div(nA.mul(numTokens));\n\n        uint256 b = s.add(d.mul(A_PRECISION).div(nA));\n        uint256 yPrev;\n        uint256 y = d;\n        for (uint256 i = 0; i < MAX_LOOP_LIMIT; i++) {\n            yPrev = y;\n            y = y.mul(y).add(c).div(y.mul(2).add(b).sub(d));\n            if (y.within1(yPrev)) {\n                return y;\n            }\n        }\n        revert(\"Approximation did not converge\");\n    }\n\n    /**\n     * @notice Get D, the StableSwap invariant, based on a set of balances and a particular A.\n     * @param xp a precision-adjusted set of pool balances. Array should be the same cardinality\n     * as the pool.\n     * @param a the amplification coefficient * n * (n - 1) in A_PRECISION.\n     * See the StableSwap paper for details\n     * @return the invariant, at the precision of the pool\n     */\n    function getD(uint256[] memory xp, uint256 a)\n        internal\n        pure\n        returns (uint256)\n    {\n        uint256 numTokens = xp.length;\n        uint256 s;\n        for (uint256 i = 0; i < numTokens; i++) {\n            s = s.add(xp[i]);\n        }\n        if (s == 0) {\n            return 0;\n        }\n\n        uint256 prevD;\n        uint256 d = s;\n        uint256 nA = a.mul(numTokens);\n\n        for (uint256 i = 0; i < MAX_LOOP_LIMIT; i++) {\n            uint256 dP = d;\n            for (uint256 j = 0; j < numTokens; j++) {\n                dP = dP.mul(d).div(xp[j].mul(numTokens));\n                // If we were to protect the division loss we would have to keep the denominator separate\n                // and divide at the end. However this leads to overflow with large numTokens or/and D.\n                // dP = dP * D * D * D * ... overflow!\n            }\n            prevD = d;\n            d = nA.mul(s).div(A_PRECISION).add(dP.mul(numTokens)).mul(d).div(\n                nA.sub(A_PRECISION).mul(d).div(A_PRECISION).add(\n                    numTokens.add(1).mul(dP)\n                )\n            );\n            if (d.within1(prevD)) {\n                return d;\n            }\n        }\n\n        // Convergence should occur in 4 loops or less. If this is reached, there may be something wrong\n        // with the pool. If this were to occur repeatedly, LPs should withdraw via `removeLiquidity()`\n        // function which does not rely on D.\n        revert(\"D does not converge\");\n    }\n\n    /**\n     * @notice Get D, the StableSwap invariant, based on self Swap struct\n     * @param self Swap struct to read from\n     * @return The invariant, at the precision of the pool\n     */\n    function getD(Swap storage self) internal view returns (uint256) {\n        return getD(_xp(self), _getAPrecise(self));\n    }\n\n    /**\n     * @notice Given a set of balances and precision multipliers, return the\n     * precision-adjusted balances.\n     *\n     * @param balances an array of token balances, in their native precisions.\n     * These should generally correspond with pooled tokens.\n     *\n     * @param precisionMultipliers an array of multipliers, corresponding to\n     * the amounts in the balances array. When multiplied together they\n     * should yield amounts at the pool's precision.\n     *\n     * @return an array of amounts \"scaled\" to the pool's precision\n     */\n    function _xp(\n        uint256[] memory balances,\n        uint256[] memory precisionMultipliers\n    ) internal pure returns (uint256[] memory) {\n        uint256 numTokens = balances.length;\n        require(\n            numTokens == precisionMultipliers.length,\n            \"Balances must match multipliers\"\n        );\n        uint256[] memory xp = new uint256[](numTokens);\n        for (uint256 i = 0; i < numTokens; i++) {\n            xp[i] = balances[i].mul(precisionMultipliers[i]);\n        }\n        return xp;\n    }\n\n    /**\n     * @notice Return the precision-adjusted balances of all tokens in the pool\n     * @param self Swap struct to read from\n     * @param balances array of balances to scale\n     * @return balances array \"scaled\" to the pool's precision, allowing\n     * them to be more easily compared.\n     */\n    function _xp(Swap storage self, uint256[] memory balances)\n        internal\n        view\n        returns (uint256[] memory)\n    {\n        return _xp(balances, self.tokenPrecisionMultipliers);\n    }\n\n    /**\n     * @notice Return the precision-adjusted balances of all tokens in the pool\n     * @param self Swap struct to read from\n     * @return the pool balances \"scaled\" to the pool's precision, allowing\n     * them to be more easily compared.\n     */\n    function _xp(Swap storage self) internal view returns (uint256[] memory) {\n        return _xp(self.balances, self.tokenPrecisionMultipliers);\n    }\n\n    /**\n     * @notice Get the virtual price, to help calculate profit\n     * @param self Swap struct to read from\n     * @return the virtual price, scaled to precision of POOL_PRECISION_DECIMALS\n     */\n    function getVirtualPrice(Swap storage self)\n        external\n        view\n        returns (uint256)\n    {\n        uint256 d = getD(_xp(self), _getAPrecise(self));\n        uint256 supply = self.lpToken.totalSupply();\n        if (supply > 0) {\n            return\n                d.mul(10**uint256(ERC20(self.lpToken).decimals())).div(supply);\n        }\n        return 0;\n    }\n\n    /**\n     * @notice Calculate the new balances of the tokens given the indexes of the token\n     * that is swapped from (FROM) and the token that is swapped to (TO).\n     * This function is used as a helper function to calculate how much TO token\n     * the user should receive on swap.\n     *\n     * @param self Swap struct to read from\n     * @param tokenIndexFrom index of FROM token\n     * @param tokenIndexTo index of TO token\n     * @param x the new total amount of FROM token\n     * @param xp balances of the tokens in the pool\n     * @return the amount of TO token that should remain in the pool\n     */\n    function getY(\n        Swap storage self,\n        uint8 tokenIndexFrom,\n        uint8 tokenIndexTo,\n        uint256 x,\n        uint256[] memory xp\n    ) internal view returns (uint256) {\n        uint256 numTokens = self.pooledTokens.length;\n        require(\n            tokenIndexFrom != tokenIndexTo,\n            \"Can't compare token to itself\"\n        );\n        require(\n            tokenIndexFrom < numTokens && tokenIndexTo < numTokens,\n            \"Tokens must be in pool\"\n        );\n\n        uint256 a = _getAPrecise(self);\n        uint256 d = getD(xp, a);\n        uint256 c = d;\n        uint256 s;\n        uint256 nA = numTokens.mul(a);\n\n        uint256 _x;\n        for (uint256 i = 0; i < numTokens; i++) {\n            if (i == tokenIndexFrom) {\n                _x = x;\n            } else if (i != tokenIndexTo) {\n                _x = xp[i];\n            } else {\n                continue;\n            }\n            s = s.add(_x);\n            c = c.mul(d).div(_x.mul(numTokens));\n            // If we were to protect the division loss we would have to keep the denominator separate\n            // and divide at the end. However this leads to overflow with large numTokens or/and D.\n            // c = c * D * D * D * ... overflow!\n        }\n        c = c.mul(d).mul(A_PRECISION).div(nA.mul(numTokens));\n        uint256 b = s.add(d.mul(A_PRECISION).div(nA));\n        uint256 yPrev;\n        uint256 y = d;\n\n        // iterative approximation\n        for (uint256 i = 0; i < MAX_LOOP_LIMIT; i++) {\n            yPrev = y;\n            y = y.mul(y).add(c).div(y.mul(2).add(b).sub(d));\n            if (y.within1(yPrev)) {\n                return y;\n            }\n        }\n        revert(\"Approximation did not converge\");\n    }\n\n    /**\n     * @notice Externally calculates a swap between two tokens.\n     * @param self Swap struct to read from\n     * @param tokenIndexFrom the token to sell\n     * @param tokenIndexTo the token to buy\n     * @param dx the number of tokens to sell. If the token charges a fee on transfers,\n     * use the amount that gets transferred after the fee.\n     * @return dy the number of tokens the user will get\n     */\n    function calculateSwap(\n        Swap storage self,\n        uint8 tokenIndexFrom,\n        uint8 tokenIndexTo,\n        uint256 dx\n    ) external view returns (uint256 dy) {\n        (dy, ) = _calculateSwap(self, tokenIndexFrom, tokenIndexTo, dx);\n    }\n\n    /**\n     * @notice Internally calculates a swap between two tokens.\n     *\n     * @dev The caller is expected to transfer the actual amounts (dx and dy)\n     * using the token contracts.\n     *\n     * @param self Swap struct to read from\n     * @param tokenIndexFrom the token to sell\n     * @param tokenIndexTo the token to buy\n     * @param dx the number of tokens to sell. If the token charges a fee on transfers,\n     * use the amount that gets transferred after the fee.\n     * @return dy the number of tokens the user will get\n     * @return dyFee the associated fee\n     */\n    function _calculateSwap(\n        Swap storage self,\n        uint8 tokenIndexFrom,\n        uint8 tokenIndexTo,\n        uint256 dx\n    ) internal view returns (uint256 dy, uint256 dyFee) {\n        uint256[] memory xp = _xp(self);\n        require(\n            tokenIndexFrom < xp.length && tokenIndexTo < xp.length,\n            \"Token index out of range\"\n        );\n        uint256 x =\n            dx.mul(self.tokenPrecisionMultipliers[tokenIndexFrom]).add(\n                xp[tokenIndexFrom]\n            );\n        uint256 y = getY(self, tokenIndexFrom, tokenIndexTo, x, xp);\n        dy = xp[tokenIndexTo].sub(y).sub(1);\n        dyFee = dy.mul(self.swapFee).div(FEE_DENOMINATOR);\n        dy = dy.sub(dyFee).div(self.tokenPrecisionMultipliers[tokenIndexTo]);\n    }\n\n    /**\n     * @notice A simple method to calculate amount of each underlying\n     * tokens that is returned upon burning given amount of\n     * LP tokens\n     *\n     * @param account the address that is removing liquidity. required for withdraw fee calculation\n     * @param amount the amount of LP tokens that would to be burned on\n     * withdrawal\n     * @return array of amounts of tokens user will receive\n     */\n    function calculateRemoveLiquidity(\n        Swap storage self,\n        address account,\n        uint256 amount\n    ) external view returns (uint256[] memory) {\n        return _calculateRemoveLiquidity(self, account, amount);\n    }\n\n    function _calculateRemoveLiquidity(\n        Swap storage self,\n        address account,\n        uint256 amount\n    ) internal view returns (uint256[] memory) {\n        uint256 totalSupply = self.lpToken.totalSupply();\n        require(amount <= totalSupply, \"Cannot exceed total supply\");\n\n        uint256 feeAdjustedAmount = amount;\n\n            // No fees for withdrawals!\n            // amount\n            //     .mul(\n            //     FEE_DENOMINATOR.sub(calculateCurrentWithdrawFee(self, account))\n            // )\n            //     .div(FEE_DENOMINATOR);\n\n        uint256[] memory amounts = new uint256[](self.pooledTokens.length);\n\n        for (uint256 i = 0; i < self.pooledTokens.length; i++) {\n            amounts[i] = self.balances[i].mul(feeAdjustedAmount).div(\n                totalSupply\n            );\n        }\n        return amounts;\n    }\n\n    /**\n     * @notice Calculate the fee that is applied when the given user withdraws.\n     * Withdraw fee decays linearly over 4 weeks.\n     * @param user address you want to calculate withdraw fee of\n     * @return current withdraw fee of the user\n     */\n    function calculateCurrentWithdrawFee(Swap storage self, address user)\n        public\n        view\n        returns (uint256)\n    {\n        uint256 endTime = self.depositTimestamp[user].add(4 weeks);\n        if (endTime > block.timestamp) {\n            uint256 timeLeftover = endTime.sub(block.timestamp);\n            return\n                self\n                    .defaultWithdrawFee\n                    .mul(self.withdrawFeeMultiplier[user])\n                    .mul(timeLeftover)\n                    .div(4 weeks)\n                    .div(FEE_DENOMINATOR);\n        }\n        return 0;\n    }\n\n    /**\n     * @notice A simple method to calculate prices from deposits or\n     * withdrawals, excluding fees but including slippage. This is\n     * helpful as an input into the various \"min\" parameters on calls\n     * to fight front-running\n     *\n     * @dev This shouldn't be used outside frontends for user estimates.\n     *\n     * @param self Swap struct to read from\n     * @param account address of the account depositing or withdrawing tokens\n     * @param amounts an array of token amounts to deposit or withdrawal,\n     * corresponding to pooledTokens. The amount should be in each\n     * pooled token's native precision. If a token charges a fee on transfers,\n     * use the amount that gets transferred after the fee.\n     * @param deposit whether this is a deposit or a withdrawal\n     * @return if deposit was true, total amount of lp token that will be minted and if\n     * deposit was false, total amount of lp token that will be burned\n     */\n    function calculateTokenAmount(\n        Swap storage self,\n        address account,\n        uint256[] calldata amounts,\n        bool deposit\n    ) external view returns (uint256) {\n        uint256 numTokens = self.pooledTokens.length;\n        uint256 a = _getAPrecise(self);\n        uint256 d0 = getD(_xp(self, self.balances), a);\n        uint256[] memory balances1 = self.balances;\n        for (uint256 i = 0; i < numTokens; i++) {\n            if (deposit) {\n                balances1[i] = balances1[i].add(amounts[i]);\n            } else {\n                balances1[i] = balances1[i].sub(\n                    amounts[i],\n                    \"Cannot withdraw more than available\"\n                );\n            }\n        }\n        uint256 d1 = getD(_xp(self, balances1), a);\n        uint256 totalSupply = self.lpToken.totalSupply();\n\n        if (deposit) {\n            return d1.sub(d0).mul(totalSupply).div(d0);\n        } else {\n            return\n                d0.sub(d1).mul(totalSupply).div(d0).mul(FEE_DENOMINATOR).div(\n                    FEE_DENOMINATOR.sub(\n                        calculateCurrentWithdrawFee(self, account)\n                    )\n                );\n        }\n    }\n\n    /**\n     * @notice return accumulated amount of admin fees of the token with given index\n     * @param self Swap struct to read from\n     * @param index Index of the pooled token\n     * @return admin balance in the token's precision\n     */\n    function getAdminBalance(Swap storage self, uint256 index)\n        external\n        view\n        returns (uint256)\n    {\n        require(index < self.pooledTokens.length, \"Token index out of range\");\n        return\n            self.pooledTokens[index].balanceOf(address(this)).sub(\n                self.balances[index]\n            );\n    }\n\n    /**\n     * @notice internal helper function to calculate fee per token multiplier used in\n     * swap fee calculations\n     * @param self Swap struct to read from\n     */\n    function _feePerToken(Swap storage self) internal view returns (uint256) {\n        return\n            self.swapFee.mul(self.pooledTokens.length).div(\n                self.pooledTokens.length.sub(1).mul(4)\n            );\n    }\n\n    /*** STATE MODIFYING FUNCTIONS ***/\n\n    /**\n     * @notice swap two tokens in the pool\n     * @param self Swap struct to read from and write to\n     * @param tokenIndexFrom the token the user wants to sell\n     * @param tokenIndexTo the token the user wants to buy\n     * @param dx the amount of tokens the user wants to sell\n     * @param minDy the min amount the user would like to receive, or revert.\n     * @return amount of token user received on swap\n     */\n    function swap(\n        Swap storage self,\n        uint8 tokenIndexFrom,\n        uint8 tokenIndexTo,\n        uint256 dx,\n        uint256 minDy\n    ) external returns (uint256) {\n        require(\n            dx <= self.pooledTokens[tokenIndexFrom].balanceOf(msg.sender),\n            \"Cannot swap more than you own\"\n        );\n\n        // Transfer tokens first to see if a fee was charged on transfer\n        uint256 beforeBalance =\n            self.pooledTokens[tokenIndexFrom].balanceOf(address(this));\n        self.pooledTokens[tokenIndexFrom].safeTransferFrom(\n            msg.sender,\n            address(this),\n            dx\n        );\n\n        // Use the actual transferred amount for AMM math\n        uint256 transferredDx =\n            self.pooledTokens[tokenIndexFrom].balanceOf(address(this)).sub(\n                beforeBalance\n            );\n\n        (uint256 dy, uint256 dyFee) =\n            _calculateSwap(self, tokenIndexFrom, tokenIndexTo, transferredDx);\n        require(dy >= minDy, \"Swap didn't result in min tokens\");\n\n        uint256 dyAdminFee =\n            dyFee.mul(self.adminFee).div(FEE_DENOMINATOR).div(\n                self.tokenPrecisionMultipliers[tokenIndexTo]\n            );\n\n        self.balances[tokenIndexFrom] = self.balances[tokenIndexFrom].add(\n            transferredDx\n        );\n        self.balances[tokenIndexTo] = self.balances[tokenIndexTo].sub(dy).sub(\n            dyAdminFee\n        );\n\n        self.pooledTokens[tokenIndexTo].safeTransfer(msg.sender, dy);\n\n        emit TokenSwap(\n            msg.sender,\n            transferredDx,\n            dy,\n            tokenIndexFrom,\n            tokenIndexTo\n        );\n\n        return dy;\n    }\n\n    /**\n     * @notice Add liquidity to the pool\n     * @param self Swap struct to read from and write to\n     * @param amounts the amounts of each token to add, in their native precision\n     * @param minToMint the minimum LP tokens adding this amount of liquidity\n     * should mint, otherwise revert. Handy for front-running mitigation\n     * @return amount of LP token user received\n     */\n    function addLiquidity(\n        Swap storage self,\n        uint256[] memory amounts,\n        uint256 minToMint\n    ) external returns (uint256) {\n        require(\n            amounts.length == self.pooledTokens.length,\n            \"Amounts must match pooled tokens\"\n        );\n\n        uint256[] memory fees = new uint256[](self.pooledTokens.length);\n        uint256 lpTotalSupply = self.lpToken.totalSupply();\n        // current state\n        AddLiquidityInfo memory v = AddLiquidityInfo(0, 0, 0, 0);\n\n        if (lpTotalSupply != 0) {\n            v.d0 = getD(self);\n        }\n        uint256[] memory newBalances = self.balances;\n\n        for (uint256 i = 0; i < self.pooledTokens.length; i++) {\n            require(\n                lpTotalSupply != 0 || amounts[i] > 0,\n                \"Must supply all tokens in pool\"\n            );\n\n            // Transfer tokens first to see if a fee was charged on transfer\n            if (amounts[i] != 0) {\n                uint256 beforeBalance =\n                    self.pooledTokens[i].balanceOf(address(this));\n                self.pooledTokens[i].safeTransferFrom(\n                    msg.sender,\n                    address(this),\n                    amounts[i]\n                );\n\n                // Update the amounts[] with actual transfer amount\n                amounts[i] = self.pooledTokens[i].balanceOf(address(this)).sub(\n                    beforeBalance\n                );\n            }\n\n            newBalances[i] = self.balances[i].add(amounts[i]);\n        }\n\n        // invariant after change\n        v.preciseA = _getAPrecise(self);\n        v.d1 = getD(_xp(self, newBalances), v.preciseA);\n        require(v.d1 > v.d0, \"D should increase\");\n\n        // updated to reflect fees and calculate the user's LP tokens\n        v.d2 = v.d1;\n        if (lpTotalSupply != 0) {\n            uint256 feePerToken = _feePerToken(self);\n            for (uint256 i = 0; i < self.pooledTokens.length; i++) {\n                uint256 idealBalance = v.d1.mul(self.balances[i]).div(v.d0);\n                fees[i] = feePerToken\n                    .mul(idealBalance.difference(newBalances[i]))\n                    .div(FEE_DENOMINATOR);\n                self.balances[i] = newBalances[i].sub(\n                    fees[i].mul(self.adminFee).div(FEE_DENOMINATOR)\n                );\n                newBalances[i] = newBalances[i].sub(fees[i]);\n            }\n            v.d2 = getD(_xp(self, newBalances), v.preciseA);\n        } else {\n            // the initial depositor doesn't pay fees\n            self.balances = newBalances;\n        }\n\n        uint256 toMint;\n        uint256 toMintFee;\n        uint256 toMintUser;\n        if (lpTotalSupply == 0) {\n            toMint = v.d1;\n        } else {\n            toMint = v.d2.sub(v.d0).mul(lpTotalSupply).div(v.d0);\n        }\n\n        require(toMint >= minToMint, \"Couldn't mint min requested\");\n        // if deposit fee is none, mint full amount\n        if (self.defaultDepositFee == 0) {\n            self.lpToken.mint(msg.sender, toMint);\n        } else {\n            // mint the user's LP tokens minus the deposit fee\n            toMintFee = toMint.mul(self.defaultDepositFee).div(FEE_DENOMINATOR);\n            toMintUser = toMint.sub(toMintFee);\n            self.lpToken.mint(self.devaddr, toMintFee);\n            self.lpToken.mint(msg.sender, toMintUser);\n        }\n       \n        emit AddLiquidity(\n            msg.sender,\n            amounts,\n            fees,\n            v.d1,\n            lpTotalSupply + toMint\n        );\n\n        return toMint;\n    }\n\n    /**\n     * @notice Update the withdraw fee for `user`. If the user is currently\n     * not providing liquidity in the pool, sets to default value. If not, recalculate\n     * the starting withdraw fee based on the last deposit's time & amount relative\n     * to the new deposit.\n     *\n     * @param self Swap struct to read from and write to\n     * @param user address of the user depositing tokens\n     * @param toMint amount of pool tokens to be minted\n     */\n    function updateUserWithdrawFee(\n        Swap storage self,\n        address user,\n        uint256 toMint\n    ) external {\n        _updateUserWithdrawFee(self, user, toMint);\n    }\n\n    function _updateUserWithdrawFee(\n        Swap storage self,\n        address user,\n        uint256 toMint\n    ) internal {\n        // If token is transferred to address 0 (or burned), don't update the fee.\n        if (user == address(0)) {\n            return;\n        }\n        if (self.defaultWithdrawFee == 0) {\n            // If current fee is set to 0%, set multiplier to FEE_DENOMINATOR\n            self.withdrawFeeMultiplier[user] = FEE_DENOMINATOR;\n        } else {\n            // Otherwise, calculate appropriate discount based on last deposit amount\n            uint256 currentFee = calculateCurrentWithdrawFee(self, user);\n            uint256 currentBalance = self.lpToken.balanceOf(user);\n\n            // ((currentBalance * currentFee) + (toMint * defaultWithdrawFee)) * FEE_DENOMINATOR /\n            // ((toMint + currentBalance) * defaultWithdrawFee)\n            self.withdrawFeeMultiplier[user] = currentBalance\n                .mul(currentFee)\n                .add(toMint.mul(self.defaultWithdrawFee))\n                .mul(FEE_DENOMINATOR)\n                .div(toMint.add(currentBalance).mul(self.defaultWithdrawFee));\n        }\n        self.depositTimestamp[user] = block.timestamp;\n    }\n\n    /**\n     * @notice Burn LP tokens to remove liquidity from the pool.\n     * @dev Liquidity can always be removed, even when the pool is paused.\n     * @param self Swap struct to read from and write to\n     * @param amount the amount of LP tokens to burn\n     * @param minAmounts the minimum amounts of each token in the pool\n     * acceptable for this burn. Useful as a front-running mitigation\n     * @return amounts of tokens the user received\n     */\n    function removeLiquidity(\n        Swap storage self,\n        uint256 amount,\n        uint256[] calldata minAmounts\n    ) external returns (uint256[] memory) {\n        require(amount <= self.lpToken.balanceOf(msg.sender), \">LP.balanceOf\");\n        require(\n            minAmounts.length == self.pooledTokens.length,\n            \"minAmounts must match poolTokens\"\n        );\n\n        uint256[] memory amounts =\n            _calculateRemoveLiquidity(self, msg.sender, amount);\n\n        for (uint256 i = 0; i < amounts.length; i++) {\n            require(amounts[i] >= minAmounts[i], \"amounts[i] < minAmounts[i]\");\n            self.balances[i] = self.balances[i].sub(amounts[i]);\n            self.pooledTokens[i].safeTransfer(msg.sender, amounts[i]);\n        }\n\n        self.lpToken.burnFrom(msg.sender, amount);\n\n        emit RemoveLiquidity(msg.sender, amounts, self.lpToken.totalSupply());\n\n        return amounts;\n    }\n\n    /**\n     * @notice Remove liquidity from the pool all in one token.\n     * @param self Swap struct to read from and write to\n     * @param tokenAmount the amount of the lp tokens to burn\n     * @param tokenIndex the index of the token you want to receive\n     * @param minAmount the minimum amount to withdraw, otherwise revert\n     * @return amount chosen token that user received\n     */\n    function removeLiquidityOneToken(\n        Swap storage self,\n        uint256 tokenAmount,\n        uint8 tokenIndex,\n        uint256 minAmount\n    ) external returns (uint256) {\n        uint256 totalSupply = self.lpToken.totalSupply();\n        uint256 numTokens = self.pooledTokens.length;\n        require(\n            tokenAmount <= self.lpToken.balanceOf(msg.sender),\n            \">LP.balanceOf\"\n        );\n        require(tokenIndex < numTokens, \"Token not found\");\n\n        uint256 dyFee;\n        uint256 dy;\n\n        (dy, dyFee) = calculateWithdrawOneToken(\n            self,\n            msg.sender,\n            tokenAmount,\n            tokenIndex\n        );\n\n        require(dy >= minAmount, \"dy < minAmount\");\n\n        self.balances[tokenIndex] = self.balances[tokenIndex].sub(\n            dy.add(dyFee.mul(self.adminFee).div(FEE_DENOMINATOR))\n        );\n        self.lpToken.burnFrom(msg.sender, tokenAmount);\n        self.pooledTokens[tokenIndex].safeTransfer(msg.sender, dy);\n\n        emit RemoveLiquidityOne(\n            msg.sender,\n            tokenAmount,\n            totalSupply,\n            tokenIndex,\n            dy\n        );\n\n        return dy;\n    }\n\n    /**\n     * @notice Remove liquidity from the pool, weighted differently than the\n     * pool's current balances.\n     *\n     * @param self Swap struct to read from and write to\n     * @param amounts how much of each token to withdraw\n     * @param maxBurnAmount the max LP token provider is willing to pay to\n     * remove liquidity. Useful as a front-running mitigation.\n     * @return actual amount of LP tokens burned in the withdrawal\n     */\n    function removeLiquidityImbalance(\n        Swap storage self,\n        uint256[] memory amounts,\n        uint256 maxBurnAmount\n    ) public returns (uint256) {\n        require(\n            amounts.length == self.pooledTokens.length,\n            \"Amounts should match pool tokens\"\n        );\n        require(\n            maxBurnAmount <= self.lpToken.balanceOf(msg.sender) &&\n                maxBurnAmount != 0,\n            \">LP.balanceOf\"\n        );\n\n        RemoveLiquidityImbalanceInfo memory v =\n            RemoveLiquidityImbalanceInfo(0, 0, 0, 0);\n\n        uint256 tokenSupply = self.lpToken.totalSupply();\n        uint256 feePerToken = _feePerToken(self);\n\n        uint256[] memory balances1 = self.balances;\n\n        v.preciseA = _getAPrecise(self);\n        v.d0 = getD(_xp(self), v.preciseA);\n        for (uint256 i = 0; i < self.pooledTokens.length; i++) {\n            balances1[i] = balances1[i].sub(\n                amounts[i],\n                \"Cannot withdraw more than available\"\n            );\n        }\n        v.d1 = getD(_xp(self, balances1), v.preciseA);\n        uint256[] memory fees = new uint256[](self.pooledTokens.length);\n\n        for (uint256 i = 0; i < self.pooledTokens.length; i++) {\n            uint256 idealBalance = v.d1.mul(self.balances[i]).div(v.d0);\n            uint256 difference = idealBalance.difference(balances1[i]);\n            fees[i] = feePerToken.mul(difference).div(FEE_DENOMINATOR);\n            self.balances[i] = balances1[i].sub(\n                fees[i].mul(self.adminFee).div(FEE_DENOMINATOR)\n            );\n            balances1[i] = balances1[i].sub(fees[i]);\n        }\n\n        v.d2 = getD(_xp(self, balances1), v.preciseA);\n\n        uint256 tokenAmount = v.d0.sub(v.d2).mul(tokenSupply).div(v.d0);\n        require(tokenAmount != 0, \"Burnt amount cannot be zero\");\n        tokenAmount = tokenAmount.add(1).mul(FEE_DENOMINATOR).div(\n            FEE_DENOMINATOR.sub(calculateCurrentWithdrawFee(self, msg.sender))\n        );\n\n        require(tokenAmount <= maxBurnAmount, \"tokenAmount > maxBurnAmount\");\n\n        self.lpToken.burnFrom(msg.sender, tokenAmount);\n\n        for (uint256 i = 0; i < self.pooledTokens.length; i++) {\n            self.pooledTokens[i].safeTransfer(msg.sender, amounts[i]);\n        }\n\n        emit RemoveLiquidityImbalance(\n            msg.sender,\n            amounts,\n            fees,\n            v.d1,\n            tokenSupply.sub(tokenAmount)\n        );\n\n        return tokenAmount;\n    }\n\n    /**\n     * @notice withdraw all admin fees to a given address\n     * @param self Swap struct to withdraw fees from\n     * @param to Address to send the fees to\n     */\n    function withdrawAdminFees(Swap storage self, address to) external {\n        for (uint256 i = 0; i < self.pooledTokens.length; i++) {\n            IERC20 token = self.pooledTokens[i];\n            uint256 balance =\n                token.balanceOf(address(this)).sub(self.balances[i]);\n            if (balance != 0) {\n                token.safeTransfer(to, balance);\n            }\n        }\n    }\n\n    /**\n     * @notice Sets the admin fee\n     * @dev adminFee cannot be higher than 100% of the swap fee\n     * @param self Swap struct to update\n     * @param newAdminFee new admin fee to be applied on future transactions\n     */\n    function setAdminFee(Swap storage self, uint256 newAdminFee) external {\n        require(newAdminFee <= MAX_ADMIN_FEE, \"Fee is too high\");\n        self.adminFee = newAdminFee;\n\n        emit NewAdminFee(newAdminFee);\n    }\n\n    /**\n     * @notice update the swap fee\n     * @dev fee cannot be higher than 1% of each swap\n     * @param self Swap struct to update\n     * @param newSwapFee new swap fee to be applied on future transactions\n     */\n    function setSwapFee(Swap storage self, uint256 newSwapFee) external {\n        require(newSwapFee <= MAX_SWAP_FEE, \"Fee is too high\");\n        self.swapFee = newSwapFee;\n\n        emit NewSwapFee(newSwapFee);\n    }\n\n    /**\n     * @notice update the default withdraw fee. This also affects deposits made in the past as well.\n     * @param self Swap struct to update\n     * @param newWithdrawFee new withdraw fee to be applied\n     */\n    function setDefaultWithdrawFee(Swap storage self, uint256 newWithdrawFee)\n        external\n    {\n        require(newWithdrawFee <= MAX_WITHDRAW_FEE, \"Fee is too high\");\n        self.defaultWithdrawFee = newWithdrawFee;\n\n        emit NewWithdrawFee(newWithdrawFee);\n    }\n\n    /**\n     * @notice update the default deposit fee. \n     * @param self Swap struct to update\n     * @param newDepositFee new deposit fee to be applied\n     */\n    function setDefaultDepositFee(Swap storage self, uint256 newDepositFee)\n        external\n    {\n        require(newDepositFee <= MAX_DEPOSIT_FEE, \"Fee is too high\");\n        self.defaultDepositFee = newDepositFee;\n\n        emit NewDepositFee(newDepositFee);\n    }\n\n\n    /**\n     * @notice Start ramping up or down A parameter towards given futureA_ and futureTime_\n     * Checks if the change is too rapid, and commits the new A value only when it falls under\n     * the limit range.\n     * @param self Swap struct to update\n     * @param futureA_ the new A to ramp towards\n     * @param futureTime_ timestamp when the new A should be reached\n     */\n    function rampA(\n        Swap storage self,\n        uint256 futureA_,\n        uint256 futureTime_\n    ) external {\n        require(\n            block.timestamp >= self.initialATime.add(1 days),\n            \"Wait 1 day before starting ramp\"\n        );\n        require(\n            futureTime_ >= block.timestamp.add(MIN_RAMP_TIME),\n            \"Insufficient ramp time\"\n        );\n        require(\n            futureA_ > 0 && futureA_ < MAX_A,\n            \"futureA_ must be > 0 and < MAX_A\"\n        );\n\n        uint256 initialAPrecise = _getAPrecise(self);\n        uint256 futureAPrecise = futureA_.mul(A_PRECISION);\n\n        if (futureAPrecise < initialAPrecise) {\n            require(\n                futureAPrecise.mul(MAX_A_CHANGE) >= initialAPrecise,\n                \"futureA_ is too small\"\n            );\n        } else {\n            require(\n                futureAPrecise <= initialAPrecise.mul(MAX_A_CHANGE),\n                \"futureA_ is too large\"\n            );\n        }\n\n        self.initialA = initialAPrecise;\n        self.futureA = futureAPrecise;\n        self.initialATime = block.timestamp;\n        self.futureATime = futureTime_;\n\n        emit RampA(\n            initialAPrecise,\n            futureAPrecise,\n            block.timestamp,\n            futureTime_\n        );\n    }\n\n    /**\n     * @notice Stops ramping A immediately. Once this function is called, rampA()\n     * cannot be called for another 24 hours\n     * @param self Swap struct to update\n     */\n    function stopRampA(Swap storage self) external {\n        require(self.futureATime > block.timestamp, \"Ramp is already stopped\");\n        uint256 currentA = _getAPrecise(self);\n\n        self.initialA = currentA;\n        self.futureA = currentA;\n        self.initialATime = block.timestamp;\n        self.futureATime = block.timestamp;\n\n        emit StopRampA(currentA, block.timestamp);\n    }\n\n    function setDevAddress(Swap storage self, address _devaddr) public {\n        require(msg.sender == self.devaddr, \"dev: wut?\");\n        require(msg.sender != address(0), \"invalid address\");\n        self.devaddr = _devaddr;\n    }\n}\n","sourcePath":"contracts/SwapUtils.sol","type":"library","deployment":{"address":"0xcECcdc514070f4EFd7f828E0D1e5064d30bB691F","chainid":"42220","blockHeight":10195698}}