{"abi":[{"anonymous":false,"inputs":[{"indexed":true,"internalType":"address","name":"provider","type":"address"},{"indexed":false,"internalType":"uint256[]","name":"tokenAmounts","type":"uint256[]"},{"indexed":false,"internalType":"uint256[]","name":"fees","type":"uint256[]"},{"indexed":false,"internalType":"uint256","name":"invariant","type":"uint256"},{"indexed":false,"internalType":"uint256","name":"lpTokenSupply","type":"uint256"}],"name":"AddLiquidity","type":"event"},{"anonymous":false,"inputs":[{"indexed":false,"internalType":"uint256","name":"newAdminFee","type":"uint256"}],"name":"NewAdminFee","type":"event"},{"anonymous":false,"inputs":[{"indexed":false,"internalType":"uint256","name":"newDepositFee","type":"uint256"}],"name":"NewDepositFee","type":"event"},{"anonymous":false,"inputs":[{"indexed":false,"internalType":"uint256","name":"newSwapFee","type":"uint256"}],"name":"NewSwapFee","type":"event"},{"anonymous":false,"inputs":[{"indexed":false,"internalType":"uint256","name":"newWithdrawFee","type":"uint256"}],"name":"NewWithdrawFee","type":"event"},{"anonymous":false,"inputs":[{"indexed":false,"internalType":"uint256","name":"oldA","type":"uint256"},{"indexed":false,"internalType":"uint256","name":"newA","type":"uint256"},{"indexed":false,"internalType":"uint256","name":"initialTime","type":"uint256"},{"indexed":false,"internalType":"uint256","name":"futureTime","type":"uint256"}],"name":"RampA","type":"event"},{"anonymous":false,"inputs":[{"indexed":true,"internalType":"address","name":"provider","type":"address"},{"indexed":false,"internalType":"uint256[]","name":"tokenAmounts","type":"uint256[]"},{"indexed":false,"internalType":"uint256","name":"lpTokenSupply","type":"uint256"}],"name":"RemoveLiquidity","type":"event"},{"anonymous":false,"inputs":[{"indexed":true,"internalType":"address","name":"provider","type":"address"},{"indexed":false,"internalType":"uint256[]","name":"tokenAmounts","type":"uint256[]"},{"indexed":false,"internalType":"uint256[]","name":"fees","type":"uint256[]"},{"indexed":false,"internalType":"uint256","name":"invariant","type":"uint256"},{"indexed":false,"internalType":"uint256","name":"lpTokenSupply","type":"uint256"}],"name":"RemoveLiquidityImbalance","type":"event"},{"anonymous":false,"inputs":[{"indexed":true,"internalType":"address","name":"provider","type":"address"},{"indexed":false,"internalType":"uint256","name":"lpTokenAmount","type":"uint256"},{"indexed":false,"internalType":"uint256","name":"lpTokenSupply","type":"uint256"},{"indexed":false,"internalType":"uint256","name":"boughtId","type":"uint256"},{"indexed":false,"internalType":"uint256","name":"tokensBought","type":"uint256"}],"name":"RemoveLiquidityOne","type":"event"},{"anonymous":false,"inputs":[{"indexed":false,"internalType":"uint256","name":"currentA","type":"uint256"},{"indexed":false,"internalType":"uint256","name":"time","type":"uint256"}],"name":"StopRampA","type":"event"},{"anonymous":false,"inputs":[{"indexed":true,"internalType":"address","name":"buyer","type":"address"},{"indexed":false,"internalType":"uint256","name":"tokensSold","type":"uint256"},{"indexed":false,"internalType":"uint256","name":"tokensBought","type":"uint256"},{"indexed":false,"internalType":"uint128","name":"soldId","type":"uint128"},{"indexed":false,"internalType":"uint128","name":"boughtId","type":"uint128"}],"name":"TokenSwap","type":"event"},{"inputs":[],"name":"A_PRECISION","outputs":[{"internalType":"uint256","name":"","type":"uint256"}],"stateMutability":"view","type":"function"},{"inputs":[],"name":"MAX_A","outputs":[{"internalType":"uint256","name":"","type":"uint256"}],"stateMutability":"view","type":"function"},{"inputs":[],"name":"MAX_ADMIN_FEE","outputs":[{"internalType":"uint256","name":"","type":"uint256"}],"stateMutability":"view","type":"function"},{"inputs":[],"name":"MAX_DEPOSIT_FEE","outputs":[{"internalType":"uint256","name":"","type":"uint256"}],"stateMutability":"view","type":"function"},{"inputs":[],"name":"MAX_SWAP_FEE","outputs":[{"internalType":"uint256","name":"","type":"uint256"}],"stateMutability":"view","type":"function"},{"inputs":[],"name":"MAX_WITHDRAW_FEE","outputs":[{"internalType":"uint256","name":"","type":"uint256"}],"stateMutability":"view","type":"function"},{"inputs":[],"name":"POOL_PRECISION_DECIMALS","outputs":[{"internalType":"uint8","name":"","type":"uint8"}],"stateMutability":"view","type":"function"},{"inputs":[{"internalType":"uint256[]","name":"xp","type":"uint256[]"},{"internalType":"uint256","name":"a","type":"uint256"}],"name":"getD","outputs":[{"internalType":"uint256","name":"","type":"uint256"}],"stateMutability":"pure","type":"function"}],"bytecode":"614b70610026600b82828239805160001a60731461001957fe5b30600052607381538281f3fe73000000000000000000000000000000000000000030146080604052600436106102055760003560e01c80638ab7697e11610124578063d2a39487116100b7578063e8c47a5411610086578063e8c47a541461098b578063e9252d46146109b7578063f14e211e146109f6578063f3de036214610a20578063f967a81f14610a2857610205565b8063d2a39487146108c8578063d4b0de2f1461087e578063e4a9a0da146108f8578063e7a4db811461094c57610205565b8063b0a14cfc116100f3578063b0a14cfc14610886578063c6d87dd51461087e578063c9b64dcb146108a3578063d011f918146108c057610205565b80638ab7697e146107d9578063968e559414610809578063a5397b2214610835578063ab3d85441461087e57610205565b80634b23603c1161019c57806371906c2c1161016b57806371906c2c1461061f57806373fd6b3e1461063c57806376a3b67c146107135780637d048160146107b657610205565b80634b23603c146104fe57806358fdd79b146105345780635e58579c1461056a57806370467276146105ef57610205565b806340370edf116101d857806340370edf1461032757806341b91c26146103de5780634386c7ce14610495578063467e186c146104ce57610205565b80630296ab501461020a57806324c5c7511461022857806329bd743a14610263578063396984151461031f575b600080fd5b610212610a5a565b6040805160ff9092168252519081900360200190f35b81801561023457600080fd5b506102616004803603604081101561024b57600080fd5b50803590602001356001600160a01b0316610a5f565b005b61030d6004803603606081101561027957600080fd5b81359190810190604081016020820135600160201b81111561029a57600080fd5b8201836020820111156102ac57600080fd5b803590602001918460208302840111600160201b831117156102cd57600080fd5b9190808060200260200160405190810160405280939291908181526020018383602002808284376000920191909152509295505091359250610b60915050565b60408051918252519081900360200190f35b61030d610d66565b81801561033357600080fd5b5061030d6004803603606081101561034a57600080fd5b81359190810190604081016020820135600160201b81111561036b57600080fd5b82018360208201111561037d57600080fd5b803590602001918460208302840111600160201b8311171561039e57600080fd5b9190808060200260200160405190810160405280939291908181526020018383602002808284376000920191909152509295505091359250610d6d915050565b8180156103ea57600080fd5b5061030d6004803603606081101561040157600080fd5b81359190810190604081016020820135600160201b81111561042257600080fd5b82018360208201111561043457600080fd5b803590602001918460208302840111600160201b8311171561045557600080fd5b91908080602002602001604051908101604052809392919081815260200183836020028082843760009201919091525092955050913592506116f6915050565b8180156104a157600080fd5b50610261600480360360408110156104b857600080fd5b50803590602001356001600160a01b0316611e98565b8180156104da57600080fd5b50610261600480360360408110156104f157600080fd5b5080359060200135611f4e565b61030d6004803603608081101561051457600080fd5b5080359060ff602082013581169160408101359091169060600135611fd7565b81801561054057600080fd5b506102616004803603606081101561055757600080fd5b5080359060208101359060400135611fef565b61030d6004803603608081101561058057600080fd5b8135916001600160a01b0360208201351691810190606081016040820135600160201b8111156105af57600080fd5b8201836020820111156105c157600080fd5b803590602001918460208302840111600160201b831117156105e257600080fd5b9193509150351515612250565b8180156105fb57600080fd5b506102616004803603604081101561061257600080fd5b50803590602001356124d3565b61030d6004803603602081101561063557600080fd5b503561255d565b81801561064857600080fd5b506106c36004803603606081101561065f57600080fd5b813591602081013591810190606081016040820135600160201b81111561068557600080fd5b82018360208201111561069757600080fd5b803590602001918460208302840111600160201b831117156106b857600080fd5b5090925090506126a7565b60408051602080825283518183015283519192839290830191858101910280838360005b838110156106ff5781810151838201526020016106e7565b505050509050019250505060405180910390f35b61030d6004803603604081101561072957600080fd5b810190602081018135600160201b81111561074357600080fd5b82018360208201111561075557600080fd5b803590602001918460208302840111600160201b8311171561077657600080fd5b9190808060200260200160405190810160405280939291908181526020018383602002808284376000920191909152509295505091359250612a57915050565b61030d600480360360408110156107cc57600080fd5b5080359060200135612ba3565b8180156107e557600080fd5b50610261600480360360408110156107fc57600080fd5b5080359060200135612c25565b61030d6004803603604081101561081f57600080fd5b50803590602001356001600160a01b0316612cae565b81801561084157600080fd5b5061030d600480360360a081101561085857600080fd5b5080359060ff602082013581169160408101359091169060608101359060800135612d55565b61030d613097565b61030d6004803603602081101561089c57600080fd5b503561309f565b61030d600480360360208110156108b957600080fd5b50356130aa565b61030d6130b5565b8180156108d457600080fd5b50610261600480360360408110156108eb57600080fd5b50803590602001356130ba565b6109336004803603608081101561090e57600080fd5b5080359060208101356001600160a01b0316906040810135906060013560ff16613143565b6040805192835260208301919091528051918290030190f35b81801561095857600080fd5b5061030d6004803603608081101561096f57600080fd5b5080359060208101359060ff60408201351690606001356131cd565b61030d600480360360408110156109a157600080fd5b50803590602001356001600160a01b03166134e9565b8180156109c357600080fd5b50610261600480360360608110156109da57600080fd5b508035906001600160a01b036020820135169060400135613508565b818015610a0257600080fd5b5061026160048036036020811015610a1957600080fd5b5035613513565b61030d6135d0565b6106c360048036036060811015610a3e57600080fd5b508035906001600160a01b0360208201351690604001356135d9565b601281565b60005b600a830154811015610b5b57600083600a018281548110610a7f57fe5b6000918252602082200154600c860180546001600160a01b039092169350610b359185908110610aab57fe5b9060005260206000200154836001600160a01b03166370a08231306040518263ffffffff1660e01b815260040180826001600160a01b0316815260200191505060206040518083038186803b158015610b0357600080fd5b505afa158015610b17573d6000803e3d6000fd5b505050506040513d6020811015610b2d57600080fd5b5051906135e6565b90508015610b5157610b516001600160a01b0383168583613643565b5050600101610a62565b505050565b815160009081805b82811015610ba057610b96868281518110610b7f57fe5b60200260200101518361369590919063ffffffff16565b9150600101610b68565b5080610bb157600092505050610d5f565b60008181610bbf87866136ef565b905060005b610100811015610d1b578260005b87811015610c1d57610c13610c03898d8481518110610bed57fe5b60200260200101516136ef90919063ffffffff16565b610c0d84886136ef565b90613748565b9150600101610bd2565b509293508392610c77610c57610c3e83610c388b6001613695565b906136ef565b610c516064610c0d89610c388a846135e6565b90613695565b610c0d86610c38610c68868d6136ef565b610c516064610c0d8b8f6136ef565b93508373__MathUtils_____________________________6313a1ec759091876040518363ffffffff1660e01b8152600401808381526020018281526020019250505060206040518083038186803b158015610cd257600080fd5b505af4158015610ce6573d6000803e3d6000fd5b505050506040513d6020811015610cfc57600080fd5b505115610d125783975050505050505050610d5f565b50600101610bc4565b506040805162461bcd60e51b81526020600482015260136024820152724420646f6573206e6f7420636f6e766572676560681b604482015290519081900360640190fd5b9392505050565b620f424081565b600a830154825160009114610dc9576040805162461bcd60e51b815260206004820181905260248201527f416d6f756e7473206d757374206d6174636820706f6f6c656420746f6b656e73604482015290519081900360640190fd5b600a84015460609067ffffffffffffffff81118015610de757600080fd5b50604051908082528060200260200182016040528015610e11578160200160208202803683370190505b50905060008560090160009054906101000a90046001600160a01b03166001600160a01b03166318160ddd6040518163ffffffff1660e01b815260040160206040518083038186803b158015610e6657600080fd5b505afa158015610e7a573d6000803e3d6000fd5b505050506040513d6020811015610e9057600080fd5b50519050610e9c614a15565b60405180608001604052806000815260200160008152602001600081526020016000815250905081600014610ed757610ed4876137af565b81525b606087600c01805480602002602001604051908101604052809291908181526020018280548015610f2757602002820191906000526020600020905b815481526020019060010190808311610f13575b5050505050905060005b600a89015481101561117d5783151580610f5e57506000888281518110610f5457fe5b6020026020010151115b610faf576040805162461bcd60e51b815260206004820152601e60248201527f4d75737420737570706c7920616c6c20746f6b656e7320696e20706f6f6c0000604482015290519081900360640190fd5b878181518110610fbb57fe5b602002602001015160001461111f57600089600a018281548110610fdb57fe5b60009182526020918290200154604080516370a0823160e01b815230600482015290516001600160a01b03909216926370a0823192602480840193829003018186803b15801561102a57600080fd5b505afa15801561103e573d6000803e3d6000fd5b505050506040513d602081101561105457600080fd5b505189519091506110a390339030908c908690811061106f57fe5b60200260200101518d600a01868154811061108657fe5b6000918252602090912001546001600160a01b03169291906137c6565b611105818b600a0184815481106110b657fe5b60009182526020918290200154604080516370a0823160e01b815230600482015290516001600160a01b03909216926370a0823192602480840193829003018186803b158015610b0357600080fd5b89838151811061111157fe5b602002602001018181525050505b61115e88828151811061112e57fe5b60200260200101518a600c01838154811061114557fe5b906000526020600020015461369590919063ffffffff16565b82828151811061116a57fe5b6020908102919091010152600101610f31565b5061118788613826565b60608301526111a361119989836138bb565b8360600151612a57565b602083018190528251106111f2576040805162461bcd60e51b8152602060048201526011602482015270442073686f756c6420696e63726561736560781b604482015290519081900360640190fd5b6020820151604083015282156113e257600061120d89613919565b905060005b600a8a01548110156113bf5760006112588560000151610c0d8d600c01858154811061123a57fe5b906000526020600020015488602001516136ef90919063ffffffff16565b90506113056402540be400610c0d8373__MathUtils_____________________________63a95cb7f7909189888151811061128f57fe5b60200260200101516040518363ffffffff1660e01b8152600401808381526020018281526020019250505060206040518083038186803b1580156112d257600080fd5b505af41580156112e6573d6000803e3d6000fd5b505050506040513d60208110156112fc57600080fd5b505186906136ef565b87838151811061131157fe5b60200260200101818152505061135f61133d6402540be400610c0d8e600501548b8781518110610bed57fe5b85848151811061134957fe5b60200260200101516135e690919063ffffffff16565b8b600c01838154811061136e57fe5b906000526020600020018190555061139f87838151811061138b57fe5b602002602001015185848151811061134957fe5b8483815181106113ab57fe5b602090810291909101015250600101611212565b506113d76113cd8a846138bb565b8460600151612a57565b6040840152506113f9565b80516113f790600c8a01906020840190614a3d565b505b600080808561140e578460200151925061142d565b8451604086015161142a9190610c0d908990610c3890846135e6565b92505b88831015611482576040805162461bcd60e51b815260206004820152601b60248201527f436f756c646e2774206d696e74206d696e207265717565737465640000000000604482015290519081900360640190fd5b60068b01546114fd5760098b0154604080516340c10f1960e01b81523360048201526024810186905290516001600160a01b03909216916340c10f199160448082019260009290919082900301818387803b1580156114e057600080fd5b505af11580156114f4573d6000803e3d6000fd5b5050505061160c565b61151d6402540be400610c0d8d60060154866136ef90919063ffffffff16565b915061152983836135e6565b60098c015460088d0154604080516340c10f1960e01b81526001600160a01b0392831660048201526024810187905290519394509116916340c10f199160448082019260009290919082900301818387803b15801561158757600080fd5b505af115801561159b573d6000803e3d6000fd5b50505060098c0154604080516340c10f1960e01b81523360048201526024810185905290516001600160a01b0390921692506340c10f1991604480830192600092919082900301818387803b1580156115f357600080fd5b505af1158015611607573d6000803e3d6000fd5b505050505b336001600160a01b03167f189c623b666b1b45b83d7178f39b8c087cb09774317ca2f53c2d3c3726f222a28b898860200151878b01604051808060200180602001858152602001848152602001838103835287818151815260200191508051906020019060200280838360005b83811015611691578181015183820152602001611679565b50505050905001838103825286818151815260200191508051906020019060200280838360005b838110156116d05781810151838201526020016116b8565b50505050905001965050505050505060405180910390a250909998505050505050505050565b600a830154825160009114611752576040805162461bcd60e51b815260206004820181905260248201527f416d6f756e74732073686f756c64206d6174636820706f6f6c20746f6b656e73604482015290519081900360640190fd5b6009840154604080516370a0823160e01b815233600482015290516001600160a01b03909216916370a0823191602480820192602092909190829003018186803b15801561179f57600080fd5b505afa1580156117b3573d6000803e3d6000fd5b505050506040513d60208110156117c957600080fd5b505182118015906117d957508115155b61181a576040805162461bcd60e51b815260206004820152600d60248201526c1f2628173130b630b731b2a7b360991b604482015290519081900360640190fd5b611822614a15565b60405180608001604052806000815260200160008152602001600081526020016000815250905060008560090160009054906101000a90046001600160a01b03166001600160a01b03166318160ddd6040518163ffffffff1660e01b815260040160206040518083038186803b15801561189b57600080fd5b505afa1580156118af573d6000803e3d6000fd5b505050506040513d60208110156118c557600080fd5b5051905060006118d487613919565b9050606087600c0180548060200260200160405190810160405280929190818152602001828054801561192657602002820191906000526020600020905b815481526020019060010190808311611912575b5050505050905061193688613826565b60608501526119516119478961394a565b8560600151612a57565b845260005b600a8901548110156119d4576119b588828151811061197157fe5b6020026020010151604051806060016040528060238152602001614b186023913984848151811061199e57fe5b60200260200101516139f89092919063ffffffff16565b8282815181106119c157fe5b6020908102919091010152600101611956565b506119e261194789836138bb565b6020850152600a88015460609067ffffffffffffffff81118015611a0557600080fd5b50604051908082528060200260200182016040528015611a2f578160200160208202803683370190505b50905060005b600a8a0154811015611bd1576000611a7b8760000151610c0d8d600c018581548110611a5d57fe5b90600052602060002001548a602001516136ef90919063ffffffff16565b905060008173__MathUtils_____________________________63a95cb7f79091878681518110611aa857fe5b60200260200101516040518363ffffffff1660e01b8152600401808381526020018281526020019250505060206040518083038186803b158015611aeb57600080fd5b505af4158015611aff573d6000803e3d6000fd5b505050506040513d6020811015611b1557600080fd5b50519050611b2c6402540be400610c0d88846136ef565b848481518110611b3857fe5b602002602001018181525050611b70611b646402540be400610c0d8f60050154888881518110610bed57fe5b86858151811061134957fe5b8c600c018481548110611b7f57fe5b9060005260206000200181905550611bb0848481518110611b9c57fe5b602002602001015186858151811061134957fe5b858481518110611bbc57fe5b60209081029190910101525050600101611a35565b50611be9611bdf8a846138bb565b8660600151612a57565b604086018190528551600091611c0b9190610c0d908890610c389084906135e6565b905080611c5f576040805162461bcd60e51b815260206004820152601b60248201527f4275726e7420616d6f756e742063616e6e6f74206265207a65726f0000000000604482015290519081900360640190fd5b611c8f611c7b611c6f8c33612cae565b6402540be400906135e6565b610c0d6402540be400610c38856001613695565b905087811115611ce6576040805162461bcd60e51b815260206004820152601b60248201527f746f6b656e416d6f756e74203e206d61784275726e416d6f756e740000000000604482015290519081900360640190fd5b60098a01546040805163079cc67960e41b81523360048201526024810184905290516001600160a01b03909216916379cc67909160448082019260009290919082900301818387803b158015611d3b57600080fd5b505af1158015611d4f573d6000803e3d6000fd5b5050505060005b600a8b0154811015611dad57611da5338b8381518110611d7257fe5b60200260200101518d600a018481548110611d8957fe5b6000918252602090912001546001600160a01b03169190613643565b600101611d56565b50602086015133907f3631c28b1f9dd213e0319fb167b554d76b6c283a41143eb400a0d1adb1af1755908b908590611de58a876135e6565b604051808060200180602001858152602001848152602001838103835287818151815260200191508051906020019060200280838360005b83811015611e35578181015183820152602001611e1d565b50505050905001838103825286818151815260200191508051906020019060200280838360005b83811015611e74578181015183820152602001611e5c565b50505050905001965050505050505060405180910390a29998505050505050505050565b60088201546001600160a01b03163314611ee5576040805162461bcd60e51b81526020600482015260096024820152686465763a207775743f60b81b604482015290519081900360640190fd5b33611f29576040805162461bcd60e51b815260206004820152600f60248201526e696e76616c6964206164647265737360881b604482015290519081900360640190fd5b60089190910180546001600160a01b0319166001600160a01b03909216919091179055565b6305f5e100811115611f99576040805162461bcd60e51b815260206004820152600f60248201526e08ccaca40d2e640e8dede40d0d2ced608b1b604482015290519081900360640190fd5b600482018190556040805182815290517fd88ea5155021c6f8dafa1a741e173f595cdf77ce7c17d43342131d7f06afdfe59181900360200190a15050565b6000611fe585858585613a8f565b5095945050505050565b60028301546120019062015180613695565b421015612055576040805162461bcd60e51b815260206004820152601f60248201527f57616974203120646179206265666f7265207374617274696e672072616d7000604482015290519081900360640190fd5b6120624262127500613695565b8110156120af576040805162461bcd60e51b8152602060048201526016602482015275496e73756666696369656e742072616d702074696d6560501b604482015290519081900360640190fd5b6000821180156120c15750620f424082105b612112576040805162461bcd60e51b815260206004820181905260248201527f667574757265415f206d757374206265203e203020616e64203c204d41585f41604482015290519081900360640190fd5b600061211d84613826565b9050600061212c8460646136ef565b90508181101561219257816121428260026136ef565b101561218d576040805162461bcd60e51b8152602060048201526015602482015274199d5d1d5c995057c81a5cc81d1bdbc81cdb585b1b605a1b604482015290519081900360640190fd5b6121e9565b61219d8260026136ef565b8111156121e9576040805162461bcd60e51b8152602060048201526015602482015274667574757265415f20697320746f6f206c6172676560581b604482015290519081900360640190fd5b8185556001850181905542600286018190556003860184905560408051848152602081018490528082019290925260608201859052517fa2b71ec6df949300b59aab36b55e189697b750119dd349fcfa8c0f779e83c2549181900360800190a15050505050565b600a8501546000908161226288613826565b905060006122cb6122c58a8b600c018054806020026020016040519081016040528092919081815260200182805480156122bb57602002820191906000526020600020905b8154815260200190600101908083116122a7575b50505050506138bb565b83612a57565b9050606089600c0180548060200260200160405190810160405280929190818152602001828054801561231d57602002820191906000526020600020905b815481526020019060010190808311612309575b5050505050905060005b848110156123e657861561238a5761236d89898381811061234457fe5b9050602002013583838151811061235757fe5b602002602001015161369590919063ffffffff16565b82828151811061237957fe5b6020026020010181815250506123de565b6123c589898381811061239957fe5b90506020020135604051806060016040528060238152602001614b186023913984848151811061199e57fe5b8282815181106123d157fe5b6020026020010181815250505b600101612327565b5060006123fc6123f68c846138bb565b85612a57565b905060008b60090160009054906101000a90046001600160a01b03166001600160a01b03166318160ddd6040518163ffffffff1660e01b815260040160206040518083038186803b15801561245057600080fd5b505afa158015612464573d6000803e3d6000fd5b505050506040513d602081101561247a57600080fd5b5051905087156124a35761249684610c0d83610c3886846135e6565b96505050505050506124ca565b6124966124b3611c6f8e8e612cae565b610c0d6402540be400610c3888838783838b6135e6565b95945050505050565b6402540be40081111561251f576040805162461bcd60e51b815260206004820152600f60248201526e08ccaca40d2e640e8dede40d0d2ced608b1b604482015290519081900360640190fd5b600582018190556040805182815290517fab599d640ca80cde2b09b128a4154a8dfe608cb80f4c9399c8b954b01fd35f389181900360200190a15050565b60008061257a61256c8461394a565b61257585613826565b612a57565b905060008360090160009054906101000a90046001600160a01b03166001600160a01b03166318160ddd6040518163ffffffff1660e01b815260040160206040518083038186803b1580156125ce57600080fd5b505afa1580156125e2573d6000803e3d6000fd5b505050506040513d60208110156125f857600080fd5b50519050801561269b5761269281610c0d8660090160009054906101000a90046001600160a01b03166001600160a01b031663313ce5676040518163ffffffff1660e01b815260040160206040518083038186803b15801561265957600080fd5b505afa15801561266d573d6000803e3d6000fd5b505050506040513d602081101561268357600080fd5b5051859060ff16600a0a6136ef565b925050506126a2565b6000925050505b919050565b6009840154604080516370a0823160e01b815233600482015290516060926001600160a01b0316916370a08231916024808301926020929190829003018186803b1580156126f457600080fd5b505afa158015612708573d6000803e3d6000fd5b505050506040513d602081101561271e57600080fd5b5051841115612764576040805162461bcd60e51b815260206004820152600d60248201526c1f2628173130b630b731b2a7b360991b604482015290519081900360640190fd5b600a85015482146127bc576040805162461bcd60e51b815260206004820181905260248201527f6d696e416d6f756e7473206d757374206d6174636820706f6f6c546f6b656e73604482015290519081900360640190fd5b60606127c9863387613bd4565b905060005b81518110156128dc578484828181106127e357fe5b905060200201358282815181106127f657fe5b60200260200101511015612851576040805162461bcd60e51b815260206004820152601a60248201527f616d6f756e74735b695d203c206d696e416d6f756e74735b695d000000000000604482015290519081900360640190fd5b61289082828151811061286057fe5b602002602001015188600c01838154811061287757fe5b90600052602060002001546135e690919063ffffffff16565b87600c01828154811061289f57fe5b90600052602060002001819055506128d4338383815181106128bd57fe5b602002602001015189600a018481548110611d8957fe5b6001016127ce565b5060098601546040805163079cc67960e41b81523360048201526024810188905290516001600160a01b03909216916379cc67909160448082019260009290919082900301818387803b15801561293257600080fd5b505af1158015612946573d6000803e3d6000fd5b50505050336001600160a01b03167f88d38ed598fdd809c2bf01ee49cd24b7fdabf379a83d29567952b60324d58cef828860090160009054906101000a90046001600160a01b03166001600160a01b03166318160ddd6040518163ffffffff1660e01b815260040160206040518083038186803b1580156129c657600080fd5b505afa1580156129da573d6000803e3d6000fd5b505050506040513d60208110156129f057600080fd5b50516040805160208181018490528282528451928201929092528351909182916060830191868101910280838360005b83811015612a38578181015183820152602001612a20565b50505050905001935050505060405180910390a290505b949350505050565b815160009081805b82811015612a8057612a76868281518110610b7f57fe5b9150600101612a5f565b5080612a9157600092505050612b9d565b60008181612a9f87866136ef565b905060005b610100811015612b96578260005b87811015612ad757612acd610c03898d8481518110610bed57fe5b9150600101612ab2565b509293508392612af2610c57610c3e83610c388b6001613695565b93508373__MathUtils_____________________________6313a1ec759091876040518363ffffffff1660e01b8152600401808381526020018281526020019250505060206040518083038186803b158015612b4d57600080fd5b505af4158015612b61573d6000803e3d6000fd5b505050506040513d6020811015612b7757600080fd5b505115612b8d5783975050505050505050612b9d565b50600101612aa4565b5050505050505b92915050565b600a8201546000908210612bf9576040805162461bcd60e51b8152602060048201526018602482015277546f6b656e20696e646578206f7574206f662072616e676560401b604482015290519081900360640190fd5b610d5f83600c018381548110612c0b57fe5b906000526020600020015484600a0184815481106110b657fe5b6305f5e100811115612c70576040805162461bcd60e51b815260206004820152600f60248201526e08ccaca40d2e640e8dede40d0d2ced608b1b604482015290519081900360640190fd5b600782018190556040805182815290517fd5fe46099fa396290a7f57e36c3c3c8774e2562c18ed5d1dcc0fa75071e03f1d9181900360200190a15050565b6001600160a01b0381166000908152600d830160205260408120548190612cd8906224ea00613695565b905042811115612d4b576000612cee82426135e6565b9050612d426402540be400610c0d6224ea00610c0d85610c388b600e0160008c6001600160a01b03166001600160a01b03168152602001908152602001600020548c600701546136ef90919063ffffffff16565b92505050612b9d565b5060009392505050565b600085600a018560ff1681548110612d6957fe5b60009182526020918290200154604080516370a0823160e01b815233600482015290516001600160a01b03909216926370a0823192602480840193829003018186803b158015612db857600080fd5b505afa158015612dcc573d6000803e3d6000fd5b505050506040513d6020811015612de257600080fd5b5051831115612e38576040805162461bcd60e51b815260206004820152601d60248201527f43616e6e6f742073776170206d6f7265207468616e20796f75206f776e000000604482015290519081900360640190fd5b600086600a018660ff1681548110612e4c57fe5b60009182526020918290200154604080516370a0823160e01b815230600482015290516001600160a01b03909216926370a0823192602480840193829003018186803b158015612e9b57600080fd5b505afa158015612eaf573d6000803e3d6000fd5b505050506040513d6020811015612ec557600080fd5b5051600a88018054919250612ee8913391309188919060ff8c1690811061108657fe5b6000612f008289600a018960ff16815481106110b657fe5b9050600080612f118a8a8a86613a8f565b9150915085821015612f6a576040805162461bcd60e51b815260206004820181905260248201527f53776170206469646e277420726573756c7420696e206d696e20746f6b656e73604482015290519081900360640190fd5b6000612fac8b600b018a60ff1681548110612f8157fe5b9060005260206000200154610c0d6402540be400610c0d8f60050154876136ef90919063ffffffff16565b9050612fc4848c600c018c60ff168154811061114557fe5b8b600c018b60ff1681548110612fd657fe5b906000526020600020018190555061300481612ffe858e600c018d60ff168154811061287757fe5b906135e6565b8b600c018a60ff168154811061301657fe5b906000526020600020018190555061303b33848d600a018c60ff1681548110611d8957fe5b604080518581526020810185905260ff808d16828401528b166060820152905133917fc6c1e0630dbe9130cc068028486c0d118ddcea348550819defd5cb8c257f8a38919081900360800190a250909998505050505050505050565b6305f5e10081565b6000612b9d82613d84565b6000612b9d82613826565b606481565b6305f5e100811115613105576040805162461bcd60e51b815260206004820152600f60248201526e08ccaca40d2e640e8dede40d0d2ced608b1b604482015290519081900360640190fd5b600682018190556040805182815290517f5237b692334926d9ab50f9d1ac513fe7e153f0cd81dd7c55a09d281d2985d8089181900360200190a15050565b600080600080613154888688613d94565b8092508193505050600061319d83612ffe8b600b018960ff168154811061317757fe5b9060005260206000200154610c0d8661318f8f61394a565b8c60ff168151811061134957fe5b90506131bf6402540be400610c0d6131b8611c6f8d8d612cae565b86906136ef565b999098509650505050505050565b6000808560090160009054906101000a90046001600160a01b03166001600160a01b03166318160ddd6040518163ffffffff1660e01b815260040160206040518083038186803b15801561322057600080fd5b505afa158015613234573d6000803e3d6000fd5b505050506040513d602081101561324a57600080fd5b5051600a8701546009880154604080516370a0823160e01b8152336004820152905193945091926001600160a01b03909116916370a08231916024808301926020929190829003018186803b1580156132a257600080fd5b505afa1580156132b6573d6000803e3d6000fd5b505050506040513d60208110156132cc57600080fd5b5051861115613312576040805162461bcd60e51b815260206004820152600d60248201526c1f2628173130b630b731b2a7b360991b604482015290519081900360640190fd5b808560ff161061335b576040805162461bcd60e51b815260206004820152600f60248201526e151bdad95b881b9bdd08199bdd5b99608a1b604482015290519081900360640190fd5b60008061336a89338a8a613143565b92509050858110156133b4576040805162461bcd60e51b815260206004820152600e60248201526d191e480f081b5a5b905b5bdd5b9d60921b604482015290519081900360640190fd5b6133f36133e16133da6402540be400610c0d8d60050154876136ef90919063ffffffff16565b8390613695565b8a600c018960ff168154811061287757fe5b89600c018860ff168154811061340557fe5b600091825260208220019190915560098a01546040805163079cc67960e41b8152336004820152602481018c905290516001600160a01b03909216926379cc67909260448084019382900301818387803b15801561346257600080fd5b505af1158015613476573d6000803e3d6000fd5b5050505061349133828b600a018a60ff1681548110611d8957fe5b604080518981526020810186905260ff89168183015260608101839052905133917f43fb02998f4e03da2e0e6fff53fdbf0c40a9f45f145dc377fc30615d7d7a8a64919081900360800190a298975050505050505050565b6001600160a01b03166000908152600d91909101602052604090205490565b610b5b8383836140e0565b4281600301541161356b576040805162461bcd60e51b815260206004820152601760248201527f52616d7020697320616c72656164792073746f70706564000000000000000000604482015290519081900360640190fd5b600061357682613826565b8083556001830181905542600284018190556003840181905560408051838152602081019290925280519293507f46e22fb3709ad289f62ce63d469248536dbc78d82b84a3d7e74ad606dc20193892918290030190a15050565b6402540be40081565b6060612a4f848484613bd4565b60008282111561363d576040805162461bcd60e51b815260206004820152601e60248201527f536166654d6174683a207375627472616374696f6e206f766572666c6f770000604482015290519081900360640190fd5b50900390565b604080516001600160a01b038416602482015260448082018490528251808303909101815260649091019091526020810180516001600160e01b031663a9059cbb60e01b179052610b5b908490614236565b600082820183811015610d5f576040805162461bcd60e51b815260206004820152601b60248201527f536166654d6174683a206164646974696f6e206f766572666c6f770000000000604482015290519081900360640190fd5b6000826136fe57506000612b9d565b8282028284828161370b57fe5b0414610d5f5760405162461bcd60e51b8152600401808060200182810382526021815260200180614acd6021913960400191505060405180910390fd5b600080821161379e576040805162461bcd60e51b815260206004820152601a60248201527f536166654d6174683a206469766973696f6e206279207a65726f000000000000604482015290519081900360640190fd5b8183816137a757fe5b049392505050565b6000612b9d6137bd8361394a565b61257584613826565b604080516001600160a01b0380861660248301528416604482015260648082018490528251808303909101815260849091019091526020810180516001600160e01b03166323b872dd60e01b179052613820908590614236565b50505050565b6003810154600182015460009190428211156138b25760028401548454808311156138845761387961387261385b86856135e6565b610c0d61386842876135e6565b610c3888876135e6565b8290613695565b9450505050506126a2565b6138796138ab61389486856135e6565b610c0d6138a142876135e6565b610c3886896135e6565b82906135e6565b91506126a29050565b6060610d5f8284600b0180548060200260200160405190810160405280929190818152602001828054801561390f57602002820191906000526020600020905b8154815260200190600101908083116138fb575b50505050506142e7565b600a810154600090612b9d9061393790600490610c389060016135e6565b600a8401546004850154610c0d916136ef565b6060612b9d82600c0180548060200260200160405190810160405280929190818152602001828054801561399d57602002820191906000526020600020905b815481526020019060010190808311613989575b505050505083600b0180548060200260200160405190810160405280929190818152602001828054801561390f57602002820191906000526020600020908154815260200190600101908083116138fb5750505050506142e7565b60008184841115613a875760405162461bcd60e51b81526004018080602001828103825283818151815260200191508051906020019080838360005b83811015613a4c578181015183820152602001613a34565b50505050905090810190601f168015613a795780820380516001836020036101000a031916815260200191505b509250505060405180910390fd5b505050900390565b6000806060613a9d8761394a565b905080518660ff16108015613ab5575080518560ff16105b613b01576040805162461bcd60e51b8152602060048201526018602482015277546f6b656e20696e646578206f7574206f662072616e676560401b604482015290519081900360640190fd5b6000613b4c828860ff1681518110613b1557fe5b6020026020010151610c518a600b018a60ff1681548110613b3257fe5b9060005260206000200154886136ef90919063ffffffff16565b90506000613b5d89898985876143de565b9050613b776001612ffe83868b60ff168151811061134957fe5b9450613b996402540be400610c0d8b60040154886136ef90919063ffffffff16565b9350613bc689600b018860ff1681548110613bb057fe5b600091825260209091200154610c0d87876135e6565b945050505094509492505050565b606060008460090160009054906101000a90046001600160a01b03166001600160a01b03166318160ddd6040518163ffffffff1660e01b815260040160206040518083038186803b158015613c2857600080fd5b505afa158015613c3c573d6000803e3d6000fd5b505050506040513d6020811015613c5257600080fd5b5051905080831115613cab576040805162461bcd60e51b815260206004820152601a60248201527f43616e6e6f742065786365656420746f74616c20737570706c79000000000000604482015290519081900360640190fd5b6000613ccd6402540be400610c0d613cc6611c6f8a8a612cae565b87906136ef565b600a87015490915060609067ffffffffffffffff81118015613cee57600080fd5b50604051908082528060200260200182016040528015613d18578160200160208202803683370190505b50905060005b600a880154811015613d7957613d5a84610c0d858b600c018581548110613d4157fe5b90600052602060002001546136ef90919063ffffffff16565b828281518110613d6657fe5b6020908102919091010152600101613d1e565b509695505050505050565b6000612b9d6064610c0d84613826565b600a830154600090819060ff851610613def576040805162461bcd60e51b8152602060048201526018602482015277546f6b656e20696e646578206f7574206f662072616e676560401b604482015290519081900360640190fd5b6060613dfa8661394a565b9050613e04614a88565b6040518060a001604052806000815260200160008152602001600081526020016000815260200160008152509050613e3b87613826565b60808201819052613e4d908390612a57565b81526009870154604080516318160ddd60e01b81529051613edf92613ed7926001600160a01b03909116916318160ddd91600480820192602092909190829003018186803b158015613e9e57600080fd5b505afa158015613eb2573d6000803e3d6000fd5b505050506040513d6020811015613ec857600080fd5b50518351610c0d9089906136ef565b8251906135e6565b60208201528151829060ff8816908110613ef557fe5b6020026020010151851115613f51576040805162461bcd60e51b815260206004820152601a60248201527f5769746864726177206578636565647320617661696c61626c65000000000000604482015290519081900360640190fd5b613f658160800151878484602001516146a9565b6040820152815160609067ffffffffffffffff81118015613f8557600080fd5b50604051908082528060200260200182016040528015613faf578160200160208202803683370190505b509050613fbb88613919565b606083015260005b600a890154811015614072576000848281518110613fdd57fe5b602002602001015190506140526138ab6402540be400610c0d87606001518d60ff16871461402b57885160208a01516140269161401f91610c0d908a906136ef565b87906135e6565b610c38565b610c388960400151612ffe8b60000151610c0d8d602001518b6136ef90919063ffffffff16565b83838151811061405e57fe5b602090810291909101015250600101613fc3565b50600061409b61408c84608001518a8587602001516146a9565b838a60ff168151811061134957fe5b90506140c989600b018960ff16815481106140b257fe5b600091825260209091200154610c0d8360016135e6565b604090930151929550919350505050935093915050565b6001600160a01b0382166140f357610b5b565b6007830154614123576001600160a01b0382166000908152600e8401602052604090206402540be4009055614215565b600061412f8484612cae565b6009850154604080516370a0823160e01b81526001600160a01b038781166004830152915193945060009391909216916370a08231916024808301926020929190829003018186803b15801561418457600080fd5b505afa158015614198573d6000803e3d6000fd5b505050506040513d60208110156141ae57600080fd5b505160078601549091506141f7906141ca90610c388685613695565b610c0d6402540be400610c386141ed8a60070154896136ef90919063ffffffff16565b610c5187896136ef565b6001600160a01b0385166000908152600e8701602052604090205550505b506001600160a01b03166000908152600d9190910160205260409020429055565b606061428b826040518060400160405280602081526020017f5361666545524332303a206c6f772d6c6576656c2063616c6c206661696c6564815250856001600160a01b03166148839092919063ffffffff16565b805190915015610b5b578080602001905160208110156142aa57600080fd5b5051610b5b5760405162461bcd60e51b815260040180806020018281038252602a815260200180614aee602a913960400191505060405180910390fd5b81518151606091908114614342576040805162461bcd60e51b815260206004820152601f60248201527f42616c616e636573206d757374206d61746368206d756c7469706c6965727300604482015290519081900360640190fd5b60608167ffffffffffffffff8111801561435b57600080fd5b50604051908082528060200260200182016040528015614385578160200160208202803683370190505b50905060005b828110156143d5576143b68582815181106143a257fe5b6020026020010151878381518110610bed57fe5b8282815181106143c257fe5b602090810291909101015260010161438b565b50949350505050565b600a85015460009060ff8681169086161415614441576040805162461bcd60e51b815260206004820152601d60248201527f43616e277420636f6d7061726520746f6b656e20746f20697473656c66000000604482015290519081900360640190fd5b808660ff161080156144555750808560ff16105b61449f576040805162461bcd60e51b8152602060048201526016602482015275151bdad95b9cc81b5d5cdd081899481a5b881c1bdbdb60521b604482015290519081900360640190fd5b60006144aa88613826565b905060006144b88583612a57565b9050806000806144c886866136ef565b90506000805b87811015614541578c60ff168114156144e9578a9150614513565b8b60ff16811461450e578981815181106144ff57fe5b60200260200101519150614513565b614539565b61451d8483613695565b935061453661452c838a6136ef565b610c0d87896136ef565b94505b6001016144ce565b5061455e61454f83896136ef565b610c0d6064610c38888a6136ef565b9350600061457b61457484610c0d8960646136ef565b8590613695565b9050600086815b61010081101561465b5790915081906145b56145a78a612ffe87610c518760026136ef565b610c0d8a610c5186806136ef565b91508173__MathUtils_____________________________6313a1ec759091856040518363ffffffff1660e01b8152600401808381526020018281526020019250505060206040518083038186803b15801561461057600080fd5b505af4158015614624573d6000803e3d6000fd5b505050506040513d602081101561463a57600080fd5b505115614653575099506124ca98505050505050505050565b600101614582565b506040805162461bcd60e51b815260206004820152601e60248201527f417070726f78696d6174696f6e20646964206e6f7420636f6e76657267650000604482015290519081900360640190fd5b815160009060ff851681116146f7576040805162461bcd60e51b815260206004820152600f60248201526e151bdad95b881b9bdd08199bdd5b99608a1b604482015290519081900360640190fd5b8260008061470589856136ef565b905060005b8481101561476c578860ff1681146147645761474288828151811061472b57fe5b60200260200101518461369590919063ffffffff16565b9250614761614757868a8481518110610bed57fe5b610c0d868a6136ef565b93505b60010161470a565b5061478961477a82866136ef565b610c0d6064610c38878b6136ef565b925060006147a661479f83610c0d8a60646136ef565b8490613695565b9050600087815b61010081101561465b5790915081906147e06147d28b612ffe87610c518760026136ef565b610c0d89610c5186806136ef565b91508173__MathUtils_____________________________6313a1ec759091856040518363ffffffff1660e01b8152600401808381526020018281526020019250505060206040518083038186803b15801561483b57600080fd5b505af415801561484f573d6000803e3d6000fd5b505050506040513d602081101561486557600080fd5b50511561487b57509650612a4f95505050505050565b6001016147ad565b6060612a4f848460008585614897856149a9565b6148e8576040805162461bcd60e51b815260206004820152601d60248201527f416464726573733a2063616c6c20746f206e6f6e2d636f6e7472616374000000604482015290519081900360640190fd5b60006060866001600160a01b031685876040518082805190602001908083835b602083106149275780518252601f199092019160209182019101614908565b6001836020036101000a03801982511681845116808217855250505050505090500191505060006040518083038185875af1925050503d8060008114614989576040519150601f19603f3d011682016040523d82523d6000602084013e61498e565b606091505b509150915061499e8282866149af565b979650505050505050565b3b151590565b606083156149be575081610d5f565b8251156149ce5782518084602001fd5b60405162461bcd60e51b8152602060048201818152845160248401528451859391928392604401919085019080838360008315613a4c578181015183820152602001613a34565b6040518060800160405280600081526020016000815260200160008152602001600081525090565b828054828255906000526020600020908101928215614a78579160200282015b82811115614a78578251825591602001919060010190614a5d565b50614a84929150614ab7565b5090565b6040518060a0016040528060008152602001600081526020016000815260200160008152602001600081525090565b5b80821115614a845760008155600101614ab856fe536166654d6174683a206d756c7469706c69636174696f6e206f766572666c6f775361666545524332303a204552433230206f7065726174696f6e20646964206e6f74207375636365656443616e6e6f74207769746864726177206d6f7265207468616e20617661696c61626c65a264697066735822122015ec1c8b7a98f127160fbf9e829da77e3318f770488df0ab4555cd9c4172d96964736f6c634300060c0033","bytecodeSha1":"c442d2f457ef76328a108721b18e4e7fe26eddbe","compiler":{"evm_version":"istanbul","optimizer":{"enabled":true,"runs":200},"version":"0.6.12+commit.27d51765"},"contractName":"SwapUtils","deployedBytecode":"73000000000000000000000000000000000000000030146080604052600436106102055760003560e01c80638ab7697e11610124578063d2a39487116100b7578063e8c47a5411610086578063e8c47a541461098b578063e9252d46146109b7578063f14e211e146109f6578063f3de036214610a20578063f967a81f14610a2857610205565b8063d2a39487146108c8578063d4b0de2f1461087e578063e4a9a0da146108f8578063e7a4db811461094c57610205565b8063b0a14cfc116100f3578063b0a14cfc14610886578063c6d87dd51461087e578063c9b64dcb146108a3578063d011f918146108c057610205565b80638ab7697e146107d9578063968e559414610809578063a5397b2214610835578063ab3d85441461087e57610205565b80634b23603c1161019c57806371906c2c1161016b57806371906c2c1461061f57806373fd6b3e1461063c57806376a3b67c146107135780637d048160146107b657610205565b80634b23603c146104fe57806358fdd79b146105345780635e58579c1461056a57806370467276146105ef57610205565b806340370edf116101d857806340370edf1461032757806341b91c26146103de5780634386c7ce14610495578063467e186c146104ce57610205565b80630296ab501461020a57806324c5c7511461022857806329bd743a14610263578063396984151461031f575b600080fd5b610212610a5a565b6040805160ff9092168252519081900360200190f35b81801561023457600080fd5b506102616004803603604081101561024b57600080fd5b50803590602001356001600160a01b0316610a5f565b005b61030d6004803603606081101561027957600080fd5b81359190810190604081016020820135600160201b81111561029a57600080fd5b8201836020820111156102ac57600080fd5b803590602001918460208302840111600160201b831117156102cd57600080fd5b9190808060200260200160405190810160405280939291908181526020018383602002808284376000920191909152509295505091359250610b60915050565b60408051918252519081900360200190f35b61030d610d66565b81801561033357600080fd5b5061030d6004803603606081101561034a57600080fd5b81359190810190604081016020820135600160201b81111561036b57600080fd5b82018360208201111561037d57600080fd5b803590602001918460208302840111600160201b8311171561039e57600080fd5b9190808060200260200160405190810160405280939291908181526020018383602002808284376000920191909152509295505091359250610d6d915050565b8180156103ea57600080fd5b5061030d6004803603606081101561040157600080fd5b81359190810190604081016020820135600160201b81111561042257600080fd5b82018360208201111561043457600080fd5b803590602001918460208302840111600160201b8311171561045557600080fd5b91908080602002602001604051908101604052809392919081815260200183836020028082843760009201919091525092955050913592506116f6915050565b8180156104a157600080fd5b50610261600480360360408110156104b857600080fd5b50803590602001356001600160a01b0316611e98565b8180156104da57600080fd5b50610261600480360360408110156104f157600080fd5b5080359060200135611f4e565b61030d6004803603608081101561051457600080fd5b5080359060ff602082013581169160408101359091169060600135611fd7565b81801561054057600080fd5b506102616004803603606081101561055757600080fd5b5080359060208101359060400135611fef565b61030d6004803603608081101561058057600080fd5b8135916001600160a01b0360208201351691810190606081016040820135600160201b8111156105af57600080fd5b8201836020820111156105c157600080fd5b803590602001918460208302840111600160201b831117156105e257600080fd5b9193509150351515612250565b8180156105fb57600080fd5b506102616004803603604081101561061257600080fd5b50803590602001356124d3565b61030d6004803603602081101561063557600080fd5b503561255d565b81801561064857600080fd5b506106c36004803603606081101561065f57600080fd5b813591602081013591810190606081016040820135600160201b81111561068557600080fd5b82018360208201111561069757600080fd5b803590602001918460208302840111600160201b831117156106b857600080fd5b5090925090506126a7565b60408051602080825283518183015283519192839290830191858101910280838360005b838110156106ff5781810151838201526020016106e7565b505050509050019250505060405180910390f35b61030d6004803603604081101561072957600080fd5b810190602081018135600160201b81111561074357600080fd5b82018360208201111561075557600080fd5b803590602001918460208302840111600160201b8311171561077657600080fd5b9190808060200260200160405190810160405280939291908181526020018383602002808284376000920191909152509295505091359250612a57915050565b61030d600480360360408110156107cc57600080fd5b5080359060200135612ba3565b8180156107e557600080fd5b50610261600480360360408110156107fc57600080fd5b5080359060200135612c25565b61030d6004803603604081101561081f57600080fd5b50803590602001356001600160a01b0316612cae565b81801561084157600080fd5b5061030d600480360360a081101561085857600080fd5b5080359060ff602082013581169160408101359091169060608101359060800135612d55565b61030d613097565b61030d6004803603602081101561089c57600080fd5b503561309f565b61030d600480360360208110156108b957600080fd5b50356130aa565b61030d6130b5565b8180156108d457600080fd5b50610261600480360360408110156108eb57600080fd5b50803590602001356130ba565b6109336004803603608081101561090e57600080fd5b5080359060208101356001600160a01b0316906040810135906060013560ff16613143565b6040805192835260208301919091528051918290030190f35b81801561095857600080fd5b5061030d6004803603608081101561096f57600080fd5b5080359060208101359060ff60408201351690606001356131cd565b61030d600480360360408110156109a157600080fd5b50803590602001356001600160a01b03166134e9565b8180156109c357600080fd5b50610261600480360360608110156109da57600080fd5b508035906001600160a01b036020820135169060400135613508565b818015610a0257600080fd5b5061026160048036036020811015610a1957600080fd5b5035613513565b61030d6135d0565b6106c360048036036060811015610a3e57600080fd5b508035906001600160a01b0360208201351690604001356135d9565b601281565b60005b600a830154811015610b5b57600083600a018281548110610a7f57fe5b6000918252602082200154600c860180546001600160a01b039092169350610b359185908110610aab57fe5b9060005260206000200154836001600160a01b03166370a08231306040518263ffffffff1660e01b815260040180826001600160a01b0316815260200191505060206040518083038186803b158015610b0357600080fd5b505afa158015610b17573d6000803e3d6000fd5b505050506040513d6020811015610b2d57600080fd5b5051906135e6565b90508015610b5157610b516001600160a01b0383168583613643565b5050600101610a62565b505050565b815160009081805b82811015610ba057610b96868281518110610b7f57fe5b60200260200101518361369590919063ffffffff16565b9150600101610b68565b5080610bb157600092505050610d5f565b60008181610bbf87866136ef565b905060005b610100811015610d1b578260005b87811015610c1d57610c13610c03898d8481518110610bed57fe5b60200260200101516136ef90919063ffffffff16565b610c0d84886136ef565b90613748565b9150600101610bd2565b509293508392610c77610c57610c3e83610c388b6001613695565b906136ef565b610c516064610c0d89610c388a846135e6565b90613695565b610c0d86610c38610c68868d6136ef565b610c516064610c0d8b8f6136ef565b93508373__$5dc460cc747dc4210092f6da12cdb25a64$__6313a1ec759091876040518363ffffffff1660e01b8152600401808381526020018281526020019250505060206040518083038186803b158015610cd257600080fd5b505af4158015610ce6573d6000803e3d6000fd5b505050506040513d6020811015610cfc57600080fd5b505115610d125783975050505050505050610d5f565b50600101610bc4565b506040805162461bcd60e51b81526020600482015260136024820152724420646f6573206e6f7420636f6e766572676560681b604482015290519081900360640190fd5b9392505050565b620f424081565b600a830154825160009114610dc9576040805162461bcd60e51b815260206004820181905260248201527f416d6f756e7473206d757374206d6174636820706f6f6c656420746f6b656e73604482015290519081900360640190fd5b600a84015460609067ffffffffffffffff81118015610de757600080fd5b50604051908082528060200260200182016040528015610e11578160200160208202803683370190505b50905060008560090160009054906101000a90046001600160a01b03166001600160a01b03166318160ddd6040518163ffffffff1660e01b815260040160206040518083038186803b158015610e6657600080fd5b505afa158015610e7a573d6000803e3d6000fd5b505050506040513d6020811015610e9057600080fd5b50519050610e9c614a15565b60405180608001604052806000815260200160008152602001600081526020016000815250905081600014610ed757610ed4876137af565b81525b606087600c01805480602002602001604051908101604052809291908181526020018280548015610f2757602002820191906000526020600020905b815481526020019060010190808311610f13575b5050505050905060005b600a89015481101561117d5783151580610f5e57506000888281518110610f5457fe5b6020026020010151115b610faf576040805162461bcd60e51b815260206004820152601e60248201527f4d75737420737570706c7920616c6c20746f6b656e7320696e20706f6f6c0000604482015290519081900360640190fd5b878181518110610fbb57fe5b602002602001015160001461111f57600089600a018281548110610fdb57fe5b60009182526020918290200154604080516370a0823160e01b815230600482015290516001600160a01b03909216926370a0823192602480840193829003018186803b15801561102a57600080fd5b505afa15801561103e573d6000803e3d6000fd5b505050506040513d602081101561105457600080fd5b505189519091506110a390339030908c908690811061106f57fe5b60200260200101518d600a01868154811061108657fe5b6000918252602090912001546001600160a01b03169291906137c6565b611105818b600a0184815481106110b657fe5b60009182526020918290200154604080516370a0823160e01b815230600482015290516001600160a01b03909216926370a0823192602480840193829003018186803b158015610b0357600080fd5b89838151811061111157fe5b602002602001018181525050505b61115e88828151811061112e57fe5b60200260200101518a600c01838154811061114557fe5b906000526020600020015461369590919063ffffffff16565b82828151811061116a57fe5b6020908102919091010152600101610f31565b5061118788613826565b60608301526111a361119989836138bb565b8360600151612a57565b602083018190528251106111f2576040805162461bcd60e51b8152602060048201526011602482015270442073686f756c6420696e63726561736560781b604482015290519081900360640190fd5b6020820151604083015282156113e257600061120d89613919565b905060005b600a8a01548110156113bf5760006112588560000151610c0d8d600c01858154811061123a57fe5b906000526020600020015488602001516136ef90919063ffffffff16565b90506113056402540be400610c0d8373__$5dc460cc747dc4210092f6da12cdb25a64$__63a95cb7f7909189888151811061128f57fe5b60200260200101516040518363ffffffff1660e01b8152600401808381526020018281526020019250505060206040518083038186803b1580156112d257600080fd5b505af41580156112e6573d6000803e3d6000fd5b505050506040513d60208110156112fc57600080fd5b505186906136ef565b87838151811061131157fe5b60200260200101818152505061135f61133d6402540be400610c0d8e600501548b8781518110610bed57fe5b85848151811061134957fe5b60200260200101516135e690919063ffffffff16565b8b600c01838154811061136e57fe5b906000526020600020018190555061139f87838151811061138b57fe5b602002602001015185848151811061134957fe5b8483815181106113ab57fe5b602090810291909101015250600101611212565b506113d76113cd8a846138bb565b8460600151612a57565b6040840152506113f9565b80516113f790600c8a01906020840190614a3d565b505b600080808561140e578460200151925061142d565b8451604086015161142a9190610c0d908990610c3890846135e6565b92505b88831015611482576040805162461bcd60e51b815260206004820152601b60248201527f436f756c646e2774206d696e74206d696e207265717565737465640000000000604482015290519081900360640190fd5b60068b01546114fd5760098b0154604080516340c10f1960e01b81523360048201526024810186905290516001600160a01b03909216916340c10f199160448082019260009290919082900301818387803b1580156114e057600080fd5b505af11580156114f4573d6000803e3d6000fd5b5050505061160c565b61151d6402540be400610c0d8d60060154866136ef90919063ffffffff16565b915061152983836135e6565b60098c015460088d0154604080516340c10f1960e01b81526001600160a01b0392831660048201526024810187905290519394509116916340c10f199160448082019260009290919082900301818387803b15801561158757600080fd5b505af115801561159b573d6000803e3d6000fd5b50505060098c0154604080516340c10f1960e01b81523360048201526024810185905290516001600160a01b0390921692506340c10f1991604480830192600092919082900301818387803b1580156115f357600080fd5b505af1158015611607573d6000803e3d6000fd5b505050505b336001600160a01b03167f189c623b666b1b45b83d7178f39b8c087cb09774317ca2f53c2d3c3726f222a28b898860200151878b01604051808060200180602001858152602001848152602001838103835287818151815260200191508051906020019060200280838360005b83811015611691578181015183820152602001611679565b50505050905001838103825286818151815260200191508051906020019060200280838360005b838110156116d05781810151838201526020016116b8565b50505050905001965050505050505060405180910390a250909998505050505050505050565b600a830154825160009114611752576040805162461bcd60e51b815260206004820181905260248201527f416d6f756e74732073686f756c64206d6174636820706f6f6c20746f6b656e73604482015290519081900360640190fd5b6009840154604080516370a0823160e01b815233600482015290516001600160a01b03909216916370a0823191602480820192602092909190829003018186803b15801561179f57600080fd5b505afa1580156117b3573d6000803e3d6000fd5b505050506040513d60208110156117c957600080fd5b505182118015906117d957508115155b61181a576040805162461bcd60e51b815260206004820152600d60248201526c1f2628173130b630b731b2a7b360991b604482015290519081900360640190fd5b611822614a15565b60405180608001604052806000815260200160008152602001600081526020016000815250905060008560090160009054906101000a90046001600160a01b03166001600160a01b03166318160ddd6040518163ffffffff1660e01b815260040160206040518083038186803b15801561189b57600080fd5b505afa1580156118af573d6000803e3d6000fd5b505050506040513d60208110156118c557600080fd5b5051905060006118d487613919565b9050606087600c0180548060200260200160405190810160405280929190818152602001828054801561192657602002820191906000526020600020905b815481526020019060010190808311611912575b5050505050905061193688613826565b60608501526119516119478961394a565b8560600151612a57565b845260005b600a8901548110156119d4576119b588828151811061197157fe5b6020026020010151604051806060016040528060238152602001614b186023913984848151811061199e57fe5b60200260200101516139f89092919063ffffffff16565b8282815181106119c157fe5b6020908102919091010152600101611956565b506119e261194789836138bb565b6020850152600a88015460609067ffffffffffffffff81118015611a0557600080fd5b50604051908082528060200260200182016040528015611a2f578160200160208202803683370190505b50905060005b600a8a0154811015611bd1576000611a7b8760000151610c0d8d600c018581548110611a5d57fe5b90600052602060002001548a602001516136ef90919063ffffffff16565b905060008173__$5dc460cc747dc4210092f6da12cdb25a64$__63a95cb7f79091878681518110611aa857fe5b60200260200101516040518363ffffffff1660e01b8152600401808381526020018281526020019250505060206040518083038186803b158015611aeb57600080fd5b505af4158015611aff573d6000803e3d6000fd5b505050506040513d6020811015611b1557600080fd5b50519050611b2c6402540be400610c0d88846136ef565b848481518110611b3857fe5b602002602001018181525050611b70611b646402540be400610c0d8f60050154888881518110610bed57fe5b86858151811061134957fe5b8c600c018481548110611b7f57fe5b9060005260206000200181905550611bb0848481518110611b9c57fe5b602002602001015186858151811061134957fe5b858481518110611bbc57fe5b60209081029190910101525050600101611a35565b50611be9611bdf8a846138bb565b8660600151612a57565b604086018190528551600091611c0b9190610c0d908890610c389084906135e6565b905080611c5f576040805162461bcd60e51b815260206004820152601b60248201527f4275726e7420616d6f756e742063616e6e6f74206265207a65726f0000000000604482015290519081900360640190fd5b611c8f611c7b611c6f8c33612cae565b6402540be400906135e6565b610c0d6402540be400610c38856001613695565b905087811115611ce6576040805162461bcd60e51b815260206004820152601b60248201527f746f6b656e416d6f756e74203e206d61784275726e416d6f756e740000000000604482015290519081900360640190fd5b60098a01546040805163079cc67960e41b81523360048201526024810184905290516001600160a01b03909216916379cc67909160448082019260009290919082900301818387803b158015611d3b57600080fd5b505af1158015611d4f573d6000803e3d6000fd5b5050505060005b600a8b0154811015611dad57611da5338b8381518110611d7257fe5b60200260200101518d600a018481548110611d8957fe5b6000918252602090912001546001600160a01b03169190613643565b600101611d56565b50602086015133907f3631c28b1f9dd213e0319fb167b554d76b6c283a41143eb400a0d1adb1af1755908b908590611de58a876135e6565b604051808060200180602001858152602001848152602001838103835287818151815260200191508051906020019060200280838360005b83811015611e35578181015183820152602001611e1d565b50505050905001838103825286818151815260200191508051906020019060200280838360005b83811015611e74578181015183820152602001611e5c565b50505050905001965050505050505060405180910390a29998505050505050505050565b60088201546001600160a01b03163314611ee5576040805162461bcd60e51b81526020600482015260096024820152686465763a207775743f60b81b604482015290519081900360640190fd5b33611f29576040805162461bcd60e51b815260206004820152600f60248201526e696e76616c6964206164647265737360881b604482015290519081900360640190fd5b60089190910180546001600160a01b0319166001600160a01b03909216919091179055565b6305f5e100811115611f99576040805162461bcd60e51b815260206004820152600f60248201526e08ccaca40d2e640e8dede40d0d2ced608b1b604482015290519081900360640190fd5b600482018190556040805182815290517fd88ea5155021c6f8dafa1a741e173f595cdf77ce7c17d43342131d7f06afdfe59181900360200190a15050565b6000611fe585858585613a8f565b5095945050505050565b60028301546120019062015180613695565b421015612055576040805162461bcd60e51b815260206004820152601f60248201527f57616974203120646179206265666f7265207374617274696e672072616d7000604482015290519081900360640190fd5b6120624262127500613695565b8110156120af576040805162461bcd60e51b8152602060048201526016602482015275496e73756666696369656e742072616d702074696d6560501b604482015290519081900360640190fd5b6000821180156120c15750620f424082105b612112576040805162461bcd60e51b815260206004820181905260248201527f667574757265415f206d757374206265203e203020616e64203c204d41585f41604482015290519081900360640190fd5b600061211d84613826565b9050600061212c8460646136ef565b90508181101561219257816121428260026136ef565b101561218d576040805162461bcd60e51b8152602060048201526015602482015274199d5d1d5c995057c81a5cc81d1bdbc81cdb585b1b605a1b604482015290519081900360640190fd5b6121e9565b61219d8260026136ef565b8111156121e9576040805162461bcd60e51b8152602060048201526015602482015274667574757265415f20697320746f6f206c6172676560581b604482015290519081900360640190fd5b8185556001850181905542600286018190556003860184905560408051848152602081018490528082019290925260608201859052517fa2b71ec6df949300b59aab36b55e189697b750119dd349fcfa8c0f779e83c2549181900360800190a15050505050565b600a8501546000908161226288613826565b905060006122cb6122c58a8b600c018054806020026020016040519081016040528092919081815260200182805480156122bb57602002820191906000526020600020905b8154815260200190600101908083116122a7575b50505050506138bb565b83612a57565b9050606089600c0180548060200260200160405190810160405280929190818152602001828054801561231d57602002820191906000526020600020905b815481526020019060010190808311612309575b5050505050905060005b848110156123e657861561238a5761236d89898381811061234457fe5b9050602002013583838151811061235757fe5b602002602001015161369590919063ffffffff16565b82828151811061237957fe5b6020026020010181815250506123de565b6123c589898381811061239957fe5b90506020020135604051806060016040528060238152602001614b186023913984848151811061199e57fe5b8282815181106123d157fe5b6020026020010181815250505b600101612327565b5060006123fc6123f68c846138bb565b85612a57565b905060008b60090160009054906101000a90046001600160a01b03166001600160a01b03166318160ddd6040518163ffffffff1660e01b815260040160206040518083038186803b15801561245057600080fd5b505afa158015612464573d6000803e3d6000fd5b505050506040513d602081101561247a57600080fd5b5051905087156124a35761249684610c0d83610c3886846135e6565b96505050505050506124ca565b6124966124b3611c6f8e8e612cae565b610c0d6402540be400610c3888838783838b6135e6565b95945050505050565b6402540be40081111561251f576040805162461bcd60e51b815260206004820152600f60248201526e08ccaca40d2e640e8dede40d0d2ced608b1b604482015290519081900360640190fd5b600582018190556040805182815290517fab599d640ca80cde2b09b128a4154a8dfe608cb80f4c9399c8b954b01fd35f389181900360200190a15050565b60008061257a61256c8461394a565b61257585613826565b612a57565b905060008360090160009054906101000a90046001600160a01b03166001600160a01b03166318160ddd6040518163ffffffff1660e01b815260040160206040518083038186803b1580156125ce57600080fd5b505afa1580156125e2573d6000803e3d6000fd5b505050506040513d60208110156125f857600080fd5b50519050801561269b5761269281610c0d8660090160009054906101000a90046001600160a01b03166001600160a01b031663313ce5676040518163ffffffff1660e01b815260040160206040518083038186803b15801561265957600080fd5b505afa15801561266d573d6000803e3d6000fd5b505050506040513d602081101561268357600080fd5b5051859060ff16600a0a6136ef565b925050506126a2565b6000925050505b919050565b6009840154604080516370a0823160e01b815233600482015290516060926001600160a01b0316916370a08231916024808301926020929190829003018186803b1580156126f457600080fd5b505afa158015612708573d6000803e3d6000fd5b505050506040513d602081101561271e57600080fd5b5051841115612764576040805162461bcd60e51b815260206004820152600d60248201526c1f2628173130b630b731b2a7b360991b604482015290519081900360640190fd5b600a85015482146127bc576040805162461bcd60e51b815260206004820181905260248201527f6d696e416d6f756e7473206d757374206d6174636820706f6f6c546f6b656e73604482015290519081900360640190fd5b60606127c9863387613bd4565b905060005b81518110156128dc578484828181106127e357fe5b905060200201358282815181106127f657fe5b60200260200101511015612851576040805162461bcd60e51b815260206004820152601a60248201527f616d6f756e74735b695d203c206d696e416d6f756e74735b695d000000000000604482015290519081900360640190fd5b61289082828151811061286057fe5b602002602001015188600c01838154811061287757fe5b90600052602060002001546135e690919063ffffffff16565b87600c01828154811061289f57fe5b90600052602060002001819055506128d4338383815181106128bd57fe5b602002602001015189600a018481548110611d8957fe5b6001016127ce565b5060098601546040805163079cc67960e41b81523360048201526024810188905290516001600160a01b03909216916379cc67909160448082019260009290919082900301818387803b15801561293257600080fd5b505af1158015612946573d6000803e3d6000fd5b50505050336001600160a01b03167f88d38ed598fdd809c2bf01ee49cd24b7fdabf379a83d29567952b60324d58cef828860090160009054906101000a90046001600160a01b03166001600160a01b03166318160ddd6040518163ffffffff1660e01b815260040160206040518083038186803b1580156129c657600080fd5b505afa1580156129da573d6000803e3d6000fd5b505050506040513d60208110156129f057600080fd5b50516040805160208181018490528282528451928201929092528351909182916060830191868101910280838360005b83811015612a38578181015183820152602001612a20565b50505050905001935050505060405180910390a290505b949350505050565b815160009081805b82811015612a8057612a76868281518110610b7f57fe5b9150600101612a5f565b5080612a9157600092505050612b9d565b60008181612a9f87866136ef565b905060005b610100811015612b96578260005b87811015612ad757612acd610c03898d8481518110610bed57fe5b9150600101612ab2565b509293508392612af2610c57610c3e83610c388b6001613695565b93508373__$5dc460cc747dc4210092f6da12cdb25a64$__6313a1ec759091876040518363ffffffff1660e01b8152600401808381526020018281526020019250505060206040518083038186803b158015612b4d57600080fd5b505af4158015612b61573d6000803e3d6000fd5b505050506040513d6020811015612b7757600080fd5b505115612b8d5783975050505050505050612b9d565b50600101612aa4565b5050505050505b92915050565b600a8201546000908210612bf9576040805162461bcd60e51b8152602060048201526018602482015277546f6b656e20696e646578206f7574206f662072616e676560401b604482015290519081900360640190fd5b610d5f83600c018381548110612c0b57fe5b906000526020600020015484600a0184815481106110b657fe5b6305f5e100811115612c70576040805162461bcd60e51b815260206004820152600f60248201526e08ccaca40d2e640e8dede40d0d2ced608b1b604482015290519081900360640190fd5b600782018190556040805182815290517fd5fe46099fa396290a7f57e36c3c3c8774e2562c18ed5d1dcc0fa75071e03f1d9181900360200190a15050565b6001600160a01b0381166000908152600d830160205260408120548190612cd8906224ea00613695565b905042811115612d4b576000612cee82426135e6565b9050612d426402540be400610c0d6224ea00610c0d85610c388b600e0160008c6001600160a01b03166001600160a01b03168152602001908152602001600020548c600701546136ef90919063ffffffff16565b92505050612b9d565b5060009392505050565b600085600a018560ff1681548110612d6957fe5b60009182526020918290200154604080516370a0823160e01b815233600482015290516001600160a01b03909216926370a0823192602480840193829003018186803b158015612db857600080fd5b505afa158015612dcc573d6000803e3d6000fd5b505050506040513d6020811015612de257600080fd5b5051831115612e38576040805162461bcd60e51b815260206004820152601d60248201527f43616e6e6f742073776170206d6f7265207468616e20796f75206f776e000000604482015290519081900360640190fd5b600086600a018660ff1681548110612e4c57fe5b60009182526020918290200154604080516370a0823160e01b815230600482015290516001600160a01b03909216926370a0823192602480840193829003018186803b158015612e9b57600080fd5b505afa158015612eaf573d6000803e3d6000fd5b505050506040513d6020811015612ec557600080fd5b5051600a88018054919250612ee8913391309188919060ff8c1690811061108657fe5b6000612f008289600a018960ff16815481106110b657fe5b9050600080612f118a8a8a86613a8f565b9150915085821015612f6a576040805162461bcd60e51b815260206004820181905260248201527f53776170206469646e277420726573756c7420696e206d696e20746f6b656e73604482015290519081900360640190fd5b6000612fac8b600b018a60ff1681548110612f8157fe5b9060005260206000200154610c0d6402540be400610c0d8f60050154876136ef90919063ffffffff16565b9050612fc4848c600c018c60ff168154811061114557fe5b8b600c018b60ff1681548110612fd657fe5b906000526020600020018190555061300481612ffe858e600c018d60ff168154811061287757fe5b906135e6565b8b600c018a60ff168154811061301657fe5b906000526020600020018190555061303b33848d600a018c60ff1681548110611d8957fe5b604080518581526020810185905260ff808d16828401528b166060820152905133917fc6c1e0630dbe9130cc068028486c0d118ddcea348550819defd5cb8c257f8a38919081900360800190a250909998505050505050505050565b6305f5e10081565b6000612b9d82613d84565b6000612b9d82613826565b606481565b6305f5e100811115613105576040805162461bcd60e51b815260206004820152600f60248201526e08ccaca40d2e640e8dede40d0d2ced608b1b604482015290519081900360640190fd5b600682018190556040805182815290517f5237b692334926d9ab50f9d1ac513fe7e153f0cd81dd7c55a09d281d2985d8089181900360200190a15050565b600080600080613154888688613d94565b8092508193505050600061319d83612ffe8b600b018960ff168154811061317757fe5b9060005260206000200154610c0d8661318f8f61394a565b8c60ff168151811061134957fe5b90506131bf6402540be400610c0d6131b8611c6f8d8d612cae565b86906136ef565b999098509650505050505050565b6000808560090160009054906101000a90046001600160a01b03166001600160a01b03166318160ddd6040518163ffffffff1660e01b815260040160206040518083038186803b15801561322057600080fd5b505afa158015613234573d6000803e3d6000fd5b505050506040513d602081101561324a57600080fd5b5051600a8701546009880154604080516370a0823160e01b8152336004820152905193945091926001600160a01b03909116916370a08231916024808301926020929190829003018186803b1580156132a257600080fd5b505afa1580156132b6573d6000803e3d6000fd5b505050506040513d60208110156132cc57600080fd5b5051861115613312576040805162461bcd60e51b815260206004820152600d60248201526c1f2628173130b630b731b2a7b360991b604482015290519081900360640190fd5b808560ff161061335b576040805162461bcd60e51b815260206004820152600f60248201526e151bdad95b881b9bdd08199bdd5b99608a1b604482015290519081900360640190fd5b60008061336a89338a8a613143565b92509050858110156133b4576040805162461bcd60e51b815260206004820152600e60248201526d191e480f081b5a5b905b5bdd5b9d60921b604482015290519081900360640190fd5b6133f36133e16133da6402540be400610c0d8d60050154876136ef90919063ffffffff16565b8390613695565b8a600c018960ff168154811061287757fe5b89600c018860ff168154811061340557fe5b600091825260208220019190915560098a01546040805163079cc67960e41b8152336004820152602481018c905290516001600160a01b03909216926379cc67909260448084019382900301818387803b15801561346257600080fd5b505af1158015613476573d6000803e3d6000fd5b5050505061349133828b600a018a60ff1681548110611d8957fe5b604080518981526020810186905260ff89168183015260608101839052905133917f43fb02998f4e03da2e0e6fff53fdbf0c40a9f45f145dc377fc30615d7d7a8a64919081900360800190a298975050505050505050565b6001600160a01b03166000908152600d91909101602052604090205490565b610b5b8383836140e0565b4281600301541161356b576040805162461bcd60e51b815260206004820152601760248201527f52616d7020697320616c72656164792073746f70706564000000000000000000604482015290519081900360640190fd5b600061357682613826565b8083556001830181905542600284018190556003840181905560408051838152602081019290925280519293507f46e22fb3709ad289f62ce63d469248536dbc78d82b84a3d7e74ad606dc20193892918290030190a15050565b6402540be40081565b6060612a4f848484613bd4565b60008282111561363d576040805162461bcd60e51b815260206004820152601e60248201527f536166654d6174683a207375627472616374696f6e206f766572666c6f770000604482015290519081900360640190fd5b50900390565b604080516001600160a01b038416602482015260448082018490528251808303909101815260649091019091526020810180516001600160e01b031663a9059cbb60e01b179052610b5b908490614236565b600082820183811015610d5f576040805162461bcd60e51b815260206004820152601b60248201527f536166654d6174683a206164646974696f6e206f766572666c6f770000000000604482015290519081900360640190fd5b6000826136fe57506000612b9d565b8282028284828161370b57fe5b0414610d5f5760405162461bcd60e51b8152600401808060200182810382526021815260200180614acd6021913960400191505060405180910390fd5b600080821161379e576040805162461bcd60e51b815260206004820152601a60248201527f536166654d6174683a206469766973696f6e206279207a65726f000000000000604482015290519081900360640190fd5b8183816137a757fe5b049392505050565b6000612b9d6137bd8361394a565b61257584613826565b604080516001600160a01b0380861660248301528416604482015260648082018490528251808303909101815260849091019091526020810180516001600160e01b03166323b872dd60e01b179052613820908590614236565b50505050565b6003810154600182015460009190428211156138b25760028401548454808311156138845761387961387261385b86856135e6565b610c0d61386842876135e6565b610c3888876135e6565b8290613695565b9450505050506126a2565b6138796138ab61389486856135e6565b610c0d6138a142876135e6565b610c3886896135e6565b82906135e6565b91506126a29050565b6060610d5f8284600b0180548060200260200160405190810160405280929190818152602001828054801561390f57602002820191906000526020600020905b8154815260200190600101908083116138fb575b50505050506142e7565b600a810154600090612b9d9061393790600490610c389060016135e6565b600a8401546004850154610c0d916136ef565b6060612b9d82600c0180548060200260200160405190810160405280929190818152602001828054801561399d57602002820191906000526020600020905b815481526020019060010190808311613989575b505050505083600b0180548060200260200160405190810160405280929190818152602001828054801561390f57602002820191906000526020600020908154815260200190600101908083116138fb5750505050506142e7565b60008184841115613a875760405162461bcd60e51b81526004018080602001828103825283818151815260200191508051906020019080838360005b83811015613a4c578181015183820152602001613a34565b50505050905090810190601f168015613a795780820380516001836020036101000a031916815260200191505b509250505060405180910390fd5b505050900390565b6000806060613a9d8761394a565b905080518660ff16108015613ab5575080518560ff16105b613b01576040805162461bcd60e51b8152602060048201526018602482015277546f6b656e20696e646578206f7574206f662072616e676560401b604482015290519081900360640190fd5b6000613b4c828860ff1681518110613b1557fe5b6020026020010151610c518a600b018a60ff1681548110613b3257fe5b9060005260206000200154886136ef90919063ffffffff16565b90506000613b5d89898985876143de565b9050613b776001612ffe83868b60ff168151811061134957fe5b9450613b996402540be400610c0d8b60040154886136ef90919063ffffffff16565b9350613bc689600b018860ff1681548110613bb057fe5b600091825260209091200154610c0d87876135e6565b945050505094509492505050565b606060008460090160009054906101000a90046001600160a01b03166001600160a01b03166318160ddd6040518163ffffffff1660e01b815260040160206040518083038186803b158015613c2857600080fd5b505afa158015613c3c573d6000803e3d6000fd5b505050506040513d6020811015613c5257600080fd5b5051905080831115613cab576040805162461bcd60e51b815260206004820152601a60248201527f43616e6e6f742065786365656420746f74616c20737570706c79000000000000604482015290519081900360640190fd5b6000613ccd6402540be400610c0d613cc6611c6f8a8a612cae565b87906136ef565b600a87015490915060609067ffffffffffffffff81118015613cee57600080fd5b50604051908082528060200260200182016040528015613d18578160200160208202803683370190505b50905060005b600a880154811015613d7957613d5a84610c0d858b600c018581548110613d4157fe5b90600052602060002001546136ef90919063ffffffff16565b828281518110613d6657fe5b6020908102919091010152600101613d1e565b509695505050505050565b6000612b9d6064610c0d84613826565b600a830154600090819060ff851610613def576040805162461bcd60e51b8152602060048201526018602482015277546f6b656e20696e646578206f7574206f662072616e676560401b604482015290519081900360640190fd5b6060613dfa8661394a565b9050613e04614a88565b6040518060a001604052806000815260200160008152602001600081526020016000815260200160008152509050613e3b87613826565b60808201819052613e4d908390612a57565b81526009870154604080516318160ddd60e01b81529051613edf92613ed7926001600160a01b03909116916318160ddd91600480820192602092909190829003018186803b158015613e9e57600080fd5b505afa158015613eb2573d6000803e3d6000fd5b505050506040513d6020811015613ec857600080fd5b50518351610c0d9089906136ef565b8251906135e6565b60208201528151829060ff8816908110613ef557fe5b6020026020010151851115613f51576040805162461bcd60e51b815260206004820152601a60248201527f5769746864726177206578636565647320617661696c61626c65000000000000604482015290519081900360640190fd5b613f658160800151878484602001516146a9565b6040820152815160609067ffffffffffffffff81118015613f8557600080fd5b50604051908082528060200260200182016040528015613faf578160200160208202803683370190505b509050613fbb88613919565b606083015260005b600a890154811015614072576000848281518110613fdd57fe5b602002602001015190506140526138ab6402540be400610c0d87606001518d60ff16871461402b57885160208a01516140269161401f91610c0d908a906136ef565b87906135e6565b610c38565b610c388960400151612ffe8b60000151610c0d8d602001518b6136ef90919063ffffffff16565b83838151811061405e57fe5b602090810291909101015250600101613fc3565b50600061409b61408c84608001518a8587602001516146a9565b838a60ff168151811061134957fe5b90506140c989600b018960ff16815481106140b257fe5b600091825260209091200154610c0d8360016135e6565b604090930151929550919350505050935093915050565b6001600160a01b0382166140f357610b5b565b6007830154614123576001600160a01b0382166000908152600e8401602052604090206402540be4009055614215565b600061412f8484612cae565b6009850154604080516370a0823160e01b81526001600160a01b038781166004830152915193945060009391909216916370a08231916024808301926020929190829003018186803b15801561418457600080fd5b505afa158015614198573d6000803e3d6000fd5b505050506040513d60208110156141ae57600080fd5b505160078601549091506141f7906141ca90610c388685613695565b610c0d6402540be400610c386141ed8a60070154896136ef90919063ffffffff16565b610c5187896136ef565b6001600160a01b0385166000908152600e8701602052604090205550505b506001600160a01b03166000908152600d9190910160205260409020429055565b606061428b826040518060400160405280602081526020017f5361666545524332303a206c6f772d6c6576656c2063616c6c206661696c6564815250856001600160a01b03166148839092919063ffffffff16565b805190915015610b5b578080602001905160208110156142aa57600080fd5b5051610b5b5760405162461bcd60e51b815260040180806020018281038252602a815260200180614aee602a913960400191505060405180910390fd5b81518151606091908114614342576040805162461bcd60e51b815260206004820152601f60248201527f42616c616e636573206d757374206d61746368206d756c7469706c6965727300604482015290519081900360640190fd5b60608167ffffffffffffffff8111801561435b57600080fd5b50604051908082528060200260200182016040528015614385578160200160208202803683370190505b50905060005b828110156143d5576143b68582815181106143a257fe5b6020026020010151878381518110610bed57fe5b8282815181106143c257fe5b602090810291909101015260010161438b565b50949350505050565b600a85015460009060ff8681169086161415614441576040805162461bcd60e51b815260206004820152601d60248201527f43616e277420636f6d7061726520746f6b656e20746f20697473656c66000000604482015290519081900360640190fd5b808660ff161080156144555750808560ff16105b61449f576040805162461bcd60e51b8152602060048201526016602482015275151bdad95b9cc81b5d5cdd081899481a5b881c1bdbdb60521b604482015290519081900360640190fd5b60006144aa88613826565b905060006144b88583612a57565b9050806000806144c886866136ef565b90506000805b87811015614541578c60ff168114156144e9578a9150614513565b8b60ff16811461450e578981815181106144ff57fe5b60200260200101519150614513565b614539565b61451d8483613695565b935061453661452c838a6136ef565b610c0d87896136ef565b94505b6001016144ce565b5061455e61454f83896136ef565b610c0d6064610c38888a6136ef565b9350600061457b61457484610c0d8960646136ef565b8590613695565b9050600086815b61010081101561465b5790915081906145b56145a78a612ffe87610c518760026136ef565b610c0d8a610c5186806136ef565b91508173__$5dc460cc747dc4210092f6da12cdb25a64$__6313a1ec759091856040518363ffffffff1660e01b8152600401808381526020018281526020019250505060206040518083038186803b15801561461057600080fd5b505af4158015614624573d6000803e3d6000fd5b505050506040513d602081101561463a57600080fd5b505115614653575099506124ca98505050505050505050565b600101614582565b506040805162461bcd60e51b815260206004820152601e60248201527f417070726f78696d6174696f6e20646964206e6f7420636f6e76657267650000604482015290519081900360640190fd5b815160009060ff851681116146f7576040805162461bcd60e51b815260206004820152600f60248201526e151bdad95b881b9bdd08199bdd5b99608a1b604482015290519081900360640190fd5b8260008061470589856136ef565b905060005b8481101561476c578860ff1681146147645761474288828151811061472b57fe5b60200260200101518461369590919063ffffffff16565b9250614761614757868a8481518110610bed57fe5b610c0d868a6136ef565b93505b60010161470a565b5061478961477a82866136ef565b610c0d6064610c38878b6136ef565b925060006147a661479f83610c0d8a60646136ef565b8490613695565b9050600087815b61010081101561465b5790915081906147e06147d28b612ffe87610c518760026136ef565b610c0d89610c5186806136ef565b91508173__$5dc460cc747dc4210092f6da12cdb25a64$__6313a1ec759091856040518363ffffffff1660e01b8152600401808381526020018281526020019250505060206040518083038186803b15801561483b57600080fd5b505af415801561484f573d6000803e3d6000fd5b505050506040513d602081101561486557600080fd5b50511561487b57509650612a4f95505050505050565b6001016147ad565b6060612a4f848460008585614897856149a9565b6148e8576040805162461bcd60e51b815260206004820152601d60248201527f416464726573733a2063616c6c20746f206e6f6e2d636f6e7472616374000000604482015290519081900360640190fd5b60006060866001600160a01b031685876040518082805190602001908083835b602083106149275780518252601f199092019160209182019101614908565b6001836020036101000a03801982511681845116808217855250505050505090500191505060006040518083038185875af1925050503d8060008114614989576040519150601f19603f3d011682016040523d82523d6000602084013e61498e565b606091505b509150915061499e8282866149af565b979650505050505050565b3b151590565b606083156149be575081610d5f565b8251156149ce5782518084602001fd5b60405162461bcd60e51b8152602060048201818152845160248401528451859391928392604401919085019080838360008315613a4c578181015183820152602001613a34565b6040518060800160405280600081526020016000815260200160008152602001600081525090565b828054828255906000526020600020908101928215614a78579160200282015b82811115614a78578251825591602001919060010190614a5d565b50614a84929150614ab7565b5090565b6040518060a0016040528060008152602001600081526020016000815260200160008152602001600081525090565b5b80821115614a845760008155600101614ab856fe536166654d6174683a206d756c7469706c69636174696f6e206f766572666c6f775361666545524332303a204552433230206f7065726174696f6e20646964206e6f74207375636365656443616e6e6f74207769746864726177206d6f7265207468616e20617661696c61626c65a264697066735822122015ec1c8b7a98f127160fbf9e829da77e3318f770488df0ab4555cd9c4172d96964736f6c634300060c0033","language":"Solidity","natspec":{"details":"Contracts relying on this library must initialize SwapUtils.Swap struct then use this library for SwapUtils.Swap struct. Note that this library contains both functions called by users and admins. Admin functions should be protected within contracts using this library.","kind":"dev","methods":{"addLiquidity(SwapUtils.Swap storage,uint256[],uint256)":{"notice":"Add liquidity to the pool","params":{"amounts":"the amounts of each token to add, in their native precision","minToMint":"the minimum LP tokens adding this amount of liquidity should mint, otherwise revert. Handy for front-running mitigation","self":"Swap struct to read from and write to"},"returns":{"_0":"amount of LP token user received"}},"calculateCurrentWithdrawFee(SwapUtils.Swap storage,address)":{"notice":"Calculate the fee that is applied when the given user withdraws. Withdraw fee decays linearly over 4 weeks.","params":{"user":"address you want to calculate withdraw fee of"},"returns":{"_0":"current withdraw fee of the user"}},"calculateRemoveLiquidity(SwapUtils.Swap storage,address,uint256)":{"notice":"A simple method to calculate amount of each underlying tokens that is returned upon burning given amount of LP tokens","params":{"account":"the address that is removing liquidity. required for withdraw fee calculation","amount":"the amount of LP tokens that would to be burned on withdrawal"},"returns":{"_0":"array of amounts of tokens user will receive"}},"calculateSwap(SwapUtils.Swap storage,uint8,uint8,uint256)":{"notice":"Externally calculates a swap between two tokens.","params":{"dx":"the number of tokens to sell. If the token charges a fee on transfers, use the amount that gets transferred after the fee.","self":"Swap struct to read from","tokenIndexFrom":"the token to sell","tokenIndexTo":"the token to buy"},"returns":{"dy":"the number of tokens the user will get"}},"calculateTokenAmount(SwapUtils.Swap storage,address,uint256[],bool)":{"details":"This shouldn't be used outside frontends for user estimates.","notice":"A simple method to calculate prices from deposits or withdrawals, excluding fees but including slippage. This is helpful as an input into the various \"min\" parameters on calls to fight front-running","params":{"account":"address of the account depositing or withdrawing tokens","amounts":"an array of token amounts to deposit or withdrawal, corresponding to pooledTokens. The amount should be in each pooled token's native precision. If a token charges a fee on transfers, use the amount that gets transferred after the fee.","deposit":"whether this is a deposit or a withdrawal","self":"Swap struct to read from"},"returns":{"_0":"if deposit was true, total amount of lp token that will be minted and if deposit was false, total amount of lp token that will be burned"}},"calculateWithdrawOneToken(SwapUtils.Swap storage,address,uint256,uint8)":{"notice":"Calculate the dy, the amount of selected token that user receives and the fee of withdrawing in one token","params":{"account":"the address that is withdrawing","self":"Swap struct to read from","tokenAmount":"the amount to withdraw in the pool's precision","tokenIndex":"which token will be withdrawn"},"returns":{"_0":"the amount of token user will receive and the associated swap fee"}},"getA(SwapUtils.Swap storage)":{"details":"See the StableSwap paper for details","notice":"Return A, the amplification coefficient * n * (n - 1)","params":{"self":"Swap struct to read from"},"returns":{"_0":"A parameter"}},"getAPrecise(SwapUtils.Swap storage)":{"details":"See the StableSwap paper for details","notice":"Return A in its raw precision","params":{"self":"Swap struct to read from"},"returns":{"_0":"A parameter in its raw precision form"}},"getAdminBalance(SwapUtils.Swap storage,uint256)":{"notice":"return accumulated amount of admin fees of the token with given index","params":{"index":"Index of the pooled token","self":"Swap struct to read from"},"returns":{"_0":"admin balance in the token's precision"}},"getD(uint256[],uint256)":{"notice":"Get D, the StableSwap invariant, based on a set of balances and a particular A.","params":{"a":"the amplification coefficient * n * (n - 1) in A_PRECISION. See the StableSwap paper for details","xp":"a precision-adjusted set of pool balances. Array should be the same cardinality as the pool."},"returns":{"_0":"the invariant, at the precision of the pool"}},"getDepositTimestamp(SwapUtils.Swap storage,address)":{"notice":"Retrieves the timestamp of last deposit made by the given address","params":{"self":"Swap struct to read from"},"returns":{"_0":"timestamp of last deposit"}},"getVirtualPrice(SwapUtils.Swap storage)":{"notice":"Get the virtual price, to help calculate profit","params":{"self":"Swap struct to read from"},"returns":{"_0":"the virtual price, scaled to precision of POOL_PRECISION_DECIMALS"}},"rampA(SwapUtils.Swap storage,uint256,uint256)":{"notice":"Start ramping up or down A parameter towards given futureA_ and futureTime_ Checks if the change is too rapid, and commits the new A value only when it falls under the limit range.","params":{"futureA_":"the new A to ramp towards","futureTime_":"timestamp when the new A should be reached","self":"Swap struct to update"}},"removeLiquidity(SwapUtils.Swap storage,uint256,uint256[])":{"details":"Liquidity can always be removed, even when the pool is paused.","notice":"Burn LP tokens to remove liquidity from the pool.","params":{"amount":"the amount of LP tokens to burn","minAmounts":"the minimum amounts of each token in the pool acceptable for this burn. Useful as a front-running mitigation","self":"Swap struct to read from and write to"},"returns":{"_0":"amounts of tokens the user received"}},"removeLiquidityImbalance(SwapUtils.Swap storage,uint256[],uint256)":{"notice":"Remove liquidity from the pool, weighted differently than the pool's current balances.","params":{"amounts":"how much of each token to withdraw","maxBurnAmount":"the max LP token provider is willing to pay to remove liquidity. Useful as a front-running mitigation.","self":"Swap struct to read from and write to"},"returns":{"_0":"actual amount of LP tokens burned in the withdrawal"}},"removeLiquidityOneToken(SwapUtils.Swap storage,uint256,uint8,uint256)":{"notice":"Remove liquidity from the pool all in one token.","params":{"minAmount":"the minimum amount to withdraw, otherwise revert","self":"Swap struct to read from and write to","tokenAmount":"the amount of the lp tokens to burn","tokenIndex":"the index of the token you want to receive"},"returns":{"_0":"amount chosen token that user received"}},"setAdminFee(SwapUtils.Swap storage,uint256)":{"details":"adminFee cannot be higher than 100% of the swap fee","notice":"Sets the admin fee","params":{"newAdminFee":"new admin fee to be applied on future transactions","self":"Swap struct to update"}},"setDefaultDepositFee(SwapUtils.Swap storage,uint256)":{"notice":"update the default deposit fee. ","params":{"newDepositFee":"new deposit fee to be applied","self":"Swap struct to update"}},"setDefaultWithdrawFee(SwapUtils.Swap storage,uint256)":{"notice":"update the default withdraw fee. This also affects deposits made in the past as well.","params":{"newWithdrawFee":"new withdraw fee to be applied","self":"Swap struct to update"}},"setSwapFee(SwapUtils.Swap storage,uint256)":{"details":"fee cannot be higher than 1% of each swap","notice":"update the swap fee","params":{"newSwapFee":"new swap fee to be applied on future transactions","self":"Swap struct to update"}},"stopRampA(SwapUtils.Swap storage)":{"notice":"Stops ramping A immediately. Once this function is called, rampA() cannot be called for another 24 hours","params":{"self":"Swap struct to update"}},"swap(SwapUtils.Swap storage,uint8,uint8,uint256,uint256)":{"notice":"swap two tokens in the pool","params":{"dx":"the amount of tokens the user wants to sell","minDy":"the min amount the user would like to receive, or revert.","self":"Swap struct to read from and write to","tokenIndexFrom":"the token the user wants to sell","tokenIndexTo":"the token the user wants to buy"},"returns":{"_0":"amount of token user received on swap"}},"updateUserWithdrawFee(SwapUtils.Swap storage,address,uint256)":{"notice":"Update the withdraw fee for `user`. If the user is currently not providing liquidity in the pool, sets to default value. If not, recalculate the starting withdraw fee based on the last deposit's time & amount relative to the new deposit.","params":{"self":"Swap struct to read from and write to","toMint":"amount of pool tokens to be minted","user":"address of the user depositing tokens"}},"withdrawAdminFees(SwapUtils.Swap storage,address)":{"notice":"withdraw all admin fees to a given address","params":{"self":"Swap struct to withdraw fees from","to":"Address to send the fees to"}}},"notice":"A library to be used within Swap.sol. Contains functions responsible for custody and AMM functionalities.","title":"SwapUtils library","version":1},"opcodes":"PUSH20 0x0 ADDRESS EQ PUSH1 0x80 PUSH1 0x40 MSTORE PUSH1 0x4 CALLDATASIZE LT PUSH2 0x205 JUMPI PUSH1 0x0 CALLDATALOAD PUSH1 0xE0 SHR DUP1 PUSH4 0x8AB7697E GT PUSH2 0x124 JUMPI DUP1 PUSH4 0xD2A39487 GT PUSH2 0xB7 JUMPI DUP1 PUSH4 0xE8C47A54 GT PUSH2 0x86 JUMPI DUP1 PUSH4 0xE8C47A54 EQ PUSH2 0x98B JUMPI DUP1 PUSH4 0xE9252D46 EQ PUSH2 0x9B7 JUMPI DUP1 PUSH4 0xF14E211E EQ PUSH2 0x9F6 JUMPI DUP1 PUSH4 0xF3DE0362 EQ PUSH2 0xA20 JUMPI DUP1 PUSH4 0xF967A81F EQ PUSH2 0xA28 JUMPI PUSH2 0x205 JUMP JUMPDEST DUP1 PUSH4 0xD2A39487 EQ PUSH2 0x8C8 JUMPI DUP1 PUSH4 0xD4B0DE2F EQ PUSH2 0x87E JUMPI DUP1 PUSH4 0xE4A9A0DA EQ PUSH2 0x8F8 JUMPI DUP1 PUSH4 0xE7A4DB81 EQ PUSH2 0x94C JUMPI PUSH2 0x205 JUMP JUMPDEST DUP1 PUSH4 0xB0A14CFC GT PUSH2 0xF3 JUMPI DUP1 PUSH4 0xB0A14CFC EQ PUSH2 0x886 JUMPI DUP1 PUSH4 0xC6D87DD5 EQ PUSH2 0x87E JUMPI DUP1 PUSH4 0xC9B64DCB EQ PUSH2 0x8A3 JUMPI DUP1 PUSH4 0xD011F918 EQ PUSH2 0x8C0 JUMPI PUSH2 0x205 JUMP JUMPDEST DUP1 PUSH4 0x8AB7697E EQ PUSH2 0x7D9 JUMPI DUP1 PUSH4 0x968E5594 EQ PUSH2 0x809 JUMPI DUP1 PUSH4 0xA5397B22 EQ PUSH2 0x835 JUMPI DUP1 PUSH4 0xAB3D8544 EQ PUSH2 0x87E JUMPI PUSH2 0x205 JUMP JUMPDEST DUP1 PUSH4 0x4B23603C GT PUSH2 0x19C JUMPI DUP1 PUSH4 0x71906C2C GT PUSH2 0x16B JUMPI DUP1 PUSH4 0x71906C2C EQ PUSH2 0x61F JUMPI DUP1 PUSH4 0x73FD6B3E EQ PUSH2 0x63C JUMPI DUP1 PUSH4 0x76A3B67C EQ PUSH2 0x713 JUMPI DUP1 PUSH4 0x7D048160 EQ PUSH2 0x7B6 JUMPI PUSH2 0x205 JUMP JUMPDEST DUP1 PUSH4 0x4B23603C EQ PUSH2 0x4FE JUMPI DUP1 PUSH4 0x58FDD79B EQ PUSH2 0x534 JUMPI DUP1 PUSH4 0x5E58579C EQ PUSH2 0x56A JUMPI DUP1 PUSH4 0x70467276 EQ PUSH2 0x5EF JUMPI PUSH2 0x205 JUMP JUMPDEST DUP1 PUSH4 0x40370EDF GT PUSH2 0x1D8 JUMPI DUP1 PUSH4 0x40370EDF EQ PUSH2 0x327 JUMPI DUP1 PUSH4 0x41B91C26 EQ PUSH2 0x3DE JUMPI DUP1 PUSH4 0x4386C7CE EQ PUSH2 0x495 JUMPI DUP1 PUSH4 0x467E186C EQ PUSH2 0x4CE JUMPI PUSH2 0x205 JUMP JUMPDEST DUP1 PUSH4 0x296AB50 EQ PUSH2 0x20A JUMPI DUP1 PUSH4 0x24C5C751 EQ PUSH2 0x228 JUMPI DUP1 PUSH4 0x29BD743A EQ PUSH2 0x263 JUMPI DUP1 PUSH4 0x39698415 EQ PUSH2 0x31F JUMPI JUMPDEST PUSH1 0x0 DUP1 REVERT JUMPDEST PUSH2 0x212 PUSH2 0xA5A JUMP JUMPDEST PUSH1 0x40 DUP1 MLOAD PUSH1 0xFF SWAP1 SWAP3 AND DUP3 MSTORE MLOAD SWAP1 DUP2 SWAP1 SUB PUSH1 0x20 ADD SWAP1 RETURN JUMPDEST DUP2 DUP1 ISZERO PUSH2 0x234 JUMPI PUSH1 0x0 DUP1 REVERT JUMPDEST POP PUSH2 0x261 PUSH1 0x4 DUP1 CALLDATASIZE SUB PUSH1 0x40 DUP2 LT ISZERO PUSH2 0x24B JUMPI PUSH1 0x0 DUP1 REVERT JUMPDEST POP DUP1 CALLDATALOAD SWAP1 PUSH1 0x20 ADD CALLDATALOAD PUSH1 0x1 PUSH1 0x1 PUSH1 0xA0 SHL SUB AND PUSH2 0xA5F JUMP JUMPDEST STOP JUMPDEST PUSH2 0x30D PUSH1 0x4 DUP1 CALLDATASIZE SUB PUSH1 0x60 DUP2 LT ISZERO PUSH2 0x279 JUMPI PUSH1 0x0 DUP1 REVERT JUMPDEST DUP2 CALLDATALOAD SWAP2 SWAP1 DUP2 ADD SWAP1 PUSH1 0x40 DUP2 ADD PUSH1 0x20 DUP3 ADD CALLDATALOAD PUSH1 0x1 PUSH1 0x20 SHL DUP2 GT ISZERO PUSH2 0x29A JUMPI PUSH1 0x0 DUP1 REVERT JUMPDEST DUP3 ADD DUP4 PUSH1 0x20 DUP3 ADD GT ISZERO PUSH2 0x2AC JUMPI PUSH1 0x0 DUP1 REVERT JUMPDEST DUP1 CALLDATALOAD SWAP1 PUSH1 0x20 ADD SWAP2 DUP5 PUSH1 0x20 DUP4 MUL DUP5 ADD GT PUSH1 0x1 PUSH1 0x20 SHL DUP4 GT OR ISZERO PUSH2 0x2CD JUMPI PUSH1 0x0 DUP1 REVERT JUMPDEST SWAP2 SWAP1 DUP1 DUP1 PUSH1 0x20 MUL PUSH1 0x20 ADD PUSH1 0x40 MLOAD SWAP1 DUP2 ADD PUSH1 0x40 MSTORE DUP1 SWAP4 SWAP3 SWAP2 SWAP1 DUP2 DUP2 MSTORE PUSH1 0x20 ADD DUP4 DUP4 PUSH1 0x20 MUL DUP1 DUP3 DUP5 CALLDATACOPY PUSH1 0x0 SWAP3 ADD SWAP2 SWAP1 SWAP2 MSTORE POP SWAP3 SWAP6 POP POP SWAP2 CALLDATALOAD SWAP3 POP PUSH2 0xB60 SWAP2 POP POP JUMP JUMPDEST PUSH1 0x40 DUP1 MLOAD SWAP2 DUP3 MSTORE MLOAD SWAP1 DUP2 SWAP1 SUB PUSH1 0x20 ADD SWAP1 RETURN JUMPDEST PUSH2 0x30D PUSH2 0xD66 JUMP JUMPDEST DUP2 DUP1 ISZERO PUSH2 0x333 JUMPI PUSH1 0x0 DUP1 REVERT JUMPDEST POP PUSH2 0x30D PUSH1 0x4 DUP1 CALLDATASIZE SUB PUSH1 0x60 DUP2 LT ISZERO PUSH2 0x34A JUMPI PUSH1 0x0 DUP1 REVERT JUMPDEST DUP2 CALLDATALOAD SWAP2 SWAP1 DUP2 ADD SWAP1 PUSH1 0x40 DUP2 ADD PUSH1 0x20 DUP3 ADD CALLDATALOAD PUSH1 0x1 PUSH1 0x20 SHL DUP2 GT ISZERO PUSH2 0x36B JUMPI PUSH1 0x0 DUP1 REVERT JUMPDEST DUP3 ADD DUP4 PUSH1 0x20 DUP3 ADD GT ISZERO PUSH2 0x37D JUMPI PUSH1 0x0 DUP1 REVERT JUMPDEST DUP1 CALLDATALOAD SWAP1 PUSH1 0x20 ADD SWAP2 DUP5 PUSH1 0x20 DUP4 MUL DUP5 ADD GT PUSH1 0x1 PUSH1 0x20 SHL DUP4 GT OR ISZERO PUSH2 0x39E JUMPI PUSH1 0x0 DUP1 REVERT JUMPDEST SWAP2 SWAP1 DUP1 DUP1 PUSH1 0x20 MUL PUSH1 0x20 ADD PUSH1 0x40 MLOAD SWAP1 DUP2 ADD PUSH1 0x40 MSTORE DUP1 SWAP4 SWAP3 SWAP2 SWAP1 DUP2 DUP2 MSTORE PUSH1 0x20 ADD DUP4 DUP4 PUSH1 0x20 MUL DUP1 DUP3 DUP5 CALLDATACOPY PUSH1 0x0 SWAP3 ADD SWAP2 SWAP1 SWAP2 MSTORE POP SWAP3 SWAP6 POP POP SWAP2 CALLDATALOAD SWAP3 POP PUSH2 0xD6D SWAP2 POP POP JUMP JUMPDEST DUP2 DUP1 ISZERO PUSH2 0x3EA JUMPI PUSH1 0x0 DUP1 REVERT JUMPDEST POP PUSH2 0x30D PUSH1 0x4 DUP1 CALLDATASIZE SUB PUSH1 0x60 DUP2 LT ISZERO PUSH2 0x401 JUMPI PUSH1 0x0 DUP1 REVERT JUMPDEST DUP2 CALLDATALOAD SWAP2 SWAP1 DUP2 ADD SWAP1 PUSH1 0x40 DUP2 ADD PUSH1 0x20 DUP3 ADD CALLDATALOAD PUSH1 0x1 PUSH1 0x20 SHL DUP2 GT ISZERO PUSH2 0x422 JUMPI PUSH1 0x0 DUP1 REVERT JUMPDEST DUP3 ADD DUP4 PUSH1 0x20 DUP3 ADD GT ISZERO PUSH2 0x434 JUMPI PUSH1 0x0 DUP1 REVERT JUMPDEST DUP1 CALLDATALOAD SWAP1 PUSH1 0x20 ADD SWAP2 DUP5 PUSH1 0x20 DUP4 MUL DUP5 ADD GT PUSH1 0x1 PUSH1 0x20 SHL DUP4 GT OR ISZERO PUSH2 0x455 JUMPI PUSH1 0x0 DUP1 REVERT JUMPDEST SWAP2 SWAP1 DUP1 DUP1 PUSH1 0x20 MUL PUSH1 0x20 ADD PUSH1 0x40 MLOAD SWAP1 DUP2 ADD PUSH1 0x40 MSTORE DUP1 SWAP4 SWAP3 SWAP2 SWAP1 DUP2 DUP2 MSTORE PUSH1 0x20 ADD DUP4 DUP4 PUSH1 0x20 MUL DUP1 DUP3 DUP5 CALLDATACOPY PUSH1 0x0 SWAP3 ADD SWAP2 SWAP1 SWAP2 MSTORE POP SWAP3 SWAP6 POP POP SWAP2 CALLDATALOAD SWAP3 POP PUSH2 0x16F6 SWAP2 POP POP JUMP JUMPDEST DUP2 DUP1 ISZERO PUSH2 0x4A1 JUMPI PUSH1 0x0 DUP1 REVERT JUMPDEST POP PUSH2 0x261 PUSH1 0x4 DUP1 CALLDATASIZE SUB PUSH1 0x40 DUP2 LT ISZERO PUSH2 0x4B8 JUMPI PUSH1 0x0 DUP1 REVERT JUMPDEST POP DUP1 CALLDATALOAD SWAP1 PUSH1 0x20 ADD CALLDATALOAD PUSH1 0x1 PUSH1 0x1 PUSH1 0xA0 SHL SUB AND PUSH2 0x1E98 JUMP JUMPDEST DUP2 DUP1 ISZERO PUSH2 0x4DA JUMPI PUSH1 0x0 DUP1 REVERT JUMPDEST POP PUSH2 0x261 PUSH1 0x4 DUP1 CALLDATASIZE SUB PUSH1 0x40 DUP2 LT ISZERO PUSH2 0x4F1 JUMPI PUSH1 0x0 DUP1 REVERT JUMPDEST POP DUP1 CALLDATALOAD SWAP1 PUSH1 0x20 ADD CALLDATALOAD PUSH2 0x1F4E JUMP JUMPDEST PUSH2 0x30D PUSH1 0x4 DUP1 CALLDATASIZE SUB PUSH1 0x80 DUP2 LT ISZERO PUSH2 0x514 JUMPI PUSH1 0x0 DUP1 REVERT JUMPDEST POP DUP1 CALLDATALOAD SWAP1 PUSH1 0xFF PUSH1 0x20 DUP3 ADD CALLDATALOAD DUP2 AND SWAP2 PUSH1 0x40 DUP2 ADD CALLDATALOAD SWAP1 SWAP2 AND SWAP1 PUSH1 0x60 ADD CALLDATALOAD PUSH2 0x1FD7 JUMP JUMPDEST DUP2 DUP1 ISZERO PUSH2 0x540 JUMPI PUSH1 0x0 DUP1 REVERT JUMPDEST POP PUSH2 0x261 PUSH1 0x4 DUP1 CALLDATASIZE SUB PUSH1 0x60 DUP2 LT ISZERO PUSH2 0x557 JUMPI PUSH1 0x0 DUP1 REVERT JUMPDEST POP DUP1 CALLDATALOAD SWAP1 PUSH1 0x20 DUP2 ADD CALLDATALOAD SWAP1 PUSH1 0x40 ADD CALLDATALOAD PUSH2 0x1FEF JUMP JUMPDEST PUSH2 0x30D PUSH1 0x4 DUP1 CALLDATASIZE SUB PUSH1 0x80 DUP2 LT ISZERO PUSH2 0x580 JUMPI PUSH1 0x0 DUP1 REVERT JUMPDEST DUP2 CALLDATALOAD SWAP2 PUSH1 0x1 PUSH1 0x1 PUSH1 0xA0 SHL SUB PUSH1 0x20 DUP3 ADD CALLDATALOAD AND SWAP2 DUP2 ADD SWAP1 PUSH1 0x60 DUP2 ADD PUSH1 0x40 DUP3 ADD CALLDATALOAD PUSH1 0x1 PUSH1 0x20 SHL DUP2 GT ISZERO PUSH2 0x5AF JUMPI PUSH1 0x0 DUP1 REVERT JUMPDEST DUP3 ADD DUP4 PUSH1 0x20 DUP3 ADD GT ISZERO PUSH2 0x5C1 JUMPI PUSH1 0x0 DUP1 REVERT JUMPDEST DUP1 CALLDATALOAD SWAP1 PUSH1 0x20 ADD SWAP2 DUP5 PUSH1 0x20 DUP4 MUL DUP5 ADD GT PUSH1 0x1 PUSH1 0x20 SHL DUP4 GT OR ISZERO PUSH2 0x5E2 JUMPI PUSH1 0x0 DUP1 REVERT JUMPDEST SWAP2 SWAP4 POP SWAP2 POP CALLDATALOAD ISZERO ISZERO PUSH2 0x2250 JUMP JUMPDEST DUP2 DUP1 ISZERO PUSH2 0x5FB JUMPI PUSH1 0x0 DUP1 REVERT JUMPDEST POP PUSH2 0x261 PUSH1 0x4 DUP1 CALLDATASIZE SUB PUSH1 0x40 DUP2 LT ISZERO PUSH2 0x612 JUMPI PUSH1 0x0 DUP1 REVERT JUMPDEST POP DUP1 CALLDATALOAD SWAP1 PUSH1 0x20 ADD CALLDATALOAD PUSH2 0x24D3 JUMP JUMPDEST PUSH2 0x30D PUSH1 0x4 DUP1 CALLDATASIZE SUB PUSH1 0x20 DUP2 LT ISZERO PUSH2 0x635 JUMPI PUSH1 0x0 DUP1 REVERT JUMPDEST POP CALLDATALOAD PUSH2 0x255D JUMP JUMPDEST DUP2 DUP1 ISZERO PUSH2 0x648 JUMPI PUSH1 0x0 DUP1 REVERT JUMPDEST POP PUSH2 0x6C3 PUSH1 0x4 DUP1 CALLDATASIZE SUB PUSH1 0x60 DUP2 LT ISZERO PUSH2 0x65F JUMPI PUSH1 0x0 DUP1 REVERT JUMPDEST DUP2 CALLDATALOAD SWAP2 PUSH1 0x20 DUP2 ADD CALLDATALOAD SWAP2 DUP2 ADD SWAP1 PUSH1 0x60 DUP2 ADD PUSH1 0x40 DUP3 ADD CALLDATALOAD PUSH1 0x1 PUSH1 0x20 SHL DUP2 GT ISZERO PUSH2 0x685 JUMPI PUSH1 0x0 DUP1 REVERT JUMPDEST DUP3 ADD DUP4 PUSH1 0x20 DUP3 ADD GT ISZERO PUSH2 0x697 JUMPI PUSH1 0x0 DUP1 REVERT JUMPDEST DUP1 CALLDATALOAD SWAP1 PUSH1 0x20 ADD SWAP2 DUP5 PUSH1 0x20 DUP4 MUL DUP5 ADD GT PUSH1 0x1 PUSH1 0x20 SHL DUP4 GT OR ISZERO PUSH2 0x6B8 JUMPI PUSH1 0x0 DUP1 REVERT JUMPDEST POP SWAP1 SWAP3 POP SWAP1 POP PUSH2 0x26A7 JUMP JUMPDEST PUSH1 0x40 DUP1 MLOAD PUSH1 0x20 DUP1 DUP3 MSTORE DUP4 MLOAD DUP2 DUP4 ADD MSTORE DUP4 MLOAD SWAP2 SWAP3 DUP4 SWAP3 SWAP1 DUP4 ADD SWAP2 DUP6 DUP2 ADD SWAP2 MUL DUP1 DUP4 DUP4 PUSH1 0x0 JUMPDEST DUP4 DUP2 LT ISZERO PUSH2 0x6FF JUMPI DUP2 DUP2 ADD MLOAD DUP4 DUP3 ADD MSTORE PUSH1 0x20 ADD PUSH2 0x6E7 JUMP JUMPDEST POP POP POP POP SWAP1 POP ADD SWAP3 POP POP POP PUSH1 0x40 MLOAD DUP1 SWAP2 SUB SWAP1 RETURN JUMPDEST PUSH2 0x30D PUSH1 0x4 DUP1 CALLDATASIZE SUB PUSH1 0x40 DUP2 LT ISZERO PUSH2 0x729 JUMPI PUSH1 0x0 DUP1 REVERT JUMPDEST DUP2 ADD SWAP1 PUSH1 0x20 DUP2 ADD DUP2 CALLDATALOAD PUSH1 0x1 PUSH1 0x20 SHL DUP2 GT ISZERO PUSH2 0x743 JUMPI PUSH1 0x0 DUP1 REVERT JUMPDEST DUP3 ADD DUP4 PUSH1 0x20 DUP3 ADD GT ISZERO PUSH2 0x755 JUMPI PUSH1 0x0 DUP1 REVERT JUMPDEST DUP1 CALLDATALOAD SWAP1 PUSH1 0x20 ADD SWAP2 DUP5 PUSH1 0x20 DUP4 MUL DUP5 ADD GT PUSH1 0x1 PUSH1 0x20 SHL DUP4 GT OR ISZERO PUSH2 0x776 JUMPI PUSH1 0x0 DUP1 REVERT JUMPDEST SWAP2 SWAP1 DUP1 DUP1 PUSH1 0x20 MUL PUSH1 0x20 ADD PUSH1 0x40 MLOAD SWAP1 DUP2 ADD PUSH1 0x40 MSTORE DUP1 SWAP4 SWAP3 SWAP2 SWAP1 DUP2 DUP2 MSTORE PUSH1 0x20 ADD DUP4 DUP4 PUSH1 0x20 MUL DUP1 DUP3 DUP5 CALLDATACOPY PUSH1 0x0 SWAP3 ADD SWAP2 SWAP1 SWAP2 MSTORE POP SWAP3 SWAP6 POP POP SWAP2 CALLDATALOAD SWAP3 POP PUSH2 0x2A57 SWAP2 POP POP JUMP JUMPDEST PUSH2 0x30D PUSH1 0x4 DUP1 CALLDATASIZE SUB PUSH1 0x40 DUP2 LT ISZERO PUSH2 0x7CC JUMPI PUSH1 0x0 DUP1 REVERT JUMPDEST POP DUP1 CALLDATALOAD SWAP1 PUSH1 0x20 ADD CALLDATALOAD PUSH2 0x2BA3 JUMP JUMPDEST DUP2 DUP1 ISZERO PUSH2 0x7E5 JUMPI PUSH1 0x0 DUP1 REVERT JUMPDEST POP PUSH2 0x261 PUSH1 0x4 DUP1 CALLDATASIZE SUB PUSH1 0x40 DUP2 LT ISZERO PUSH2 0x7FC JUMPI PUSH1 0x0 DUP1 REVERT JUMPDEST POP DUP1 CALLDATALOAD SWAP1 PUSH1 0x20 ADD CALLDATALOAD PUSH2 0x2C25 JUMP JUMPDEST PUSH2 0x30D PUSH1 0x4 DUP1 CALLDATASIZE SUB PUSH1 0x40 DUP2 LT ISZERO PUSH2 0x81F JUMPI PUSH1 0x0 DUP1 REVERT JUMPDEST POP DUP1 CALLDATALOAD SWAP1 PUSH1 0x20 ADD CALLDATALOAD PUSH1 0x1 PUSH1 0x1 PUSH1 0xA0 SHL SUB AND PUSH2 0x2CAE JUMP JUMPDEST DUP2 DUP1 ISZERO PUSH2 0x841 JUMPI PUSH1 0x0 DUP1 REVERT JUMPDEST POP PUSH2 0x30D PUSH1 0x4 DUP1 CALLDATASIZE SUB PUSH1 0xA0 DUP2 LT ISZERO PUSH2 0x858 JUMPI PUSH1 0x0 DUP1 REVERT JUMPDEST POP DUP1 CALLDATALOAD SWAP1 PUSH1 0xFF PUSH1 0x20 DUP3 ADD CALLDATALOAD DUP2 AND SWAP2 PUSH1 0x40 DUP2 ADD CALLDATALOAD SWAP1 SWAP2 AND SWAP1 PUSH1 0x60 DUP2 ADD CALLDATALOAD SWAP1 PUSH1 0x80 ADD CALLDATALOAD PUSH2 0x2D55 JUMP JUMPDEST PUSH2 0x30D PUSH2 0x3097 JUMP JUMPDEST PUSH2 0x30D PUSH1 0x4 DUP1 CALLDATASIZE SUB PUSH1 0x20 DUP2 LT ISZERO PUSH2 0x89C JUMPI PUSH1 0x0 DUP1 REVERT JUMPDEST POP CALLDATALOAD PUSH2 0x309F JUMP JUMPDEST PUSH2 0x30D PUSH1 0x4 DUP1 CALLDATASIZE SUB PUSH1 0x20 DUP2 LT ISZERO PUSH2 0x8B9 JUMPI PUSH1 0x0 DUP1 REVERT JUMPDEST POP CALLDATALOAD PUSH2 0x30AA JUMP JUMPDEST PUSH2 0x30D PUSH2 0x30B5 JUMP JUMPDEST DUP2 DUP1 ISZERO PUSH2 0x8D4 JUMPI PUSH1 0x0 DUP1 REVERT JUMPDEST POP PUSH2 0x261 PUSH1 0x4 DUP1 CALLDATASIZE SUB PUSH1 0x40 DUP2 LT ISZERO PUSH2 0x8EB JUMPI PUSH1 0x0 DUP1 REVERT JUMPDEST POP DUP1 CALLDATALOAD SWAP1 PUSH1 0x20 ADD CALLDATALOAD PUSH2 0x30BA JUMP JUMPDEST PUSH2 0x933 PUSH1 0x4 DUP1 CALLDATASIZE SUB PUSH1 0x80 DUP2 LT ISZERO PUSH2 0x90E JUMPI PUSH1 0x0 DUP1 REVERT JUMPDEST POP DUP1 CALLDATALOAD SWAP1 PUSH1 0x20 DUP2 ADD CALLDATALOAD PUSH1 0x1 PUSH1 0x1 PUSH1 0xA0 SHL SUB AND SWAP1 PUSH1 0x40 DUP2 ADD CALLDATALOAD SWAP1 PUSH1 0x60 ADD CALLDATALOAD PUSH1 0xFF AND PUSH2 0x3143 JUMP JUMPDEST PUSH1 0x40 DUP1 MLOAD SWAP3 DUP4 MSTORE PUSH1 0x20 DUP4 ADD SWAP2 SWAP1 SWAP2 MSTORE DUP1 MLOAD SWAP2 DUP3 SWAP1 SUB ADD SWAP1 RETURN JUMPDEST DUP2 DUP1 ISZERO PUSH2 0x958 JUMPI PUSH1 0x0 DUP1 REVERT JUMPDEST POP PUSH2 0x30D PUSH1 0x4 DUP1 CALLDATASIZE SUB PUSH1 0x80 DUP2 LT ISZERO PUSH2 0x96F JUMPI PUSH1 0x0 DUP1 REVERT JUMPDEST POP DUP1 CALLDATALOAD SWAP1 PUSH1 0x20 DUP2 ADD CALLDATALOAD SWAP1 PUSH1 0xFF PUSH1 0x40 DUP3 ADD CALLDATALOAD AND SWAP1 PUSH1 0x60 ADD CALLDATALOAD PUSH2 0x31CD JUMP JUMPDEST PUSH2 0x30D PUSH1 0x4 DUP1 CALLDATASIZE SUB PUSH1 0x40 DUP2 LT ISZERO PUSH2 0x9A1 JUMPI PUSH1 0x0 DUP1 REVERT JUMPDEST POP DUP1 CALLDATALOAD SWAP1 PUSH1 0x20 ADD CALLDATALOAD PUSH1 0x1 PUSH1 0x1 PUSH1 0xA0 SHL SUB AND PUSH2 0x34E9 JUMP JUMPDEST DUP2 DUP1 ISZERO PUSH2 0x9C3 JUMPI PUSH1 0x0 DUP1 REVERT JUMPDEST POP PUSH2 0x261 PUSH1 0x4 DUP1 CALLDATASIZE SUB PUSH1 0x60 DUP2 LT ISZERO PUSH2 0x9DA JUMPI PUSH1 0x0 DUP1 REVERT JUMPDEST POP DUP1 CALLDATALOAD SWAP1 PUSH1 0x1 PUSH1 0x1 PUSH1 0xA0 SHL SUB PUSH1 0x20 DUP3 ADD CALLDATALOAD AND SWAP1 PUSH1 0x40 ADD CALLDATALOAD PUSH2 0x3508 JUMP JUMPDEST DUP2 DUP1 ISZERO PUSH2 0xA02 JUMPI PUSH1 0x0 DUP1 REVERT JUMPDEST POP PUSH2 0x261 PUSH1 0x4 DUP1 CALLDATASIZE SUB PUSH1 0x20 DUP2 LT ISZERO PUSH2 0xA19 JUMPI PUSH1 0x0 DUP1 REVERT JUMPDEST POP CALLDATALOAD PUSH2 0x3513 JUMP JUMPDEST PUSH2 0x30D PUSH2 0x35D0 JUMP JUMPDEST PUSH2 0x6C3 PUSH1 0x4 DUP1 CALLDATASIZE SUB PUSH1 0x60 DUP2 LT ISZERO PUSH2 0xA3E JUMPI PUSH1 0x0 DUP1 REVERT JUMPDEST POP DUP1 CALLDATALOAD SWAP1 PUSH1 0x1 PUSH1 0x1 PUSH1 0xA0 SHL SUB PUSH1 0x20 DUP3 ADD CALLDATALOAD AND SWAP1 PUSH1 0x40 ADD CALLDATALOAD PUSH2 0x35D9 JUMP JUMPDEST PUSH1 0x12 DUP2 JUMP JUMPDEST PUSH1 0x0 JUMPDEST PUSH1 0xA DUP4 ADD SLOAD DUP2 LT ISZERO PUSH2 0xB5B JUMPI PUSH1 0x0 DUP4 PUSH1 0xA ADD DUP3 DUP2 SLOAD DUP2 LT PUSH2 0xA7F JUMPI INVALID JUMPDEST PUSH1 0x0 SWAP2 DUP3 MSTORE PUSH1 0x20 DUP3 KECCAK256 ADD SLOAD PUSH1 0xC DUP7 ADD DUP1 SLOAD PUSH1 0x1 PUSH1 0x1 PUSH1 0xA0 SHL SUB SWAP1 SWAP3 AND SWAP4 POP PUSH2 0xB35 SWAP2 DUP6 SWAP1 DUP2 LT PUSH2 0xAAB JUMPI INVALID JUMPDEST SWAP1 PUSH1 0x0 MSTORE PUSH1 0x20 PUSH1 0x0 KECCAK256 ADD SLOAD DUP4 PUSH1 0x1 PUSH1 0x1 PUSH1 0xA0 SHL SUB AND PUSH4 0x70A08231 ADDRESS PUSH1 0x40 MLOAD DUP3 PUSH4 0xFFFFFFFF AND PUSH1 0xE0 SHL DUP2 MSTORE PUSH1 0x4 ADD DUP1 DUP3 PUSH1 0x1 PUSH1 0x1 PUSH1 0xA0 SHL SUB AND DUP2 MSTORE PUSH1 0x20 ADD SWAP2 POP POP PUSH1 0x20 PUSH1 0x40 MLOAD DUP1 DUP4 SUB DUP2 DUP7 DUP1 EXTCODESIZE ISZERO DUP1 ISZERO PUSH2 0xB03 JUMPI PUSH1 0x0 DUP1 REVERT JUMPDEST POP GAS STATICCALL ISZERO DUP1 ISZERO PUSH2 0xB17 JUMPI RETURNDATASIZE PUSH1 0x0 DUP1 RETURNDATACOPY RETURNDATASIZE PUSH1 0x0 REVERT JUMPDEST POP POP POP POP PUSH1 0x40 MLOAD RETURNDATASIZE PUSH1 0x20 DUP2 LT ISZERO PUSH2 0xB2D JUMPI PUSH1 0x0 DUP1 REVERT JUMPDEST POP MLOAD SWAP1 PUSH2 0x35E6 JUMP JUMPDEST SWAP1 POP DUP1 ISZERO PUSH2 0xB51 JUMPI PUSH2 0xB51 PUSH1 0x1 PUSH1 0x1 PUSH1 0xA0 SHL SUB DUP4 AND DUP6 DUP4 PUSH2 0x3643 JUMP JUMPDEST POP POP PUSH1 0x1 ADD PUSH2 0xA62 JUMP JUMPDEST POP POP POP JUMP JUMPDEST DUP2 MLOAD PUSH1 0x0 SWAP1 DUP2 DUP1 JUMPDEST DUP3 DUP2 LT ISZERO PUSH2 0xBA0 JUMPI PUSH2 0xB96 DUP7 DUP3 DUP2 MLOAD DUP2 LT PUSH2 0xB7F JUMPI INVALID JUMPDEST PUSH1 0x20 MUL PUSH1 0x20 ADD ADD MLOAD DUP4 PUSH2 0x3695 SWAP1 SWAP2 SWAP1 PUSH4 0xFFFFFFFF AND JUMP JUMPDEST SWAP2 POP PUSH1 0x1 ADD PUSH2 0xB68 JUMP JUMPDEST POP DUP1 PUSH2 0xBB1 JUMPI PUSH1 0x0 SWAP3 POP POP POP PUSH2 0xD5F JUMP JUMPDEST PUSH1 0x0 DUP2 DUP2 PUSH2 0xBBF DUP8 DUP7 PUSH2 0x36EF JUMP JUMPDEST SWAP1 POP PUSH1 0x0 JUMPDEST PUSH2 0x100 DUP2 LT ISZERO PUSH2 0xD1B JUMPI DUP3 PUSH1 0x0 JUMPDEST DUP8 DUP2 LT ISZERO PUSH2 0xC1D JUMPI PUSH2 0xC13 PUSH2 0xC03 DUP10 DUP14 DUP5 DUP2 MLOAD DUP2 LT PUSH2 0xBED JUMPI INVALID JUMPDEST PUSH1 0x20 MUL PUSH1 0x20 ADD ADD MLOAD PUSH2 0x36EF SWAP1 SWAP2 SWAP1 PUSH4 0xFFFFFFFF AND JUMP JUMPDEST PUSH2 0xC0D DUP5 DUP9 PUSH2 0x36EF JUMP JUMPDEST SWAP1 PUSH2 0x3748 JUMP JUMPDEST SWAP2 POP PUSH1 0x1 ADD PUSH2 0xBD2 JUMP JUMPDEST POP SWAP3 SWAP4 POP DUP4 SWAP3 PUSH2 0xC77 PUSH2 0xC57 PUSH2 0xC3E DUP4 PUSH2 0xC38 DUP12 PUSH1 0x1 PUSH2 0x3695 JUMP JUMPDEST SWAP1 PUSH2 0x36EF JUMP JUMPDEST PUSH2 0xC51 PUSH1 0x64 PUSH2 0xC0D DUP10 PUSH2 0xC38 DUP11 DUP5 PUSH2 0x35E6 JUMP JUMPDEST SWAP1 PUSH2 0x3695 JUMP JUMPDEST PUSH2 0xC0D DUP7 PUSH2 0xC38 PUSH2 0xC68 DUP7 DUP14 PUSH2 0x36EF JUMP JUMPDEST PUSH2 0xC51 PUSH1 0x64 PUSH2 0xC0D DUP12 DUP16 PUSH2 0x36EF JUMP JUMPDEST SWAP4 POP DUP4 PUSH20 0x0 PUSH4 0x13A1EC75 SWAP1 SWAP2 DUP8 PUSH1 0x40 MLOAD DUP4 PUSH4 0xFFFFFFFF AND PUSH1 0xE0 SHL DUP2 MSTORE PUSH1 0x4 ADD DUP1 DUP4 DUP2 MSTORE PUSH1 0x20 ADD DUP3 DUP2 MSTORE PUSH1 0x20 ADD SWAP3 POP POP POP PUSH1 0x20 PUSH1 0x40 MLOAD DUP1 DUP4 SUB DUP2 DUP7 DUP1 EXTCODESIZE ISZERO DUP1 ISZERO PUSH2 0xCD2 JUMPI PUSH1 0x0 DUP1 REVERT JUMPDEST POP GAS DELEGATECALL ISZERO DUP1 ISZERO PUSH2 0xCE6 JUMPI RETURNDATASIZE PUSH1 0x0 DUP1 RETURNDATACOPY RETURNDATASIZE PUSH1 0x0 REVERT JUMPDEST POP POP POP POP PUSH1 0x40 MLOAD RETURNDATASIZE PUSH1 0x20 DUP2 LT ISZERO PUSH2 0xCFC JUMPI PUSH1 0x0 DUP1 REVERT JUMPDEST POP MLOAD ISZERO PUSH2 0xD12 JUMPI DUP4 SWAP8 POP POP POP POP POP POP POP POP PUSH2 0xD5F JUMP JUMPDEST POP PUSH1 0x1 ADD PUSH2 0xBC4 JUMP JUMPDEST POP PUSH1 0x40 DUP1 MLOAD PUSH3 0x461BCD PUSH1 0xE5 SHL DUP2 MSTORE PUSH1 0x20 PUSH1 0x4 DUP3 ADD MSTORE PUSH1 0x13 PUSH1 0x24 DUP3 ADD MSTORE PUSH19 0x4420646F6573206E6F7420636F6E7665726765 PUSH1 0x68 SHL PUSH1 0x44 DUP3 ADD MSTORE SWAP1 MLOAD SWAP1 DUP2 SWAP1 SUB PUSH1 0x64 ADD SWAP1 REVERT JUMPDEST SWAP4 SWAP3 POP POP POP JUMP JUMPDEST PUSH3 0xF4240 DUP2 JUMP JUMPDEST PUSH1 0xA DUP4 ADD SLOAD DUP3 MLOAD PUSH1 0x0 SWAP2 EQ PUSH2 0xDC9 JUMPI PUSH1 0x40 DUP1 MLOAD PUSH3 0x461BCD PUSH1 0xE5 SHL DUP2 MSTORE PUSH1 0x20 PUSH1 0x4 DUP3 ADD DUP2 SWAP1 MSTORE PUSH1 0x24 DUP3 ADD MSTORE PUSH32 0x416D6F756E7473206D757374206D6174636820706F6F6C656420746F6B656E73 PUSH1 0x44 DUP3 ADD MSTORE SWAP1 MLOAD SWAP1 DUP2 SWAP1 SUB PUSH1 0x64 ADD SWAP1 REVERT JUMPDEST PUSH1 0xA DUP5 ADD SLOAD PUSH1 0x60 SWAP1 PUSH8 0xFFFFFFFFFFFFFFFF DUP2 GT DUP1 ISZERO PUSH2 0xDE7 JUMPI PUSH1 0x0 DUP1 REVERT JUMPDEST POP PUSH1 0x40 MLOAD SWAP1 DUP1 DUP3 MSTORE DUP1 PUSH1 0x20 MUL PUSH1 0x20 ADD DUP3 ADD PUSH1 0x40 MSTORE DUP1 ISZERO PUSH2 0xE11 JUMPI DUP2 PUSH1 0x20 ADD PUSH1 0x20 DUP3 MUL DUP1 CALLDATASIZE DUP4 CALLDATACOPY ADD SWAP1 POP JUMPDEST POP SWAP1 POP PUSH1 0x0 DUP6 PUSH1 0x9 ADD PUSH1 0x0 SWAP1 SLOAD SWAP1 PUSH2 0x100 EXP SWAP1 DIV PUSH1 0x1 PUSH1 0x1 PUSH1 0xA0 SHL SUB AND PUSH1 0x1 PUSH1 0x1 PUSH1 0xA0 SHL SUB AND PUSH4 0x18160DDD PUSH1 0x40 MLOAD DUP2 PUSH4 0xFFFFFFFF AND PUSH1 0xE0 SHL DUP2 MSTORE PUSH1 0x4 ADD PUSH1 0x20 PUSH1 0x40 MLOAD DUP1 DUP4 SUB DUP2 DUP7 DUP1 EXTCODESIZE ISZERO DUP1 ISZERO PUSH2 0xE66 JUMPI PUSH1 0x0 DUP1 REVERT JUMPDEST POP GAS STATICCALL ISZERO DUP1 ISZERO PUSH2 0xE7A JUMPI RETURNDATASIZE PUSH1 0x0 DUP1 RETURNDATACOPY RETURNDATASIZE PUSH1 0x0 REVERT JUMPDEST POP POP POP POP PUSH1 0x40 MLOAD RETURNDATASIZE PUSH1 0x20 DUP2 LT ISZERO PUSH2 0xE90 JUMPI PUSH1 0x0 DUP1 REVERT JUMPDEST POP MLOAD SWAP1 POP PUSH2 0xE9C PUSH2 0x4A15 JUMP JUMPDEST PUSH1 0x40 MLOAD DUP1 PUSH1 0x80 ADD PUSH1 0x40 MSTORE DUP1 PUSH1 0x0 DUP2 MSTORE PUSH1 0x20 ADD PUSH1 0x0 DUP2 MSTORE PUSH1 0x20 ADD PUSH1 0x0 DUP2 MSTORE PUSH1 0x20 ADD PUSH1 0x0 DUP2 MSTORE POP SWAP1 POP DUP2 PUSH1 0x0 EQ PUSH2 0xED7 JUMPI PUSH2 0xED4 DUP8 PUSH2 0x37AF JUMP JUMPDEST DUP2 MSTORE JUMPDEST PUSH1 0x60 DUP8 PUSH1 0xC ADD DUP1 SLOAD DUP1 PUSH1 0x20 MUL PUSH1 0x20 ADD PUSH1 0x40 MLOAD SWAP1 DUP2 ADD PUSH1 0x40 MSTORE DUP1 SWAP3 SWAP2 SWAP1 DUP2 DUP2 MSTORE PUSH1 0x20 ADD DUP3 DUP1 SLOAD DUP1 ISZERO PUSH2 0xF27 JUMPI PUSH1 0x20 MUL DUP3 ADD SWAP2 SWAP1 PUSH1 0x0 MSTORE PUSH1 0x20 PUSH1 0x0 KECCAK256 SWAP1 JUMPDEST DUP2 SLOAD DUP2 MSTORE PUSH1 0x20 ADD SWAP1 PUSH1 0x1 ADD SWAP1 DUP1 DUP4 GT PUSH2 0xF13 JUMPI JUMPDEST POP POP POP POP POP SWAP1 POP PUSH1 0x0 JUMPDEST PUSH1 0xA DUP10 ADD SLOAD DUP2 LT ISZERO PUSH2 0x117D JUMPI DUP4 ISZERO ISZERO DUP1 PUSH2 0xF5E JUMPI POP PUSH1 0x0 DUP9 DUP3 DUP2 MLOAD DUP2 LT PUSH2 0xF54 JUMPI INVALID JUMPDEST PUSH1 0x20 MUL PUSH1 0x20 ADD ADD MLOAD GT JUMPDEST PUSH2 0xFAF JUMPI PUSH1 0x40 DUP1 MLOAD PUSH3 0x461BCD PUSH1 0xE5 SHL DUP2 MSTORE PUSH1 0x20 PUSH1 0x4 DUP3 ADD MSTORE PUSH1 0x1E PUSH1 0x24 DUP3 ADD MSTORE PUSH32 0x4D75737420737570706C7920616C6C20746F6B656E7320696E20706F6F6C0000 PUSH1 0x44 DUP3 ADD MSTORE SWAP1 MLOAD SWAP1 DUP2 SWAP1 SUB PUSH1 0x64 ADD SWAP1 REVERT JUMPDEST DUP8 DUP2 DUP2 MLOAD DUP2 LT PUSH2 0xFBB JUMPI INVALID JUMPDEST PUSH1 0x20 MUL PUSH1 0x20 ADD ADD MLOAD PUSH1 0x0 EQ PUSH2 0x111F JUMPI PUSH1 0x0 DUP10 PUSH1 0xA ADD DUP3 DUP2 SLOAD DUP2 LT PUSH2 0xFDB JUMPI INVALID JUMPDEST PUSH1 0x0 SWAP2 DUP3 MSTORE PUSH1 0x20 SWAP2 DUP3 SWAP1 KECCAK256 ADD SLOAD PUSH1 0x40 DUP1 MLOAD PUSH4 0x70A08231 PUSH1 0xE0 SHL DUP2 MSTORE ADDRESS PUSH1 0x4 DUP3 ADD MSTORE SWAP1 MLOAD PUSH1 0x1 PUSH1 0x1 PUSH1 0xA0 SHL SUB SWAP1 SWAP3 AND SWAP3 PUSH4 0x70A08231 SWAP3 PUSH1 0x24 DUP1 DUP5 ADD SWAP4 DUP3 SWAP1 SUB ADD DUP2 DUP7 DUP1 EXTCODESIZE ISZERO DUP1 ISZERO PUSH2 0x102A JUMPI PUSH1 0x0 DUP1 REVERT JUMPDEST POP GAS STATICCALL ISZERO DUP1 ISZERO PUSH2 0x103E JUMPI RETURNDATASIZE PUSH1 0x0 DUP1 RETURNDATACOPY RETURNDATASIZE PUSH1 0x0 REVERT JUMPDEST POP POP POP POP PUSH1 0x40 MLOAD RETURNDATASIZE PUSH1 0x20 DUP2 LT ISZERO PUSH2 0x1054 JUMPI PUSH1 0x0 DUP1 REVERT JUMPDEST POP MLOAD DUP10 MLOAD SWAP1 SWAP2 POP PUSH2 0x10A3 SWAP1 CALLER SWAP1 ADDRESS SWAP1 DUP13 SWAP1 DUP7 SWAP1 DUP2 LT PUSH2 0x106F JUMPI INVALID JUMPDEST PUSH1 0x20 MUL PUSH1 0x20 ADD ADD MLOAD DUP14 PUSH1 0xA ADD DUP7 DUP2 SLOAD DUP2 LT PUSH2 0x1086 JUMPI INVALID JUMPDEST PUSH1 0x0 SWAP2 DUP3 MSTORE PUSH1 0x20 SWAP1 SWAP2 KECCAK256 ADD SLOAD PUSH1 0x1 PUSH1 0x1 PUSH1 0xA0 SHL SUB AND SWAP3 SWAP2 SWAP1 PUSH2 0x37C6 JUMP JUMPDEST PUSH2 0x1105 DUP2 DUP12 PUSH1 0xA ADD DUP5 DUP2 SLOAD DUP2 LT PUSH2 0x10B6 JUMPI INVALID JUMPDEST PUSH1 0x0 SWAP2 DUP3 MSTORE PUSH1 0x20 SWAP2 DUP3 SWAP1 KECCAK256 ADD SLOAD PUSH1 0x40 DUP1 MLOAD PUSH4 0x70A08231 PUSH1 0xE0 SHL DUP2 MSTORE ADDRESS PUSH1 0x4 DUP3 ADD MSTORE SWAP1 MLOAD PUSH1 0x1 PUSH1 0x1 PUSH1 0xA0 SHL SUB SWAP1 SWAP3 AND SWAP3 PUSH4 0x70A08231 SWAP3 PUSH1 0x24 DUP1 DUP5 ADD SWAP4 DUP3 SWAP1 SUB ADD DUP2 DUP7 DUP1 EXTCODESIZE ISZERO DUP1 ISZERO PUSH2 0xB03 JUMPI PUSH1 0x0 DUP1 REVERT JUMPDEST DUP10 DUP4 DUP2 MLOAD DUP2 LT PUSH2 0x1111 JUMPI INVALID JUMPDEST PUSH1 0x20 MUL PUSH1 0x20 ADD ADD DUP2 DUP2 MSTORE POP POP POP JUMPDEST PUSH2 0x115E DUP9 DUP3 DUP2 MLOAD DUP2 LT PUSH2 0x112E JUMPI INVALID JUMPDEST PUSH1 0x20 MUL PUSH1 0x20 ADD ADD MLOAD DUP11 PUSH1 0xC ADD DUP4 DUP2 SLOAD DUP2 LT PUSH2 0x1145 JUMPI INVALID JUMPDEST SWAP1 PUSH1 0x0 MSTORE PUSH1 0x20 PUSH1 0x0 KECCAK256 ADD SLOAD PUSH2 0x3695 SWAP1 SWAP2 SWAP1 PUSH4 0xFFFFFFFF AND JUMP JUMPDEST DUP3 DUP3 DUP2 MLOAD DUP2 LT PUSH2 0x116A JUMPI INVALID JUMPDEST PUSH1 0x20 SWAP1 DUP2 MUL SWAP2 SWAP1 SWAP2 ADD ADD MSTORE PUSH1 0x1 ADD PUSH2 0xF31 JUMP JUMPDEST POP PUSH2 0x1187 DUP9 PUSH2 0x3826 JUMP JUMPDEST PUSH1 0x60 DUP4 ADD MSTORE PUSH2 0x11A3 PUSH2 0x1199 DUP10 DUP4 PUSH2 0x38BB JUMP JUMPDEST DUP4 PUSH1 0x60 ADD MLOAD PUSH2 0x2A57 JUMP JUMPDEST PUSH1 0x20 DUP4 ADD DUP2 SWAP1 MSTORE DUP3 MLOAD LT PUSH2 0x11F2 JUMPI PUSH1 0x40 DUP1 MLOAD PUSH3 0x461BCD PUSH1 0xE5 SHL DUP2 MSTORE PUSH1 0x20 PUSH1 0x4 DUP3 ADD MSTORE PUSH1 0x11 PUSH1 0x24 DUP3 ADD MSTORE PUSH17 0x442073686F756C6420696E637265617365 PUSH1 0x78 SHL PUSH1 0x44 DUP3 ADD MSTORE SWAP1 MLOAD SWAP1 DUP2 SWAP1 SUB PUSH1 0x64 ADD SWAP1 REVERT JUMPDEST PUSH1 0x20 DUP3 ADD MLOAD PUSH1 0x40 DUP4 ADD MSTORE DUP3 ISZERO PUSH2 0x13E2 JUMPI PUSH1 0x0 PUSH2 0x120D DUP10 PUSH2 0x3919 JUMP JUMPDEST SWAP1 POP PUSH1 0x0 JUMPDEST PUSH1 0xA DUP11 ADD SLOAD DUP2 LT ISZERO PUSH2 0x13BF JUMPI PUSH1 0x0 PUSH2 0x1258 DUP6 PUSH1 0x0 ADD MLOAD PUSH2 0xC0D DUP14 PUSH1 0xC ADD DUP6 DUP2 SLOAD DUP2 LT PUSH2 0x123A JUMPI INVALID JUMPDEST SWAP1 PUSH1 0x0 MSTORE PUSH1 0x20 PUSH1 0x0 KECCAK256 ADD SLOAD DUP9 PUSH1 0x20 ADD MLOAD PUSH2 0x36EF SWAP1 SWAP2 SWAP1 PUSH4 0xFFFFFFFF AND JUMP JUMPDEST SWAP1 POP PUSH2 0x1305 PUSH5 0x2540BE400 PUSH2 0xC0D DUP4 PUSH20 0x0 PUSH4 0xA95CB7F7 SWAP1 SWAP2 DUP10 DUP9 DUP2 MLOAD DUP2 LT PUSH2 0x128F JUMPI INVALID JUMPDEST PUSH1 0x20 MUL PUSH1 0x20 ADD ADD MLOAD PUSH1 0x40 MLOAD DUP4 PUSH4 0xFFFFFFFF AND PUSH1 0xE0 SHL DUP2 MSTORE PUSH1 0x4 ADD DUP1 DUP4 DUP2 MSTORE PUSH1 0x20 ADD DUP3 DUP2 MSTORE PUSH1 0x20 ADD SWAP3 POP POP POP PUSH1 0x20 PUSH1 0x40 MLOAD DUP1 DUP4 SUB DUP2 DUP7 DUP1 EXTCODESIZE ISZERO DUP1 ISZERO PUSH2 0x12D2 JUMPI PUSH1 0x0 DUP1 REVERT JUMPDEST POP GAS DELEGATECALL ISZERO DUP1 ISZERO PUSH2 0x12E6 JUMPI RETURNDATASIZE PUSH1 0x0 DUP1 RETURNDATACOPY RETURNDATASIZE PUSH1 0x0 REVERT JUMPDEST POP POP POP POP PUSH1 0x40 MLOAD RETURNDATASIZE PUSH1 0x20 DUP2 LT ISZERO PUSH2 0x12FC JUMPI PUSH1 0x0 DUP1 REVERT JUMPDEST POP MLOAD DUP7 SWAP1 PUSH2 0x36EF JUMP JUMPDEST DUP8 DUP4 DUP2 MLOAD DUP2 LT PUSH2 0x1311 JUMPI INVALID JUMPDEST PUSH1 0x20 MUL PUSH1 0x20 ADD ADD DUP2 DUP2 MSTORE POP POP PUSH2 0x135F PUSH2 0x133D PUSH5 0x2540BE400 PUSH2 0xC0D DUP15 PUSH1 0x5 ADD SLOAD DUP12 DUP8 DUP2 MLOAD DUP2 LT PUSH2 0xBED JUMPI INVALID JUMPDEST DUP6 DUP5 DUP2 MLOAD DUP2 LT PUSH2 0x1349 JUMPI INVALID JUMPDEST PUSH1 0x20 MUL PUSH1 0x20 ADD ADD MLOAD PUSH2 0x35E6 SWAP1 SWAP2 SWAP1 PUSH4 0xFFFFFFFF AND JUMP JUMPDEST DUP12 PUSH1 0xC ADD DUP4 DUP2 SLOAD DUP2 LT PUSH2 0x136E JUMPI INVALID JUMPDEST SWAP1 PUSH1 0x0 MSTORE PUSH1 0x20 PUSH1 0x0 KECCAK256 ADD DUP2 SWAP1 SSTORE POP PUSH2 0x139F DUP8 DUP4 DUP2 MLOAD DUP2 LT PUSH2 0x138B JUMPI INVALID JUMPDEST PUSH1 0x20 MUL PUSH1 0x20 ADD ADD MLOAD DUP6 DUP5 DUP2 MLOAD DUP2 LT PUSH2 0x1349 JUMPI INVALID JUMPDEST DUP5 DUP4 DUP2 MLOAD DUP2 LT PUSH2 0x13AB JUMPI INVALID JUMPDEST PUSH1 0x20 SWAP1 DUP2 MUL SWAP2 SWAP1 SWAP2 ADD ADD MSTORE POP PUSH1 0x1 ADD PUSH2 0x1212 JUMP JUMPDEST POP PUSH2 0x13D7 PUSH2 0x13CD DUP11 DUP5 PUSH2 0x38BB JUMP JUMPDEST DUP5 PUSH1 0x60 ADD MLOAD PUSH2 0x2A57 JUMP JUMPDEST PUSH1 0x40 DUP5 ADD MSTORE POP PUSH2 0x13F9 JUMP JUMPDEST DUP1 MLOAD PUSH2 0x13F7 SWAP1 PUSH1 0xC DUP11 ADD SWAP1 PUSH1 0x20 DUP5 ADD SWAP1 PUSH2 0x4A3D JUMP JUMPDEST POP JUMPDEST PUSH1 0x0 DUP1 DUP1 DUP6 PUSH2 0x140E JUMPI DUP5 PUSH1 0x20 ADD MLOAD SWAP3 POP PUSH2 0x142D JUMP JUMPDEST DUP5 MLOAD PUSH1 0x40 DUP7 ADD MLOAD PUSH2 0x142A SWAP2 SWAP1 PUSH2 0xC0D SWAP1 DUP10 SWAP1 PUSH2 0xC38 SWAP1 DUP5 PUSH2 0x35E6 JUMP JUMPDEST SWAP3 POP JUMPDEST DUP9 DUP4 LT ISZERO PUSH2 0x1482 JUMPI PUSH1 0x40 DUP1 MLOAD PUSH3 0x461BCD PUSH1 0xE5 SHL DUP2 MSTORE PUSH1 0x20 PUSH1 0x4 DUP3 ADD MSTORE PUSH1 0x1B PUSH1 0x24 DUP3 ADD MSTORE PUSH32 0x436F756C646E2774206D696E74206D696E207265717565737465640000000000 PUSH1 0x44 DUP3 ADD MSTORE SWAP1 MLOAD SWAP1 DUP2 SWAP1 SUB PUSH1 0x64 ADD SWAP1 REVERT JUMPDEST PUSH1 0x6 DUP12 ADD SLOAD PUSH2 0x14FD JUMPI PUSH1 0x9 DUP12 ADD SLOAD PUSH1 0x40 DUP1 MLOAD PUSH4 0x40C10F19 PUSH1 0xE0 SHL DUP2 MSTORE CALLER PUSH1 0x4 DUP3 ADD MSTORE PUSH1 0x24 DUP2 ADD DUP7 SWAP1 MSTORE SWAP1 MLOAD PUSH1 0x1 PUSH1 0x1 PUSH1 0xA0 SHL SUB SWAP1 SWAP3 AND SWAP2 PUSH4 0x40C10F19 SWAP2 PUSH1 0x44 DUP1 DUP3 ADD SWAP3 PUSH1 0x0 SWAP3 SWAP1 SWAP2 SWAP1 DUP3 SWAP1 SUB ADD DUP2 DUP4 DUP8 DUP1 EXTCODESIZE ISZERO DUP1 ISZERO PUSH2 0x14E0 JUMPI PUSH1 0x0 DUP1 REVERT JUMPDEST POP GAS CALL ISZERO DUP1 ISZERO PUSH2 0x14F4 JUMPI RETURNDATASIZE PUSH1 0x0 DUP1 RETURNDATACOPY RETURNDATASIZE PUSH1 0x0 REVERT JUMPDEST POP POP POP POP PUSH2 0x160C JUMP JUMPDEST PUSH2 0x151D PUSH5 0x2540BE400 PUSH2 0xC0D DUP14 PUSH1 0x6 ADD SLOAD DUP7 PUSH2 0x36EF SWAP1 SWAP2 SWAP1 PUSH4 0xFFFFFFFF AND JUMP JUMPDEST SWAP2 POP PUSH2 0x1529 DUP4 DUP4 PUSH2 0x35E6 JUMP JUMPDEST PUSH1 0x9 DUP13 ADD SLOAD PUSH1 0x8 DUP14 ADD SLOAD PUSH1 0x40 DUP1 MLOAD PUSH4 0x40C10F19 PUSH1 0xE0 SHL DUP2 MSTORE PUSH1 0x1 PUSH1 0x1 PUSH1 0xA0 SHL SUB SWAP3 DUP4 AND PUSH1 0x4 DUP3 ADD MSTORE PUSH1 0x24 DUP2 ADD DUP8 SWAP1 MSTORE SWAP1 MLOAD SWAP4 SWAP5 POP SWAP2 AND SWAP2 PUSH4 0x40C10F19 SWAP2 PUSH1 0x44 DUP1 DUP3 ADD SWAP3 PUSH1 0x0 SWAP3 SWAP1 SWAP2 SWAP1 DUP3 SWAP1 SUB ADD DUP2 DUP4 DUP8 DUP1 EXTCODESIZE ISZERO DUP1 ISZERO PUSH2 0x1587 JUMPI PUSH1 0x0 DUP1 REVERT JUMPDEST POP GAS CALL ISZERO DUP1 ISZERO PUSH2 0x159B JUMPI RETURNDATASIZE PUSH1 0x0 DUP1 RETURNDATACOPY RETURNDATASIZE PUSH1 0x0 REVERT JUMPDEST POP POP POP PUSH1 0x9 DUP13 ADD SLOAD PUSH1 0x40 DUP1 MLOAD PUSH4 0x40C10F19 PUSH1 0xE0 SHL DUP2 MSTORE CALLER PUSH1 0x4 DUP3 ADD MSTORE PUSH1 0x24 DUP2 ADD DUP6 SWAP1 MSTORE SWAP1 MLOAD PUSH1 0x1 PUSH1 0x1 PUSH1 0xA0 SHL SUB SWAP1 SWAP3 AND SWAP3 POP PUSH4 0x40C10F19 SWAP2 PUSH1 0x44 DUP1 DUP4 ADD SWAP3 PUSH1 0x0 SWAP3 SWAP2 SWAP1 DUP3 SWAP1 SUB ADD DUP2 DUP4 DUP8 DUP1 EXTCODESIZE ISZERO DUP1 ISZERO PUSH2 0x15F3 JUMPI PUSH1 0x0 DUP1 REVERT JUMPDEST POP GAS CALL ISZERO DUP1 ISZERO PUSH2 0x1607 JUMPI RETURNDATASIZE PUSH1 0x0 DUP1 RETURNDATACOPY RETURNDATASIZE PUSH1 0x0 REVERT JUMPDEST POP POP POP POP JUMPDEST CALLER PUSH1 0x1 PUSH1 0x1 PUSH1 0xA0 SHL SUB AND PUSH32 0x189C623B666B1B45B83D7178F39B8C087CB09774317CA2F53C2D3C3726F222A2 DUP12 DUP10 DUP9 PUSH1 0x20 ADD MLOAD DUP8 DUP12 ADD PUSH1 0x40 MLOAD DUP1 DUP1 PUSH1 0x20 ADD DUP1 PUSH1 0x20 ADD DUP6 DUP2 MSTORE PUSH1 0x20 ADD DUP5 DUP2 MSTORE PUSH1 0x20 ADD DUP4 DUP2 SUB DUP4 MSTORE DUP8 DUP2 DUP2 MLOAD DUP2 MSTORE PUSH1 0x20 ADD SWAP2 POP DUP1 MLOAD SWAP1 PUSH1 0x20 ADD SWAP1 PUSH1 0x20 MUL DUP1 DUP4 DUP4 PUSH1 0x0 JUMPDEST DUP4 DUP2 LT ISZERO PUSH2 0x1691 JUMPI DUP2 DUP2 ADD MLOAD DUP4 DUP3 ADD MSTORE PUSH1 0x20 ADD PUSH2 0x1679 JUMP JUMPDEST POP POP POP POP SWAP1 POP ADD DUP4 DUP2 SUB DUP3 MSTORE DUP7 DUP2 DUP2 MLOAD DUP2 MSTORE PUSH1 0x20 ADD SWAP2 POP DUP1 MLOAD SWAP1 PUSH1 0x20 ADD SWAP1 PUSH1 0x20 MUL DUP1 DUP4 DUP4 PUSH1 0x0 JUMPDEST DUP4 DUP2 LT ISZERO PUSH2 0x16D0 JUMPI DUP2 DUP2 ADD MLOAD DUP4 DUP3 ADD MSTORE PUSH1 0x20 ADD PUSH2 0x16B8 JUMP JUMPDEST POP POP POP POP SWAP1 POP ADD SWAP7 POP POP POP POP POP POP POP PUSH1 0x40 MLOAD DUP1 SWAP2 SUB SWAP1 LOG2 POP SWAP1 SWAP10 SWAP9 POP POP POP POP POP POP POP POP POP JUMP JUMPDEST PUSH1 0xA DUP4 ADD SLOAD DUP3 MLOAD PUSH1 0x0 SWAP2 EQ PUSH2 0x1752 JUMPI PUSH1 0x40 DUP1 MLOAD PUSH3 0x461BCD PUSH1 0xE5 SHL DUP2 MSTORE PUSH1 0x20 PUSH1 0x4 DUP3 ADD DUP2 SWAP1 MSTORE PUSH1 0x24 DUP3 ADD MSTORE PUSH32 0x416D6F756E74732073686F756C64206D6174636820706F6F6C20746F6B656E73 PUSH1 0x44 DUP3 ADD MSTORE SWAP1 MLOAD SWAP1 DUP2 SWAP1 SUB PUSH1 0x64 ADD SWAP1 REVERT JUMPDEST PUSH1 0x9 DUP5 ADD SLOAD PUSH1 0x40 DUP1 MLOAD PUSH4 0x70A08231 PUSH1 0xE0 SHL DUP2 MSTORE CALLER PUSH1 0x4 DUP3 ADD MSTORE SWAP1 MLOAD PUSH1 0x1 PUSH1 0x1 PUSH1 0xA0 SHL SUB SWAP1 SWAP3 AND SWAP2 PUSH4 0x70A08231 SWAP2 PUSH1 0x24 DUP1 DUP3 ADD SWAP3 PUSH1 0x20 SWAP3 SWAP1 SWAP2 SWAP1 DUP3 SWAP1 SUB ADD DUP2 DUP7 DUP1 EXTCODESIZE ISZERO DUP1 ISZERO PUSH2 0x179F JUMPI PUSH1 0x0 DUP1 REVERT JUMPDEST POP GAS STATICCALL ISZERO DUP1 ISZERO PUSH2 0x17B3 JUMPI RETURNDATASIZE PUSH1 0x0 DUP1 RETURNDATACOPY RETURNDATASIZE PUSH1 0x0 REVERT JUMPDEST POP POP POP POP PUSH1 0x40 MLOAD RETURNDATASIZE PUSH1 0x20 DUP2 LT ISZERO PUSH2 0x17C9 JUMPI PUSH1 0x0 DUP1 REVERT JUMPDEST POP MLOAD DUP3 GT DUP1 ISZERO SWAP1 PUSH2 0x17D9 JUMPI POP DUP2 ISZERO ISZERO JUMPDEST PUSH2 0x181A JUMPI PUSH1 0x40 DUP1 MLOAD PUSH3 0x461BCD PUSH1 0xE5 SHL DUP2 MSTORE PUSH1 0x20 PUSH1 0x4 DUP3 ADD MSTORE PUSH1 0xD PUSH1 0x24 DUP3 ADD MSTORE PUSH13 0x1F2628173130B630B731B2A7B3 PUSH1 0x99 SHL PUSH1 0x44 DUP3 ADD MSTORE SWAP1 MLOAD SWAP1 DUP2 SWAP1 SUB PUSH1 0x64 ADD SWAP1 REVERT JUMPDEST PUSH2 0x1822 PUSH2 0x4A15 JUMP JUMPDEST PUSH1 0x40 MLOAD DUP1 PUSH1 0x80 ADD PUSH1 0x40 MSTORE DUP1 PUSH1 0x0 DUP2 MSTORE PUSH1 0x20 ADD PUSH1 0x0 DUP2 MSTORE PUSH1 0x20 ADD PUSH1 0x0 DUP2 MSTORE PUSH1 0x20 ADD PUSH1 0x0 DUP2 MSTORE POP SWAP1 POP PUSH1 0x0 DUP6 PUSH1 0x9 ADD PUSH1 0x0 SWAP1 SLOAD SWAP1 PUSH2 0x100 EXP SWAP1 DIV PUSH1 0x1 PUSH1 0x1 PUSH1 0xA0 SHL SUB AND PUSH1 0x1 PUSH1 0x1 PUSH1 0xA0 SHL SUB AND PUSH4 0x18160DDD PUSH1 0x40 MLOAD DUP2 PUSH4 0xFFFFFFFF AND PUSH1 0xE0 SHL DUP2 MSTORE PUSH1 0x4 ADD PUSH1 0x20 PUSH1 0x40 MLOAD DUP1 DUP4 SUB DUP2 DUP7 DUP1 EXTCODESIZE ISZERO DUP1 ISZERO PUSH2 0x189B JUMPI PUSH1 0x0 DUP1 REVERT JUMPDEST POP GAS STATICCALL ISZERO DUP1 ISZERO PUSH2 0x18AF JUMPI RETURNDATASIZE PUSH1 0x0 DUP1 RETURNDATACOPY RETURNDATASIZE PUSH1 0x0 REVERT JUMPDEST POP POP POP POP PUSH1 0x40 MLOAD RETURNDATASIZE PUSH1 0x20 DUP2 LT ISZERO PUSH2 0x18C5 JUMPI PUSH1 0x0 DUP1 REVERT JUMPDEST POP MLOAD SWAP1 POP PUSH1 0x0 PUSH2 0x18D4 DUP8 PUSH2 0x3919 JUMP JUMPDEST SWAP1 POP PUSH1 0x60 DUP8 PUSH1 0xC ADD DUP1 SLOAD DUP1 PUSH1 0x20 MUL PUSH1 0x20 ADD PUSH1 0x40 MLOAD SWAP1 DUP2 ADD PUSH1 0x40 MSTORE DUP1 SWAP3 SWAP2 SWAP1 DUP2 DUP2 MSTORE PUSH1 0x20 ADD DUP3 DUP1 SLOAD DUP1 ISZERO PUSH2 0x1926 JUMPI PUSH1 0x20 MUL DUP3 ADD SWAP2 SWAP1 PUSH1 0x0 MSTORE PUSH1 0x20 PUSH1 0x0 KECCAK256 SWAP1 JUMPDEST DUP2 SLOAD DUP2 MSTORE PUSH1 0x20 ADD SWAP1 PUSH1 0x1 ADD SWAP1 DUP1 DUP4 GT PUSH2 0x1912 JUMPI JUMPDEST POP POP POP POP POP SWAP1 POP PUSH2 0x1936 DUP9 PUSH2 0x3826 JUMP JUMPDEST PUSH1 0x60 DUP6 ADD MSTORE PUSH2 0x1951 PUSH2 0x1947 DUP10 PUSH2 0x394A JUMP JUMPDEST DUP6 PUSH1 0x60 ADD MLOAD PUSH2 0x2A57 JUMP JUMPDEST DUP5 MSTORE PUSH1 0x0 JUMPDEST PUSH1 0xA DUP10 ADD SLOAD DUP2 LT ISZERO PUSH2 0x19D4 JUMPI PUSH2 0x19B5 DUP9 DUP3 DUP2 MLOAD DUP2 LT PUSH2 0x1971 JUMPI INVALID JUMPDEST PUSH1 0x20 MUL PUSH1 0x20 ADD ADD MLOAD PUSH1 0x40 MLOAD DUP1 PUSH1 0x60 ADD PUSH1 0x40 MSTORE DUP1 PUSH1 0x23 DUP2 MSTORE PUSH1 0x20 ADD PUSH2 0x4B18 PUSH1 0x23 SWAP2 CODECOPY DUP5 DUP5 DUP2 MLOAD DUP2 LT PUSH2 0x199E JUMPI INVALID JUMPDEST PUSH1 0x20 MUL PUSH1 0x20 ADD ADD MLOAD PUSH2 0x39F8 SWAP1 SWAP3 SWAP2 SWAP1 PUSH4 0xFFFFFFFF AND JUMP JUMPDEST DUP3 DUP3 DUP2 MLOAD DUP2 LT PUSH2 0x19C1 JUMPI INVALID JUMPDEST PUSH1 0x20 SWAP1 DUP2 MUL SWAP2 SWAP1 SWAP2 ADD ADD MSTORE PUSH1 0x1 ADD PUSH2 0x1956 JUMP JUMPDEST POP PUSH2 0x19E2 PUSH2 0x1947 DUP10 DUP4 PUSH2 0x38BB JUMP JUMPDEST PUSH1 0x20 DUP6 ADD MSTORE PUSH1 0xA DUP9 ADD SLOAD PUSH1 0x60 SWAP1 PUSH8 0xFFFFFFFFFFFFFFFF DUP2 GT DUP1 ISZERO PUSH2 0x1A05 JUMPI PUSH1 0x0 DUP1 REVERT JUMPDEST POP PUSH1 0x40 MLOAD SWAP1 DUP1 DUP3 MSTORE DUP1 PUSH1 0x20 MUL PUSH1 0x20 ADD DUP3 ADD PUSH1 0x40 MSTORE DUP1 ISZERO PUSH2 0x1A2F JUMPI DUP2 PUSH1 0x20 ADD PUSH1 0x20 DUP3 MUL DUP1 CALLDATASIZE DUP4 CALLDATACOPY ADD SWAP1 POP JUMPDEST POP SWAP1 POP PUSH1 0x0 JUMPDEST PUSH1 0xA DUP11 ADD SLOAD DUP2 LT ISZERO PUSH2 0x1BD1 JUMPI PUSH1 0x0 PUSH2 0x1A7B DUP8 PUSH1 0x0 ADD MLOAD PUSH2 0xC0D DUP14 PUSH1 0xC ADD DUP6 DUP2 SLOAD DUP2 LT PUSH2 0x1A5D JUMPI INVALID JUMPDEST SWAP1 PUSH1 0x0 MSTORE PUSH1 0x20 PUSH1 0x0 KECCAK256 ADD SLOAD DUP11 PUSH1 0x20 ADD MLOAD PUSH2 0x36EF SWAP1 SWAP2 SWAP1 PUSH4 0xFFFFFFFF AND JUMP JUMPDEST SWAP1 POP PUSH1 0x0 DUP2 PUSH20 0x0 PUSH4 0xA95CB7F7 SWAP1 SWAP2 DUP8 DUP7 DUP2 MLOAD DUP2 LT PUSH2 0x1AA8 JUMPI INVALID JUMPDEST PUSH1 0x20 MUL PUSH1 0x20 ADD ADD MLOAD PUSH1 0x40 MLOAD DUP4 PUSH4 0xFFFFFFFF AND PUSH1 0xE0 SHL DUP2 MSTORE PUSH1 0x4 ADD DUP1 DUP4 DUP2 MSTORE PUSH1 0x20 ADD DUP3 DUP2 MSTORE PUSH1 0x20 ADD SWAP3 POP POP POP PUSH1 0x20 PUSH1 0x40 MLOAD DUP1 DUP4 SUB DUP2 DUP7 DUP1 EXTCODESIZE ISZERO DUP1 ISZERO PUSH2 0x1AEB JUMPI PUSH1 0x0 DUP1 REVERT JUMPDEST POP GAS DELEGATECALL ISZERO DUP1 ISZERO PUSH2 0x1AFF JUMPI RETURNDATASIZE PUSH1 0x0 DUP1 RETURNDATACOPY RETURNDATASIZE PUSH1 0x0 REVERT JUMPDEST POP POP POP POP PUSH1 0x40 MLOAD RETURNDATASIZE PUSH1 0x20 DUP2 LT ISZERO PUSH2 0x1B15 JUMPI PUSH1 0x0 DUP1 REVERT JUMPDEST POP MLOAD SWAP1 POP PUSH2 0x1B2C PUSH5 0x2540BE400 PUSH2 0xC0D DUP9 DUP5 PUSH2 0x36EF JUMP JUMPDEST DUP5 DUP5 DUP2 MLOAD DUP2 LT PUSH2 0x1B38 JUMPI INVALID JUMPDEST PUSH1 0x20 MUL PUSH1 0x20 ADD ADD DUP2 DUP2 MSTORE POP POP PUSH2 0x1B70 PUSH2 0x1B64 PUSH5 0x2540BE400 PUSH2 0xC0D DUP16 PUSH1 0x5 ADD SLOAD DUP9 DUP9 DUP2 MLOAD DUP2 LT PUSH2 0xBED JUMPI INVALID JUMPDEST DUP7 DUP6 DUP2 MLOAD DUP2 LT PUSH2 0x1349 JUMPI INVALID JUMPDEST DUP13 PUSH1 0xC ADD DUP5 DUP2 SLOAD DUP2 LT PUSH2 0x1B7F JUMPI INVALID JUMPDEST SWAP1 PUSH1 0x0 MSTORE PUSH1 0x20 PUSH1 0x0 KECCAK256 ADD DUP2 SWAP1 SSTORE POP PUSH2 0x1BB0 DUP5 DUP5 DUP2 MLOAD DUP2 LT PUSH2 0x1B9C JUMPI INVALID JUMPDEST PUSH1 0x20 MUL PUSH1 0x20 ADD ADD MLOAD DUP7 DUP6 DUP2 MLOAD DUP2 LT PUSH2 0x1349 JUMPI INVALID JUMPDEST DUP6 DUP5 DUP2 MLOAD DUP2 LT PUSH2 0x1BBC JUMPI INVALID JUMPDEST PUSH1 0x20 SWAP1 DUP2 MUL SWAP2 SWAP1 SWAP2 ADD ADD MSTORE POP POP PUSH1 0x1 ADD PUSH2 0x1A35 JUMP JUMPDEST POP PUSH2 0x1BE9 PUSH2 0x1BDF DUP11 DUP5 PUSH2 0x38BB JUMP JUMPDEST DUP7 PUSH1 0x60 ADD MLOAD PUSH2 0x2A57 JUMP JUMPDEST PUSH1 0x40 DUP7 ADD DUP2 SWAP1 MSTORE DUP6 MLOAD PUSH1 0x0 SWAP2 PUSH2 0x1C0B SWAP2 SWAP1 PUSH2 0xC0D SWAP1 DUP9 SWAP1 PUSH2 0xC38 SWAP1 DUP5 SWAP1 PUSH2 0x35E6 JUMP JUMPDEST SWAP1 POP DUP1 PUSH2 0x1C5F JUMPI PUSH1 0x40 DUP1 MLOAD PUSH3 0x461BCD PUSH1 0xE5 SHL DUP2 MSTORE PUSH1 0x20 PUSH1 0x4 DUP3 ADD MSTORE PUSH1 0x1B PUSH1 0x24 DUP3 ADD MSTORE PUSH32 0x4275726E7420616D6F756E742063616E6E6F74206265207A65726F0000000000 PUSH1 0x44 DUP3 ADD MSTORE SWAP1 MLOAD SWAP1 DUP2 SWAP1 SUB PUSH1 0x64 ADD SWAP1 REVERT JUMPDEST PUSH2 0x1C8F PUSH2 0x1C7B PUSH2 0x1C6F DUP13 CALLER PUSH2 0x2CAE JUMP JUMPDEST PUSH5 0x2540BE400 SWAP1 PUSH2 0x35E6 JUMP JUMPDEST PUSH2 0xC0D PUSH5 0x2540BE400 PUSH2 0xC38 DUP6 PUSH1 0x1 PUSH2 0x3695 JUMP JUMPDEST SWAP1 POP DUP8 DUP2 GT ISZERO PUSH2 0x1CE6 JUMPI PUSH1 0x40 DUP1 MLOAD PUSH3 0x461BCD PUSH1 0xE5 SHL DUP2 MSTORE PUSH1 0x20 PUSH1 0x4 DUP3 ADD MSTORE PUSH1 0x1B PUSH1 0x24 DUP3 ADD MSTORE PUSH32 0x746F6B656E416D6F756E74203E206D61784275726E416D6F756E740000000000 PUSH1 0x44 DUP3 ADD MSTORE SWAP1 MLOAD SWAP1 DUP2 SWAP1 SUB PUSH1 0x64 ADD SWAP1 REVERT JUMPDEST PUSH1 0x9 DUP11 ADD SLOAD PUSH1 0x40 DUP1 MLOAD PUSH4 0x79CC679 PUSH1 0xE4 SHL DUP2 MSTORE CALLER PUSH1 0x4 DUP3 ADD MSTORE PUSH1 0x24 DUP2 ADD DUP5 SWAP1 MSTORE SWAP1 MLOAD PUSH1 0x1 PUSH1 0x1 PUSH1 0xA0 SHL SUB SWAP1 SWAP3 AND SWAP2 PUSH4 0x79CC6790 SWAP2 PUSH1 0x44 DUP1 DUP3 ADD SWAP3 PUSH1 0x0 SWAP3 SWAP1 SWAP2 SWAP1 DUP3 SWAP1 SUB ADD DUP2 DUP4 DUP8 DUP1 EXTCODESIZE ISZERO DUP1 ISZERO PUSH2 0x1D3B JUMPI PUSH1 0x0 DUP1 REVERT JUMPDEST POP GAS CALL ISZERO DUP1 ISZERO PUSH2 0x1D4F JUMPI RETURNDATASIZE PUSH1 0x0 DUP1 RETURNDATACOPY RETURNDATASIZE PUSH1 0x0 REVERT JUMPDEST POP POP POP POP PUSH1 0x0 JUMPDEST PUSH1 0xA DUP12 ADD SLOAD DUP2 LT ISZERO PUSH2 0x1DAD JUMPI PUSH2 0x1DA5 CALLER DUP12 DUP4 DUP2 MLOAD DUP2 LT PUSH2 0x1D72 JUMPI INVALID JUMPDEST PUSH1 0x20 MUL PUSH1 0x20 ADD ADD MLOAD DUP14 PUSH1 0xA ADD DUP5 DUP2 SLOAD DUP2 LT PUSH2 0x1D89 JUMPI INVALID JUMPDEST PUSH1 0x0 SWAP2 DUP3 MSTORE PUSH1 0x20 SWAP1 SWAP2 KECCAK256 ADD SLOAD PUSH1 0x1 PUSH1 0x1 PUSH1 0xA0 SHL SUB AND SWAP2 SWAP1 PUSH2 0x3643 JUMP JUMPDEST PUSH1 0x1 ADD PUSH2 0x1D56 JUMP JUMPDEST POP PUSH1 0x20 DUP7 ADD MLOAD CALLER SWAP1 PUSH32 0x3631C28B1F9DD213E0319FB167B554D76B6C283A41143EB400A0D1ADB1AF1755 SWAP1 DUP12 SWAP1 DUP6 SWAP1 PUSH2 0x1DE5 DUP11 DUP8 PUSH2 0x35E6 JUMP JUMPDEST PUSH1 0x40 MLOAD DUP1 DUP1 PUSH1 0x20 ADD DUP1 PUSH1 0x20 ADD DUP6 DUP2 MSTORE PUSH1 0x20 ADD DUP5 DUP2 MSTORE PUSH1 0x20 ADD DUP4 DUP2 SUB DUP4 MSTORE DUP8 DUP2 DUP2 MLOAD DUP2 MSTORE PUSH1 0x20 ADD SWAP2 POP DUP1 MLOAD SWAP1 PUSH1 0x20 ADD SWAP1 PUSH1 0x20 MUL DUP1 DUP4 DUP4 PUSH1 0x0 JUMPDEST DUP4 DUP2 LT ISZERO PUSH2 0x1E35 JUMPI DUP2 DUP2 ADD MLOAD DUP4 DUP3 ADD MSTORE PUSH1 0x20 ADD PUSH2 0x1E1D JUMP JUMPDEST POP POP POP POP SWAP1 POP ADD DUP4 DUP2 SUB DUP3 MSTORE DUP7 DUP2 DUP2 MLOAD DUP2 MSTORE PUSH1 0x20 ADD SWAP2 POP DUP1 MLOAD SWAP1 PUSH1 0x20 ADD SWAP1 PUSH1 0x20 MUL DUP1 DUP4 DUP4 PUSH1 0x0 JUMPDEST DUP4 DUP2 LT ISZERO PUSH2 0x1E74 JUMPI DUP2 DUP2 ADD MLOAD DUP4 DUP3 ADD MSTORE PUSH1 0x20 ADD PUSH2 0x1E5C JUMP JUMPDEST POP POP POP POP SWAP1 POP ADD SWAP7 POP POP POP POP POP POP POP PUSH1 0x40 MLOAD DUP1 SWAP2 SUB SWAP1 LOG2 SWAP10 SWAP9 POP POP POP POP POP POP POP POP POP JUMP JUMPDEST PUSH1 0x8 DUP3 ADD SLOAD PUSH1 0x1 PUSH1 0x1 PUSH1 0xA0 SHL SUB AND CALLER EQ PUSH2 0x1EE5 JUMPI PUSH1 0x40 DUP1 MLOAD PUSH3 0x461BCD PUSH1 0xE5 SHL DUP2 MSTORE PUSH1 0x20 PUSH1 0x4 DUP3 ADD MSTORE PUSH1 0x9 PUSH1 0x24 DUP3 ADD MSTORE PUSH9 0x6465763A207775743F PUSH1 0xB8 SHL PUSH1 0x44 DUP3 ADD MSTORE SWAP1 MLOAD SWAP1 DUP2 SWAP1 SUB PUSH1 0x64 ADD SWAP1 REVERT JUMPDEST CALLER PUSH2 0x1F29 JUMPI PUSH1 0x40 DUP1 MLOAD PUSH3 0x461BCD PUSH1 0xE5 SHL DUP2 MSTORE PUSH1 0x20 PUSH1 0x4 DUP3 ADD MSTORE PUSH1 0xF PUSH1 0x24 DUP3 ADD MSTORE PUSH15 0x696E76616C69642061646472657373 PUSH1 0x88 SHL PUSH1 0x44 DUP3 ADD MSTORE SWAP1 MLOAD SWAP1 DUP2 SWAP1 SUB PUSH1 0x64 ADD SWAP1 REVERT JUMPDEST PUSH1 0x8 SWAP2 SWAP1 SWAP2 ADD DUP1 SLOAD PUSH1 0x1 PUSH1 0x1 PUSH1 0xA0 SHL SUB NOT AND PUSH1 0x1 PUSH1 0x1 PUSH1 0xA0 SHL SUB SWAP1 SWAP3 AND SWAP2 SWAP1 SWAP2 OR SWAP1 SSTORE JUMP JUMPDEST PUSH4 0x5F5E100 DUP2 GT ISZERO PUSH2 0x1F99 JUMPI PUSH1 0x40 DUP1 MLOAD PUSH3 0x461BCD PUSH1 0xE5 SHL DUP2 MSTORE PUSH1 0x20 PUSH1 0x4 DUP3 ADD MSTORE PUSH1 0xF PUSH1 0x24 DUP3 ADD MSTORE PUSH15 0x8CCACA40D2E640E8DEDE40D0D2CED PUSH1 0x8B SHL PUSH1 0x44 DUP3 ADD MSTORE SWAP1 MLOAD SWAP1 DUP2 SWAP1 SUB PUSH1 0x64 ADD SWAP1 REVERT JUMPDEST PUSH1 0x4 DUP3 ADD DUP2 SWAP1 SSTORE PUSH1 0x40 DUP1 MLOAD DUP3 DUP2 MSTORE SWAP1 MLOAD PUSH32 0xD88EA5155021C6F8DAFA1A741E173F595CDF77CE7C17D43342131D7F06AFDFE5 SWAP2 DUP2 SWAP1 SUB PUSH1 0x20 ADD SWAP1 LOG1 POP POP JUMP JUMPDEST PUSH1 0x0 PUSH2 0x1FE5 DUP6 DUP6 DUP6 DUP6 PUSH2 0x3A8F JUMP JUMPDEST POP SWAP6 SWAP5 POP POP POP POP POP JUMP JUMPDEST PUSH1 0x2 DUP4 ADD SLOAD PUSH2 0x2001 SWAP1 PUSH3 0x15180 PUSH2 0x3695 JUMP JUMPDEST TIMESTAMP LT ISZERO PUSH2 0x2055 JUMPI PUSH1 0x40 DUP1 MLOAD PUSH3 0x461BCD PUSH1 0xE5 SHL DUP2 MSTORE PUSH1 0x20 PUSH1 0x4 DUP3 ADD MSTORE PUSH1 0x1F PUSH1 0x24 DUP3 ADD MSTORE PUSH32 0x57616974203120646179206265666F7265207374617274696E672072616D7000 PUSH1 0x44 DUP3 ADD MSTORE SWAP1 MLOAD SWAP1 DUP2 SWAP1 SUB PUSH1 0x64 ADD SWAP1 REVERT JUMPDEST PUSH2 0x2062 TIMESTAMP PUSH3 0x127500 PUSH2 0x3695 JUMP JUMPDEST DUP2 LT ISZERO PUSH2 0x20AF JUMPI PUSH1 0x40 DUP1 MLOAD PUSH3 0x461BCD PUSH1 0xE5 SHL DUP2 MSTORE PUSH1 0x20 PUSH1 0x4 DUP3 ADD MSTORE PUSH1 0x16 PUSH1 0x24 DUP3 ADD MSTORE PUSH22 0x496E73756666696369656E742072616D702074696D65 PUSH1 0x50 SHL PUSH1 0x44 DUP3 ADD MSTORE SWAP1 MLOAD SWAP1 DUP2 SWAP1 SUB PUSH1 0x64 ADD SWAP1 REVERT JUMPDEST PUSH1 0x0 DUP3 GT DUP1 ISZERO PUSH2 0x20C1 JUMPI POP PUSH3 0xF4240 DUP3 LT JUMPDEST PUSH2 0x2112 JUMPI PUSH1 0x40 DUP1 MLOAD PUSH3 0x461BCD PUSH1 0xE5 SHL DUP2 MSTORE PUSH1 0x20 PUSH1 0x4 DUP3 ADD DUP2 SWAP1 MSTORE PUSH1 0x24 DUP3 ADD MSTORE PUSH32 0x667574757265415F206D757374206265203E203020616E64203C204D41585F41 PUSH1 0x44 DUP3 ADD MSTORE SWAP1 MLOAD SWAP1 DUP2 SWAP1 SUB PUSH1 0x64 ADD SWAP1 REVERT JUMPDEST PUSH1 0x0 PUSH2 0x211D DUP5 PUSH2 0x3826 JUMP JUMPDEST SWAP1 POP PUSH1 0x0 PUSH2 0x212C DUP5 PUSH1 0x64 PUSH2 0x36EF JUMP JUMPDEST SWAP1 POP DUP2 DUP2 LT ISZERO PUSH2 0x2192 JUMPI DUP2 PUSH2 0x2142 DUP3 PUSH1 0x2 PUSH2 0x36EF JUMP JUMPDEST LT ISZERO PUSH2 0x218D JUMPI PUSH1 0x40 DUP1 MLOAD PUSH3 0x461BCD PUSH1 0xE5 SHL DUP2 MSTORE PUSH1 0x20 PUSH1 0x4 DUP3 ADD MSTORE PUSH1 0x15 PUSH1 0x24 DUP3 ADD MSTORE PUSH21 0x199D5D1D5C995057C81A5CC81D1BDBC81CDB585B1B PUSH1 0x5A SHL PUSH1 0x44 DUP3 ADD MSTORE SWAP1 MLOAD SWAP1 DUP2 SWAP1 SUB PUSH1 0x64 ADD SWAP1 REVERT JUMPDEST PUSH2 0x21E9 JUMP JUMPDEST PUSH2 0x219D DUP3 PUSH1 0x2 PUSH2 0x36EF JUMP JUMPDEST DUP2 GT ISZERO PUSH2 0x21E9 JUMPI PUSH1 0x40 DUP1 MLOAD PUSH3 0x461BCD PUSH1 0xE5 SHL DUP2 MSTORE PUSH1 0x20 PUSH1 0x4 DUP3 ADD MSTORE PUSH1 0x15 PUSH1 0x24 DUP3 ADD MSTORE PUSH21 0x667574757265415F20697320746F6F206C61726765 PUSH1 0x58 SHL PUSH1 0x44 DUP3 ADD MSTORE SWAP1 MLOAD SWAP1 DUP2 SWAP1 SUB PUSH1 0x64 ADD SWAP1 REVERT JUMPDEST DUP2 DUP6 SSTORE PUSH1 0x1 DUP6 ADD DUP2 SWAP1 SSTORE TIMESTAMP PUSH1 0x2 DUP7 ADD DUP2 SWAP1 SSTORE PUSH1 0x3 DUP7 ADD DUP5 SWAP1 SSTORE PUSH1 0x40 DUP1 MLOAD DUP5 DUP2 MSTORE PUSH1 0x20 DUP2 ADD DUP5 SWAP1 MSTORE DUP1 DUP3 ADD SWAP3 SWAP1 SWAP3 MSTORE PUSH1 0x60 DUP3 ADD DUP6 SWAP1 MSTORE MLOAD PUSH32 0xA2B71EC6DF949300B59AAB36B55E189697B750119DD349FCFA8C0F779E83C254 SWAP2 DUP2 SWAP1 SUB PUSH1 0x80 ADD SWAP1 LOG1 POP POP POP POP POP JUMP JUMPDEST PUSH1 0xA DUP6 ADD SLOAD PUSH1 0x0 SWAP1 DUP2 PUSH2 0x2262 DUP9 PUSH2 0x3826 JUMP JUMPDEST SWAP1 POP PUSH1 0x0 PUSH2 0x22CB PUSH2 0x22C5 DUP11 DUP12 PUSH1 0xC ADD DUP1 SLOAD DUP1 PUSH1 0x20 MUL PUSH1 0x20 ADD PUSH1 0x40 MLOAD SWAP1 DUP2 ADD PUSH1 0x40 MSTORE DUP1 SWAP3 SWAP2 SWAP1 DUP2 DUP2 MSTORE PUSH1 0x20 ADD DUP3 DUP1 SLOAD DUP1 ISZERO PUSH2 0x22BB JUMPI PUSH1 0x20 MUL DUP3 ADD SWAP2 SWAP1 PUSH1 0x0 MSTORE PUSH1 0x20 PUSH1 0x0 KECCAK256 SWAP1 JUMPDEST DUP2 SLOAD DUP2 MSTORE PUSH1 0x20 ADD SWAP1 PUSH1 0x1 ADD SWAP1 DUP1 DUP4 GT PUSH2 0x22A7 JUMPI JUMPDEST POP POP POP POP POP PUSH2 0x38BB JUMP JUMPDEST DUP4 PUSH2 0x2A57 JUMP JUMPDEST SWAP1 POP PUSH1 0x60 DUP10 PUSH1 0xC ADD DUP1 SLOAD DUP1 PUSH1 0x20 MUL PUSH1 0x20 ADD PUSH1 0x40 MLOAD SWAP1 DUP2 ADD PUSH1 0x40 MSTORE DUP1 SWAP3 SWAP2 SWAP1 DUP2 DUP2 MSTORE PUSH1 0x20 ADD DUP3 DUP1 SLOAD DUP1 ISZERO PUSH2 0x231D JUMPI PUSH1 0x20 MUL DUP3 ADD SWAP2 SWAP1 PUSH1 0x0 MSTORE PUSH1 0x20 PUSH1 0x0 KECCAK256 SWAP1 JUMPDEST DUP2 SLOAD DUP2 MSTORE PUSH1 0x20 ADD SWAP1 PUSH1 0x1 ADD SWAP1 DUP1 DUP4 GT PUSH2 0x2309 JUMPI JUMPDEST POP POP POP POP POP SWAP1 POP PUSH1 0x0 JUMPDEST DUP5 DUP2 LT ISZERO PUSH2 0x23E6 JUMPI DUP7 ISZERO PUSH2 0x238A JUMPI PUSH2 0x236D DUP10 DUP10 DUP4 DUP2 DUP2 LT PUSH2 0x2344 JUMPI INVALID JUMPDEST SWAP1 POP PUSH1 0x20 MUL ADD CALLDATALOAD DUP4 DUP4 DUP2 MLOAD DUP2 LT PUSH2 0x2357 JUMPI INVALID JUMPDEST PUSH1 0x20 MUL PUSH1 0x20 ADD ADD MLOAD PUSH2 0x3695 SWAP1 SWAP2 SWAP1 PUSH4 0xFFFFFFFF AND JUMP JUMPDEST DUP3 DUP3 DUP2 MLOAD DUP2 LT PUSH2 0x2379 JUMPI INVALID JUMPDEST PUSH1 0x20 MUL PUSH1 0x20 ADD ADD DUP2 DUP2 MSTORE POP POP PUSH2 0x23DE JUMP JUMPDEST PUSH2 0x23C5 DUP10 DUP10 DUP4 DUP2 DUP2 LT PUSH2 0x2399 JUMPI INVALID JUMPDEST SWAP1 POP PUSH1 0x20 MUL ADD CALLDATALOAD PUSH1 0x40 MLOAD DUP1 PUSH1 0x60 ADD PUSH1 0x40 MSTORE DUP1 PUSH1 0x23 DUP2 MSTORE PUSH1 0x20 ADD PUSH2 0x4B18 PUSH1 0x23 SWAP2 CODECOPY DUP5 DUP5 DUP2 MLOAD DUP2 LT PUSH2 0x199E JUMPI INVALID JUMPDEST DUP3 DUP3 DUP2 MLOAD DUP2 LT PUSH2 0x23D1 JUMPI INVALID JUMPDEST PUSH1 0x20 MUL PUSH1 0x20 ADD ADD DUP2 DUP2 MSTORE POP POP JUMPDEST PUSH1 0x1 ADD PUSH2 0x2327 JUMP JUMPDEST POP PUSH1 0x0 PUSH2 0x23FC PUSH2 0x23F6 DUP13 DUP5 PUSH2 0x38BB JUMP JUMPDEST DUP6 PUSH2 0x2A57 JUMP JUMPDEST SWAP1 POP PUSH1 0x0 DUP12 PUSH1 0x9 ADD PUSH1 0x0 SWAP1 SLOAD SWAP1 PUSH2 0x100 EXP SWAP1 DIV PUSH1 0x1 PUSH1 0x1 PUSH1 0xA0 SHL SUB AND PUSH1 0x1 PUSH1 0x1 PUSH1 0xA0 SHL SUB AND PUSH4 0x18160DDD PUSH1 0x40 MLOAD DUP2 PUSH4 0xFFFFFFFF AND PUSH1 0xE0 SHL DUP2 MSTORE PUSH1 0x4 ADD PUSH1 0x20 PUSH1 0x40 MLOAD DUP1 DUP4 SUB DUP2 DUP7 DUP1 EXTCODESIZE ISZERO DUP1 ISZERO PUSH2 0x2450 JUMPI PUSH1 0x0 DUP1 REVERT JUMPDEST POP GAS STATICCALL ISZERO DUP1 ISZERO PUSH2 0x2464 JUMPI RETURNDATASIZE PUSH1 0x0 DUP1 RETURNDATACOPY RETURNDATASIZE PUSH1 0x0 REVERT JUMPDEST POP POP POP POP PUSH1 0x40 MLOAD RETURNDATASIZE PUSH1 0x20 DUP2 LT ISZERO PUSH2 0x247A JUMPI PUSH1 0x0 DUP1 REVERT JUMPDEST POP MLOAD SWAP1 POP DUP8 ISZERO PUSH2 0x24A3 JUMPI PUSH2 0x2496 DUP5 PUSH2 0xC0D DUP4 PUSH2 0xC38 DUP7 DUP5 PUSH2 0x35E6 JUMP JUMPDEST SWAP7 POP POP POP POP POP POP POP PUSH2 0x24CA JUMP JUMPDEST PUSH2 0x2496 PUSH2 0x24B3 PUSH2 0x1C6F DUP15 DUP15 PUSH2 0x2CAE JUMP JUMPDEST PUSH2 0xC0D PUSH5 0x2540BE400 PUSH2 0xC38 DUP9 DUP4 DUP8 DUP4 DUP4 DUP12 PUSH2 0x35E6 JUMP JUMPDEST SWAP6 SWAP5 POP POP POP POP POP JUMP JUMPDEST PUSH5 0x2540BE400 DUP2 GT ISZERO PUSH2 0x251F JUMPI PUSH1 0x40 DUP1 MLOAD PUSH3 0x461BCD PUSH1 0xE5 SHL DUP2 MSTORE PUSH1 0x20 PUSH1 0x4 DUP3 ADD MSTORE PUSH1 0xF PUSH1 0x24 DUP3 ADD MSTORE PUSH15 0x8CCACA40D2E640E8DEDE40D0D2CED PUSH1 0x8B SHL PUSH1 0x44 DUP3 ADD MSTORE SWAP1 MLOAD SWAP1 DUP2 SWAP1 SUB PUSH1 0x64 ADD SWAP1 REVERT JUMPDEST PUSH1 0x5 DUP3 ADD DUP2 SWAP1 SSTORE PUSH1 0x40 DUP1 MLOAD DUP3 DUP2 MSTORE SWAP1 MLOAD PUSH32 0xAB599D640CA80CDE2B09B128A4154A8DFE608CB80F4C9399C8B954B01FD35F38 SWAP2 DUP2 SWAP1 SUB PUSH1 0x20 ADD SWAP1 LOG1 POP POP JUMP JUMPDEST PUSH1 0x0 DUP1 PUSH2 0x257A PUSH2 0x256C DUP5 PUSH2 0x394A JUMP JUMPDEST PUSH2 0x2575 DUP6 PUSH2 0x3826 JUMP JUMPDEST PUSH2 0x2A57 JUMP JUMPDEST SWAP1 POP PUSH1 0x0 DUP4 PUSH1 0x9 ADD PUSH1 0x0 SWAP1 SLOAD SWAP1 PUSH2 0x100 EXP SWAP1 DIV PUSH1 0x1 PUSH1 0x1 PUSH1 0xA0 SHL SUB AND PUSH1 0x1 PUSH1 0x1 PUSH1 0xA0 SHL SUB AND PUSH4 0x18160DDD PUSH1 0x40 MLOAD DUP2 PUSH4 0xFFFFFFFF AND PUSH1 0xE0 SHL DUP2 MSTORE PUSH1 0x4 ADD PUSH1 0x20 PUSH1 0x40 MLOAD DUP1 DUP4 SUB DUP2 DUP7 DUP1 EXTCODESIZE ISZERO DUP1 ISZERO PUSH2 0x25CE JUMPI PUSH1 0x0 DUP1 REVERT JUMPDEST POP GAS STATICCALL ISZERO DUP1 ISZERO PUSH2 0x25E2 JUMPI RETURNDATASIZE PUSH1 0x0 DUP1 RETURNDATACOPY RETURNDATASIZE PUSH1 0x0 REVERT JUMPDEST POP POP POP POP PUSH1 0x40 MLOAD RETURNDATASIZE PUSH1 0x20 DUP2 LT ISZERO PUSH2 0x25F8 JUMPI PUSH1 0x0 DUP1 REVERT JUMPDEST POP MLOAD SWAP1 POP DUP1 ISZERO PUSH2 0x269B JUMPI PUSH2 0x2692 DUP2 PUSH2 0xC0D DUP7 PUSH1 0x9 ADD PUSH1 0x0 SWAP1 SLOAD SWAP1 PUSH2 0x100 EXP SWAP1 DIV PUSH1 0x1 PUSH1 0x1 PUSH1 0xA0 SHL SUB AND PUSH1 0x1 PUSH1 0x1 PUSH1 0xA0 SHL SUB AND PUSH4 0x313CE567 PUSH1 0x40 MLOAD DUP2 PUSH4 0xFFFFFFFF AND PUSH1 0xE0 SHL DUP2 MSTORE PUSH1 0x4 ADD PUSH1 0x20 PUSH1 0x40 MLOAD DUP1 DUP4 SUB DUP2 DUP7 DUP1 EXTCODESIZE ISZERO DUP1 ISZERO PUSH2 0x2659 JUMPI PUSH1 0x0 DUP1 REVERT JUMPDEST POP GAS STATICCALL ISZERO DUP1 ISZERO PUSH2 0x266D JUMPI RETURNDATASIZE PUSH1 0x0 DUP1 RETURNDATACOPY RETURNDATASIZE PUSH1 0x0 REVERT JUMPDEST POP POP POP POP PUSH1 0x40 MLOAD RETURNDATASIZE PUSH1 0x20 DUP2 LT ISZERO PUSH2 0x2683 JUMPI PUSH1 0x0 DUP1 REVERT JUMPDEST POP MLOAD DUP6 SWAP1 PUSH1 0xFF AND PUSH1 0xA EXP PUSH2 0x36EF JUMP JUMPDEST SWAP3 POP POP POP PUSH2 0x26A2 JUMP JUMPDEST PUSH1 0x0 SWAP3 POP POP POP JUMPDEST SWAP2 SWAP1 POP JUMP JUMPDEST PUSH1 0x9 DUP5 ADD SLOAD PUSH1 0x40 DUP1 MLOAD PUSH4 0x70A08231 PUSH1 0xE0 SHL DUP2 MSTORE CALLER PUSH1 0x4 DUP3 ADD MSTORE SWAP1 MLOAD PUSH1 0x60 SWAP3 PUSH1 0x1 PUSH1 0x1 PUSH1 0xA0 SHL SUB AND SWAP2 PUSH4 0x70A08231 SWAP2 PUSH1 0x24 DUP1 DUP4 ADD SWAP3 PUSH1 0x20 SWAP3 SWAP2 SWAP1 DUP3 SWAP1 SUB ADD DUP2 DUP7 DUP1 EXTCODESIZE ISZERO DUP1 ISZERO PUSH2 0x26F4 JUMPI PUSH1 0x0 DUP1 REVERT JUMPDEST POP GAS STATICCALL ISZERO DUP1 ISZERO PUSH2 0x2708 JUMPI RETURNDATASIZE PUSH1 0x0 DUP1 RETURNDATACOPY RETURNDATASIZE PUSH1 0x0 REVERT JUMPDEST POP POP POP POP PUSH1 0x40 MLOAD RETURNDATASIZE PUSH1 0x20 DUP2 LT ISZERO PUSH2 0x271E JUMPI PUSH1 0x0 DUP1 REVERT JUMPDEST POP MLOAD DUP5 GT ISZERO PUSH2 0x2764 JUMPI PUSH1 0x40 DUP1 MLOAD PUSH3 0x461BCD PUSH1 0xE5 SHL DUP2 MSTORE PUSH1 0x20 PUSH1 0x4 DUP3 ADD MSTORE PUSH1 0xD PUSH1 0x24 DUP3 ADD MSTORE PUSH13 0x1F2628173130B630B731B2A7B3 PUSH1 0x99 SHL PUSH1 0x44 DUP3 ADD MSTORE SWAP1 MLOAD SWAP1 DUP2 SWAP1 SUB PUSH1 0x64 ADD SWAP1 REVERT JUMPDEST PUSH1 0xA DUP6 ADD SLOAD DUP3 EQ PUSH2 0x27BC JUMPI PUSH1 0x40 DUP1 MLOAD PUSH3 0x461BCD PUSH1 0xE5 SHL DUP2 MSTORE PUSH1 0x20 PUSH1 0x4 DUP3 ADD DUP2 SWAP1 MSTORE PUSH1 0x24 DUP3 ADD MSTORE PUSH32 0x6D696E416D6F756E7473206D757374206D6174636820706F6F6C546F6B656E73 PUSH1 0x44 DUP3 ADD MSTORE SWAP1 MLOAD SWAP1 DUP2 SWAP1 SUB PUSH1 0x64 ADD SWAP1 REVERT JUMPDEST PUSH1 0x60 PUSH2 0x27C9 DUP7 CALLER DUP8 PUSH2 0x3BD4 JUMP JUMPDEST SWAP1 POP PUSH1 0x0 JUMPDEST DUP2 MLOAD DUP2 LT ISZERO PUSH2 0x28DC JUMPI DUP5 DUP5 DUP3 DUP2 DUP2 LT PUSH2 0x27E3 JUMPI INVALID JUMPDEST SWAP1 POP PUSH1 0x20 MUL ADD CALLDATALOAD DUP3 DUP3 DUP2 MLOAD DUP2 LT PUSH2 0x27F6 JUMPI INVALID JUMPDEST PUSH1 0x20 MUL PUSH1 0x20 ADD ADD MLOAD LT ISZERO PUSH2 0x2851 JUMPI PUSH1 0x40 DUP1 MLOAD PUSH3 0x461BCD PUSH1 0xE5 SHL DUP2 MSTORE PUSH1 0x20 PUSH1 0x4 DUP3 ADD MSTORE PUSH1 0x1A PUSH1 0x24 DUP3 ADD MSTORE PUSH32 0x616D6F756E74735B695D203C206D696E416D6F756E74735B695D000000000000 PUSH1 0x44 DUP3 ADD MSTORE SWAP1 MLOAD SWAP1 DUP2 SWAP1 SUB PUSH1 0x64 ADD SWAP1 REVERT JUMPDEST PUSH2 0x2890 DUP3 DUP3 DUP2 MLOAD DUP2 LT PUSH2 0x2860 JUMPI INVALID JUMPDEST PUSH1 0x20 MUL PUSH1 0x20 ADD ADD MLOAD DUP9 PUSH1 0xC ADD DUP4 DUP2 SLOAD DUP2 LT PUSH2 0x2877 JUMPI INVALID JUMPDEST SWAP1 PUSH1 0x0 MSTORE PUSH1 0x20 PUSH1 0x0 KECCAK256 ADD SLOAD PUSH2 0x35E6 SWAP1 SWAP2 SWAP1 PUSH4 0xFFFFFFFF AND JUMP JUMPDEST DUP8 PUSH1 0xC ADD DUP3 DUP2 SLOAD DUP2 LT PUSH2 0x289F JUMPI INVALID JUMPDEST SWAP1 PUSH1 0x0 MSTORE PUSH1 0x20 PUSH1 0x0 KECCAK256 ADD DUP2 SWAP1 SSTORE POP PUSH2 0x28D4 CALLER DUP4 DUP4 DUP2 MLOAD DUP2 LT PUSH2 0x28BD JUMPI INVALID JUMPDEST PUSH1 0x20 MUL PUSH1 0x20 ADD ADD MLOAD DUP10 PUSH1 0xA ADD DUP5 DUP2 SLOAD DUP2 LT PUSH2 0x1D89 JUMPI INVALID JUMPDEST PUSH1 0x1 ADD PUSH2 0x27CE JUMP JUMPDEST POP PUSH1 0x9 DUP7 ADD SLOAD PUSH1 0x40 DUP1 MLOAD PUSH4 0x79CC679 PUSH1 0xE4 SHL DUP2 MSTORE CALLER PUSH1 0x4 DUP3 ADD MSTORE PUSH1 0x24 DUP2 ADD DUP9 SWAP1 MSTORE SWAP1 MLOAD PUSH1 0x1 PUSH1 0x1 PUSH1 0xA0 SHL SUB SWAP1 SWAP3 AND SWAP2 PUSH4 0x79CC6790 SWAP2 PUSH1 0x44 DUP1 DUP3 ADD SWAP3 PUSH1 0x0 SWAP3 SWAP1 SWAP2 SWAP1 DUP3 SWAP1 SUB ADD DUP2 DUP4 DUP8 DUP1 EXTCODESIZE ISZERO DUP1 ISZERO PUSH2 0x2932 JUMPI PUSH1 0x0 DUP1 REVERT JUMPDEST POP GAS CALL ISZERO DUP1 ISZERO PUSH2 0x2946 JUMPI RETURNDATASIZE PUSH1 0x0 DUP1 RETURNDATACOPY RETURNDATASIZE PUSH1 0x0 REVERT JUMPDEST POP POP POP POP CALLER PUSH1 0x1 PUSH1 0x1 PUSH1 0xA0 SHL SUB AND PUSH32 0x88D38ED598FDD809C2BF01EE49CD24B7FDABF379A83D29567952B60324D58CEF DUP3 DUP9 PUSH1 0x9 ADD PUSH1 0x0 SWAP1 SLOAD SWAP1 PUSH2 0x100 EXP SWAP1 DIV PUSH1 0x1 PUSH1 0x1 PUSH1 0xA0 SHL SUB AND PUSH1 0x1 PUSH1 0x1 PUSH1 0xA0 SHL SUB AND PUSH4 0x18160DDD PUSH1 0x40 MLOAD DUP2 PUSH4 0xFFFFFFFF AND PUSH1 0xE0 SHL DUP2 MSTORE PUSH1 0x4 ADD PUSH1 0x20 PUSH1 0x40 MLOAD DUP1 DUP4 SUB DUP2 DUP7 DUP1 EXTCODESIZE ISZERO DUP1 ISZERO PUSH2 0x29C6 JUMPI PUSH1 0x0 DUP1 REVERT JUMPDEST POP GAS STATICCALL ISZERO DUP1 ISZERO PUSH2 0x29DA JUMPI RETURNDATASIZE PUSH1 0x0 DUP1 RETURNDATACOPY RETURNDATASIZE PUSH1 0x0 REVERT JUMPDEST POP POP POP POP PUSH1 0x40 MLOAD RETURNDATASIZE PUSH1 0x20 DUP2 LT ISZERO PUSH2 0x29F0 JUMPI PUSH1 0x0 DUP1 REVERT JUMPDEST POP MLOAD PUSH1 0x40 DUP1 MLOAD PUSH1 0x20 DUP2 DUP2 ADD DUP5 SWAP1 MSTORE DUP3 DUP3 MSTORE DUP5 MLOAD SWAP3 DUP3 ADD SWAP3 SWAP1 SWAP3 MSTORE DUP4 MLOAD SWAP1 SWAP2 DUP3 SWAP2 PUSH1 0x60 DUP4 ADD SWAP2 DUP7 DUP2 ADD SWAP2 MUL DUP1 DUP4 DUP4 PUSH1 0x0 JUMPDEST DUP4 DUP2 LT ISZERO PUSH2 0x2A38 JUMPI DUP2 DUP2 ADD MLOAD DUP4 DUP3 ADD MSTORE PUSH1 0x20 ADD PUSH2 0x2A20 JUMP JUMPDEST POP POP POP POP SWAP1 POP ADD SWAP4 POP POP POP POP PUSH1 0x40 MLOAD DUP1 SWAP2 SUB SWAP1 LOG2 SWAP1 POP JUMPDEST SWAP5 SWAP4 POP POP POP POP JUMP JUMPDEST DUP2 MLOAD PUSH1 0x0 SWAP1 DUP2 DUP1 JUMPDEST DUP3 DUP2 LT ISZERO PUSH2 0x2A80 JUMPI PUSH2 0x2A76 DUP7 DUP3 DUP2 MLOAD DUP2 LT PUSH2 0xB7F JUMPI INVALID JUMPDEST SWAP2 POP PUSH1 0x1 ADD PUSH2 0x2A5F JUMP JUMPDEST POP DUP1 PUSH2 0x2A91 JUMPI PUSH1 0x0 SWAP3 POP POP POP PUSH2 0x2B9D JUMP JUMPDEST PUSH1 0x0 DUP2 DUP2 PUSH2 0x2A9F DUP8 DUP7 PUSH2 0x36EF JUMP JUMPDEST SWAP1 POP PUSH1 0x0 JUMPDEST PUSH2 0x100 DUP2 LT ISZERO PUSH2 0x2B96 JUMPI DUP3 PUSH1 0x0 JUMPDEST DUP8 DUP2 LT ISZERO PUSH2 0x2AD7 JUMPI PUSH2 0x2ACD PUSH2 0xC03 DUP10 DUP14 DUP5 DUP2 MLOAD DUP2 LT PUSH2 0xBED JUMPI INVALID JUMPDEST SWAP2 POP PUSH1 0x1 ADD PUSH2 0x2AB2 JUMP JUMPDEST POP SWAP3 SWAP4 POP DUP4 SWAP3 PUSH2 0x2AF2 PUSH2 0xC57 PUSH2 0xC3E DUP4 PUSH2 0xC38 DUP12 PUSH1 0x1 PUSH2 0x3695 JUMP JUMPDEST SWAP4 POP DUP4 PUSH20 0x0 PUSH4 0x13A1EC75 SWAP1 SWAP2 DUP8 PUSH1 0x40 MLOAD DUP4 PUSH4 0xFFFFFFFF AND PUSH1 0xE0 SHL DUP2 MSTORE PUSH1 0x4 ADD DUP1 DUP4 DUP2 MSTORE PUSH1 0x20 ADD DUP3 DUP2 MSTORE PUSH1 0x20 ADD SWAP3 POP POP POP PUSH1 0x20 PUSH1 0x40 MLOAD DUP1 DUP4 SUB DUP2 DUP7 DUP1 EXTCODESIZE ISZERO DUP1 ISZERO PUSH2 0x2B4D JUMPI PUSH1 0x0 DUP1 REVERT JUMPDEST POP GAS DELEGATECALL ISZERO DUP1 ISZERO PUSH2 0x2B61 JUMPI RETURNDATASIZE PUSH1 0x0 DUP1 RETURNDATACOPY RETURNDATASIZE PUSH1 0x0 REVERT JUMPDEST POP POP POP POP PUSH1 0x40 MLOAD RETURNDATASIZE PUSH1 0x20 DUP2 LT ISZERO PUSH2 0x2B77 JUMPI PUSH1 0x0 DUP1 REVERT JUMPDEST POP MLOAD ISZERO PUSH2 0x2B8D JUMPI DUP4 SWAP8 POP POP POP POP POP POP POP POP PUSH2 0x2B9D JUMP JUMPDEST POP PUSH1 0x1 ADD PUSH2 0x2AA4 JUMP JUMPDEST POP POP POP POP POP POP JUMPDEST SWAP3 SWAP2 POP POP JUMP JUMPDEST PUSH1 0xA DUP3 ADD SLOAD PUSH1 0x0 SWAP1 DUP3 LT PUSH2 0x2BF9 JUMPI PUSH1 0x40 DUP1 MLOAD PUSH3 0x461BCD PUSH1 0xE5 SHL DUP2 MSTORE PUSH1 0x20 PUSH1 0x4 DUP3 ADD MSTORE PUSH1 0x18 PUSH1 0x24 DUP3 ADD MSTORE PUSH24 0x546F6B656E20696E646578206F7574206F662072616E6765 PUSH1 0x40 SHL PUSH1 0x44 DUP3 ADD MSTORE SWAP1 MLOAD SWAP1 DUP2 SWAP1 SUB PUSH1 0x64 ADD SWAP1 REVERT JUMPDEST PUSH2 0xD5F DUP4 PUSH1 0xC ADD DUP4 DUP2 SLOAD DUP2 LT PUSH2 0x2C0B JUMPI INVALID JUMPDEST SWAP1 PUSH1 0x0 MSTORE PUSH1 0x20 PUSH1 0x0 KECCAK256 ADD SLOAD DUP5 PUSH1 0xA ADD DUP5 DUP2 SLOAD DUP2 LT PUSH2 0x10B6 JUMPI INVALID JUMPDEST PUSH4 0x5F5E100 DUP2 GT ISZERO PUSH2 0x2C70 JUMPI PUSH1 0x40 DUP1 MLOAD PUSH3 0x461BCD PUSH1 0xE5 SHL DUP2 MSTORE PUSH1 0x20 PUSH1 0x4 DUP3 ADD MSTORE PUSH1 0xF PUSH1 0x24 DUP3 ADD MSTORE PUSH15 0x8CCACA40D2E640E8DEDE40D0D2CED PUSH1 0x8B SHL PUSH1 0x44 DUP3 ADD MSTORE SWAP1 MLOAD SWAP1 DUP2 SWAP1 SUB PUSH1 0x64 ADD SWAP1 REVERT JUMPDEST PUSH1 0x7 DUP3 ADD DUP2 SWAP1 SSTORE PUSH1 0x40 DUP1 MLOAD DUP3 DUP2 MSTORE SWAP1 MLOAD PUSH32 0xD5FE46099FA396290A7F57E36C3C3C8774E2562C18ED5D1DCC0FA75071E03F1D SWAP2 DUP2 SWAP1 SUB PUSH1 0x20 ADD SWAP1 LOG1 POP POP JUMP JUMPDEST PUSH1 0x1 PUSH1 0x1 PUSH1 0xA0 SHL SUB DUP2 AND PUSH1 0x0 SWAP1 DUP2 MSTORE PUSH1 0xD DUP4 ADD PUSH1 0x20 MSTORE PUSH1 0x40 DUP2 KECCAK256 SLOAD DUP2 SWAP1 PUSH2 0x2CD8 SWAP1 PUSH3 0x24EA00 PUSH2 0x3695 JUMP JUMPDEST SWAP1 POP TIMESTAMP DUP2 GT ISZERO PUSH2 0x2D4B JUMPI PUSH1 0x0 PUSH2 0x2CEE DUP3 TIMESTAMP PUSH2 0x35E6 JUMP JUMPDEST SWAP1 POP PUSH2 0x2D42 PUSH5 0x2540BE400 PUSH2 0xC0D PUSH3 0x24EA00 PUSH2 0xC0D DUP6 PUSH2 0xC38 DUP12 PUSH1 0xE ADD PUSH1 0x0 DUP13 PUSH1 0x1 PUSH1 0x1 PUSH1 0xA0 SHL SUB AND PUSH1 0x1 PUSH1 0x1 PUSH1 0xA0 SHL SUB AND DUP2 MSTORE PUSH1 0x20 ADD SWAP1 DUP2 MSTORE PUSH1 0x20 ADD PUSH1 0x0 KECCAK256 SLOAD DUP13 PUSH1 0x7 ADD SLOAD PUSH2 0x36EF SWAP1 SWAP2 SWAP1 PUSH4 0xFFFFFFFF AND JUMP JUMPDEST SWAP3 POP POP POP PUSH2 0x2B9D JUMP JUMPDEST POP PUSH1 0x0 SWAP4 SWAP3 POP POP POP JUMP JUMPDEST PUSH1 0x0 DUP6 PUSH1 0xA ADD DUP6 PUSH1 0xFF AND DUP2 SLOAD DUP2 LT PUSH2 0x2D69 JUMPI INVALID JUMPDEST PUSH1 0x0 SWAP2 DUP3 MSTORE PUSH1 0x20 SWAP2 DUP3 SWAP1 KECCAK256 ADD SLOAD PUSH1 0x40 DUP1 MLOAD PUSH4 0x70A08231 PUSH1 0xE0 SHL DUP2 MSTORE CALLER PUSH1 0x4 DUP3 ADD MSTORE SWAP1 MLOAD PUSH1 0x1 PUSH1 0x1 PUSH1 0xA0 SHL SUB SWAP1 SWAP3 AND SWAP3 PUSH4 0x70A08231 SWAP3 PUSH1 0x24 DUP1 DUP5 ADD SWAP4 DUP3 SWAP1 SUB ADD DUP2 DUP7 DUP1 EXTCODESIZE ISZERO DUP1 ISZERO PUSH2 0x2DB8 JUMPI PUSH1 0x0 DUP1 REVERT JUMPDEST POP GAS STATICCALL ISZERO DUP1 ISZERO PUSH2 0x2DCC JUMPI RETURNDATASIZE PUSH1 0x0 DUP1 RETURNDATACOPY RETURNDATASIZE PUSH1 0x0 REVERT JUMPDEST POP POP POP POP PUSH1 0x40 MLOAD RETURNDATASIZE PUSH1 0x20 DUP2 LT ISZERO PUSH2 0x2DE2 JUMPI PUSH1 0x0 DUP1 REVERT JUMPDEST POP MLOAD DUP4 GT ISZERO PUSH2 0x2E38 JUMPI PUSH1 0x40 DUP1 MLOAD PUSH3 0x461BCD PUSH1 0xE5 SHL DUP2 MSTORE PUSH1 0x20 PUSH1 0x4 DUP3 ADD MSTORE PUSH1 0x1D PUSH1 0x24 DUP3 ADD MSTORE PUSH32 0x43616E6E6F742073776170206D6F7265207468616E20796F75206F776E000000 PUSH1 0x44 DUP3 ADD MSTORE SWAP1 MLOAD SWAP1 DUP2 SWAP1 SUB PUSH1 0x64 ADD SWAP1 REVERT JUMPDEST PUSH1 0x0 DUP7 PUSH1 0xA ADD DUP7 PUSH1 0xFF AND DUP2 SLOAD DUP2 LT PUSH2 0x2E4C JUMPI INVALID JUMPDEST PUSH1 0x0 SWAP2 DUP3 MSTORE PUSH1 0x20 SWAP2 DUP3 SWAP1 KECCAK256 ADD SLOAD PUSH1 0x40 DUP1 MLOAD PUSH4 0x70A08231 PUSH1 0xE0 SHL DUP2 MSTORE ADDRESS PUSH1 0x4 DUP3 ADD MSTORE SWAP1 MLOAD PUSH1 0x1 PUSH1 0x1 PUSH1 0xA0 SHL SUB SWAP1 SWAP3 AND SWAP3 PUSH4 0x70A08231 SWAP3 PUSH1 0x24 DUP1 DUP5 ADD SWAP4 DUP3 SWAP1 SUB ADD DUP2 DUP7 DUP1 EXTCODESIZE ISZERO DUP1 ISZERO PUSH2 0x2E9B JUMPI PUSH1 0x0 DUP1 REVERT JUMPDEST POP GAS STATICCALL ISZERO DUP1 ISZERO PUSH2 0x2EAF JUMPI RETURNDATASIZE PUSH1 0x0 DUP1 RETURNDATACOPY RETURNDATASIZE PUSH1 0x0 REVERT JUMPDEST POP POP POP POP PUSH1 0x40 MLOAD RETURNDATASIZE PUSH1 0x20 DUP2 LT ISZERO PUSH2 0x2EC5 JUMPI PUSH1 0x0 DUP1 REVERT JUMPDEST POP MLOAD PUSH1 0xA DUP9 ADD DUP1 SLOAD SWAP2 SWAP3 POP PUSH2 0x2EE8 SWAP2 CALLER SWAP2 ADDRESS SWAP2 DUP9 SWAP2 SWAP1 PUSH1 0xFF DUP13 AND SWAP1 DUP2 LT PUSH2 0x1086 JUMPI INVALID JUMPDEST PUSH1 0x0 PUSH2 0x2F00 DUP3 DUP10 PUSH1 0xA ADD DUP10 PUSH1 0xFF AND DUP2 SLOAD DUP2 LT PUSH2 0x10B6 JUMPI INVALID JUMPDEST SWAP1 POP PUSH1 0x0 DUP1 PUSH2 0x2F11 DUP11 DUP11 DUP11 DUP7 PUSH2 0x3A8F JUMP JUMPDEST SWAP2 POP SWAP2 POP DUP6 DUP3 LT ISZERO PUSH2 0x2F6A JUMPI PUSH1 0x40 DUP1 MLOAD PUSH3 0x461BCD PUSH1 0xE5 SHL DUP2 MSTORE PUSH1 0x20 PUSH1 0x4 DUP3 ADD DUP2 SWAP1 MSTORE PUSH1 0x24 DUP3 ADD MSTORE PUSH32 0x53776170206469646E277420726573756C7420696E206D696E20746F6B656E73 PUSH1 0x44 DUP3 ADD MSTORE SWAP1 MLOAD SWAP1 DUP2 SWAP1 SUB PUSH1 0x64 ADD SWAP1 REVERT JUMPDEST PUSH1 0x0 PUSH2 0x2FAC DUP12 PUSH1 0xB ADD DUP11 PUSH1 0xFF AND DUP2 SLOAD DUP2 LT PUSH2 0x2F81 JUMPI INVALID JUMPDEST SWAP1 PUSH1 0x0 MSTORE PUSH1 0x20 PUSH1 0x0 KECCAK256 ADD SLOAD PUSH2 0xC0D PUSH5 0x2540BE400 PUSH2 0xC0D DUP16 PUSH1 0x5 ADD SLOAD DUP8 PUSH2 0x36EF SWAP1 SWAP2 SWAP1 PUSH4 0xFFFFFFFF AND JUMP JUMPDEST SWAP1 POP PUSH2 0x2FC4 DUP5 DUP13 PUSH1 0xC ADD DUP13 PUSH1 0xFF AND DUP2 SLOAD DUP2 LT PUSH2 0x1145 JUMPI INVALID JUMPDEST DUP12 PUSH1 0xC ADD DUP12 PUSH1 0xFF AND DUP2 SLOAD DUP2 LT PUSH2 0x2FD6 JUMPI INVALID JUMPDEST SWAP1 PUSH1 0x0 MSTORE PUSH1 0x20 PUSH1 0x0 KECCAK256 ADD DUP2 SWAP1 SSTORE POP PUSH2 0x3004 DUP2 PUSH2 0x2FFE DUP6 DUP15 PUSH1 0xC ADD DUP14 PUSH1 0xFF AND DUP2 SLOAD DUP2 LT PUSH2 0x2877 JUMPI INVALID JUMPDEST SWAP1 PUSH2 0x35E6 JUMP JUMPDEST DUP12 PUSH1 0xC ADD DUP11 PUSH1 0xFF AND DUP2 SLOAD DUP2 LT PUSH2 0x3016 JUMPI INVALID JUMPDEST SWAP1 PUSH1 0x0 MSTORE PUSH1 0x20 PUSH1 0x0 KECCAK256 ADD DUP2 SWAP1 SSTORE POP PUSH2 0x303B CALLER DUP5 DUP14 PUSH1 0xA ADD DUP13 PUSH1 0xFF AND DUP2 SLOAD DUP2 LT PUSH2 0x1D89 JUMPI INVALID JUMPDEST PUSH1 0x40 DUP1 MLOAD DUP6 DUP2 MSTORE PUSH1 0x20 DUP2 ADD DUP6 SWAP1 MSTORE PUSH1 0xFF DUP1 DUP14 AND DUP3 DUP5 ADD MSTORE DUP12 AND PUSH1 0x60 DUP3 ADD MSTORE SWAP1 MLOAD CALLER SWAP2 PUSH32 0xC6C1E0630DBE9130CC068028486C0D118DDCEA348550819DEFD5CB8C257F8A38 SWAP2 SWAP1 DUP2 SWAP1 SUB PUSH1 0x80 ADD SWAP1 LOG2 POP SWAP1 SWAP10 SWAP9 POP POP POP POP POP POP POP POP POP JUMP JUMPDEST PUSH4 0x5F5E100 DUP2 JUMP JUMPDEST PUSH1 0x0 PUSH2 0x2B9D DUP3 PUSH2 0x3D84 JUMP JUMPDEST PUSH1 0x0 PUSH2 0x2B9D DUP3 PUSH2 0x3826 JUMP JUMPDEST PUSH1 0x64 DUP2 JUMP JUMPDEST PUSH4 0x5F5E100 DUP2 GT ISZERO PUSH2 0x3105 JUMPI PUSH1 0x40 DUP1 MLOAD PUSH3 0x461BCD PUSH1 0xE5 SHL DUP2 MSTORE PUSH1 0x20 PUSH1 0x4 DUP3 ADD MSTORE PUSH1 0xF PUSH1 0x24 DUP3 ADD MSTORE PUSH15 0x8CCACA40D2E640E8DEDE40D0D2CED PUSH1 0x8B SHL PUSH1 0x44 DUP3 ADD MSTORE SWAP1 MLOAD SWAP1 DUP2 SWAP1 SUB PUSH1 0x64 ADD SWAP1 REVERT JUMPDEST PUSH1 0x6 DUP3 ADD DUP2 SWAP1 SSTORE PUSH1 0x40 DUP1 MLOAD DUP3 DUP2 MSTORE SWAP1 MLOAD PUSH32 0x5237B692334926D9AB50F9D1AC513FE7E153F0CD81DD7C55A09D281D2985D808 SWAP2 DUP2 SWAP1 SUB PUSH1 0x20 ADD SWAP1 LOG1 POP POP JUMP JUMPDEST PUSH1 0x0 DUP1 PUSH1 0x0 DUP1 PUSH2 0x3154 DUP9 DUP7 DUP9 PUSH2 0x3D94 JUMP JUMPDEST DUP1 SWAP3 POP DUP2 SWAP4 POP POP POP PUSH1 0x0 PUSH2 0x319D DUP4 PUSH2 0x2FFE DUP12 PUSH1 0xB ADD DUP10 PUSH1 0xFF AND DUP2 SLOAD DUP2 LT PUSH2 0x3177 JUMPI INVALID JUMPDEST SWAP1 PUSH1 0x0 MSTORE PUSH1 0x20 PUSH1 0x0 KECCAK256 ADD SLOAD PUSH2 0xC0D DUP7 PUSH2 0x318F DUP16 PUSH2 0x394A JUMP JUMPDEST DUP13 PUSH1 0xFF AND DUP2 MLOAD DUP2 LT PUSH2 0x1349 JUMPI INVALID JUMPDEST SWAP1 POP PUSH2 0x31BF PUSH5 0x2540BE400 PUSH2 0xC0D PUSH2 0x31B8 PUSH2 0x1C6F DUP14 DUP14 PUSH2 0x2CAE JUMP JUMPDEST DUP7 SWAP1 PUSH2 0x36EF JUMP JUMPDEST SWAP10 SWAP1 SWAP9 POP SWAP7 POP POP POP POP POP POP POP JUMP JUMPDEST PUSH1 0x0 DUP1 DUP6 PUSH1 0x9 ADD PUSH1 0x0 SWAP1 SLOAD SWAP1 PUSH2 0x100 EXP SWAP1 DIV PUSH1 0x1 PUSH1 0x1 PUSH1 0xA0 SHL SUB AND PUSH1 0x1 PUSH1 0x1 PUSH1 0xA0 SHL SUB AND PUSH4 0x18160DDD PUSH1 0x40 MLOAD DUP2 PUSH4 0xFFFFFFFF AND PUSH1 0xE0 SHL DUP2 MSTORE PUSH1 0x4 ADD PUSH1 0x20 PUSH1 0x40 MLOAD DUP1 DUP4 SUB DUP2 DUP7 DUP1 EXTCODESIZE ISZERO DUP1 ISZERO PUSH2 0x3220 JUMPI PUSH1 0x0 DUP1 REVERT JUMPDEST POP GAS STATICCALL ISZERO DUP1 ISZERO PUSH2 0x3234 JUMPI RETURNDATASIZE PUSH1 0x0 DUP1 RETURNDATACOPY RETURNDATASIZE PUSH1 0x0 REVERT JUMPDEST POP POP POP POP PUSH1 0x40 MLOAD RETURNDATASIZE PUSH1 0x20 DUP2 LT ISZERO PUSH2 0x324A JUMPI PUSH1 0x0 DUP1 REVERT JUMPDEST POP MLOAD PUSH1 0xA DUP8 ADD SLOAD PUSH1 0x9 DUP9 ADD SLOAD PUSH1 0x40 DUP1 MLOAD PUSH4 0x70A08231 PUSH1 0xE0 SHL DUP2 MSTORE CALLER PUSH1 0x4 DUP3 ADD MSTORE SWAP1 MLOAD SWAP4 SWAP5 POP SWAP2 SWAP3 PUSH1 0x1 PUSH1 0x1 PUSH1 0xA0 SHL SUB SWAP1 SWAP2 AND SWAP2 PUSH4 0x70A08231 SWAP2 PUSH1 0x24 DUP1 DUP4 ADD SWAP3 PUSH1 0x20 SWAP3 SWAP2 SWAP1 DUP3 SWAP1 SUB ADD DUP2 DUP7 DUP1 EXTCODESIZE ISZERO DUP1 ISZERO PUSH2 0x32A2 JUMPI PUSH1 0x0 DUP1 REVERT JUMPDEST POP GAS STATICCALL ISZERO DUP1 ISZERO PUSH2 0x32B6 JUMPI RETURNDATASIZE PUSH1 0x0 DUP1 RETURNDATACOPY RETURNDATASIZE PUSH1 0x0 REVERT JUMPDEST POP POP POP POP PUSH1 0x40 MLOAD RETURNDATASIZE PUSH1 0x20 DUP2 LT ISZERO PUSH2 0x32CC JUMPI PUSH1 0x0 DUP1 REVERT JUMPDEST POP MLOAD DUP7 GT ISZERO PUSH2 0x3312 JUMPI PUSH1 0x40 DUP1 MLOAD PUSH3 0x461BCD PUSH1 0xE5 SHL DUP2 MSTORE PUSH1 0x20 PUSH1 0x4 DUP3 ADD MSTORE PUSH1 0xD PUSH1 0x24 DUP3 ADD MSTORE PUSH13 0x1F2628173130B630B731B2A7B3 PUSH1 0x99 SHL PUSH1 0x44 DUP3 ADD MSTORE SWAP1 MLOAD SWAP1 DUP2 SWAP1 SUB PUSH1 0x64 ADD SWAP1 REVERT JUMPDEST DUP1 DUP6 PUSH1 0xFF AND LT PUSH2 0x335B JUMPI PUSH1 0x40 DUP1 MLOAD PUSH3 0x461BCD PUSH1 0xE5 SHL DUP2 MSTORE PUSH1 0x20 PUSH1 0x4 DUP3 ADD MSTORE PUSH1 0xF PUSH1 0x24 DUP3 ADD MSTORE PUSH15 0x151BDAD95B881B9BDD08199BDD5B99 PUSH1 0x8A SHL PUSH1 0x44 DUP3 ADD MSTORE SWAP1 MLOAD SWAP1 DUP2 SWAP1 SUB PUSH1 0x64 ADD SWAP1 REVERT JUMPDEST PUSH1 0x0 DUP1 PUSH2 0x336A DUP10 CALLER DUP11 DUP11 PUSH2 0x3143 JUMP JUMPDEST SWAP3 POP SWAP1 POP DUP6 DUP2 LT ISZERO PUSH2 0x33B4 JUMPI PUSH1 0x40 DUP1 MLOAD PUSH3 0x461BCD PUSH1 0xE5 SHL DUP2 MSTORE PUSH1 0x20 PUSH1 0x4 DUP3 ADD MSTORE PUSH1 0xE PUSH1 0x24 DUP3 ADD MSTORE PUSH14 0x191E480F081B5A5B905B5BDD5B9D PUSH1 0x92 SHL PUSH1 0x44 DUP3 ADD MSTORE SWAP1 MLOAD SWAP1 DUP2 SWAP1 SUB PUSH1 0x64 ADD SWAP1 REVERT JUMPDEST PUSH2 0x33F3 PUSH2 0x33E1 PUSH2 0x33DA PUSH5 0x2540BE400 PUSH2 0xC0D DUP14 PUSH1 0x5 ADD SLOAD DUP8 PUSH2 0x36EF SWAP1 SWAP2 SWAP1 PUSH4 0xFFFFFFFF AND JUMP JUMPDEST DUP4 SWAP1 PUSH2 0x3695 JUMP JUMPDEST DUP11 PUSH1 0xC ADD DUP10 PUSH1 0xFF AND DUP2 SLOAD DUP2 LT PUSH2 0x2877 JUMPI INVALID JUMPDEST DUP10 PUSH1 0xC ADD DUP9 PUSH1 0xFF AND DUP2 SLOAD DUP2 LT PUSH2 0x3405 JUMPI INVALID JUMPDEST PUSH1 0x0 SWAP2 DUP3 MSTORE PUSH1 0x20 DUP3 KECCAK256 ADD SWAP2 SWAP1 SWAP2 SSTORE PUSH1 0x9 DUP11 ADD SLOAD PUSH1 0x40 DUP1 MLOAD PUSH4 0x79CC679 PUSH1 0xE4 SHL DUP2 MSTORE CALLER PUSH1 0x4 DUP3 ADD MSTORE PUSH1 0x24 DUP2 ADD DUP13 SWAP1 MSTORE SWAP1 MLOAD PUSH1 0x1 PUSH1 0x1 PUSH1 0xA0 SHL SUB SWAP1 SWAP3 AND SWAP3 PUSH4 0x79CC6790 SWAP3 PUSH1 0x44 DUP1 DUP5 ADD SWAP4 DUP3 SWAP1 SUB ADD DUP2 DUP4 DUP8 DUP1 EXTCODESIZE ISZERO DUP1 ISZERO PUSH2 0x3462 JUMPI PUSH1 0x0 DUP1 REVERT JUMPDEST POP GAS CALL ISZERO DUP1 ISZERO PUSH2 0x3476 JUMPI RETURNDATASIZE PUSH1 0x0 DUP1 RETURNDATACOPY RETURNDATASIZE PUSH1 0x0 REVERT JUMPDEST POP POP POP POP PUSH2 0x3491 CALLER DUP3 DUP12 PUSH1 0xA ADD DUP11 PUSH1 0xFF AND DUP2 SLOAD DUP2 LT PUSH2 0x1D89 JUMPI INVALID JUMPDEST PUSH1 0x40 DUP1 MLOAD DUP10 DUP2 MSTORE PUSH1 0x20 DUP2 ADD DUP7 SWAP1 MSTORE PUSH1 0xFF DUP10 AND DUP2 DUP4 ADD MSTORE PUSH1 0x60 DUP2 ADD DUP4 SWAP1 MSTORE SWAP1 MLOAD CALLER SWAP2 PUSH32 0x43FB02998F4E03DA2E0E6FFF53FDBF0C40A9F45F145DC377FC30615D7D7A8A64 SWAP2 SWAP1 DUP2 SWAP1 SUB PUSH1 0x80 ADD SWAP1 LOG2 SWAP9 SWAP8 POP POP POP POP POP POP POP POP JUMP JUMPDEST PUSH1 0x1 PUSH1 0x1 PUSH1 0xA0 SHL SUB AND PUSH1 0x0 SWAP1 DUP2 MSTORE PUSH1 0xD SWAP2 SWAP1 SWAP2 ADD PUSH1 0x20 MSTORE PUSH1 0x40 SWAP1 KECCAK256 SLOAD SWAP1 JUMP JUMPDEST PUSH2 0xB5B DUP4 DUP4 DUP4 PUSH2 0x40E0 JUMP JUMPDEST TIMESTAMP DUP2 PUSH1 0x3 ADD SLOAD GT PUSH2 0x356B JUMPI PUSH1 0x40 DUP1 MLOAD PUSH3 0x461BCD PUSH1 0xE5 SHL DUP2 MSTORE PUSH1 0x20 PUSH1 0x4 DUP3 ADD MSTORE PUSH1 0x17 PUSH1 0x24 DUP3 ADD MSTORE PUSH32 0x52616D7020697320616C72656164792073746F70706564000000000000000000 PUSH1 0x44 DUP3 ADD MSTORE SWAP1 MLOAD SWAP1 DUP2 SWAP1 SUB PUSH1 0x64 ADD SWAP1 REVERT JUMPDEST PUSH1 0x0 PUSH2 0x3576 DUP3 PUSH2 0x3826 JUMP JUMPDEST DUP1 DUP4 SSTORE PUSH1 0x1 DUP4 ADD DUP2 SWAP1 SSTORE TIMESTAMP PUSH1 0x2 DUP5 ADD DUP2 SWAP1 SSTORE PUSH1 0x3 DUP5 ADD DUP2 SWAP1 SSTORE PUSH1 0x40 DUP1 MLOAD DUP4 DUP2 MSTORE PUSH1 0x20 DUP2 ADD SWAP3 SWAP1 SWAP3 MSTORE DUP1 MLOAD SWAP3 SWAP4 POP PUSH32 0x46E22FB3709AD289F62CE63D469248536DBC78D82B84A3D7E74AD606DC201938 SWAP3 SWAP2 DUP3 SWAP1 SUB ADD SWAP1 LOG1 POP POP JUMP JUMPDEST PUSH5 0x2540BE400 DUP2 JUMP JUMPDEST PUSH1 0x60 PUSH2 0x2A4F DUP5 DUP5 DUP5 PUSH2 0x3BD4 JUMP JUMPDEST PUSH1 0x0 DUP3 DUP3 GT ISZERO PUSH2 0x363D JUMPI PUSH1 0x40 DUP1 MLOAD PUSH3 0x461BCD PUSH1 0xE5 SHL DUP2 MSTORE PUSH1 0x20 PUSH1 0x4 DUP3 ADD MSTORE PUSH1 0x1E PUSH1 0x24 DUP3 ADD MSTORE PUSH32 0x536166654D6174683A207375627472616374696F6E206F766572666C6F770000 PUSH1 0x44 DUP3 ADD MSTORE SWAP1 MLOAD SWAP1 DUP2 SWAP1 SUB PUSH1 0x64 ADD SWAP1 REVERT JUMPDEST POP SWAP1 SUB SWAP1 JUMP JUMPDEST PUSH1 0x40 DUP1 MLOAD PUSH1 0x1 PUSH1 0x1 PUSH1 0xA0 SHL SUB DUP5 AND PUSH1 0x24 DUP3 ADD MSTORE PUSH1 0x44 DUP1 DUP3 ADD DUP5 SWAP1 MSTORE DUP3 MLOAD DUP1 DUP4 SUB SWAP1 SWAP2 ADD DUP2 MSTORE PUSH1 0x64 SWAP1 SWAP2 ADD SWAP1 SWAP2 MSTORE PUSH1 0x20 DUP2 ADD DUP1 MLOAD PUSH1 0x1 PUSH1 0x1 PUSH1 0xE0 SHL SUB AND PUSH4 0xA9059CBB PUSH1 0xE0 SHL OR SWAP1 MSTORE PUSH2 0xB5B SWAP1 DUP5 SWAP1 PUSH2 0x4236 JUMP JUMPDEST PUSH1 0x0 DUP3 DUP3 ADD DUP4 DUP2 LT ISZERO PUSH2 0xD5F JUMPI PUSH1 0x40 DUP1 MLOAD PUSH3 0x461BCD PUSH1 0xE5 SHL DUP2 MSTORE PUSH1 0x20 PUSH1 0x4 DUP3 ADD MSTORE PUSH1 0x1B PUSH1 0x24 DUP3 ADD MSTORE PUSH32 0x536166654D6174683A206164646974696F6E206F766572666C6F770000000000 PUSH1 0x44 DUP3 ADD MSTORE SWAP1 MLOAD SWAP1 DUP2 SWAP1 SUB PUSH1 0x64 ADD SWAP1 REVERT JUMPDEST PUSH1 0x0 DUP3 PUSH2 0x36FE JUMPI POP PUSH1 0x0 PUSH2 0x2B9D JUMP JUMPDEST DUP3 DUP3 MUL DUP3 DUP5 DUP3 DUP2 PUSH2 0x370B JUMPI INVALID JUMPDEST DIV EQ PUSH2 0xD5F JUMPI PUSH1 0x40 MLOAD PUSH3 0x461BCD PUSH1 0xE5 SHL DUP2 MSTORE PUSH1 0x4 ADD DUP1 DUP1 PUSH1 0x20 ADD DUP3 DUP2 SUB DUP3 MSTORE PUSH1 0x21 DUP2 MSTORE PUSH1 0x20 ADD DUP1 PUSH2 0x4ACD PUSH1 0x21 SWAP2 CODECOPY PUSH1 0x40 ADD SWAP2 POP POP PUSH1 0x40 MLOAD DUP1 SWAP2 SUB SWAP1 REVERT JUMPDEST PUSH1 0x0 DUP1 DUP3 GT PUSH2 0x379E JUMPI PUSH1 0x40 DUP1 MLOAD PUSH3 0x461BCD PUSH1 0xE5 SHL DUP2 MSTORE PUSH1 0x20 PUSH1 0x4 DUP3 ADD MSTORE PUSH1 0x1A PUSH1 0x24 DUP3 ADD MSTORE PUSH32 0x536166654D6174683A206469766973696F6E206279207A65726F000000000000 PUSH1 0x44 DUP3 ADD MSTORE SWAP1 MLOAD SWAP1 DUP2 SWAP1 SUB PUSH1 0x64 ADD SWAP1 REVERT JUMPDEST DUP2 DUP4 DUP2 PUSH2 0x37A7 JUMPI INVALID JUMPDEST DIV SWAP4 SWAP3 POP POP POP JUMP JUMPDEST PUSH1 0x0 PUSH2 0x2B9D PUSH2 0x37BD DUP4 PUSH2 0x394A JUMP JUMPDEST PUSH2 0x2575 DUP5 PUSH2 0x3826 JUMP JUMPDEST PUSH1 0x40 DUP1 MLOAD PUSH1 0x1 PUSH1 0x1 PUSH1 0xA0 SHL SUB DUP1 DUP7 AND PUSH1 0x24 DUP4 ADD MSTORE DUP5 AND PUSH1 0x44 DUP3 ADD MSTORE PUSH1 0x64 DUP1 DUP3 ADD DUP5 SWAP1 MSTORE DUP3 MLOAD DUP1 DUP4 SUB SWAP1 SWAP2 ADD DUP2 MSTORE PUSH1 0x84 SWAP1 SWAP2 ADD SWAP1 SWAP2 MSTORE PUSH1 0x20 DUP2 ADD DUP1 MLOAD PUSH1 0x1 PUSH1 0x1 PUSH1 0xE0 SHL SUB AND PUSH4 0x23B872DD PUSH1 0xE0 SHL OR SWAP1 MSTORE PUSH2 0x3820 SWAP1 DUP6 SWAP1 PUSH2 0x4236 JUMP JUMPDEST POP POP POP POP JUMP JUMPDEST PUSH1 0x3 DUP2 ADD SLOAD PUSH1 0x1 DUP3 ADD SLOAD PUSH1 0x0 SWAP2 SWAP1 TIMESTAMP DUP3 GT ISZERO PUSH2 0x38B2 JUMPI PUSH1 0x2 DUP5 ADD SLOAD DUP5 SLOAD DUP1 DUP4 GT ISZERO PUSH2 0x3884 JUMPI PUSH2 0x3879 PUSH2 0x3872 PUSH2 0x385B DUP7 DUP6 PUSH2 0x35E6 JUMP JUMPDEST PUSH2 0xC0D PUSH2 0x3868 TIMESTAMP DUP8 PUSH2 0x35E6 JUMP JUMPDEST PUSH2 0xC38 DUP9 DUP8 PUSH2 0x35E6 JUMP JUMPDEST DUP3 SWAP1 PUSH2 0x3695 JUMP JUMPDEST SWAP5 POP POP POP POP POP PUSH2 0x26A2 JUMP JUMPDEST PUSH2 0x3879 PUSH2 0x38AB PUSH2 0x3894 DUP7 DUP6 PUSH2 0x35E6 JUMP JUMPDEST PUSH2 0xC0D PUSH2 0x38A1 TIMESTAMP DUP8 PUSH2 0x35E6 JUMP JUMPDEST PUSH2 0xC38 DUP7 DUP10 PUSH2 0x35E6 JUMP JUMPDEST DUP3 SWAP1 PUSH2 0x35E6 JUMP JUMPDEST SWAP2 POP PUSH2 0x26A2 SWAP1 POP JUMP JUMPDEST PUSH1 0x60 PUSH2 0xD5F DUP3 DUP5 PUSH1 0xB ADD DUP1 SLOAD DUP1 PUSH1 0x20 MUL PUSH1 0x20 ADD PUSH1 0x40 MLOAD SWAP1 DUP2 ADD PUSH1 0x40 MSTORE DUP1 SWAP3 SWAP2 SWAP1 DUP2 DUP2 MSTORE PUSH1 0x20 ADD DUP3 DUP1 SLOAD DUP1 ISZERO PUSH2 0x390F JUMPI PUSH1 0x20 MUL DUP3 ADD SWAP2 SWAP1 PUSH1 0x0 MSTORE PUSH1 0x20 PUSH1 0x0 KECCAK256 SWAP1 JUMPDEST DUP2 SLOAD DUP2 MSTORE PUSH1 0x20 ADD SWAP1 PUSH1 0x1 ADD SWAP1 DUP1 DUP4 GT PUSH2 0x38FB JUMPI JUMPDEST POP POP POP POP POP PUSH2 0x42E7 JUMP JUMPDEST PUSH1 0xA DUP2 ADD SLOAD PUSH1 0x0 SWAP1 PUSH2 0x2B9D SWAP1 PUSH2 0x3937 SWAP1 PUSH1 0x4 SWAP1 PUSH2 0xC38 SWAP1 PUSH1 0x1 PUSH2 0x35E6 JUMP JUMPDEST PUSH1 0xA DUP5 ADD SLOAD PUSH1 0x4 DUP6 ADD SLOAD PUSH2 0xC0D SWAP2 PUSH2 0x36EF JUMP JUMPDEST PUSH1 0x60 PUSH2 0x2B9D DUP3 PUSH1 0xC ADD DUP1 SLOAD DUP1 PUSH1 0x20 MUL PUSH1 0x20 ADD PUSH1 0x40 MLOAD SWAP1 DUP2 ADD PUSH1 0x40 MSTORE DUP1 SWAP3 SWAP2 SWAP1 DUP2 DUP2 MSTORE PUSH1 0x20 ADD DUP3 DUP1 SLOAD DUP1 ISZERO PUSH2 0x399D JUMPI PUSH1 0x20 MUL DUP3 ADD SWAP2 SWAP1 PUSH1 0x0 MSTORE PUSH1 0x20 PUSH1 0x0 KECCAK256 SWAP1 JUMPDEST DUP2 SLOAD DUP2 MSTORE PUSH1 0x20 ADD SWAP1 PUSH1 0x1 ADD SWAP1 DUP1 DUP4 GT PUSH2 0x3989 JUMPI JUMPDEST POP POP POP POP POP DUP4 PUSH1 0xB ADD DUP1 SLOAD DUP1 PUSH1 0x20 MUL PUSH1 0x20 ADD PUSH1 0x40 MLOAD SWAP1 DUP2 ADD PUSH1 0x40 MSTORE DUP1 SWAP3 SWAP2 SWAP1 DUP2 DUP2 MSTORE PUSH1 0x20 ADD DUP3 DUP1 SLOAD DUP1 ISZERO PUSH2 0x390F JUMPI PUSH1 0x20 MUL DUP3 ADD SWAP2 SWAP1 PUSH1 0x0 MSTORE PUSH1 0x20 PUSH1 0x0 KECCAK256 SWAP1 DUP2 SLOAD DUP2 MSTORE PUSH1 0x20 ADD SWAP1 PUSH1 0x1 ADD SWAP1 DUP1 DUP4 GT PUSH2 0x38FB JUMPI POP POP POP POP POP PUSH2 0x42E7 JUMP JUMPDEST PUSH1 0x0 DUP2 DUP5 DUP5 GT ISZERO PUSH2 0x3A87 JUMPI PUSH1 0x40 MLOAD PUSH3 0x461BCD PUSH1 0xE5 SHL DUP2 MSTORE PUSH1 0x4 ADD DUP1 DUP1 PUSH1 0x20 ADD DUP3 DUP2 SUB DUP3 MSTORE DUP4 DUP2 DUP2 MLOAD DUP2 MSTORE PUSH1 0x20 ADD SWAP2 POP DUP1 MLOAD SWAP1 PUSH1 0x20 ADD SWAP1 DUP1 DUP4 DUP4 PUSH1 0x0 JUMPDEST DUP4 DUP2 LT ISZERO PUSH2 0x3A4C JUMPI DUP2 DUP2 ADD MLOAD DUP4 DUP3 ADD MSTORE PUSH1 0x20 ADD PUSH2 0x3A34 JUMP JUMPDEST POP POP POP POP SWAP1 POP SWAP1 DUP2 ADD SWAP1 PUSH1 0x1F AND DUP1 ISZERO PUSH2 0x3A79 JUMPI DUP1 DUP3 SUB DUP1 MLOAD PUSH1 0x1 DUP4 PUSH1 0x20 SUB PUSH2 0x100 EXP SUB NOT AND DUP2 MSTORE PUSH1 0x20 ADD SWAP2 POP JUMPDEST POP SWAP3 POP POP POP PUSH1 0x40 MLOAD DUP1 SWAP2 SUB SWAP1 REVERT JUMPDEST POP POP POP SWAP1 SUB SWAP1 JUMP JUMPDEST PUSH1 0x0 DUP1 PUSH1 0x60 PUSH2 0x3A9D DUP8 PUSH2 0x394A JUMP JUMPDEST SWAP1 POP DUP1 MLOAD DUP7 PUSH1 0xFF AND LT DUP1 ISZERO PUSH2 0x3AB5 JUMPI POP DUP1 MLOAD DUP6 PUSH1 0xFF AND LT JUMPDEST PUSH2 0x3B01 JUMPI PUSH1 0x40 DUP1 MLOAD PUSH3 0x461BCD PUSH1 0xE5 SHL DUP2 MSTORE PUSH1 0x20 PUSH1 0x4 DUP3 ADD MSTORE PUSH1 0x18 PUSH1 0x24 DUP3 ADD MSTORE PUSH24 0x546F6B656E20696E646578206F7574206F662072616E6765 PUSH1 0x40 SHL PUSH1 0x44 DUP3 ADD MSTORE SWAP1 MLOAD SWAP1 DUP2 SWAP1 SUB PUSH1 0x64 ADD SWAP1 REVERT JUMPDEST PUSH1 0x0 PUSH2 0x3B4C DUP3 DUP9 PUSH1 0xFF AND DUP2 MLOAD DUP2 LT PUSH2 0x3B15 JUMPI INVALID JUMPDEST PUSH1 0x20 MUL PUSH1 0x20 ADD ADD MLOAD PUSH2 0xC51 DUP11 PUSH1 0xB ADD DUP11 PUSH1 0xFF AND DUP2 SLOAD DUP2 LT PUSH2 0x3B32 JUMPI INVALID JUMPDEST SWAP1 PUSH1 0x0 MSTORE PUSH1 0x20 PUSH1 0x0 KECCAK256 ADD SLOAD DUP9 PUSH2 0x36EF SWAP1 SWAP2 SWAP1 PUSH4 0xFFFFFFFF AND JUMP JUMPDEST SWAP1 POP PUSH1 0x0 PUSH2 0x3B5D DUP10 DUP10 DUP10 DUP6 DUP8 PUSH2 0x43DE JUMP JUMPDEST SWAP1 POP PUSH2 0x3B77 PUSH1 0x1 PUSH2 0x2FFE DUP4 DUP7 DUP12 PUSH1 0xFF AND DUP2 MLOAD DUP2 LT PUSH2 0x1349 JUMPI INVALID JUMPDEST SWAP5 POP PUSH2 0x3B99 PUSH5 0x2540BE400 PUSH2 0xC0D DUP12 PUSH1 0x4 ADD SLOAD DUP9 PUSH2 0x36EF SWAP1 SWAP2 SWAP1 PUSH4 0xFFFFFFFF AND JUMP JUMPDEST SWAP4 POP PUSH2 0x3BC6 DUP10 PUSH1 0xB ADD DUP9 PUSH1 0xFF AND DUP2 SLOAD DUP2 LT PUSH2 0x3BB0 JUMPI INVALID JUMPDEST PUSH1 0x0 SWAP2 DUP3 MSTORE PUSH1 0x20 SWAP1 SWAP2 KECCAK256 ADD SLOAD PUSH2 0xC0D DUP8 DUP8 PUSH2 0x35E6 JUMP JUMPDEST SWAP5 POP POP POP POP SWAP5 POP SWAP5 SWAP3 POP POP POP JUMP JUMPDEST PUSH1 0x60 PUSH1 0x0 DUP5 PUSH1 0x9 ADD PUSH1 0x0 SWAP1 SLOAD SWAP1 PUSH2 0x100 EXP SWAP1 DIV PUSH1 0x1 PUSH1 0x1 PUSH1 0xA0 SHL SUB AND PUSH1 0x1 PUSH1 0x1 PUSH1 0xA0 SHL SUB AND PUSH4 0x18160DDD PUSH1 0x40 MLOAD DUP2 PUSH4 0xFFFFFFFF AND PUSH1 0xE0 SHL DUP2 MSTORE PUSH1 0x4 ADD PUSH1 0x20 PUSH1 0x40 MLOAD DUP1 DUP4 SUB DUP2 DUP7 DUP1 EXTCODESIZE ISZERO DUP1 ISZERO PUSH2 0x3C28 JUMPI PUSH1 0x0 DUP1 REVERT JUMPDEST POP GAS STATICCALL ISZERO DUP1 ISZERO PUSH2 0x3C3C JUMPI RETURNDATASIZE PUSH1 0x0 DUP1 RETURNDATACOPY RETURNDATASIZE PUSH1 0x0 REVERT JUMPDEST POP POP POP POP PUSH1 0x40 MLOAD RETURNDATASIZE PUSH1 0x20 DUP2 LT ISZERO PUSH2 0x3C52 JUMPI PUSH1 0x0 DUP1 REVERT JUMPDEST POP MLOAD SWAP1 POP DUP1 DUP4 GT ISZERO PUSH2 0x3CAB JUMPI PUSH1 0x40 DUP1 MLOAD PUSH3 0x461BCD PUSH1 0xE5 SHL DUP2 MSTORE PUSH1 0x20 PUSH1 0x4 DUP3 ADD MSTORE PUSH1 0x1A PUSH1 0x24 DUP3 ADD MSTORE PUSH32 0x43616E6E6F742065786365656420746F74616C20737570706C79000000000000 PUSH1 0x44 DUP3 ADD MSTORE SWAP1 MLOAD SWAP1 DUP2 SWAP1 SUB PUSH1 0x64 ADD SWAP1 REVERT JUMPDEST PUSH1 0x0 PUSH2 0x3CCD PUSH5 0x2540BE400 PUSH2 0xC0D PUSH2 0x3CC6 PUSH2 0x1C6F DUP11 DUP11 PUSH2 0x2CAE JUMP JUMPDEST DUP8 SWAP1 PUSH2 0x36EF JUMP JUMPDEST PUSH1 0xA DUP8 ADD SLOAD SWAP1 SWAP2 POP PUSH1 0x60 SWAP1 PUSH8 0xFFFFFFFFFFFFFFFF DUP2 GT DUP1 ISZERO PUSH2 0x3CEE JUMPI PUSH1 0x0 DUP1 REVERT JUMPDEST POP PUSH1 0x40 MLOAD SWAP1 DUP1 DUP3 MSTORE DUP1 PUSH1 0x20 MUL PUSH1 0x20 ADD DUP3 ADD PUSH1 0x40 MSTORE DUP1 ISZERO PUSH2 0x3D18 JUMPI DUP2 PUSH1 0x20 ADD PUSH1 0x20 DUP3 MUL DUP1 CALLDATASIZE DUP4 CALLDATACOPY ADD SWAP1 POP JUMPDEST POP SWAP1 POP PUSH1 0x0 JUMPDEST PUSH1 0xA DUP9 ADD SLOAD DUP2 LT ISZERO PUSH2 0x3D79 JUMPI PUSH2 0x3D5A DUP5 PUSH2 0xC0D DUP6 DUP12 PUSH1 0xC ADD DUP6 DUP2 SLOAD DUP2 LT PUSH2 0x3D41 JUMPI INVALID JUMPDEST SWAP1 PUSH1 0x0 MSTORE PUSH1 0x20 PUSH1 0x0 KECCAK256 ADD SLOAD PUSH2 0x36EF SWAP1 SWAP2 SWAP1 PUSH4 0xFFFFFFFF AND JUMP JUMPDEST DUP3 DUP3 DUP2 MLOAD DUP2 LT PUSH2 0x3D66 JUMPI INVALID JUMPDEST PUSH1 0x20 SWAP1 DUP2 MUL SWAP2 SWAP1 SWAP2 ADD ADD MSTORE PUSH1 0x1 ADD PUSH2 0x3D1E JUMP JUMPDEST POP SWAP7 SWAP6 POP POP POP POP POP POP JUMP JUMPDEST PUSH1 0x0 PUSH2 0x2B9D PUSH1 0x64 PUSH2 0xC0D DUP5 PUSH2 0x3826 JUMP JUMPDEST PUSH1 0xA DUP4 ADD SLOAD PUSH1 0x0 SWAP1 DUP2 SWAP1 PUSH1 0xFF DUP6 AND LT PUSH2 0x3DEF JUMPI PUSH1 0x40 DUP1 MLOAD PUSH3 0x461BCD PUSH1 0xE5 SHL DUP2 MSTORE PUSH1 0x20 PUSH1 0x4 DUP3 ADD MSTORE PUSH1 0x18 PUSH1 0x24 DUP3 ADD MSTORE PUSH24 0x546F6B656E20696E646578206F7574206F662072616E6765 PUSH1 0x40 SHL PUSH1 0x44 DUP3 ADD MSTORE SWAP1 MLOAD SWAP1 DUP2 SWAP1 SUB PUSH1 0x64 ADD SWAP1 REVERT JUMPDEST PUSH1 0x60 PUSH2 0x3DFA DUP7 PUSH2 0x394A JUMP JUMPDEST SWAP1 POP PUSH2 0x3E04 PUSH2 0x4A88 JUMP JUMPDEST PUSH1 0x40 MLOAD DUP1 PUSH1 0xA0 ADD PUSH1 0x40 MSTORE DUP1 PUSH1 0x0 DUP2 MSTORE PUSH1 0x20 ADD PUSH1 0x0 DUP2 MSTORE PUSH1 0x20 ADD PUSH1 0x0 DUP2 MSTORE PUSH1 0x20 ADD PUSH1 0x0 DUP2 MSTORE PUSH1 0x20 ADD PUSH1 0x0 DUP2 MSTORE POP SWAP1 POP PUSH2 0x3E3B DUP8 PUSH2 0x3826 JUMP JUMPDEST PUSH1 0x80 DUP3 ADD DUP2 SWAP1 MSTORE PUSH2 0x3E4D SWAP1 DUP4 SWAP1 PUSH2 0x2A57 JUMP JUMPDEST DUP2 MSTORE PUSH1 0x9 DUP8 ADD SLOAD PUSH1 0x40 DUP1 MLOAD PUSH4 0x18160DDD PUSH1 0xE0 SHL DUP2 MSTORE SWAP1 MLOAD PUSH2 0x3EDF SWAP3 PUSH2 0x3ED7 SWAP3 PUSH1 0x1 PUSH1 0x1 PUSH1 0xA0 SHL SUB SWAP1 SWAP2 AND SWAP2 PUSH4 0x18160DDD SWAP2 PUSH1 0x4 DUP1 DUP3 ADD SWAP3 PUSH1 0x20 SWAP3 SWAP1 SWAP2 SWAP1 DUP3 SWAP1 SUB ADD DUP2 DUP7 DUP1 EXTCODESIZE ISZERO DUP1 ISZERO PUSH2 0x3E9E JUMPI PUSH1 0x0 DUP1 REVERT JUMPDEST POP GAS STATICCALL ISZERO DUP1 ISZERO PUSH2 0x3EB2 JUMPI RETURNDATASIZE PUSH1 0x0 DUP1 RETURNDATACOPY RETURNDATASIZE PUSH1 0x0 REVERT JUMPDEST POP POP POP POP PUSH1 0x40 MLOAD RETURNDATASIZE PUSH1 0x20 DUP2 LT ISZERO PUSH2 0x3EC8 JUMPI PUSH1 0x0 DUP1 REVERT JUMPDEST POP MLOAD DUP4 MLOAD PUSH2 0xC0D SWAP1 DUP10 SWAP1 PUSH2 0x36EF JUMP JUMPDEST DUP3 MLOAD SWAP1 PUSH2 0x35E6 JUMP JUMPDEST PUSH1 0x20 DUP3 ADD MSTORE DUP2 MLOAD DUP3 SWAP1 PUSH1 0xFF DUP9 AND SWAP1 DUP2 LT PUSH2 0x3EF5 JUMPI INVALID JUMPDEST PUSH1 0x20 MUL PUSH1 0x20 ADD ADD MLOAD DUP6 GT ISZERO PUSH2 0x3F51 JUMPI PUSH1 0x40 DUP1 MLOAD PUSH3 0x461BCD PUSH1 0xE5 SHL DUP2 MSTORE PUSH1 0x20 PUSH1 0x4 DUP3 ADD MSTORE PUSH1 0x1A PUSH1 0x24 DUP3 ADD MSTORE PUSH32 0x5769746864726177206578636565647320617661696C61626C65000000000000 PUSH1 0x44 DUP3 ADD MSTORE SWAP1 MLOAD SWAP1 DUP2 SWAP1 SUB PUSH1 0x64 ADD SWAP1 REVERT JUMPDEST PUSH2 0x3F65 DUP2 PUSH1 0x80 ADD MLOAD DUP8 DUP5 DUP5 PUSH1 0x20 ADD MLOAD PUSH2 0x46A9 JUMP JUMPDEST PUSH1 0x40 DUP3 ADD MSTORE DUP2 MLOAD PUSH1 0x60 SWAP1 PUSH8 0xFFFFFFFFFFFFFFFF DUP2 GT DUP1 ISZERO PUSH2 0x3F85 JUMPI PUSH1 0x0 DUP1 REVERT JUMPDEST POP PUSH1 0x40 MLOAD SWAP1 DUP1 DUP3 MSTORE DUP1 PUSH1 0x20 MUL PUSH1 0x20 ADD DUP3 ADD PUSH1 0x40 MSTORE DUP1 ISZERO PUSH2 0x3FAF JUMPI DUP2 PUSH1 0x20 ADD PUSH1 0x20 DUP3 MUL DUP1 CALLDATASIZE DUP4 CALLDATACOPY ADD SWAP1 POP JUMPDEST POP SWAP1 POP PUSH2 0x3FBB DUP9 PUSH2 0x3919 JUMP JUMPDEST PUSH1 0x60 DUP4 ADD MSTORE PUSH1 0x0 JUMPDEST PUSH1 0xA DUP10 ADD SLOAD DUP2 LT ISZERO PUSH2 0x4072 JUMPI PUSH1 0x0 DUP5 DUP3 DUP2 MLOAD DUP2 LT PUSH2 0x3FDD JUMPI INVALID JUMPDEST PUSH1 0x20 MUL PUSH1 0x20 ADD ADD MLOAD SWAP1 POP PUSH2 0x4052 PUSH2 0x38AB PUSH5 0x2540BE400 PUSH2 0xC0D DUP8 PUSH1 0x60 ADD MLOAD DUP14 PUSH1 0xFF AND DUP8 EQ PUSH2 0x402B JUMPI DUP9 MLOAD PUSH1 0x20 DUP11 ADD MLOAD PUSH2 0x4026 SWAP2 PUSH2 0x401F SWAP2 PUSH2 0xC0D SWAP1 DUP11 SWAP1 PUSH2 0x36EF JUMP JUMPDEST DUP8 SWAP1 PUSH2 0x35E6 JUMP JUMPDEST PUSH2 0xC38 JUMP JUMPDEST PUSH2 0xC38 DUP10 PUSH1 0x40 ADD MLOAD PUSH2 0x2FFE DUP12 PUSH1 0x0 ADD MLOAD PUSH2 0xC0D DUP14 PUSH1 0x20 ADD MLOAD DUP12 PUSH2 0x36EF SWAP1 SWAP2 SWAP1 PUSH4 0xFFFFFFFF AND JUMP JUMPDEST DUP4 DUP4 DUP2 MLOAD DUP2 LT PUSH2 0x405E JUMPI INVALID JUMPDEST PUSH1 0x20 SWAP1 DUP2 MUL SWAP2 SWAP1 SWAP2 ADD ADD MSTORE POP PUSH1 0x1 ADD PUSH2 0x3FC3 JUMP JUMPDEST POP PUSH1 0x0 PUSH2 0x409B PUSH2 0x408C DUP5 PUSH1 0x80 ADD MLOAD DUP11 DUP6 DUP8 PUSH1 0x20 ADD MLOAD PUSH2 0x46A9 JUMP JUMPDEST DUP4 DUP11 PUSH1 0xFF AND DUP2 MLOAD DUP2 LT PUSH2 0x1349 JUMPI INVALID JUMPDEST SWAP1 POP PUSH2 0x40C9 DUP10 PUSH1 0xB ADD DUP10 PUSH1 0xFF AND DUP2 SLOAD DUP2 LT PUSH2 0x40B2 JUMPI INVALID JUMPDEST PUSH1 0x0 SWAP2 DUP3 MSTORE PUSH1 0x20 SWAP1 SWAP2 KECCAK256 ADD SLOAD PUSH2 0xC0D DUP4 PUSH1 0x1 PUSH2 0x35E6 JUMP JUMPDEST PUSH1 0x40 SWAP1 SWAP4 ADD MLOAD SWAP3 SWAP6 POP SWAP2 SWAP4 POP POP POP POP SWAP4 POP SWAP4 SWAP2 POP POP JUMP JUMPDEST PUSH1 0x1 PUSH1 0x1 PUSH1 0xA0 SHL SUB DUP3 AND PUSH2 0x40F3 JUMPI PUSH2 0xB5B JUMP JUMPDEST PUSH1 0x7 DUP4 ADD SLOAD PUSH2 0x4123 JUMPI PUSH1 0x1 PUSH1 0x1 PUSH1 0xA0 SHL SUB DUP3 AND PUSH1 0x0 SWAP1 DUP2 MSTORE PUSH1 0xE DUP5 ADD PUSH1 0x20 MSTORE PUSH1 0x40 SWAP1 KECCAK256 PUSH5 0x2540BE400 SWAP1 SSTORE PUSH2 0x4215 JUMP JUMPDEST PUSH1 0x0 PUSH2 0x412F DUP5 DUP5 PUSH2 0x2CAE JUMP JUMPDEST PUSH1 0x9 DUP6 ADD SLOAD PUSH1 0x40 DUP1 MLOAD PUSH4 0x70A08231 PUSH1 0xE0 SHL DUP2 MSTORE PUSH1 0x1 PUSH1 0x1 PUSH1 0xA0 SHL SUB DUP8 DUP2 AND PUSH1 0x4 DUP4 ADD MSTORE SWAP2 MLOAD SWAP4 SWAP5 POP PUSH1 0x0 SWAP4 SWAP2 SWAP1 SWAP3 AND SWAP2 PUSH4 0x70A08231 SWAP2 PUSH1 0x24 DUP1 DUP4 ADD SWAP3 PUSH1 0x20 SWAP3 SWAP2 SWAP1 DUP3 SWAP1 SUB ADD DUP2 DUP7 DUP1 EXTCODESIZE ISZERO DUP1 ISZERO PUSH2 0x4184 JUMPI PUSH1 0x0 DUP1 REVERT JUMPDEST POP GAS STATICCALL ISZERO DUP1 ISZERO PUSH2 0x4198 JUMPI RETURNDATASIZE PUSH1 0x0 DUP1 RETURNDATACOPY RETURNDATASIZE PUSH1 0x0 REVERT JUMPDEST POP POP POP POP PUSH1 0x40 MLOAD RETURNDATASIZE PUSH1 0x20 DUP2 LT ISZERO PUSH2 0x41AE JUMPI PUSH1 0x0 DUP1 REVERT JUMPDEST POP MLOAD PUSH1 0x7 DUP7 ADD SLOAD SWAP1 SWAP2 POP PUSH2 0x41F7 SWAP1 PUSH2 0x41CA SWAP1 PUSH2 0xC38 DUP7 DUP6 PUSH2 0x3695 JUMP JUMPDEST PUSH2 0xC0D PUSH5 0x2540BE400 PUSH2 0xC38 PUSH2 0x41ED DUP11 PUSH1 0x7 ADD SLOAD DUP10 PUSH2 0x36EF SWAP1 SWAP2 SWAP1 PUSH4 0xFFFFFFFF AND JUMP JUMPDEST PUSH2 0xC51 DUP8 DUP10 PUSH2 0x36EF JUMP JUMPDEST PUSH1 0x1 PUSH1 0x1 PUSH1 0xA0 SHL SUB DUP6 AND PUSH1 0x0 SWAP1 DUP2 MSTORE PUSH1 0xE DUP8 ADD PUSH1 0x20 MSTORE PUSH1 0x40 SWAP1 KECCAK256 SSTORE POP POP JUMPDEST POP PUSH1 0x1 PUSH1 0x1 PUSH1 0xA0 SHL SUB AND PUSH1 0x0 SWAP1 DUP2 MSTORE PUSH1 0xD SWAP2 SWAP1 SWAP2 ADD PUSH1 0x20 MSTORE PUSH1 0x40 SWAP1 KECCAK256 TIMESTAMP SWAP1 SSTORE JUMP JUMPDEST PUSH1 0x60 PUSH2 0x428B DUP3 PUSH1 0x40 MLOAD DUP1 PUSH1 0x40 ADD PUSH1 0x40 MSTORE DUP1 PUSH1 0x20 DUP2 MSTORE PUSH1 0x20 ADD PUSH32 0x5361666545524332303A206C6F772D6C6576656C2063616C6C206661696C6564 DUP2 MSTORE POP DUP6 PUSH1 0x1 PUSH1 0x1 PUSH1 0xA0 SHL SUB AND PUSH2 0x4883 SWAP1 SWAP3 SWAP2 SWAP1 PUSH4 0xFFFFFFFF AND JUMP JUMPDEST DUP1 MLOAD SWAP1 SWAP2 POP ISZERO PUSH2 0xB5B JUMPI DUP1 DUP1 PUSH1 0x20 ADD SWAP1 MLOAD PUSH1 0x20 DUP2 LT ISZERO PUSH2 0x42AA JUMPI PUSH1 0x0 DUP1 REVERT JUMPDEST POP MLOAD PUSH2 0xB5B JUMPI PUSH1 0x40 MLOAD PUSH3 0x461BCD PUSH1 0xE5 SHL DUP2 MSTORE PUSH1 0x4 ADD DUP1 DUP1 PUSH1 0x20 ADD DUP3 DUP2 SUB DUP3 MSTORE PUSH1 0x2A DUP2 MSTORE PUSH1 0x20 ADD DUP1 PUSH2 0x4AEE PUSH1 0x2A SWAP2 CODECOPY PUSH1 0x40 ADD SWAP2 POP POP PUSH1 0x40 MLOAD DUP1 SWAP2 SUB SWAP1 REVERT JUMPDEST DUP2 MLOAD DUP2 MLOAD PUSH1 0x60 SWAP2 SWAP1 DUP2 EQ PUSH2 0x4342 JUMPI PUSH1 0x40 DUP1 MLOAD PUSH3 0x461BCD PUSH1 0xE5 SHL DUP2 MSTORE PUSH1 0x20 PUSH1 0x4 DUP3 ADD MSTORE PUSH1 0x1F PUSH1 0x24 DUP3 ADD MSTORE PUSH32 0x42616C616E636573206D757374206D61746368206D756C7469706C6965727300 PUSH1 0x44 DUP3 ADD MSTORE SWAP1 MLOAD SWAP1 DUP2 SWAP1 SUB PUSH1 0x64 ADD SWAP1 REVERT JUMPDEST PUSH1 0x60 DUP2 PUSH8 0xFFFFFFFFFFFFFFFF DUP2 GT DUP1 ISZERO PUSH2 0x435B JUMPI PUSH1 0x0 DUP1 REVERT JUMPDEST POP PUSH1 0x40 MLOAD SWAP1 DUP1 DUP3 MSTORE DUP1 PUSH1 0x20 MUL PUSH1 0x20 ADD DUP3 ADD PUSH1 0x40 MSTORE DUP1 ISZERO PUSH2 0x4385 JUMPI DUP2 PUSH1 0x20 ADD PUSH1 0x20 DUP3 MUL DUP1 CALLDATASIZE DUP4 CALLDATACOPY ADD SWAP1 POP JUMPDEST POP SWAP1 POP PUSH1 0x0 JUMPDEST DUP3 DUP2 LT ISZERO PUSH2 0x43D5 JUMPI PUSH2 0x43B6 DUP6 DUP3 DUP2 MLOAD DUP2 LT PUSH2 0x43A2 JUMPI INVALID JUMPDEST PUSH1 0x20 MUL PUSH1 0x20 ADD ADD MLOAD DUP8 DUP4 DUP2 MLOAD DUP2 LT PUSH2 0xBED JUMPI INVALID JUMPDEST DUP3 DUP3 DUP2 MLOAD DUP2 LT PUSH2 0x43C2 JUMPI INVALID JUMPDEST PUSH1 0x20 SWAP1 DUP2 MUL SWAP2 SWAP1 SWAP2 ADD ADD MSTORE PUSH1 0x1 ADD PUSH2 0x438B JUMP JUMPDEST POP SWAP5 SWAP4 POP POP POP POP JUMP JUMPDEST PUSH1 0xA DUP6 ADD SLOAD PUSH1 0x0 SWAP1 PUSH1 0xFF DUP7 DUP2 AND SWAP1 DUP7 AND EQ ISZERO PUSH2 0x4441 JUMPI PUSH1 0x40 DUP1 MLOAD PUSH3 0x461BCD PUSH1 0xE5 SHL DUP2 MSTORE PUSH1 0x20 PUSH1 0x4 DUP3 ADD MSTORE PUSH1 0x1D PUSH1 0x24 DUP3 ADD MSTORE PUSH32 0x43616E277420636F6D7061726520746F6B656E20746F20697473656C66000000 PUSH1 0x44 DUP3 ADD MSTORE SWAP1 MLOAD SWAP1 DUP2 SWAP1 SUB PUSH1 0x64 ADD SWAP1 REVERT JUMPDEST DUP1 DUP7 PUSH1 0xFF AND LT DUP1 ISZERO PUSH2 0x4455 JUMPI POP DUP1 DUP6 PUSH1 0xFF AND LT JUMPDEST PUSH2 0x449F JUMPI PUSH1 0x40 DUP1 MLOAD PUSH3 0x461BCD PUSH1 0xE5 SHL DUP2 MSTORE PUSH1 0x20 PUSH1 0x4 DUP3 ADD MSTORE PUSH1 0x16 PUSH1 0x24 DUP3 ADD MSTORE PUSH22 0x151BDAD95B9CC81B5D5CDD081899481A5B881C1BDBDB PUSH1 0x52 SHL PUSH1 0x44 DUP3 ADD MSTORE SWAP1 MLOAD SWAP1 DUP2 SWAP1 SUB PUSH1 0x64 ADD SWAP1 REVERT JUMPDEST PUSH1 0x0 PUSH2 0x44AA DUP9 PUSH2 0x3826 JUMP JUMPDEST SWAP1 POP PUSH1 0x0 PUSH2 0x44B8 DUP6 DUP4 PUSH2 0x2A57 JUMP JUMPDEST SWAP1 POP DUP1 PUSH1 0x0 DUP1 PUSH2 0x44C8 DUP7 DUP7 PUSH2 0x36EF JUMP JUMPDEST SWAP1 POP PUSH1 0x0 DUP1 JUMPDEST DUP8 DUP2 LT ISZERO PUSH2 0x4541 JUMPI DUP13 PUSH1 0xFF AND DUP2 EQ ISZERO PUSH2 0x44E9 JUMPI DUP11 SWAP2 POP PUSH2 0x4513 JUMP JUMPDEST DUP12 PUSH1 0xFF AND DUP2 EQ PUSH2 0x450E JUMPI DUP10 DUP2 DUP2 MLOAD DUP2 LT PUSH2 0x44FF JUMPI INVALID JUMPDEST PUSH1 0x20 MUL PUSH1 0x20 ADD ADD MLOAD SWAP2 POP PUSH2 0x4513 JUMP JUMPDEST PUSH2 0x4539 JUMP JUMPDEST PUSH2 0x451D DUP5 DUP4 PUSH2 0x3695 JUMP JUMPDEST SWAP4 POP PUSH2 0x4536 PUSH2 0x452C DUP4 DUP11 PUSH2 0x36EF JUMP JUMPDEST PUSH2 0xC0D DUP8 DUP10 PUSH2 0x36EF JUMP JUMPDEST SWAP5 POP JUMPDEST PUSH1 0x1 ADD PUSH2 0x44CE JUMP JUMPDEST POP PUSH2 0x455E PUSH2 0x454F DUP4 DUP10 PUSH2 0x36EF JUMP JUMPDEST PUSH2 0xC0D PUSH1 0x64 PUSH2 0xC38 DUP9 DUP11 PUSH2 0x36EF JUMP JUMPDEST SWAP4 POP PUSH1 0x0 PUSH2 0x457B PUSH2 0x4574 DUP5 PUSH2 0xC0D DUP10 PUSH1 0x64 PUSH2 0x36EF JUMP JUMPDEST DUP6 SWAP1 PUSH2 0x3695 JUMP JUMPDEST SWAP1 POP PUSH1 0x0 DUP7 DUP2 JUMPDEST PUSH2 0x100 DUP2 LT ISZERO PUSH2 0x465B JUMPI SWAP1 SWAP2 POP DUP2 SWAP1 PUSH2 0x45B5 PUSH2 0x45A7 DUP11 PUSH2 0x2FFE DUP8 PUSH2 0xC51 DUP8 PUSH1 0x2 PUSH2 0x36EF JUMP JUMPDEST PUSH2 0xC0D DUP11 PUSH2 0xC51 DUP7 DUP1 PUSH2 0x36EF JUMP JUMPDEST SWAP2 POP DUP2 PUSH20 0x0 PUSH4 0x13A1EC75 SWAP1 SWAP2 DUP6 PUSH1 0x40 MLOAD DUP4 PUSH4 0xFFFFFFFF AND PUSH1 0xE0 SHL DUP2 MSTORE PUSH1 0x4 ADD DUP1 DUP4 DUP2 MSTORE PUSH1 0x20 ADD DUP3 DUP2 MSTORE PUSH1 0x20 ADD SWAP3 POP POP POP PUSH1 0x20 PUSH1 0x40 MLOAD DUP1 DUP4 SUB DUP2 DUP7 DUP1 EXTCODESIZE ISZERO DUP1 ISZERO PUSH2 0x4610 JUMPI PUSH1 0x0 DUP1 REVERT JUMPDEST POP GAS DELEGATECALL ISZERO DUP1 ISZERO PUSH2 0x4624 JUMPI RETURNDATASIZE PUSH1 0x0 DUP1 RETURNDATACOPY RETURNDATASIZE PUSH1 0x0 REVERT JUMPDEST POP POP POP POP PUSH1 0x40 MLOAD RETURNDATASIZE PUSH1 0x20 DUP2 LT ISZERO PUSH2 0x463A JUMPI PUSH1 0x0 DUP1 REVERT JUMPDEST POP MLOAD ISZERO PUSH2 0x4653 JUMPI POP SWAP10 POP PUSH2 0x24CA SWAP9 POP POP POP POP POP POP POP POP POP JUMP JUMPDEST PUSH1 0x1 ADD PUSH2 0x4582 JUMP JUMPDEST POP PUSH1 0x40 DUP1 MLOAD PUSH3 0x461BCD PUSH1 0xE5 SHL DUP2 MSTORE PUSH1 0x20 PUSH1 0x4 DUP3 ADD MSTORE PUSH1 0x1E PUSH1 0x24 DUP3 ADD MSTORE PUSH32 0x417070726F78696D6174696F6E20646964206E6F7420636F6E76657267650000 PUSH1 0x44 DUP3 ADD MSTORE SWAP1 MLOAD SWAP1 DUP2 SWAP1 SUB PUSH1 0x64 ADD SWAP1 REVERT JUMPDEST DUP2 MLOAD PUSH1 0x0 SWAP1 PUSH1 0xFF DUP6 AND DUP2 GT PUSH2 0x46F7 JUMPI PUSH1 0x40 DUP1 MLOAD PUSH3 0x461BCD PUSH1 0xE5 SHL DUP2 MSTORE PUSH1 0x20 PUSH1 0x4 DUP3 ADD MSTORE PUSH1 0xF PUSH1 0x24 DUP3 ADD MSTORE PUSH15 0x151BDAD95B881B9BDD08199BDD5B99 PUSH1 0x8A SHL PUSH1 0x44 DUP3 ADD MSTORE SWAP1 MLOAD SWAP1 DUP2 SWAP1 SUB PUSH1 0x64 ADD SWAP1 REVERT JUMPDEST DUP3 PUSH1 0x0 DUP1 PUSH2 0x4705 DUP10 DUP6 PUSH2 0x36EF JUMP JUMPDEST SWAP1 POP PUSH1 0x0 JUMPDEST DUP5 DUP2 LT ISZERO PUSH2 0x476C JUMPI DUP9 PUSH1 0xFF AND DUP2 EQ PUSH2 0x4764 JUMPI PUSH2 0x4742 DUP9 DUP3 DUP2 MLOAD DUP2 LT PUSH2 0x472B JUMPI INVALID JUMPDEST PUSH1 0x20 MUL PUSH1 0x20 ADD ADD MLOAD DUP5 PUSH2 0x3695 SWAP1 SWAP2 SWAP1 PUSH4 0xFFFFFFFF AND JUMP JUMPDEST SWAP3 POP PUSH2 0x4761 PUSH2 0x4757 DUP7 DUP11 DUP5 DUP2 MLOAD DUP2 LT PUSH2 0xBED JUMPI INVALID JUMPDEST PUSH2 0xC0D DUP7 DUP11 PUSH2 0x36EF JUMP JUMPDEST SWAP4 POP JUMPDEST PUSH1 0x1 ADD PUSH2 0x470A JUMP JUMPDEST POP PUSH2 0x4789 PUSH2 0x477A DUP3 DUP7 PUSH2 0x36EF JUMP JUMPDEST PUSH2 0xC0D PUSH1 0x64 PUSH2 0xC38 DUP8 DUP12 PUSH2 0x36EF JUMP JUMPDEST SWAP3 POP PUSH1 0x0 PUSH2 0x47A6 PUSH2 0x479F DUP4 PUSH2 0xC0D DUP11 PUSH1 0x64 PUSH2 0x36EF JUMP JUMPDEST DUP5 SWAP1 PUSH2 0x3695 JUMP JUMPDEST SWAP1 POP PUSH1 0x0 DUP8 DUP2 JUMPDEST PUSH2 0x100 DUP2 LT ISZERO PUSH2 0x465B JUMPI SWAP1 SWAP2 POP DUP2 SWAP1 PUSH2 0x47E0 PUSH2 0x47D2 DUP12 PUSH2 0x2FFE DUP8 PUSH2 0xC51 DUP8 PUSH1 0x2 PUSH2 0x36EF JUMP JUMPDEST PUSH2 0xC0D DUP10 PUSH2 0xC51 DUP7 DUP1 PUSH2 0x36EF JUMP JUMPDEST SWAP2 POP DUP2 PUSH20 0x0 PUSH4 0x13A1EC75 SWAP1 SWAP2 DUP6 PUSH1 0x40 MLOAD DUP4 PUSH4 0xFFFFFFFF AND PUSH1 0xE0 SHL DUP2 MSTORE PUSH1 0x4 ADD DUP1 DUP4 DUP2 MSTORE PUSH1 0x20 ADD DUP3 DUP2 MSTORE PUSH1 0x20 ADD SWAP3 POP POP POP PUSH1 0x20 PUSH1 0x40 MLOAD DUP1 DUP4 SUB DUP2 DUP7 DUP1 EXTCODESIZE ISZERO DUP1 ISZERO PUSH2 0x483B JUMPI PUSH1 0x0 DUP1 REVERT JUMPDEST POP GAS DELEGATECALL ISZERO DUP1 ISZERO PUSH2 0x484F JUMPI RETURNDATASIZE PUSH1 0x0 DUP1 RETURNDATACOPY RETURNDATASIZE PUSH1 0x0 REVERT JUMPDEST POP POP POP POP PUSH1 0x40 MLOAD RETURNDATASIZE PUSH1 0x20 DUP2 LT ISZERO PUSH2 0x4865 JUMPI PUSH1 0x0 DUP1 REVERT JUMPDEST POP MLOAD ISZERO PUSH2 0x487B JUMPI POP SWAP7 POP PUSH2 0x2A4F SWAP6 POP POP POP POP POP POP JUMP JUMPDEST PUSH1 0x1 ADD PUSH2 0x47AD JUMP JUMPDEST PUSH1 0x60 PUSH2 0x2A4F DUP5 DUP5 PUSH1 0x0 DUP6 DUP6 PUSH2 0x4897 DUP6 PUSH2 0x49A9 JUMP JUMPDEST PUSH2 0x48E8 JUMPI PUSH1 0x40 DUP1 MLOAD PUSH3 0x461BCD PUSH1 0xE5 SHL DUP2 MSTORE PUSH1 0x20 PUSH1 0x4 DUP3 ADD MSTORE PUSH1 0x1D PUSH1 0x24 DUP3 ADD MSTORE PUSH32 0x416464726573733A2063616C6C20746F206E6F6E2D636F6E7472616374000000 PUSH1 0x44 DUP3 ADD MSTORE SWAP1 MLOAD SWAP1 DUP2 SWAP1 SUB PUSH1 0x64 ADD SWAP1 REVERT JUMPDEST PUSH1 0x0 PUSH1 0x60 DUP7 PUSH1 0x1 PUSH1 0x1 PUSH1 0xA0 SHL SUB AND DUP6 DUP8 PUSH1 0x40 MLOAD DUP1 DUP3 DUP1 MLOAD SWAP1 PUSH1 0x20 ADD SWAP1 DUP1 DUP4 DUP4 JUMPDEST PUSH1 0x20 DUP4 LT PUSH2 0x4927 JUMPI DUP1 MLOAD DUP3 MSTORE PUSH1 0x1F NOT SWAP1 SWAP3 ADD SWAP2 PUSH1 0x20 SWAP2 DUP3 ADD SWAP2 ADD PUSH2 0x4908 JUMP JUMPDEST PUSH1 0x1 DUP4 PUSH1 0x20 SUB PUSH2 0x100 EXP SUB DUP1 NOT DUP3 MLOAD AND DUP2 DUP5 MLOAD AND DUP1 DUP3 OR DUP6 MSTORE POP POP POP POP POP POP SWAP1 POP ADD SWAP2 POP POP PUSH1 0x0 PUSH1 0x40 MLOAD DUP1 DUP4 SUB DUP2 DUP6 DUP8 GAS CALL SWAP3 POP POP POP RETURNDATASIZE DUP1 PUSH1 0x0 DUP2 EQ PUSH2 0x4989 JUMPI PUSH1 0x40 MLOAD SWAP2 POP PUSH1 0x1F NOT PUSH1 0x3F RETURNDATASIZE ADD AND DUP3 ADD PUSH1 0x40 MSTORE RETURNDATASIZE DUP3 MSTORE RETURNDATASIZE PUSH1 0x0 PUSH1 0x20 DUP5 ADD RETURNDATACOPY PUSH2 0x498E JUMP JUMPDEST PUSH1 0x60 SWAP2 POP JUMPDEST POP SWAP2 POP SWAP2 POP PUSH2 0x499E DUP3 DUP3 DUP7 PUSH2 0x49AF JUMP JUMPDEST SWAP8 SWAP7 POP POP POP POP POP POP POP JUMP JUMPDEST EXTCODESIZE ISZERO ISZERO SWAP1 JUMP JUMPDEST PUSH1 0x60 DUP4 ISZERO PUSH2 0x49BE JUMPI POP DUP2 PUSH2 0xD5F JUMP JUMPDEST DUP3 MLOAD ISZERO PUSH2 0x49CE JUMPI DUP3 MLOAD DUP1 DUP5 PUSH1 0x20 ADD REVERT JUMPDEST PUSH1 0x40 MLOAD PUSH3 0x461BCD PUSH1 0xE5 SHL DUP2 MSTORE PUSH1 0x20 PUSH1 0x4 DUP3 ADD DUP2 DUP2 MSTORE DUP5 MLOAD PUSH1 0x24 DUP5 ADD MSTORE DUP5 MLOAD DUP6 SWAP4 SWAP2 SWAP3 DUP4 SWAP3 PUSH1 0x44 ADD SWAP2 SWAP1 DUP6 ADD SWAP1 DUP1 DUP4 DUP4 PUSH1 0x0 DUP4 ISZERO PUSH2 0x3A4C JUMPI DUP2 DUP2 ADD MLOAD DUP4 DUP3 ADD MSTORE PUSH1 0x20 ADD PUSH2 0x3A34 JUMP JUMPDEST PUSH1 0x40 MLOAD DUP1 PUSH1 0x80 ADD PUSH1 0x40 MSTORE DUP1 PUSH1 0x0 DUP2 MSTORE PUSH1 0x20 ADD PUSH1 0x0 DUP2 MSTORE PUSH1 0x20 ADD PUSH1 0x0 DUP2 MSTORE PUSH1 0x20 ADD PUSH1 0x0 DUP2 MSTORE POP SWAP1 JUMP JUMPDEST DUP3 DUP1 SLOAD DUP3 DUP3 SSTORE SWAP1 PUSH1 0x0 MSTORE PUSH1 0x20 PUSH1 0x0 KECCAK256 SWAP1 DUP2 ADD SWAP3 DUP3 ISZERO PUSH2 0x4A78 JUMPI SWAP2 PUSH1 0x20 MUL DUP3 ADD JUMPDEST DUP3 DUP2 GT ISZERO PUSH2 0x4A78 JUMPI DUP3 MLOAD DUP3 SSTORE SWAP2 PUSH1 0x20 ADD SWAP2 SWAP1 PUSH1 0x1 ADD SWAP1 PUSH2 0x4A5D JUMP JUMPDEST POP PUSH2 0x4A84 SWAP3 SWAP2 POP PUSH2 0x4AB7 JUMP JUMPDEST POP SWAP1 JUMP JUMPDEST PUSH1 0x40 MLOAD DUP1 PUSH1 0xA0 ADD PUSH1 0x40 MSTORE DUP1 PUSH1 0x0 DUP2 MSTORE PUSH1 0x20 ADD PUSH1 0x0 DUP2 MSTORE PUSH1 0x20 ADD PUSH1 0x0 DUP2 MSTORE PUSH1 0x20 ADD PUSH1 0x0 DUP2 MSTORE PUSH1 0x20 ADD PUSH1 0x0 DUP2 MSTORE POP SWAP1 JUMP JUMPDEST JUMPDEST DUP1 DUP3 GT ISZERO PUSH2 0x4A84 JUMPI PUSH1 0x0 DUP2 SSTORE PUSH1 0x1 ADD PUSH2 0x4AB8 JUMP INVALID MSTORE8 PUSH2 0x6665 0x4D PUSH2 0x7468 GASPRICE KECCAK256 PUSH14 0x756C7469706C69636174696F6E20 PUSH16 0x766572666C6F77536166654552433230 GASPRICE KECCAK256 GASLIMIT MSTORE NUMBER ORIGIN ADDRESS KECCAK256 PUSH16 0x7065726174696F6E20646964206E6F74 KECCAK256 PUSH20 0x75636365656443616E6E6F742077697468647261 PUSH24 0x206D6F7265207468616E20617661696C61626C65A2646970 PUSH7 0x735822122015EC SHR DUP12 PUSH27 0x98F127160FBF9E829DA77E3318F770488DF0AB4555CD9C4172D969 PUSH5 0x736F6C6343 STOP MOD 0xC STOP CALLER ","sha1":"5fccc35cf4d489e1f697a2a604be0d9578b37d71","source":"// SPDX-License-Identifier: MIT\n\npragma solidity 0.6.12;\n\nimport 'OpenZeppelin/openzeppelin-contracts@3.4.0/contracts/math/SafeMath.sol';\nimport 'OpenZeppelin/openzeppelin-contracts@3.4.0/contracts/token/ERC20/SafeERC20.sol';\nimport \"./LPToken.sol\";\nimport \"./MathUtils.sol\";\n\n/**\n * @title SwapUtils library\n * @notice A library to be used within Swap.sol. Contains functions responsible for custody and AMM functionalities.\n * @dev Contracts relying on this library must initialize SwapUtils.Swap struct then use this library\n * for SwapUtils.Swap struct. Note that this library contains both functions called by users and admins.\n * Admin functions should be protected within contracts using this library.\n */\nlibrary SwapUtils {\n    using SafeERC20 for IERC20;\n    using SafeMath for uint256;\n    using MathUtils for uint256;\n\n    /*** EVENTS ***/\n\n    event TokenSwap(\n        address indexed buyer,\n        uint256 tokensSold,\n        uint256 tokensBought,\n        uint128 soldId,\n        uint128 boughtId\n    );\n    event AddLiquidity(\n        address indexed provider,\n        uint256[] tokenAmounts,\n        uint256[] fees,\n        uint256 invariant,\n        uint256 lpTokenSupply\n    );\n    event RemoveLiquidity(\n        address indexed provider,\n        uint256[] tokenAmounts,\n        uint256 lpTokenSupply\n    );\n    event RemoveLiquidityOne(\n        address indexed provider,\n        uint256 lpTokenAmount,\n        uint256 lpTokenSupply,\n        uint256 boughtId,\n        uint256 tokensBought\n    );\n    event RemoveLiquidityImbalance(\n        address indexed provider,\n        uint256[] tokenAmounts,\n        uint256[] fees,\n        uint256 invariant,\n        uint256 lpTokenSupply\n    );\n    event NewAdminFee(uint256 newAdminFee);\n    event NewSwapFee(uint256 newSwapFee);\n    event NewWithdrawFee(uint256 newWithdrawFee);\n    event NewDepositFee(uint256 newDepositFee);\n    event RampA(\n        uint256 oldA,\n        uint256 newA,\n        uint256 initialTime,\n        uint256 futureTime\n    );\n    event StopRampA(uint256 currentA, uint256 time);\n\n    struct Swap {\n        // variables around the ramp management of A,\n        // the amplification coefficient * n * (n - 1)\n        // see https://www.curve.fi/stableswap-paper.pdf for details\n        uint256 initialA;\n        uint256 futureA;\n        uint256 initialATime;\n        uint256 futureATime;\n        // fee calculation\n        uint256 swapFee;\n        uint256 adminFee;\n        uint256 defaultDepositFee;\n        uint256 defaultWithdrawFee;\n        address devaddr;\n        LPToken lpToken;\n        // contract references for all tokens being pooled\n        IERC20[] pooledTokens;\n        // multipliers for each pooled token's precision to get to POOL_PRECISION_DECIMALS\n        // for example, TBTC has 18 decimals, so the multiplier should be 1. WBTC\n        // has 8, so the multiplier should be 10 ** 18 / 10 ** 8 => 10 ** 10\n        uint256[] tokenPrecisionMultipliers;\n        // the pool balance of each token, in the token's precision\n        // the contract's actual token balance might differ\n        uint256[] balances;\n        mapping(address => uint256) depositTimestamp;\n        mapping(address => uint256) withdrawFeeMultiplier;\n    }\n\n    // Struct storing variables used in calculations in the\n    // calculateWithdrawOneTokenDY function to avoid stack too deep errors\n    struct CalculateWithdrawOneTokenDYInfo {\n        uint256 d0;\n        uint256 d1;\n        uint256 newY;\n        uint256 feePerToken;\n        uint256 preciseA;\n    }\n\n    // Struct storing variables used in calculation in addLiquidity function\n    // to avoid stack too deep error\n    struct AddLiquidityInfo {\n        uint256 d0;\n        uint256 d1;\n        uint256 d2;\n        uint256 preciseA;\n    }\n\n    // Struct storing variables used in calculation in removeLiquidityImbalance function\n    // to avoid stack too deep error\n    struct RemoveLiquidityImbalanceInfo {\n        uint256 d0;\n        uint256 d1;\n        uint256 d2;\n        uint256 preciseA;\n    }\n\n    // the precision all pools tokens will be converted to\n    uint8 public constant POOL_PRECISION_DECIMALS = 18;\n\n    // the denominator used to calculate admin and LP fees. For example, an\n    // LP fee might be something like tradeAmount.mul(fee).div(FEE_DENOMINATOR)\n    uint256 private constant FEE_DENOMINATOR = 10**10;\n\n    // Max swap fee is 1% or 100bps of each swap\n    uint256 public constant MAX_SWAP_FEE = 10**8;\n\n    // Max adminFee is 100% of the swapFee\n    // adminFee does not add additional fee on top of swapFee\n    // Instead it takes a certain % of the swapFee. Therefore it has no impact on the\n    // users but only on the earnings of LPs\n    uint256 public constant MAX_ADMIN_FEE = 10**10;\n\n    // Max withdrawFee is 1% of the value withdrawn\n    // Fee will be redistributed to the LPs in the pool, rewarding\n    // long term providers.\n    uint256 public constant MAX_WITHDRAW_FEE = 10**8;\n\n    // Max depositFee is 1% of the value deposited\n    uint256 public constant MAX_DEPOSIT_FEE = 10**8;\n    \n    // Constant value used as max loop limit\n    uint256 private constant MAX_LOOP_LIMIT = 256;\n\n    // Constant values used in ramping A calculations\n    uint256 public constant A_PRECISION = 100;\n    uint256 public constant MAX_A = 10**6;\n    uint256 private constant MAX_A_CHANGE = 2;\n    uint256 private constant MIN_RAMP_TIME = 14 days;\n\n    /*** VIEW & PURE FUNCTIONS ***/\n\n    /**\n     * @notice Return A, the amplification coefficient * n * (n - 1)\n     * @dev See the StableSwap paper for details\n     * @param self Swap struct to read from\n     * @return A parameter\n     */\n    function getA(Swap storage self) external view returns (uint256) {\n        return _getA(self);\n    }\n\n    /**\n     * @notice Return A, the amplification coefficient * n * (n - 1)\n     * @dev See the StableSwap paper for details\n     * @param self Swap struct to read from\n     * @return A parameter\n     */\n    function _getA(Swap storage self) internal view returns (uint256) {\n        return _getAPrecise(self).div(A_PRECISION);\n    }\n\n    /**\n     * @notice Return A in its raw precision\n     * @dev See the StableSwap paper for details\n     * @param self Swap struct to read from\n     * @return A parameter in its raw precision form\n     */\n    function getAPrecise(Swap storage self) external view returns (uint256) {\n        return _getAPrecise(self);\n    }\n\n    /**\n     * @notice Calculates and returns A based on the ramp settings\n     * @dev See the StableSwap paper for details\n     * @param self Swap struct to read from\n     * @return A parameter in its raw precision form\n     */\n    function _getAPrecise(Swap storage self) internal view returns (uint256) {\n        uint256 t1 = self.futureATime; // time when ramp is finished\n        uint256 a1 = self.futureA; // final A value when ramp is finished\n\n        if (block.timestamp < t1) {\n            uint256 t0 = self.initialATime; // time when ramp is started\n            uint256 a0 = self.initialA; // initial A value when ramp is started\n            if (a1 > a0) {\n                // a0 + (a1 - a0) * (block.timestamp - t0) / (t1 - t0)\n                return\n                    a0.add(\n                        a1.sub(a0).mul(block.timestamp.sub(t0)).div(t1.sub(t0))\n                    );\n            } else {\n                // a0 - (a0 - a1) * (block.timestamp - t0) / (t1 - t0)\n                return\n                    a0.sub(\n                        a0.sub(a1).mul(block.timestamp.sub(t0)).div(t1.sub(t0))\n                    );\n            }\n        } else {\n            return a1;\n        }\n    }\n\n    /**\n     * @notice Retrieves the timestamp of last deposit made by the given address\n     * @param self Swap struct to read from\n     * @return timestamp of last deposit\n     */\n    function getDepositTimestamp(Swap storage self, address user)\n        external\n        view\n        returns (uint256)\n    {\n        return self.depositTimestamp[user];\n    }\n\n    /**\n     * @notice Calculate the dy, the amount of selected token that user receives and\n     * the fee of withdrawing in one token\n     * @param account the address that is withdrawing\n     * @param tokenAmount the amount to withdraw in the pool's precision\n     * @param tokenIndex which token will be withdrawn\n     * @param self Swap struct to read from\n     * @return the amount of token user will receive and the associated swap fee\n     */\n    function calculateWithdrawOneToken(\n        Swap storage self,\n        address account,\n        uint256 tokenAmount,\n        uint8 tokenIndex\n    ) public view returns (uint256, uint256) {\n        uint256 dy;\n        uint256 newY;\n\n        (dy, newY) = calculateWithdrawOneTokenDY(self, tokenIndex, tokenAmount);\n\n        // dy_0 (without fees)\n        // dy, dy_0 - dy\n\n        uint256 dySwapFee =\n            _xp(self)[tokenIndex]\n                .sub(newY)\n                .div(self.tokenPrecisionMultipliers[tokenIndex])\n                .sub(dy);\n\n        dy = dy\n            .mul(\n            FEE_DENOMINATOR.sub(calculateCurrentWithdrawFee(self, account))\n        )\n            .div(FEE_DENOMINATOR);\n\n        return (dy, dySwapFee);\n    }\n\n    /**\n     * @notice Calculate the dy of withdrawing in one token\n     * @param self Swap struct to read from\n     * @param tokenIndex which token will be withdrawn\n     * @param tokenAmount the amount to withdraw in the pools precision\n     * @return the d and the new y after withdrawing one token\n     */\n    function calculateWithdrawOneTokenDY(\n        Swap storage self,\n        uint8 tokenIndex,\n        uint256 tokenAmount\n    ) internal view returns (uint256, uint256) {\n        require(\n            tokenIndex < self.pooledTokens.length,\n            \"Token index out of range\"\n        );\n\n        // Get the current D, then solve the stableswap invariant\n        // y_i for D - tokenAmount\n        uint256[] memory xp = _xp(self);\n        CalculateWithdrawOneTokenDYInfo memory v =\n            CalculateWithdrawOneTokenDYInfo(0, 0, 0, 0, 0);\n        v.preciseA = _getAPrecise(self);\n        v.d0 = getD(xp, v.preciseA);\n        v.d1 = v.d0.sub(tokenAmount.mul(v.d0).div(self.lpToken.totalSupply()));\n\n        require(tokenAmount <= xp[tokenIndex], \"Withdraw exceeds available\");\n\n        v.newY = getYD(v.preciseA, tokenIndex, xp, v.d1);\n\n        uint256[] memory xpReduced = new uint256[](xp.length);\n\n        v.feePerToken = _feePerToken(self);\n        for (uint256 i = 0; i < self.pooledTokens.length; i++) {\n            uint256 xpi = xp[i];\n            // if i == tokenIndex, dxExpected = xp[i] * d1 / d0 - newY\n            // else dxExpected = xp[i] - (xp[i] * d1 / d0)\n            // xpReduced[i] -= dxExpected * fee / FEE_DENOMINATOR\n            xpReduced[i] = xpi.sub(\n                (\n                    (i == tokenIndex)\n                        ? xpi.mul(v.d1).div(v.d0).sub(v.newY)\n                        : xpi.sub(xpi.mul(v.d1).div(v.d0))\n                )\n                    .mul(v.feePerToken)\n                    .div(FEE_DENOMINATOR)\n            );\n        }\n\n        uint256 dy =\n            xpReduced[tokenIndex].sub(\n                getYD(v.preciseA, tokenIndex, xpReduced, v.d1)\n            );\n        dy = dy.sub(1).div(self.tokenPrecisionMultipliers[tokenIndex]);\n\n        return (dy, v.newY);\n    }\n\n    /**\n     * @notice Calculate the price of a token in the pool with given\n     * precision-adjusted balances and a particular D.\n     *\n     * @dev This is accomplished via solving the invariant iteratively.\n     * See the StableSwap paper and Curve.fi implementation for further details.\n     *\n     * x_1**2 + x1 * (sum' - (A*n**n - 1) * D / (A * n**n)) = D ** (n + 1) / (n ** (2 * n) * prod' * A)\n     * x_1**2 + b*x_1 = c\n     * x_1 = (x_1**2 + c) / (2*x_1 + b)\n     *\n     * @param a the amplification coefficient * n * (n - 1). See the StableSwap paper for details.\n     * @param tokenIndex Index of token we are calculating for.\n     * @param xp a precision-adjusted set of pool balances. Array should be\n     * the same cardinality as the pool.\n     * @param d the stableswap invariant\n     * @return the price of the token, in the same precision as in xp\n     */\n    function getYD(\n        uint256 a,\n        uint8 tokenIndex,\n        uint256[] memory xp,\n        uint256 d\n    ) internal pure returns (uint256) {\n        uint256 numTokens = xp.length;\n        require(tokenIndex < numTokens, \"Token not found\");\n\n        uint256 c = d;\n        uint256 s;\n        uint256 nA = a.mul(numTokens);\n\n        for (uint256 i = 0; i < numTokens; i++) {\n            if (i != tokenIndex) {\n                s = s.add(xp[i]);\n                c = c.mul(d).div(xp[i].mul(numTokens));\n                // If we were to protect the division loss we would have to keep the denominator separate\n                // and divide at the end. However this leads to overflow with large numTokens or/and D.\n                // c = c * D * D * D * ... overflow!\n            }\n        }\n        c = c.mul(d).mul(A_PRECISION).div(nA.mul(numTokens));\n\n        uint256 b = s.add(d.mul(A_PRECISION).div(nA));\n        uint256 yPrev;\n        uint256 y = d;\n        for (uint256 i = 0; i < MAX_LOOP_LIMIT; i++) {\n            yPrev = y;\n            y = y.mul(y).add(c).div(y.mul(2).add(b).sub(d));\n            if (y.within1(yPrev)) {\n                return y;\n            }\n        }\n        revert(\"Approximation did not converge\");\n    }\n\n    /**\n     * @notice Get D, the StableSwap invariant, based on a set of balances and a particular A.\n     * @param xp a precision-adjusted set of pool balances. Array should be the same cardinality\n     * as the pool.\n     * @param a the amplification coefficient * n * (n - 1) in A_PRECISION.\n     * See the StableSwap paper for details\n     * @return the invariant, at the precision of the pool\n     */\n    function getD(uint256[] memory xp, uint256 a)\n        public\n        pure\n        returns (uint256)\n    {\n        uint256 numTokens = xp.length;\n        uint256 s;\n        for (uint256 i = 0; i < numTokens; i++) {\n            s = s.add(xp[i]);\n        }\n        if (s == 0) {\n            return 0;\n        }\n\n        uint256 prevD;\n        uint256 d = s;\n        uint256 nA = a.mul(numTokens);\n\n        for (uint256 i = 0; i < MAX_LOOP_LIMIT; i++) {\n            uint256 dP = d;\n            for (uint256 j = 0; j < numTokens; j++) {\n                dP = dP.mul(d).div(xp[j].mul(numTokens));\n                // If we were to protect the division loss we would have to keep the denominator separate\n                // and divide at the end. However this leads to overflow with large numTokens or/and D.\n                // dP = dP * D * D * D * ... overflow!\n            }\n            prevD = d;\n            d = nA.mul(s).div(A_PRECISION).add(dP.mul(numTokens)).mul(d).div(\n                nA.sub(A_PRECISION).mul(d).div(A_PRECISION).add(\n                    numTokens.add(1).mul(dP)\n                )\n            );\n            if (d.within1(prevD)) {\n                return d;\n            }\n        }\n    }\n\n    function egetD(Swap storage self, uint256[] memory xp, uint256 a)\n        public\n        pure\n        returns (uint256)\n    {\n        uint256 numTokens = xp.length;\n        uint256 s;\n        for (uint256 i = 0; i < numTokens; i++) {\n            s = s.add(xp[i]);\n        }\n        if (s == 0) {\n            return 0;\n        }\n\n        uint256 prevD;\n        uint256 d = s;\n        uint256 nA = a.mul(numTokens);\n\n        for (uint256 i = 0; i < MAX_LOOP_LIMIT; i++) {\n            uint256 dP = d;\n            for (uint256 j = 0; j < numTokens; j++) {\n                dP = dP.mul(d).div(xp[j].mul(numTokens));\n                // If we were to protect the division loss we would have to keep the denominator separate\n                // and divide at the end. However this leads to overflow with large numTokens or/and D.\n                // dP = dP * D * D * D * ... overflow!\n            }\n            prevD = d;\n            d = nA.mul(s).div(A_PRECISION).add(dP.mul(numTokens)).mul(d).div(\n                nA.sub(A_PRECISION).mul(d).div(A_PRECISION).add(\n                    numTokens.add(1).mul(dP)\n                )\n            );\n            if (d.within1(prevD)) {\n                return d;\n            }\n        }\n\n        // Convergence should occur in 4 loops or less. If this is reached, there may be something wrong\n        // with the pool. If this were to occur repeatedly, LPs should withdraw via `removeLiquidity()`\n        // function which does not rely on D.\n        revert(\"D does not converge\");\n    }\n\n    /**\n     * @notice Get D, the StableSwap invariant, based on self Swap struct\n     * @param self Swap struct to read from\n     * @return The invariant, at the precision of the pool\n     */\n    function onegetD(Swap storage self) internal view returns (uint256) {\n        return getD(_xp(self), _getAPrecise(self));\n    }\n\n    /**\n     * @notice Given a set of balances and precision multipliers, return the\n     * precision-adjusted balances.\n     *\n     * @param balances an array of token balances, in their native precisions.\n     * These should generally correspond with pooled tokens.\n     *\n     * @param precisionMultipliers an array of multipliers, corresponding to\n     * the amounts in the balances array. When multiplied together they\n     * should yield amounts at the pool's precision.\n     *\n     * @return an array of amounts \"scaled\" to the pool's precision\n     */\n    function _xp(\n        uint256[] memory balances,\n        uint256[] memory precisionMultipliers\n    ) internal pure returns (uint256[] memory) {\n        uint256 numTokens = balances.length;\n        require(\n            numTokens == precisionMultipliers.length,\n            \"Balances must match multipliers\"\n        );\n        uint256[] memory xp = new uint256[](numTokens);\n        for (uint256 i = 0; i < numTokens; i++) {\n            xp[i] = balances[i].mul(precisionMultipliers[i]);\n        }\n        return xp;\n    }\n\n    /**\n     * @notice Return the precision-adjusted balances of all tokens in the pool\n     * @param self Swap struct to read from\n     * @param balances array of balances to scale\n     * @return balances array \"scaled\" to the pool's precision, allowing\n     * them to be more easily compared.\n     */\n    function _xp(Swap storage self, uint256[] memory balances)\n        internal\n        view\n        returns (uint256[] memory)\n    {\n        return _xp(balances, self.tokenPrecisionMultipliers);\n    }\n\n    /**\n     * @notice Return the precision-adjusted balances of all tokens in the pool\n     * @param self Swap struct to read from\n     * @return the pool balances \"scaled\" to the pool's precision, allowing\n     * them to be more easily compared.\n     */\n    function _xp(Swap storage self) internal view returns (uint256[] memory) {\n        return _xp(self.balances, self.tokenPrecisionMultipliers);\n    }\n\n    /**\n     * @notice Get the virtual price, to help calculate profit\n     * @param self Swap struct to read from\n     * @return the virtual price, scaled to precision of POOL_PRECISION_DECIMALS\n     */\n    function getVirtualPrice(Swap storage self)\n        external\n        view\n        returns (uint256)\n    {\n        uint256 d = getD(_xp(self), _getAPrecise(self));\n        uint256 supply = self.lpToken.totalSupply();\n        if (supply > 0) {\n            return\n                d.mul(10**uint256(ERC20(self.lpToken).decimals())).div(supply);\n        }\n        return 0;\n    }\n\n    /**\n     * @notice Calculate the new balances of the tokens given the indexes of the token\n     * that is swapped from (FROM) and the token that is swapped to (TO).\n     * This function is used as a helper function to calculate how much TO token\n     * the user should receive on swap.\n     *\n     * @param self Swap struct to read from\n     * @param tokenIndexFrom index of FROM token\n     * @param tokenIndexTo index of TO token\n     * @param x the new total amount of FROM token\n     * @param xp balances of the tokens in the pool\n     * @return the amount of TO token that should remain in the pool\n     */\n    function getY(\n        Swap storage self,\n        uint8 tokenIndexFrom,\n        uint8 tokenIndexTo,\n        uint256 x,\n        uint256[] memory xp\n    ) internal view returns (uint256) {\n        uint256 numTokens = self.pooledTokens.length;\n        require(\n            tokenIndexFrom != tokenIndexTo,\n            \"Can't compare token to itself\"\n        );\n        require(\n            tokenIndexFrom < numTokens && tokenIndexTo < numTokens,\n            \"Tokens must be in pool\"\n        );\n\n        uint256 a = _getAPrecise(self);\n        uint256 d = getD(xp, a);\n        uint256 c = d;\n        uint256 s;\n        uint256 nA = numTokens.mul(a);\n\n        uint256 _x;\n        for (uint256 i = 0; i < numTokens; i++) {\n            if (i == tokenIndexFrom) {\n                _x = x;\n            } else if (i != tokenIndexTo) {\n                _x = xp[i];\n            } else {\n                continue;\n            }\n            s = s.add(_x);\n            c = c.mul(d).div(_x.mul(numTokens));\n            // If we were to protect the division loss we would have to keep the denominator separate\n            // and divide at the end. However this leads to overflow with large numTokens or/and D.\n            // c = c * D * D * D * ... overflow!\n        }\n        c = c.mul(d).mul(A_PRECISION).div(nA.mul(numTokens));\n        uint256 b = s.add(d.mul(A_PRECISION).div(nA));\n        uint256 yPrev;\n        uint256 y = d;\n\n        // iterative approximation\n        for (uint256 i = 0; i < MAX_LOOP_LIMIT; i++) {\n            yPrev = y;\n            y = y.mul(y).add(c).div(y.mul(2).add(b).sub(d));\n            if (y.within1(yPrev)) {\n                return y;\n            }\n        }\n        revert(\"Approximation did not converge\");\n    }\n\n    function agetY(\n        Swap storage self,\n        uint8 tokenIndexFrom,\n        uint8 tokenIndexTo,\n        uint256 x,\n        uint256[] memory xp, \n        uint256 a\n    ) internal view returns (uint256) {\n        uint256 numTokens = self.pooledTokens.length;\n        require(\n            tokenIndexFrom != tokenIndexTo,\n            \"Can't compare token to itself\"\n        );\n        require(\n            tokenIndexFrom < numTokens && tokenIndexTo < numTokens,\n            \"Tokens must be in pool\"\n        );\n\n        uint256 d = getD(xp, a);\n        uint256 c = d;\n        uint256 s;\n        uint256 nA = numTokens.mul(a);\n\n        uint256 _x;\n        for (uint256 i = 0; i < numTokens; i++) {\n            if (i == tokenIndexFrom) {\n                _x = x;\n            } else if (i != tokenIndexTo) {\n                _x = xp[i];\n            } else {\n                continue;\n            }\n            s = s.add(_x);\n            c = c.mul(d).div(_x.mul(numTokens));\n            // If we were to protect the division loss we would have to keep the denominator separate\n            // and divide at the end. However this leads to overflow with large numTokens or/and D.\n            // c = c * D * D * D * ... overflow!\n        }\n        c = c.mul(d).mul(A_PRECISION).div(nA.mul(numTokens));\n        uint256 b = s.add(d.mul(A_PRECISION).div(nA));\n        uint256 yPrev;\n        uint256 y = d;\n\n        // iterative approximation\n        for (uint256 i = 0; i < MAX_LOOP_LIMIT; i++) {\n            yPrev = y;\n            y = y.mul(y).add(c).div(y.mul(2).add(b).sub(d));\n            if (y.within1(yPrev)) {\n                return y;\n            }\n        }\n        revert(\"Approximation did not converge\");\n    }\n\n\n    /**\n     * @notice Externally calculates a swap between two tokens.\n     * @param self Swap struct to read from\n     * @param tokenIndexFrom the token to sell\n     * @param tokenIndexTo the token to buy\n     * @param dx the number of tokens to sell. If the token charges a fee on transfers,\n     * use the amount that gets transferred after the fee.\n     * @return dy the number of tokens the user will get\n     */\n    function calculateSwap(\n        Swap storage self,\n        uint8 tokenIndexFrom,\n        uint8 tokenIndexTo,\n        uint256 dx\n    ) external view returns (uint256 dy) {\n        (dy, ) = _calculateSwap(self, tokenIndexFrom, tokenIndexTo, dx);\n    }\n\n    /**\n     * @notice Internally calculates a swap between two tokens.\n     *\n     * @dev The caller is expected to transfer the actual amounts (dx and dy)\n     * using the token contracts.\n     *\n     * @param self Swap struct to read from\n     * @param tokenIndexFrom the token to sell\n     * @param tokenIndexTo the token to buy\n     * @param dx the number of tokens to sell. If the token charges a fee on transfers,\n     * use the amount that gets transferred after the fee.\n     * @return dy the number of tokens the user will get\n     * @return dyFee the associated fee\n     */\n    function _calculateSwap(\n        Swap storage self,\n        uint8 tokenIndexFrom,\n        uint8 tokenIndexTo,\n        uint256 dx\n    ) internal view returns (uint256 dy, uint256 dyFee) {\n        uint256[] memory xp = _xp(self);\n        require(\n            tokenIndexFrom < xp.length && tokenIndexTo < xp.length,\n            \"Token index out of range\"\n        );\n        uint256 x =\n            dx.mul(self.tokenPrecisionMultipliers[tokenIndexFrom]).add(\n                xp[tokenIndexFrom]\n            );\n        uint256 y = getY(self, tokenIndexFrom, tokenIndexTo, x, xp);\n        dy = xp[tokenIndexTo].sub(y).sub(1);\n        dyFee = dy.mul(self.swapFee).div(FEE_DENOMINATOR);\n        dy = dy.sub(dyFee).div(self.tokenPrecisionMultipliers[tokenIndexTo]);\n    }\n\n    /**\n     * @notice A simple method to calculate amount of each underlying\n     * tokens that is returned upon burning given amount of\n     * LP tokens\n     *\n     * @param account the address that is removing liquidity. required for withdraw fee calculation\n     * @param amount the amount of LP tokens that would to be burned on\n     * withdrawal\n     * @return array of amounts of tokens user will receive\n     */\n    function calculateRemoveLiquidity(\n        Swap storage self,\n        address account,\n        uint256 amount\n    ) external view returns (uint256[] memory) {\n        return _calculateRemoveLiquidity(self, account, amount);\n    }\n\n    function _calculateRemoveLiquidity(\n        Swap storage self,\n        address account,\n        uint256 amount\n    ) internal view returns (uint256[] memory) {\n        uint256 totalSupply = self.lpToken.totalSupply();\n        require(amount <= totalSupply, \"Cannot exceed total supply\");\n\n        uint256 feeAdjustedAmount =\n            amount\n                .mul(\n                FEE_DENOMINATOR.sub(calculateCurrentWithdrawFee(self, account))\n            )\n                .div(FEE_DENOMINATOR);\n\n        uint256[] memory amounts = new uint256[](self.pooledTokens.length);\n\n        for (uint256 i = 0; i < self.pooledTokens.length; i++) {\n            amounts[i] = self.balances[i].mul(feeAdjustedAmount).div(\n                totalSupply\n            );\n        }\n        return amounts;\n    }\n\n    /**\n     * @notice Calculate the fee that is applied when the given user withdraws.\n     * Withdraw fee decays linearly over 4 weeks.\n     * @param user address you want to calculate withdraw fee of\n     * @return current withdraw fee of the user\n     */\n    function calculateCurrentWithdrawFee(Swap storage self, address user)\n        public\n        view\n        returns (uint256)\n    {\n        uint256 endTime = self.depositTimestamp[user].add(4 weeks);\n        if (endTime > block.timestamp) {\n            uint256 timeLeftover = endTime.sub(block.timestamp);\n            return\n                self\n                    .defaultWithdrawFee\n                    .mul(self.withdrawFeeMultiplier[user])\n                    .mul(timeLeftover)\n                    .div(4 weeks)\n                    .div(FEE_DENOMINATOR);\n        }\n        return 0;\n    }\n\n    /**\n     * @notice A simple method to calculate prices from deposits or\n     * withdrawals, excluding fees but including slippage. This is\n     * helpful as an input into the various \"min\" parameters on calls\n     * to fight front-running\n     *\n     * @dev This shouldn't be used outside frontends for user estimates.\n     *\n     * @param self Swap struct to read from\n     * @param account address of the account depositing or withdrawing tokens\n     * @param amounts an array of token amounts to deposit or withdrawal,\n     * corresponding to pooledTokens. The amount should be in each\n     * pooled token's native precision. If a token charges a fee on transfers,\n     * use the amount that gets transferred after the fee.\n     * @param deposit whether this is a deposit or a withdrawal\n     * @return if deposit was true, total amount of lp token that will be minted and if\n     * deposit was false, total amount of lp token that will be burned\n     */\n    function calculateTokenAmount(\n        Swap storage self,\n        address account,\n        uint256[] calldata amounts,\n        bool deposit\n    ) external view returns (uint256) {\n        uint256 numTokens = self.pooledTokens.length;\n        uint256 a = _getAPrecise(self);\n        uint256 d0 = getD(_xp(self, self.balances), a);\n        uint256[] memory balances1 = self.balances;\n        for (uint256 i = 0; i < numTokens; i++) {\n            if (deposit) {\n                balances1[i] = balances1[i].add(amounts[i]);\n            } else {\n                balances1[i] = balances1[i].sub(\n                    amounts[i],\n                    \"Cannot withdraw more than available\"\n                );\n            }\n        }\n        uint256 d1 = getD(_xp(self, balances1), a);\n        uint256 totalSupply = self.lpToken.totalSupply();\n\n        if (deposit) {\n            return d1.sub(d0).mul(totalSupply).div(d0);\n        } else {\n            return\n                d0.sub(d1).mul(totalSupply).div(d0).mul(FEE_DENOMINATOR).div(\n                    FEE_DENOMINATOR.sub(\n                        calculateCurrentWithdrawFee(self, account)\n                    )\n                );\n        }\n    }\n\n    /**\n     * @notice return accumulated amount of admin fees of the token with given index\n     * @param self Swap struct to read from\n     * @param index Index of the pooled token\n     * @return admin balance in the token's precision\n     */\n    function getAdminBalance(Swap storage self, uint256 index)\n        external\n        view\n        returns (uint256)\n    {\n        require(index < self.pooledTokens.length, \"Token index out of range\");\n        return\n            self.pooledTokens[index].balanceOf(address(this)).sub(\n                self.balances[index]\n            );\n    }\n\n    /**\n     * @notice internal helper function to calculate fee per token multiplier used in\n     * swap fee calculations\n     * @param self Swap struct to read from\n     */\n    function _feePerToken(Swap storage self) internal view returns (uint256) {\n        return\n            self.swapFee.mul(self.pooledTokens.length).div(\n                self.pooledTokens.length.sub(1).mul(4)\n            );\n    }\n\n    /*** STATE MODIFYING FUNCTIONS ***/\n\n    /**\n     * @notice swap two tokens in the pool\n     * @param self Swap struct to read from and write to\n     * @param tokenIndexFrom the token the user wants to sell\n     * @param tokenIndexTo the token the user wants to buy\n     * @param dx the amount of tokens the user wants to sell\n     * @param minDy the min amount the user would like to receive, or revert.\n     * @return amount of token user received on swap\n     */\n    function swap(\n        Swap storage self,\n        uint8 tokenIndexFrom,\n        uint8 tokenIndexTo,\n        uint256 dx,\n        uint256 minDy\n    ) external returns (uint256) {\n        require(\n            dx <= self.pooledTokens[tokenIndexFrom].balanceOf(msg.sender),\n            \"Cannot swap more than you own\"\n        );\n\n        // Transfer tokens first to see if a fee was charged on transfer\n        uint256 beforeBalance =\n            self.pooledTokens[tokenIndexFrom].balanceOf(address(this));\n        self.pooledTokens[tokenIndexFrom].safeTransferFrom(\n            msg.sender,\n            address(this),\n            dx\n        );\n\n        // Use the actual transferred amount for AMM math\n        uint256 transferredDx =\n            self.pooledTokens[tokenIndexFrom].balanceOf(address(this)).sub(\n                beforeBalance\n            );\n\n        (uint256 dy, uint256 dyFee) =\n            _calculateSwap(self, tokenIndexFrom, tokenIndexTo, transferredDx);\n        require(dy >= minDy, \"Swap didn't result in min tokens\");\n\n        uint256 dyAdminFee =\n            dyFee.mul(self.adminFee).div(FEE_DENOMINATOR).div(\n                self.tokenPrecisionMultipliers[tokenIndexTo]\n            );\n\n        self.balances[tokenIndexFrom] = self.balances[tokenIndexFrom].add(\n            transferredDx\n        );\n        self.balances[tokenIndexTo] = self.balances[tokenIndexTo].sub(dy).sub(\n            dyAdminFee\n        );\n\n        self.pooledTokens[tokenIndexTo].safeTransfer(msg.sender, dy);\n\n        emit TokenSwap(\n            msg.sender,\n            transferredDx,\n            dy,\n            tokenIndexFrom,\n            tokenIndexTo\n        );\n\n        return dy;\n    }\n\n    /**\n     * @notice Add liquidity to the pool\n     * @param self Swap struct to read from and write to\n     * @param amounts the amounts of each token to add, in their native precision\n     * @param minToMint the minimum LP tokens adding this amount of liquidity\n     * should mint, otherwise revert. Handy for front-running mitigation\n     * @return amount of LP token user received\n     */\n    function addLiquidity(\n        Swap storage self,\n        uint256[] memory amounts,\n        uint256 minToMint\n    ) external returns (uint256) {\n        require(\n            amounts.length == self.pooledTokens.length,\n            \"Amounts must match pooled tokens\"\n        );\n\n        uint256[] memory fees = new uint256[](self.pooledTokens.length);\n        uint256 lpTotalSupply = self.lpToken.totalSupply();\n        // current state\n        AddLiquidityInfo memory v = AddLiquidityInfo(0, 0, 0, 0);\n\n        if (lpTotalSupply != 0) {\n            v.d0 = onegetD(self);\n        }\n        uint256[] memory newBalances = self.balances;\n\n        for (uint256 i = 0; i < self.pooledTokens.length; i++) {\n            require(\n                lpTotalSupply != 0 || amounts[i] > 0,\n                \"Must supply all tokens in pool\"\n            );\n\n            // Transfer tokens first to see if a fee was charged on transfer\n            if (amounts[i] != 0) {\n                uint256 beforeBalance =\n                    self.pooledTokens[i].balanceOf(address(this));\n                self.pooledTokens[i].safeTransferFrom(\n                    msg.sender,\n                    address(this),\n                    amounts[i]\n                );\n\n                // Update the amounts[] with actual transfer amount\n                amounts[i] = self.pooledTokens[i].balanceOf(address(this)).sub(\n                    beforeBalance\n                );\n            }\n\n            newBalances[i] = self.balances[i].add(amounts[i]);\n        }\n\n        // invariant after change\n        v.preciseA = _getAPrecise(self);\n        v.d1 = getD(_xp(self, newBalances), v.preciseA);\n        require(v.d1 > v.d0, \"D should increase\");\n\n        // updated to reflect fees and calculate the user's LP tokens\n        v.d2 = v.d1;\n        if (lpTotalSupply != 0) {\n            uint256 feePerToken = _feePerToken(self);\n            for (uint256 i = 0; i < self.pooledTokens.length; i++) {\n                uint256 idealBalance = v.d1.mul(self.balances[i]).div(v.d0);\n                fees[i] = feePerToken\n                    .mul(idealBalance.difference(newBalances[i]))\n                    .div(FEE_DENOMINATOR);\n                self.balances[i] = newBalances[i].sub(\n                    fees[i].mul(self.adminFee).div(FEE_DENOMINATOR)\n                );\n                newBalances[i] = newBalances[i].sub(fees[i]);\n            }\n            v.d2 = getD(_xp(self, newBalances), v.preciseA);\n        } else {\n            // the initial depositor doesn't pay fees\n            self.balances = newBalances;\n        }\n\n        uint256 toMint;\n        uint256 toMintFee;\n        uint256 toMintUser;\n        if (lpTotalSupply == 0) {\n            toMint = v.d1;\n        } else {\n            toMint = v.d2.sub(v.d0).mul(lpTotalSupply).div(v.d0);\n        }\n\n        require(toMint >= minToMint, \"Couldn't mint min requested\");\n        // if deposit fee is none, mint full amount\n        if (self.defaultDepositFee == 0) {\n            self.lpToken.mint(msg.sender, toMint);\n        } else {\n            // mint the user's LP tokens minus the deposit fee\n            toMintFee = toMint.mul(self.defaultDepositFee).div(FEE_DENOMINATOR);\n            toMintUser = toMint.sub(toMintFee);\n            self.lpToken.mint(self.devaddr, toMintFee);\n            self.lpToken.mint(msg.sender, toMintUser);\n        }\n       \n        emit AddLiquidity(\n            msg.sender,\n            amounts,\n            fees,\n            v.d1,\n            lpTotalSupply + toMint\n        );\n\n        return toMint;\n    }\n\n    /**\n     * @notice Update the withdraw fee for `user`. If the user is currently\n     * not providing liquidity in the pool, sets to default value. If not, recalculate\n     * the starting withdraw fee based on the last deposit's time & amount relative\n     * to the new deposit.\n     *\n     * @param self Swap struct to read from and write to\n     * @param user address of the user depositing tokens\n     * @param toMint amount of pool tokens to be minted\n     */\n    function updateUserWithdrawFee(\n        Swap storage self,\n        address user,\n        uint256 toMint\n    ) external {\n        _updateUserWithdrawFee(self, user, toMint);\n    }\n\n    function _updateUserWithdrawFee(\n        Swap storage self,\n        address user,\n        uint256 toMint\n    ) internal {\n        // If token is transferred to address 0 (or burned), don't update the fee.\n        if (user == address(0)) {\n            return;\n        }\n        if (self.defaultWithdrawFee == 0) {\n            // If current fee is set to 0%, set multiplier to FEE_DENOMINATOR\n            self.withdrawFeeMultiplier[user] = FEE_DENOMINATOR;\n        } else {\n            // Otherwise, calculate appropriate discount based on last deposit amount\n            uint256 currentFee = calculateCurrentWithdrawFee(self, user);\n            uint256 currentBalance = self.lpToken.balanceOf(user);\n\n            // ((currentBalance * currentFee) + (toMint * defaultWithdrawFee)) * FEE_DENOMINATOR /\n            // ((toMint + currentBalance) * defaultWithdrawFee)\n            self.withdrawFeeMultiplier[user] = currentBalance\n                .mul(currentFee)\n                .add(toMint.mul(self.defaultWithdrawFee))\n                .mul(FEE_DENOMINATOR)\n                .div(toMint.add(currentBalance).mul(self.defaultWithdrawFee));\n        }\n        self.depositTimestamp[user] = block.timestamp;\n    }\n\n    /**\n     * @notice Burn LP tokens to remove liquidity from the pool.\n     * @dev Liquidity can always be removed, even when the pool is paused.\n     * @param self Swap struct to read from and write to\n     * @param amount the amount of LP tokens to burn\n     * @param minAmounts the minimum amounts of each token in the pool\n     * acceptable for this burn. Useful as a front-running mitigation\n     * @return amounts of tokens the user received\n     */\n    function removeLiquidity(\n        Swap storage self,\n        uint256 amount,\n        uint256[] calldata minAmounts\n    ) external returns (uint256[] memory) {\n        require(amount <= self.lpToken.balanceOf(msg.sender), \">LP.balanceOf\");\n        require(\n            minAmounts.length == self.pooledTokens.length,\n            \"minAmounts must match poolTokens\"\n        );\n\n        uint256[] memory amounts =\n            _calculateRemoveLiquidity(self, msg.sender, amount);\n\n        for (uint256 i = 0; i < amounts.length; i++) {\n            require(amounts[i] >= minAmounts[i], \"amounts[i] < minAmounts[i]\");\n            self.balances[i] = self.balances[i].sub(amounts[i]);\n            self.pooledTokens[i].safeTransfer(msg.sender, amounts[i]);\n        }\n\n        self.lpToken.burnFrom(msg.sender, amount);\n\n        emit RemoveLiquidity(msg.sender, amounts, self.lpToken.totalSupply());\n\n        return amounts;\n    }\n\n    /**\n     * @notice Remove liquidity from the pool all in one token.\n     * @param self Swap struct to read from and write to\n     * @param tokenAmount the amount of the lp tokens to burn\n     * @param tokenIndex the index of the token you want to receive\n     * @param minAmount the minimum amount to withdraw, otherwise revert\n     * @return amount chosen token that user received\n     */\n    function removeLiquidityOneToken(\n        Swap storage self,\n        uint256 tokenAmount,\n        uint8 tokenIndex,\n        uint256 minAmount\n    ) external returns (uint256) {\n        uint256 totalSupply = self.lpToken.totalSupply();\n        uint256 numTokens = self.pooledTokens.length;\n        require(\n            tokenAmount <= self.lpToken.balanceOf(msg.sender),\n            \">LP.balanceOf\"\n        );\n        require(tokenIndex < numTokens, \"Token not found\");\n\n        uint256 dyFee;\n        uint256 dy;\n\n        (dy, dyFee) = calculateWithdrawOneToken(\n            self,\n            msg.sender,\n            tokenAmount,\n            tokenIndex\n        );\n\n        require(dy >= minAmount, \"dy < minAmount\");\n\n        self.balances[tokenIndex] = self.balances[tokenIndex].sub(\n            dy.add(dyFee.mul(self.adminFee).div(FEE_DENOMINATOR))\n        );\n        self.lpToken.burnFrom(msg.sender, tokenAmount);\n        self.pooledTokens[tokenIndex].safeTransfer(msg.sender, dy);\n\n        emit RemoveLiquidityOne(\n            msg.sender,\n            tokenAmount,\n            totalSupply,\n            tokenIndex,\n            dy\n        );\n\n        return dy;\n    }\n\n    /**\n     * @notice Remove liquidity from the pool, weighted differently than the\n     * pool's current balances.\n     *\n     * @param self Swap struct to read from and write to\n     * @param amounts how much of each token to withdraw\n     * @param maxBurnAmount the max LP token provider is willing to pay to\n     * remove liquidity. Useful as a front-running mitigation.\n     * @return actual amount of LP tokens burned in the withdrawal\n     */\n    function removeLiquidityImbalance(\n        Swap storage self,\n        uint256[] memory amounts,\n        uint256 maxBurnAmount\n    ) public returns (uint256) {\n        require(\n            amounts.length == self.pooledTokens.length,\n            \"Amounts should match pool tokens\"\n        );\n        require(\n            maxBurnAmount <= self.lpToken.balanceOf(msg.sender) &&\n                maxBurnAmount != 0,\n            \">LP.balanceOf\"\n        );\n\n        RemoveLiquidityImbalanceInfo memory v =\n            RemoveLiquidityImbalanceInfo(0, 0, 0, 0);\n\n        uint256 tokenSupply = self.lpToken.totalSupply();\n        uint256 feePerToken = _feePerToken(self);\n\n        uint256[] memory balances1 = self.balances;\n\n        v.preciseA = _getAPrecise(self);\n        v.d0 = getD(_xp(self), v.preciseA);\n        for (uint256 i = 0; i < self.pooledTokens.length; i++) {\n            balances1[i] = balances1[i].sub(\n                amounts[i],\n                \"Cannot withdraw more than available\"\n            );\n        }\n        v.d1 = getD(_xp(self, balances1), v.preciseA);\n        uint256[] memory fees = new uint256[](self.pooledTokens.length);\n\n        for (uint256 i = 0; i < self.pooledTokens.length; i++) {\n            uint256 idealBalance = v.d1.mul(self.balances[i]).div(v.d0);\n            uint256 difference = idealBalance.difference(balances1[i]);\n            fees[i] = feePerToken.mul(difference).div(FEE_DENOMINATOR);\n            self.balances[i] = balances1[i].sub(\n                fees[i].mul(self.adminFee).div(FEE_DENOMINATOR)\n            );\n            balances1[i] = balances1[i].sub(fees[i]);\n        }\n\n        v.d2 = getD(_xp(self, balances1), v.preciseA);\n\n        uint256 tokenAmount = v.d0.sub(v.d2).mul(tokenSupply).div(v.d0);\n        require(tokenAmount != 0, \"Burnt amount cannot be zero\");\n        tokenAmount = tokenAmount.add(1).mul(FEE_DENOMINATOR).div(\n            FEE_DENOMINATOR.sub(calculateCurrentWithdrawFee(self, msg.sender))\n        );\n\n        require(tokenAmount <= maxBurnAmount, \"tokenAmount > maxBurnAmount\");\n\n        self.lpToken.burnFrom(msg.sender, tokenAmount);\n\n        for (uint256 i = 0; i < self.pooledTokens.length; i++) {\n            self.pooledTokens[i].safeTransfer(msg.sender, amounts[i]);\n        }\n\n        emit RemoveLiquidityImbalance(\n            msg.sender,\n            amounts,\n            fees,\n            v.d1,\n            tokenSupply.sub(tokenAmount)\n        );\n\n        return tokenAmount;\n    }\n\n    /**\n     * @notice withdraw all admin fees to a given address\n     * @param self Swap struct to withdraw fees from\n     * @param to Address to send the fees to\n     */\n    function withdrawAdminFees(Swap storage self, address to) external {\n        for (uint256 i = 0; i < self.pooledTokens.length; i++) {\n            IERC20 token = self.pooledTokens[i];\n            uint256 balance =\n                token.balanceOf(address(this)).sub(self.balances[i]);\n            if (balance != 0) {\n                token.safeTransfer(to, balance);\n            }\n        }\n    }\n\n    /**\n     * @notice Sets the admin fee\n     * @dev adminFee cannot be higher than 100% of the swap fee\n     * @param self Swap struct to update\n     * @param newAdminFee new admin fee to be applied on future transactions\n     */\n    function setAdminFee(Swap storage self, uint256 newAdminFee) external {\n        require(newAdminFee <= MAX_ADMIN_FEE, \"Fee is too high\");\n        self.adminFee = newAdminFee;\n\n        emit NewAdminFee(newAdminFee);\n    }\n\n    /**\n     * @notice update the swap fee\n     * @dev fee cannot be higher than 1% of each swap\n     * @param self Swap struct to update\n     * @param newSwapFee new swap fee to be applied on future transactions\n     */\n    function setSwapFee(Swap storage self, uint256 newSwapFee) external {\n        require(newSwapFee <= MAX_SWAP_FEE, \"Fee is too high\");\n        self.swapFee = newSwapFee;\n\n        emit NewSwapFee(newSwapFee);\n    }\n\n    /**\n     * @notice update the default withdraw fee. This also affects deposits made in the past as well.\n     * @param self Swap struct to update\n     * @param newWithdrawFee new withdraw fee to be applied\n     */\n    function setDefaultWithdrawFee(Swap storage self, uint256 newWithdrawFee)\n        external\n    {\n        require(newWithdrawFee <= MAX_WITHDRAW_FEE, \"Fee is too high\");\n        self.defaultWithdrawFee = newWithdrawFee;\n\n        emit NewWithdrawFee(newWithdrawFee);\n    }\n\n    /**\n     * @notice update the default deposit fee. \n     * @param self Swap struct to update\n     * @param newDepositFee new deposit fee to be applied\n     */\n    function setDefaultDepositFee(Swap storage self, uint256 newDepositFee)\n        external\n    {\n        require(newDepositFee <= MAX_DEPOSIT_FEE, \"Fee is too high\");\n        self.defaultDepositFee = newDepositFee;\n\n        emit NewDepositFee(newDepositFee);\n    }\n\n\n    /**\n     * @notice Start ramping up or down A parameter towards given futureA_ and futureTime_\n     * Checks if the change is too rapid, and commits the new A value only when it falls under\n     * the limit range.\n     * @param self Swap struct to update\n     * @param futureA_ the new A to ramp towards\n     * @param futureTime_ timestamp when the new A should be reached\n     */\n    function rampA(\n        Swap storage self,\n        uint256 futureA_,\n        uint256 futureTime_\n    ) external {\n        require(\n            block.timestamp >= self.initialATime.add(1 days),\n            \"Wait 1 day before starting ramp\"\n        );\n        require(\n            futureTime_ >= block.timestamp.add(MIN_RAMP_TIME),\n            \"Insufficient ramp time\"\n        );\n        require(\n            futureA_ > 0 && futureA_ < MAX_A,\n            \"futureA_ must be > 0 and < MAX_A\"\n        );\n\n        uint256 initialAPrecise = _getAPrecise(self);\n        uint256 futureAPrecise = futureA_.mul(A_PRECISION);\n\n        if (futureAPrecise < initialAPrecise) {\n            require(\n                futureAPrecise.mul(MAX_A_CHANGE) >= initialAPrecise,\n                \"futureA_ is too small\"\n            );\n        } else {\n            require(\n                futureAPrecise <= initialAPrecise.mul(MAX_A_CHANGE),\n                \"futureA_ is too large\"\n            );\n        }\n\n        self.initialA = initialAPrecise;\n        self.futureA = futureAPrecise;\n        self.initialATime = block.timestamp;\n        self.futureATime = futureTime_;\n\n        emit RampA(\n            initialAPrecise,\n            futureAPrecise,\n            block.timestamp,\n            futureTime_\n        );\n    }\n\n    /**\n     * @notice Stops ramping A immediately. Once this function is called, rampA()\n     * cannot be called for another 24 hours\n     * @param self Swap struct to update\n     */\n    function stopRampA(Swap storage self) external {\n        require(self.futureATime > block.timestamp, \"Ramp is already stopped\");\n        uint256 currentA = _getAPrecise(self);\n\n        self.initialA = currentA;\n        self.futureA = currentA;\n        self.initialATime = block.timestamp;\n        self.futureATime = block.timestamp;\n\n        emit StopRampA(currentA, block.timestamp);\n    }\n\n    function setDevAddress(Swap storage self, address _devaddr) public {\n        require(msg.sender == self.devaddr, \"dev: wut?\");\n        require(msg.sender != address(0), \"invalid address\");\n        self.devaddr = _devaddr;\n    }\n}\n","sourcePath":"contracts/SwapUtils.sol","type":"library","deployment":{"address":"0xBdb8E09eb79f618e9BBCAdb095f6836774d9b0c3","chainid":"44787","blockHeight":7031917}}