{
  "abi": [
    {
      "inputs": [],
      "name": "admin",
      "outputs": [
        {
          "internalType": "address",
          "name": "",
          "type": "address"
        }
      ],
      "stateMutability": "pure",
      "type": "function"
    },
    {
      "inputs": [],
      "name": "delegatedFunction",
      "outputs": [
        {
          "internalType": "bool",
          "name": "",
          "type": "bool"
        }
      ],
      "stateMutability": "pure",
      "type": "function"
    }
  ],
  "bytecode": "608060405234801561001057600080fd5b5060b68061001f6000396000f3fe6080604052348015600f57600080fd5b506004361060325760003560e01c8063abf8e0e7146037578063f851a440146051575b600080fd5b603d6073565b604080519115158252519081900360200190f35b60576078565b604080516001600160a01b039092168252519081900360200190f35b600190565b63111111429056fea2646970667358221220b03afb2496032847d40692edb52793ab65b273f31c8916ecb1f533bd277abe1f64736f6c634300060c0033",
  "bytecodeSha1": "5eb4c0f14931fd2c1a5c405f81536d4855c65f09",
  "compiler": {
    "evm_version": "istanbul",
    "optimizer": {
      "enabled": true,
      "runs": 200
    },
    "version": "0.6.12+commit.27d51765"
  },
  "contractName": "ClashingImplementation",
  "language": "Solidity",
  "natspec": {
    "details": "Implementation contract with an admin() function made to clash withTransparentUpgradeableProxy's to test correct functioning of theTransparent Proxy feature.",
    "kind": "dev",
    "methods": {},
    "version": 1
  },
  "opcodes": "PUSH1 0x80 PUSH1 0x40 MSTORE CALLVALUE DUP1 ISZERO PUSH1 0xF JUMPI PUSH1 0x0 DUP1 REVERT JUMPDEST POP PUSH1 0x4 CALLDATASIZE LT PUSH1 0x32 JUMPI PUSH1 0x0 CALLDATALOAD PUSH1 0xE0 SHR DUP1 PUSH4 0xABF8E0E7 EQ PUSH1 0x37 JUMPI DUP1 PUSH4 0xF851A440 EQ PUSH1 0x51 JUMPI JUMPDEST PUSH1 0x0 DUP1 REVERT JUMPDEST PUSH1 0x3D PUSH1 0x73 JUMP JUMPDEST PUSH1 0x40 DUP1 MLOAD SWAP2 ISZERO ISZERO DUP3 MSTORE MLOAD SWAP1 DUP2 SWAP1 SUB PUSH1 0x20 ADD SWAP1 RETURN JUMPDEST PUSH1 0x57 PUSH1 0x78 JUMP JUMPDEST PUSH1 0x40 DUP1 MLOAD PUSH1 0x1 PUSH1 0x1 PUSH1 0xA0 SHL SUB SWAP1 SWAP3 AND DUP3 MSTORE MLOAD SWAP1 DUP2 SWAP1 SUB PUSH1 0x20 ADD SWAP1 RETURN JUMPDEST PUSH1 0x1 SWAP1 JUMP JUMPDEST PUSH4 0x11111142 SWAP1 JUMP INVALID LOG2 PUSH5 0x6970667358 0x22 SLT KECCAK256 0xB0 GASPRICE 0xFB 0x24 SWAP7 SUB 0x28 SELFBALANCE 0xD4 MOD SWAP3 0xED 0xB5 0x27 SWAP4 0xAB PUSH6 0xB273F31C8916 0xEC 0xB1 CREATE2 CALLER 0xBD 0x27 PUSH27 0xBE1F64736F6C634300060C00330000000000000000000000000000 ",
  "sha1": "df10dacad1a745fd94efeb1c739dc01e5e53f30f",
  "source": "// SPDX-License-Identifier: MIT\n\npragma solidity >=0.6.0 <0.8.0;\n\n\n/**\n * @dev Implementation contract with an admin() function made to clash with\n * @dev TransparentUpgradeableProxy's to test correct functioning of the\n * @dev Transparent Proxy feature.\n */\ncontract ClashingImplementation {\n\n  function admin() external pure returns (address) {\n    return 0x0000000000000000000000000000000011111142;\n  }\n\n  function delegatedFunction() external pure returns (bool) {\n    return true;\n  }\n}\n",
  "sourcePath": "contracts/openzeppelin-contracts@3.4.0/contracts/mocks/ClashingImplementation.sol",
  "type": "contract"
}