{
  "abi": [
    {
      "inputs": [
        {
          "internalType": "bytes32",
          "name": "hash",
          "type": "bytes32"
        },
        {
          "internalType": "bytes",
          "name": "signature",
          "type": "bytes"
        }
      ],
      "name": "recover",
      "outputs": [
        {
          "internalType": "address",
          "name": "",
          "type": "address"
        }
      ],
      "stateMutability": "pure",
      "type": "function"
    },
    {
      "inputs": [
        {
          "internalType": "bytes32",
          "name": "hash",
          "type": "bytes32"
        }
      ],
      "name": "toEthSignedMessageHash",
      "outputs": [
        {
          "internalType": "bytes32",
          "name": "",
          "type": "bytes32"
        }
      ],
      "stateMutability": "pure",
      "type": "function"
    }
  ],
  "bytecode": "608060405234801561001057600080fd5b50610420806100206000396000f3fe608060405234801561001057600080fd5b50600436106100365760003560e01c806319045a251461003b578063918a15cf14610104575b600080fd5b6100e86004803603604081101561005157600080fd5b8135919081019060408101602082013564010000000081111561007357600080fd5b82018360208201111561008557600080fd5b803590602001918460018302840111640100000000831117156100a757600080fd5b91908080601f016020809104026020016040519081016040528093929190818152602001838380828437600092019190915250929550610133945050505050565b604080516001600160a01b039092168252519081900360200190f35b6101216004803603602081101561011a57600080fd5b5035610146565b60408051918252519081900360200190f35b600061013f8383610157565b9392505050565b6000610151826101d7565b92915050565b600081516041146101af576040805162461bcd60e51b815260206004820152601f60248201527f45434453413a20696e76616c6964207369676e6174757265206c656e67746800604482015290519081900360640190fd5b60208201516040830151606084015160001a6101cd86828585610228565b9695505050505050565b604080517f19457468657265756d205369676e6564204d6573736167653a0a333200000000602080830191909152603c8083019490945282518083039094018452605c909101909152815191012090565b60007f7fffffffffffffffffffffffffffffff5d576e7357a4501ddfe92f46681b20a08211156102895760405162461bcd60e51b81526004018080602001828103825260228152602001806103a76022913960400191505060405180910390fd5b8360ff16601b148061029e57508360ff16601c145b6102d95760405162461bcd60e51b81526004018080602001828103825260228152602001806103c96022913960400191505060405180910390fd5b600060018686868660405160008152602001604052604051808581526020018460ff1681526020018381526020018281526020019450505050506020604051602081039080840390855afa158015610335573d6000803e3d6000fd5b5050604051601f1901519150506001600160a01b03811661039d576040805162461bcd60e51b815260206004820152601860248201527f45434453413a20696e76616c6964207369676e61747572650000000000000000604482015290519081900360640190fd5b9594505050505056fe45434453413a20696e76616c6964207369676e6174757265202773272076616c756545434453413a20696e76616c6964207369676e6174757265202776272076616c7565a26469706673582212200aa4449cc840daa4b2fe95ea71929f3b27a18d67663aab5957be902b092399dd64736f6c634300060c0033",
  "bytecodeSha1": "7cbf3f41976f8bc6c0d7cba84c4cbb2fa81e17d8",
  "compiler": {
    "evm_version": "istanbul",
    "optimizer": {
      "enabled": true,
      "runs": 200
    },
    "version": "0.6.12+commit.27d51765"
  },
  "contractName": "ECDSAMock",
  "language": "Solidity",
  "natspec": {
    "kind": "dev",
    "methods": {},
    "version": 1
  },
  "opcodes": "PUSH1 0x80 PUSH1 0x40 MSTORE CALLVALUE DUP1 ISZERO PUSH2 0x10 JUMPI PUSH1 0x0 DUP1 REVERT JUMPDEST POP PUSH1 0x4 CALLDATASIZE LT PUSH2 0x36 JUMPI PUSH1 0x0 CALLDATALOAD PUSH1 0xE0 SHR DUP1 PUSH4 0x19045A25 EQ PUSH2 0x3B JUMPI DUP1 PUSH4 0x918A15CF EQ PUSH2 0x104 JUMPI JUMPDEST PUSH1 0x0 DUP1 REVERT JUMPDEST PUSH2 0xE8 PUSH1 0x4 DUP1 CALLDATASIZE SUB PUSH1 0x40 DUP2 LT ISZERO PUSH2 0x51 JUMPI PUSH1 0x0 DUP1 REVERT JUMPDEST DUP2 CALLDATALOAD SWAP2 SWAP1 DUP2 ADD SWAP1 PUSH1 0x40 DUP2 ADD PUSH1 0x20 DUP3 ADD CALLDATALOAD PUSH5 0x100000000 DUP2 GT ISZERO PUSH2 0x73 JUMPI PUSH1 0x0 DUP1 REVERT JUMPDEST DUP3 ADD DUP4 PUSH1 0x20 DUP3 ADD GT ISZERO PUSH2 0x85 JUMPI PUSH1 0x0 DUP1 REVERT JUMPDEST DUP1 CALLDATALOAD SWAP1 PUSH1 0x20 ADD SWAP2 DUP5 PUSH1 0x1 DUP4 MUL DUP5 ADD GT PUSH5 0x100000000 DUP4 GT OR ISZERO PUSH2 0xA7 JUMPI PUSH1 0x0 DUP1 REVERT JUMPDEST SWAP2 SWAP1 DUP1 DUP1 PUSH1 0x1F ADD PUSH1 0x20 DUP1 SWAP2 DIV MUL PUSH1 0x20 ADD PUSH1 0x40 MLOAD SWAP1 DUP2 ADD PUSH1 0x40 MSTORE DUP1 SWAP4 SWAP3 SWAP2 SWAP1 DUP2 DUP2 MSTORE PUSH1 0x20 ADD DUP4 DUP4 DUP1 DUP3 DUP5 CALLDATACOPY PUSH1 0x0 SWAP3 ADD SWAP2 SWAP1 SWAP2 MSTORE POP SWAP3 SWAP6 POP PUSH2 0x133 SWAP5 POP POP POP POP POP JUMP JUMPDEST PUSH1 0x40 DUP1 MLOAD PUSH1 0x1 PUSH1 0x1 PUSH1 0xA0 SHL SUB SWAP1 SWAP3 AND DUP3 MSTORE MLOAD SWAP1 DUP2 SWAP1 SUB PUSH1 0x20 ADD SWAP1 RETURN JUMPDEST PUSH2 0x121 PUSH1 0x4 DUP1 CALLDATASIZE SUB PUSH1 0x20 DUP2 LT ISZERO PUSH2 0x11A JUMPI PUSH1 0x0 DUP1 REVERT JUMPDEST POP CALLDATALOAD PUSH2 0x146 JUMP JUMPDEST PUSH1 0x40 DUP1 MLOAD SWAP2 DUP3 MSTORE MLOAD SWAP1 DUP2 SWAP1 SUB PUSH1 0x20 ADD SWAP1 RETURN JUMPDEST PUSH1 0x0 PUSH2 0x13F DUP4 DUP4 PUSH2 0x157 JUMP JUMPDEST SWAP4 SWAP3 POP POP POP JUMP JUMPDEST PUSH1 0x0 PUSH2 0x151 DUP3 PUSH2 0x1D7 JUMP JUMPDEST SWAP3 SWAP2 POP POP JUMP JUMPDEST PUSH1 0x0 DUP2 MLOAD PUSH1 0x41 EQ PUSH2 0x1AF JUMPI PUSH1 0x40 DUP1 MLOAD PUSH3 0x461BCD PUSH1 0xE5 SHL DUP2 MSTORE PUSH1 0x20 PUSH1 0x4 DUP3 ADD MSTORE PUSH1 0x1F PUSH1 0x24 DUP3 ADD MSTORE PUSH32 0x45434453413A20696E76616C6964207369676E6174757265206C656E67746800 PUSH1 0x44 DUP3 ADD MSTORE SWAP1 MLOAD SWAP1 DUP2 SWAP1 SUB PUSH1 0x64 ADD SWAP1 REVERT JUMPDEST PUSH1 0x20 DUP3 ADD MLOAD PUSH1 0x40 DUP4 ADD MLOAD PUSH1 0x60 DUP5 ADD MLOAD PUSH1 0x0 BYTE PUSH2 0x1CD DUP7 DUP3 DUP6 DUP6 PUSH2 0x228 JUMP JUMPDEST SWAP7 SWAP6 POP POP POP POP POP POP JUMP JUMPDEST PUSH1 0x40 DUP1 MLOAD PUSH32 0x19457468657265756D205369676E6564204D6573736167653A0A333200000000 PUSH1 0x20 DUP1 DUP4 ADD SWAP2 SWAP1 SWAP2 MSTORE PUSH1 0x3C DUP1 DUP4 ADD SWAP5 SWAP1 SWAP5 MSTORE DUP3 MLOAD DUP1 DUP4 SUB SWAP1 SWAP5 ADD DUP5 MSTORE PUSH1 0x5C SWAP1 SWAP2 ADD SWAP1 SWAP2 MSTORE DUP2 MLOAD SWAP2 ADD KECCAK256 SWAP1 JUMP JUMPDEST PUSH1 0x0 PUSH32 0x7FFFFFFFFFFFFFFFFFFFFFFFFFFFFFFF5D576E7357A4501DDFE92F46681B20A0 DUP3 GT ISZERO PUSH2 0x289 JUMPI PUSH1 0x40 MLOAD PUSH3 0x461BCD PUSH1 0xE5 SHL DUP2 MSTORE PUSH1 0x4 ADD DUP1 DUP1 PUSH1 0x20 ADD DUP3 DUP2 SUB DUP3 MSTORE PUSH1 0x22 DUP2 MSTORE PUSH1 0x20 ADD DUP1 PUSH2 0x3A7 PUSH1 0x22 SWAP2 CODECOPY PUSH1 0x40 ADD SWAP2 POP POP PUSH1 0x40 MLOAD DUP1 SWAP2 SUB SWAP1 REVERT JUMPDEST DUP4 PUSH1 0xFF AND PUSH1 0x1B EQ DUP1 PUSH2 0x29E JUMPI POP DUP4 PUSH1 0xFF AND PUSH1 0x1C EQ JUMPDEST PUSH2 0x2D9 JUMPI PUSH1 0x40 MLOAD PUSH3 0x461BCD PUSH1 0xE5 SHL DUP2 MSTORE PUSH1 0x4 ADD DUP1 DUP1 PUSH1 0x20 ADD DUP3 DUP2 SUB DUP3 MSTORE PUSH1 0x22 DUP2 MSTORE PUSH1 0x20 ADD DUP1 PUSH2 0x3C9 PUSH1 0x22 SWAP2 CODECOPY PUSH1 0x40 ADD SWAP2 POP POP PUSH1 0x40 MLOAD DUP1 SWAP2 SUB SWAP1 REVERT JUMPDEST PUSH1 0x0 PUSH1 0x1 DUP7 DUP7 DUP7 DUP7 PUSH1 0x40 MLOAD PUSH1 0x0 DUP2 MSTORE PUSH1 0x20 ADD PUSH1 0x40 MSTORE PUSH1 0x40 MLOAD DUP1 DUP6 DUP2 MSTORE PUSH1 0x20 ADD DUP5 PUSH1 0xFF AND DUP2 MSTORE PUSH1 0x20 ADD DUP4 DUP2 MSTORE PUSH1 0x20 ADD DUP3 DUP2 MSTORE PUSH1 0x20 ADD SWAP5 POP POP POP POP POP PUSH1 0x20 PUSH1 0x40 MLOAD PUSH1 0x20 DUP2 SUB SWAP1 DUP1 DUP5 SUB SWAP1 DUP6 GAS STATICCALL ISZERO DUP1 ISZERO PUSH2 0x335 JUMPI RETURNDATASIZE PUSH1 0x0 DUP1 RETURNDATACOPY RETURNDATASIZE PUSH1 0x0 REVERT JUMPDEST POP POP PUSH1 0x40 MLOAD PUSH1 0x1F NOT ADD MLOAD SWAP2 POP POP PUSH1 0x1 PUSH1 0x1 PUSH1 0xA0 SHL SUB DUP2 AND PUSH2 0x39D JUMPI PUSH1 0x40 DUP1 MLOAD PUSH3 0x461BCD PUSH1 0xE5 SHL DUP2 MSTORE PUSH1 0x20 PUSH1 0x4 DUP3 ADD MSTORE PUSH1 0x18 PUSH1 0x24 DUP3 ADD MSTORE PUSH32 0x45434453413A20696E76616C6964207369676E61747572650000000000000000 PUSH1 0x44 DUP3 ADD MSTORE SWAP1 MLOAD SWAP1 DUP2 SWAP1 SUB PUSH1 0x64 ADD SWAP1 REVERT JUMPDEST SWAP6 SWAP5 POP POP POP POP POP JUMP INVALID GASLIMIT NUMBER DIFFICULTY MSTORE8 COINBASE GASPRICE KECCAK256 PUSH10 0x6E76616C696420736967 PUSH15 0x6174757265202773272076616C7565 GASLIMIT NUMBER DIFFICULTY MSTORE8 COINBASE GASPRICE KECCAK256 PUSH10 0x6E76616C696420736967 PUSH15 0x6174757265202776272076616C7565 LOG2 PUSH5 0x6970667358 0x22 SLT KECCAK256 EXP LOG4 DIFFICULTY SWAP13 0xC8 BLOCKHASH 0xDA LOG4 0xB2 INVALID SWAP6 0xEA PUSH18 0x929F3B27A18D67663AAB5957BE902B092399 0xDD PUSH5 0x736F6C6343 STOP MOD 0xC STOP CALLER ",
  "sha1": "d4642d1484db7b49f8313a51b9675ab2bd881517",
  "source": "// SPDX-License-Identifier: MIT\n\npragma solidity >=0.6.0 <0.8.0;\n\nimport \"../cryptography/ECDSA.sol\";\n\ncontract ECDSAMock {\n    using ECDSA for bytes32;\n\n    function recover(bytes32 hash, bytes memory signature) public pure returns (address) {\n        return hash.recover(signature);\n    }\n\n    function toEthSignedMessageHash(bytes32 hash) public pure returns (bytes32) {\n        return hash.toEthSignedMessageHash();\n    }\n}\n",
  "sourcePath": "contracts/openzeppelin-contracts@3.4.0/contracts/mocks/ECDSAMock.sol",
  "type": "contract"
}