{
  "abi": [
    {
      "inputs": [
        {
          "internalType": "bytes4",
          "name": "recRetval",
          "type": "bytes4"
        },
        {
          "internalType": "bool",
          "name": "recReverts",
          "type": "bool"
        },
        {
          "internalType": "bytes4",
          "name": "batRetval",
          "type": "bytes4"
        },
        {
          "internalType": "bool",
          "name": "batReverts",
          "type": "bool"
        }
      ],
      "stateMutability": "nonpayable",
      "type": "constructor"
    },
    {
      "anonymous": false,
      "inputs": [
        {
          "indexed": false,
          "internalType": "address",
          "name": "operator",
          "type": "address"
        },
        {
          "indexed": false,
          "internalType": "address",
          "name": "from",
          "type": "address"
        },
        {
          "indexed": false,
          "internalType": "uint256[]",
          "name": "ids",
          "type": "uint256[]"
        },
        {
          "indexed": false,
          "internalType": "uint256[]",
          "name": "values",
          "type": "uint256[]"
        },
        {
          "indexed": false,
          "internalType": "bytes",
          "name": "data",
          "type": "bytes"
        },
        {
          "indexed": false,
          "internalType": "uint256",
          "name": "gas",
          "type": "uint256"
        }
      ],
      "name": "BatchReceived",
      "type": "event"
    },
    {
      "anonymous": false,
      "inputs": [
        {
          "indexed": false,
          "internalType": "address",
          "name": "operator",
          "type": "address"
        },
        {
          "indexed": false,
          "internalType": "address",
          "name": "from",
          "type": "address"
        },
        {
          "indexed": false,
          "internalType": "uint256",
          "name": "id",
          "type": "uint256"
        },
        {
          "indexed": false,
          "internalType": "uint256",
          "name": "value",
          "type": "uint256"
        },
        {
          "indexed": false,
          "internalType": "bytes",
          "name": "data",
          "type": "bytes"
        },
        {
          "indexed": false,
          "internalType": "uint256",
          "name": "gas",
          "type": "uint256"
        }
      ],
      "name": "Received",
      "type": "event"
    },
    {
      "inputs": [
        {
          "internalType": "address",
          "name": "operator",
          "type": "address"
        },
        {
          "internalType": "address",
          "name": "from",
          "type": "address"
        },
        {
          "internalType": "uint256[]",
          "name": "ids",
          "type": "uint256[]"
        },
        {
          "internalType": "uint256[]",
          "name": "values",
          "type": "uint256[]"
        },
        {
          "internalType": "bytes",
          "name": "data",
          "type": "bytes"
        }
      ],
      "name": "onERC1155BatchReceived",
      "outputs": [
        {
          "internalType": "bytes4",
          "name": "",
          "type": "bytes4"
        }
      ],
      "stateMutability": "nonpayable",
      "type": "function"
    },
    {
      "inputs": [
        {
          "internalType": "address",
          "name": "operator",
          "type": "address"
        },
        {
          "internalType": "address",
          "name": "from",
          "type": "address"
        },
        {
          "internalType": "uint256",
          "name": "id",
          "type": "uint256"
        },
        {
          "internalType": "uint256",
          "name": "value",
          "type": "uint256"
        },
        {
          "internalType": "bytes",
          "name": "data",
          "type": "bytes"
        }
      ],
      "name": "onERC1155Received",
      "outputs": [
        {
          "internalType": "bytes4",
          "name": "",
          "type": "bytes4"
        }
      ],
      "stateMutability": "nonpayable",
      "type": "function"
    },
    {
      "inputs": [
        {
          "internalType": "bytes4",
          "name": "interfaceId",
          "type": "bytes4"
        }
      ],
      "name": "registerInterface",
      "outputs": [],
      "stateMutability": "nonpayable",
      "type": "function"
    },
    {
      "inputs": [
        {
          "internalType": "bytes4",
          "name": "interfaceId",
          "type": "bytes4"
        }
      ],
      "name": "supportsInterface",
      "outputs": [
        {
          "internalType": "bool",
          "name": "",
          "type": "bool"
        }
      ],
      "stateMutability": "view",
      "type": "function"
    }
  ],
  "bytecode": "608060405234801561001057600080fd5b5060405161076e38038061076e8339818101604052608081101561003357600080fd5b508051602082015160408301516060909301519192909161005a6301ffc9a760e01b6100c4565b6001805463ffffffff191660e095861c1760ff60201b1916640100000000941515949094029390931763ffffffff60281b1916650100000000009290941c919091029290921760ff60481b1916690100000000000000000092151592909202919091179055610148565b6001600160e01b03198082161415610123576040805162461bcd60e51b815260206004820152601c60248201527f4552433136353a20696e76616c696420696e7465726661636520696400000000604482015290519081900360640190fd5b6001600160e01b0319166000908152602081905260409020805460ff19166001179055565b610617806101576000396000f3fe608060405234801561001057600080fd5b506004361061004c5760003560e01c806301ffc9a714610051578063214cdb801461008c578063bc197c81146100b5578063f23a6e61146101f9575b600080fd5b6100786004803603602081101561006757600080fd5b50356001600160e01b03191661028c565b604080519115158252519081900360200190f35b6100b3600480360360208110156100a257600080fd5b50356001600160e01b0319166102ab565b005b6101dc600480360360a08110156100cb57600080fd5b6001600160a01b038235811692602081013590911691810190606081016040820135600160201b8111156100fe57600080fd5b82018360208201111561011057600080fd5b803590602001918460208302840111600160201b8311171561013157600080fd5b919390929091602081019035600160201b81111561014e57600080fd5b82018360208201111561016057600080fd5b803590602001918460208302840111600160201b8311171561018157600080fd5b919390929091602081019035600160201b81111561019e57600080fd5b8201836020820111156101b057600080fd5b803590602001918460018302840111600160201b831117156101d157600080fd5b5090925090506102b7565b604080516001600160e01b03199092168252519081900360200190f35b6101dc600480360360a081101561020f57600080fd5b6001600160a01b03823581169260208101359091169160408201359160608101359181019060a081016080820135600160201b81111561024e57600080fd5b82018360208201111561026057600080fd5b803590602001918460018302840111600160201b8311171561028157600080fd5b50909250905061040e565b6001600160e01b03191660009081526020819052604090205460ff1690565b6102b481610505565b50565b6001546000906901000000000000000000900460ff16156103095760405162461bcd60e51b815260040180806020018281038252602f8152602001806105b3602f913960400191505060405180910390fd5b7f0bcad9224ba33b574e9c85298de2f44b4c80015a21aa5df474896444909863d889898989898989895a604051808a6001600160a01b03168152602001896001600160a01b0316815260200180602001806020018060200185815260200184810384528b8b82818152602001925060200280828437600083820152601f01601f19169091018581038452898152602090810191508a908a0280828437600083820152601f01601f191690910185810383528781526020019050878780828437600083820152604051601f909101601f19169092018290039e50909c50505050505050505050505050a15060015465010000000000900460e01b98975050505050505050565b600154600090600160201b900460ff161561045a5760405162461bcd60e51b815260040180806020018281038252602981526020018061058a6029913960400191505060405180910390fd5b7f20dfa9f79060c8c4d7fe892c97c71bcf6e3b63d1dcf66fea7aefc0211628cf298787878787875a60405180886001600160a01b03168152602001876001600160a01b03168152602001868152602001858152602001806020018381526020018281038252858582818152602001925080828437600083820152604051601f909101601f19169092018290039a509098505050505050505050a15060015460e01b9695505050505050565b6001600160e01b03198082161415610564576040805162461bcd60e51b815260206004820152601c60248201527f4552433136353a20696e76616c696420696e7465726661636520696400000000604482015290519081900360640190fd5b6001600160e01b0319166000908152602081905260409020805460ff1916600117905556fe4552433131353552656365697665724d6f636b3a20726576657274696e67206f6e20726563656976654552433131353552656365697665724d6f636b3a20726576657274696e67206f6e2062617463682072656365697665a264697066735822122018dc6e3a2b087848297bce33a64b55ac5bab2abf7cb90338102b67ddd07c3b9264736f6c634300060c0033",
  "bytecodeSha1": "afd841a95d15315c50b8f48d8b851ed48fe113e9",
  "compiler": {
    "evm_version": "istanbul",
    "optimizer": {
      "enabled": true,
      "runs": 200
    },
    "version": "0.6.12+commit.27d51765"
  },
  "contractName": "ERC1155ReceiverMock",
  "language": "Solidity",
  "natspec": {
    "kind": "dev",
    "methods": {
      "onERC1155BatchReceived(address,address,uint256[],uint256[],bytes)": {
        "details": "Handles the receipt of a multiple ERC1155 token types. This function is called at the end of a `safeBatchTransferFrom` after the balances have been updated. To accept the transfer(s), this must return `bytes4(keccak256(\"onERC1155BatchReceived(address,address,uint256[],uint256[],bytes)\"))` (i.e. 0xbc197c81, or its own function selector).",
        "params": {
          "data": "Additional data with no specified format",
          "from": "The address which previously owned the token",
          "ids": "An array containing ids of each token being transferred (order and length must match values array)",
          "operator": "The address which initiated the batch transfer (i.e. msg.sender)",
          "values": "An array containing amounts of each token being transferred (order and length must match ids array)"
        },
        "returns": {
          "_0": "`bytes4(keccak256(\"onERC1155BatchReceived(address,address,uint256[],uint256[],bytes)\"))` if transfer is allowed"
        }
      },
      "onERC1155Received(address,address,uint256,uint256,bytes)": {
        "details": "Handles the receipt of a single ERC1155 token type. This function is called at the end of a `safeTransferFrom` after the balance has been updated. To accept the transfer, this must return `bytes4(keccak256(\"onERC1155Received(address,address,uint256,uint256,bytes)\"))` (i.e. 0xf23a6e61, or its own function selector).",
        "params": {
          "data": "Additional data with no specified format",
          "from": "The address which previously owned the token",
          "id": "The ID of the token being transferred",
          "operator": "The address which initiated the transfer (i.e. msg.sender)",
          "value": "The amount of tokens being transferred"
        },
        "returns": {
          "_0": "`bytes4(keccak256(\"onERC1155Received(address,address,uint256,uint256,bytes)\"))` if transfer is allowed"
        }
      },
      "supportsInterface(bytes4)": {
        "details": "See {IERC165-supportsInterface}. Time complexity O(1), guaranteed to always use less than 30 000 gas."
      }
    },
    "version": 1
  },
  "opcodes": "PUSH1 0x80 PUSH1 0x40 MSTORE CALLVALUE DUP1 ISZERO PUSH2 0x10 JUMPI PUSH1 0x0 DUP1 REVERT JUMPDEST POP PUSH1 0x4 CALLDATASIZE LT PUSH2 0x4C JUMPI PUSH1 0x0 CALLDATALOAD PUSH1 0xE0 SHR DUP1 PUSH4 0x1FFC9A7 EQ PUSH2 0x51 JUMPI DUP1 PUSH4 0x214CDB80 EQ PUSH2 0x8C JUMPI DUP1 PUSH4 0xBC197C81 EQ PUSH2 0xB5 JUMPI DUP1 PUSH4 0xF23A6E61 EQ PUSH2 0x1F9 JUMPI JUMPDEST PUSH1 0x0 DUP1 REVERT JUMPDEST PUSH2 0x78 PUSH1 0x4 DUP1 CALLDATASIZE SUB PUSH1 0x20 DUP2 LT ISZERO PUSH2 0x67 JUMPI PUSH1 0x0 DUP1 REVERT JUMPDEST POP CALLDATALOAD PUSH1 0x1 PUSH1 0x1 PUSH1 0xE0 SHL SUB NOT AND PUSH2 0x28C JUMP JUMPDEST PUSH1 0x40 DUP1 MLOAD SWAP2 ISZERO ISZERO DUP3 MSTORE MLOAD SWAP1 DUP2 SWAP1 SUB PUSH1 0x20 ADD SWAP1 RETURN JUMPDEST PUSH2 0xB3 PUSH1 0x4 DUP1 CALLDATASIZE SUB PUSH1 0x20 DUP2 LT ISZERO PUSH2 0xA2 JUMPI PUSH1 0x0 DUP1 REVERT JUMPDEST POP CALLDATALOAD PUSH1 0x1 PUSH1 0x1 PUSH1 0xE0 SHL SUB NOT AND PUSH2 0x2AB JUMP JUMPDEST STOP JUMPDEST PUSH2 0x1DC PUSH1 0x4 DUP1 CALLDATASIZE SUB PUSH1 0xA0 DUP2 LT ISZERO PUSH2 0xCB JUMPI PUSH1 0x0 DUP1 REVERT JUMPDEST PUSH1 0x1 PUSH1 0x1 PUSH1 0xA0 SHL SUB DUP3 CALLDATALOAD DUP2 AND SWAP3 PUSH1 0x20 DUP2 ADD CALLDATALOAD SWAP1 SWAP2 AND SWAP2 DUP2 ADD SWAP1 PUSH1 0x60 DUP2 ADD PUSH1 0x40 DUP3 ADD CALLDATALOAD PUSH1 0x1 PUSH1 0x20 SHL DUP2 GT ISZERO PUSH2 0xFE JUMPI PUSH1 0x0 DUP1 REVERT JUMPDEST DUP3 ADD DUP4 PUSH1 0x20 DUP3 ADD GT ISZERO PUSH2 0x110 JUMPI PUSH1 0x0 DUP1 REVERT JUMPDEST DUP1 CALLDATALOAD SWAP1 PUSH1 0x20 ADD SWAP2 DUP5 PUSH1 0x20 DUP4 MUL DUP5 ADD GT PUSH1 0x1 PUSH1 0x20 SHL DUP4 GT OR ISZERO PUSH2 0x131 JUMPI PUSH1 0x0 DUP1 REVERT JUMPDEST SWAP2 SWAP4 SWAP1 SWAP3 SWAP1 SWAP2 PUSH1 0x20 DUP2 ADD SWAP1 CALLDATALOAD PUSH1 0x1 PUSH1 0x20 SHL DUP2 GT ISZERO PUSH2 0x14E JUMPI PUSH1 0x0 DUP1 REVERT JUMPDEST DUP3 ADD DUP4 PUSH1 0x20 DUP3 ADD GT ISZERO PUSH2 0x160 JUMPI PUSH1 0x0 DUP1 REVERT JUMPDEST DUP1 CALLDATALOAD SWAP1 PUSH1 0x20 ADD SWAP2 DUP5 PUSH1 0x20 DUP4 MUL DUP5 ADD GT PUSH1 0x1 PUSH1 0x20 SHL DUP4 GT OR ISZERO PUSH2 0x181 JUMPI PUSH1 0x0 DUP1 REVERT JUMPDEST SWAP2 SWAP4 SWAP1 SWAP3 SWAP1 SWAP2 PUSH1 0x20 DUP2 ADD SWAP1 CALLDATALOAD PUSH1 0x1 PUSH1 0x20 SHL DUP2 GT ISZERO PUSH2 0x19E JUMPI PUSH1 0x0 DUP1 REVERT JUMPDEST DUP3 ADD DUP4 PUSH1 0x20 DUP3 ADD GT ISZERO PUSH2 0x1B0 JUMPI PUSH1 0x0 DUP1 REVERT JUMPDEST DUP1 CALLDATALOAD SWAP1 PUSH1 0x20 ADD SWAP2 DUP5 PUSH1 0x1 DUP4 MUL DUP5 ADD GT PUSH1 0x1 PUSH1 0x20 SHL DUP4 GT OR ISZERO PUSH2 0x1D1 JUMPI PUSH1 0x0 DUP1 REVERT JUMPDEST POP SWAP1 SWAP3 POP SWAP1 POP PUSH2 0x2B7 JUMP JUMPDEST PUSH1 0x40 DUP1 MLOAD PUSH1 0x1 PUSH1 0x1 PUSH1 0xE0 SHL SUB NOT SWAP1 SWAP3 AND DUP3 MSTORE MLOAD SWAP1 DUP2 SWAP1 SUB PUSH1 0x20 ADD SWAP1 RETURN JUMPDEST PUSH2 0x1DC PUSH1 0x4 DUP1 CALLDATASIZE SUB PUSH1 0xA0 DUP2 LT ISZERO PUSH2 0x20F JUMPI PUSH1 0x0 DUP1 REVERT JUMPDEST PUSH1 0x1 PUSH1 0x1 PUSH1 0xA0 SHL SUB DUP3 CALLDATALOAD DUP2 AND SWAP3 PUSH1 0x20 DUP2 ADD CALLDATALOAD SWAP1 SWAP2 AND SWAP2 PUSH1 0x40 DUP3 ADD CALLDATALOAD SWAP2 PUSH1 0x60 DUP2 ADD CALLDATALOAD SWAP2 DUP2 ADD SWAP1 PUSH1 0xA0 DUP2 ADD PUSH1 0x80 DUP3 ADD CALLDATALOAD PUSH1 0x1 PUSH1 0x20 SHL DUP2 GT ISZERO PUSH2 0x24E JUMPI PUSH1 0x0 DUP1 REVERT JUMPDEST DUP3 ADD DUP4 PUSH1 0x20 DUP3 ADD GT ISZERO PUSH2 0x260 JUMPI PUSH1 0x0 DUP1 REVERT JUMPDEST DUP1 CALLDATALOAD SWAP1 PUSH1 0x20 ADD SWAP2 DUP5 PUSH1 0x1 DUP4 MUL DUP5 ADD GT PUSH1 0x1 PUSH1 0x20 SHL DUP4 GT OR ISZERO PUSH2 0x281 JUMPI PUSH1 0x0 DUP1 REVERT JUMPDEST POP SWAP1 SWAP3 POP SWAP1 POP PUSH2 0x40E JUMP JUMPDEST PUSH1 0x1 PUSH1 0x1 PUSH1 0xE0 SHL SUB NOT AND PUSH1 0x0 SWAP1 DUP2 MSTORE PUSH1 0x20 DUP2 SWAP1 MSTORE PUSH1 0x40 SWAP1 KECCAK256 SLOAD PUSH1 0xFF AND SWAP1 JUMP JUMPDEST PUSH2 0x2B4 DUP2 PUSH2 0x505 JUMP JUMPDEST POP JUMP JUMPDEST PUSH1 0x1 SLOAD PUSH1 0x0 SWAP1 PUSH10 0x1000000000000000000 SWAP1 DIV PUSH1 0xFF AND ISZERO PUSH2 0x309 JUMPI PUSH1 0x40 MLOAD PUSH3 0x461BCD PUSH1 0xE5 SHL DUP2 MSTORE PUSH1 0x4 ADD DUP1 DUP1 PUSH1 0x20 ADD DUP3 DUP2 SUB DUP3 MSTORE PUSH1 0x2F DUP2 MSTORE PUSH1 0x20 ADD DUP1 PUSH2 0x5B3 PUSH1 0x2F SWAP2 CODECOPY PUSH1 0x40 ADD SWAP2 POP POP PUSH1 0x40 MLOAD DUP1 SWAP2 SUB SWAP1 REVERT JUMPDEST PUSH32 0xBCAD9224BA33B574E9C85298DE2F44B4C80015A21AA5DF474896444909863D8 DUP10 DUP10 DUP10 DUP10 DUP10 DUP10 DUP10 DUP10 GAS PUSH1 0x40 MLOAD DUP1 DUP11 PUSH1 0x1 PUSH1 0x1 PUSH1 0xA0 SHL SUB AND DUP2 MSTORE PUSH1 0x20 ADD DUP10 PUSH1 0x1 PUSH1 0x1 PUSH1 0xA0 SHL SUB AND DUP2 MSTORE PUSH1 0x20 ADD DUP1 PUSH1 0x20 ADD DUP1 PUSH1 0x20 ADD DUP1 PUSH1 0x20 ADD DUP6 DUP2 MSTORE PUSH1 0x20 ADD DUP5 DUP2 SUB DUP5 MSTORE DUP12 DUP12 DUP3 DUP2 DUP2 MSTORE PUSH1 0x20 ADD SWAP3 POP PUSH1 0x20 MUL DUP1 DUP3 DUP5 CALLDATACOPY PUSH1 0x0 DUP4 DUP3 ADD MSTORE PUSH1 0x1F ADD PUSH1 0x1F NOT AND SWAP1 SWAP2 ADD DUP6 DUP2 SUB DUP5 MSTORE DUP10 DUP2 MSTORE PUSH1 0x20 SWAP1 DUP2 ADD SWAP2 POP DUP11 SWAP1 DUP11 MUL DUP1 DUP3 DUP5 CALLDATACOPY PUSH1 0x0 DUP4 DUP3 ADD MSTORE PUSH1 0x1F ADD PUSH1 0x1F NOT AND SWAP1 SWAP2 ADD DUP6 DUP2 SUB DUP4 MSTORE DUP8 DUP2 MSTORE PUSH1 0x20 ADD SWAP1 POP DUP8 DUP8 DUP1 DUP3 DUP5 CALLDATACOPY PUSH1 0x0 DUP4 DUP3 ADD MSTORE PUSH1 0x40 MLOAD PUSH1 0x1F SWAP1 SWAP2 ADD PUSH1 0x1F NOT AND SWAP1 SWAP3 ADD DUP3 SWAP1 SUB SWAP15 POP SWAP1 SWAP13 POP POP POP POP POP POP POP POP POP POP POP POP POP LOG1 POP PUSH1 0x1 SLOAD PUSH6 0x10000000000 SWAP1 DIV PUSH1 0xE0 SHL SWAP9 SWAP8 POP POP POP POP POP POP POP POP JUMP JUMPDEST PUSH1 0x1 SLOAD PUSH1 0x0 SWAP1 PUSH1 0x1 PUSH1 0x20 SHL SWAP1 DIV PUSH1 0xFF AND ISZERO PUSH2 0x45A JUMPI PUSH1 0x40 MLOAD PUSH3 0x461BCD PUSH1 0xE5 SHL DUP2 MSTORE PUSH1 0x4 ADD DUP1 DUP1 PUSH1 0x20 ADD DUP3 DUP2 SUB DUP3 MSTORE PUSH1 0x29 DUP2 MSTORE PUSH1 0x20 ADD DUP1 PUSH2 0x58A PUSH1 0x29 SWAP2 CODECOPY PUSH1 0x40 ADD SWAP2 POP POP PUSH1 0x40 MLOAD DUP1 SWAP2 SUB SWAP1 REVERT JUMPDEST PUSH32 0x20DFA9F79060C8C4D7FE892C97C71BCF6E3B63D1DCF66FEA7AEFC0211628CF29 DUP8 DUP8 DUP8 DUP8 DUP8 DUP8 GAS PUSH1 0x40 MLOAD DUP1 DUP9 PUSH1 0x1 PUSH1 0x1 PUSH1 0xA0 SHL SUB AND DUP2 MSTORE PUSH1 0x20 ADD DUP8 PUSH1 0x1 PUSH1 0x1 PUSH1 0xA0 SHL SUB AND DUP2 MSTORE PUSH1 0x20 ADD DUP7 DUP2 MSTORE PUSH1 0x20 ADD DUP6 DUP2 MSTORE PUSH1 0x20 ADD DUP1 PUSH1 0x20 ADD DUP4 DUP2 MSTORE PUSH1 0x20 ADD DUP3 DUP2 SUB DUP3 MSTORE DUP6 DUP6 DUP3 DUP2 DUP2 MSTORE PUSH1 0x20 ADD SWAP3 POP DUP1 DUP3 DUP5 CALLDATACOPY PUSH1 0x0 DUP4 DUP3 ADD MSTORE PUSH1 0x40 MLOAD PUSH1 0x1F SWAP1 SWAP2 ADD PUSH1 0x1F NOT AND SWAP1 SWAP3 ADD DUP3 SWAP1 SUB SWAP11 POP SWAP1 SWAP9 POP POP POP POP POP POP POP POP POP LOG1 POP PUSH1 0x1 SLOAD PUSH1 0xE0 SHL SWAP7 SWAP6 POP POP POP POP POP POP JUMP JUMPDEST PUSH1 0x1 PUSH1 0x1 PUSH1 0xE0 SHL SUB NOT DUP1 DUP3 AND EQ ISZERO PUSH2 0x564 JUMPI PUSH1 0x40 DUP1 MLOAD PUSH3 0x461BCD PUSH1 0xE5 SHL DUP2 MSTORE PUSH1 0x20 PUSH1 0x4 DUP3 ADD MSTORE PUSH1 0x1C PUSH1 0x24 DUP3 ADD MSTORE PUSH32 0x4552433136353A20696E76616C696420696E7465726661636520696400000000 PUSH1 0x44 DUP3 ADD MSTORE SWAP1 MLOAD SWAP1 DUP2 SWAP1 SUB PUSH1 0x64 ADD SWAP1 REVERT JUMPDEST PUSH1 0x1 PUSH1 0x1 PUSH1 0xE0 SHL SUB NOT AND PUSH1 0x0 SWAP1 DUP2 MSTORE PUSH1 0x20 DUP2 SWAP1 MSTORE PUSH1 0x40 SWAP1 KECCAK256 DUP1 SLOAD PUSH1 0xFF NOT AND PUSH1 0x1 OR SWAP1 SSTORE JUMP INVALID GASLIMIT MSTORE NUMBER BALANCE BALANCE CALLDATALOAD CALLDATALOAD MSTORE PUSH6 0x636569766572 0x4D PUSH16 0x636B3A20726576657274696E67206F6E KECCAK256 PUSH19 0x65636569766545524331313535526563656976 PUSH6 0x724D6F636B3A KECCAK256 PUSH19 0x6576657274696E67206F6E2062617463682072 PUSH6 0x6365697665A2 PUSH5 0x6970667358 0x22 SLT KECCAK256 XOR 0xDC PUSH15 0x3A2B087848297BCE33A64B55AC5BAB 0x2A 0xBF PUSH29 0xB90338102B67DDD07C3B9264736F6C634300060C003300000000000000 ",
  "sha1": "70b19b19d50bba357eeba13f635455d64bc0c8ed",
  "source": "// SPDX-License-Identifier: MIT\n\npragma solidity >=0.6.0 <0.8.0;\n\nimport \"../token/ERC1155/IERC1155Receiver.sol\";\nimport \"./ERC165Mock.sol\";\n\ncontract ERC1155ReceiverMock is IERC1155Receiver, ERC165Mock {\n    bytes4 private _recRetval;\n    bool private _recReverts;\n    bytes4 private _batRetval;\n    bool private _batReverts;\n\n    event Received(address operator, address from, uint256 id, uint256 value, bytes data, uint256 gas);\n    event BatchReceived(address operator, address from, uint256[] ids, uint256[] values, bytes data, uint256 gas);\n\n    constructor (\n        bytes4 recRetval,\n        bool recReverts,\n        bytes4 batRetval,\n        bool batReverts\n    )\n        public\n    {\n        _recRetval = recRetval;\n        _recReverts = recReverts;\n        _batRetval = batRetval;\n        _batReverts = batReverts;\n    }\n\n    function onERC1155Received(\n        address operator,\n        address from,\n        uint256 id,\n        uint256 value,\n        bytes calldata data\n    )\n        external\n        override\n        returns(bytes4)\n    {\n        require(!_recReverts, \"ERC1155ReceiverMock: reverting on receive\");\n        emit Received(operator, from, id, value, data, gasleft());\n        return _recRetval;\n    }\n\n    function onERC1155BatchReceived(\n        address operator,\n        address from,\n        uint256[] calldata ids,\n        uint256[] calldata values,\n        bytes calldata data\n    )\n        external\n        override\n        returns(bytes4)\n    {\n        require(!_batReverts, \"ERC1155ReceiverMock: reverting on batch receive\");\n        emit BatchReceived(operator, from, ids, values, data, gasleft());\n        return _batRetval;\n    }\n}\n",
  "sourcePath": "contracts/openzeppelin-contracts@3.4.0/contracts/mocks/ERC1155ReceiverMock.sol",
  "type": "contract"
}