{
  "abi": [
    {
      "inputs": [
        {
          "internalType": "bool",
          "name": "acceptEther",
          "type": "bool"
        }
      ],
      "name": "setAcceptEther",
      "outputs": [],
      "stateMutability": "nonpayable",
      "type": "function"
    },
    {
      "stateMutability": "payable",
      "type": "receive"
    }
  ],
  "bytecode": "6080604052348015600f57600080fd5b5060a38061001e6000396000f3fe608060405260043610601f5760003560e01c80634fea120c146038576033565b3660335760005460ff16603157600080fd5b005b600080fd5b348015604357600080fd5b50603160048036036020811015605857600080fd5b506000805460ff19169135151591909117905556fea264697066735822122096da81a1ba03b0e6ed90cbdb939c321445f1965fa3094b938c2d05e57f83f7fd64736f6c634300060c0033",
  "bytecodeSha1": "726a2efe02c1de69664dce9502a425c52a010509",
  "compiler": {
    "evm_version": "istanbul",
    "optimizer": {
      "enabled": true,
      "runs": 200
    },
    "version": "0.6.12+commit.27d51765"
  },
  "contractName": "EtherReceiverMock",
  "language": "Solidity",
  "natspec": {
    "kind": "dev",
    "methods": {},
    "version": 1
  },
  "opcodes": "PUSH1 0x80 PUSH1 0x40 MSTORE PUSH1 0x4 CALLDATASIZE LT PUSH1 0x1F JUMPI PUSH1 0x0 CALLDATALOAD PUSH1 0xE0 SHR DUP1 PUSH4 0x4FEA120C EQ PUSH1 0x38 JUMPI PUSH1 0x33 JUMP JUMPDEST CALLDATASIZE PUSH1 0x33 JUMPI PUSH1 0x0 SLOAD PUSH1 0xFF AND PUSH1 0x31 JUMPI PUSH1 0x0 DUP1 REVERT JUMPDEST STOP JUMPDEST PUSH1 0x0 DUP1 REVERT JUMPDEST CALLVALUE DUP1 ISZERO PUSH1 0x43 JUMPI PUSH1 0x0 DUP1 REVERT JUMPDEST POP PUSH1 0x31 PUSH1 0x4 DUP1 CALLDATASIZE SUB PUSH1 0x20 DUP2 LT ISZERO PUSH1 0x58 JUMPI PUSH1 0x0 DUP1 REVERT JUMPDEST POP PUSH1 0x0 DUP1 SLOAD PUSH1 0xFF NOT AND SWAP2 CALLDATALOAD ISZERO ISZERO SWAP2 SWAP1 SWAP2 OR SWAP1 SSTORE JUMP INVALID LOG2 PUSH5 0x6970667358 0x22 SLT KECCAK256 SWAP7 0xDA DUP2 LOG1 0xBA SUB 0xB0 0xE6 0xED SWAP1 0xCB 0xDB SWAP4 SWAP13 ORIGIN EQ GASLIMIT CALL SWAP7 0x5F LOG3 MULMOD 0x4B SWAP4 DUP13 0x2D SDIV 0xE5 PUSH32 0x83F7FD64736F6C634300060C0033000000000000000000000000000000000000 ",
  "sha1": "aff0d38cb79f5f397eb44d64ca82bb5b5221af28",
  "source": "// SPDX-License-Identifier: MIT\n\npragma solidity >=0.6.0 <0.8.0;\n\ncontract EtherReceiverMock {\n    bool private _acceptEther;\n\n    function setAcceptEther(bool acceptEther) public {\n        _acceptEther = acceptEther;\n    }\n\n    receive () external payable {\n        if (!_acceptEther) {\n            revert();\n        }\n    }\n}\n",
  "sourcePath": "contracts/openzeppelin-contracts@3.4.0/contracts/mocks/EtherReceiverMock.sol",
  "type": "contract"
}