{
  "abi": [
    {
      "inputs": [],
      "name": "initialize",
      "outputs": [],
      "stateMutability": "nonpayable",
      "type": "function"
    },
    {
      "inputs": [
        {
          "internalType": "uint256",
          "name": "_number",
          "type": "uint256"
        }
      ],
      "name": "setValue",
      "outputs": [],
      "stateMutability": "nonpayable",
      "type": "function"
    }
  ],
  "bytecode": "608060405234801561001057600080fd5b50610184806100206000396000f3fe608060405234801561001057600080fd5b50600436106100365760003560e01c8063552410771461003b5780638129fc1c1461005a575b600080fd5b6100586004803603602081101561005157600080fd5b5035610062565b005b610058610067565b600155565b600054610100900460ff16806100805750610080610109565b8061008e575060005460ff16155b6100c95760405162461bcd60e51b815260040180806020018281038252602e815260200180610121602e913960400191505060405180910390fd5b600054610100900460ff161580156100f4576000805460ff1961ff0019909116610100171660011790555b8015610106576000805461ff00191690555b50565b60006101143061011a565b15905090565b3b15159056fe496e697469616c697a61626c653a20636f6e747261637420697320616c726561647920696e697469616c697a6564a2646970667358221220bd6bdf451d746b3ef61f335b00a833755a383304f40a07ea5a4b85e6e6bbb57b64736f6c634300060c0033",
  "bytecodeSha1": "c914984b5d3daaff5f4a22ec9fd3441b1add7153",
  "compiler": {
    "evm_version": "istanbul",
    "optimizer": {
      "enabled": true,
      "runs": 200
    },
    "version": "0.6.12+commit.27d51765"
  },
  "contractName": "Implementation1",
  "language": "Solidity",
  "natspec": {
    "kind": "dev",
    "methods": {},
    "version": 1
  },
  "opcodes": "PUSH1 0x80 PUSH1 0x40 MSTORE CALLVALUE DUP1 ISZERO PUSH2 0x10 JUMPI PUSH1 0x0 DUP1 REVERT JUMPDEST POP PUSH1 0x4 CALLDATASIZE LT PUSH2 0x36 JUMPI PUSH1 0x0 CALLDATALOAD PUSH1 0xE0 SHR DUP1 PUSH4 0x55241077 EQ PUSH2 0x3B JUMPI DUP1 PUSH4 0x8129FC1C EQ PUSH2 0x5A JUMPI JUMPDEST PUSH1 0x0 DUP1 REVERT JUMPDEST PUSH2 0x58 PUSH1 0x4 DUP1 CALLDATASIZE SUB PUSH1 0x20 DUP2 LT ISZERO PUSH2 0x51 JUMPI PUSH1 0x0 DUP1 REVERT JUMPDEST POP CALLDATALOAD PUSH2 0x62 JUMP JUMPDEST STOP JUMPDEST PUSH2 0x58 PUSH2 0x67 JUMP JUMPDEST PUSH1 0x1 SSTORE JUMP JUMPDEST PUSH1 0x0 SLOAD PUSH2 0x100 SWAP1 DIV PUSH1 0xFF AND DUP1 PUSH2 0x80 JUMPI POP PUSH2 0x80 PUSH2 0x109 JUMP JUMPDEST DUP1 PUSH2 0x8E JUMPI POP PUSH1 0x0 SLOAD PUSH1 0xFF AND ISZERO JUMPDEST PUSH2 0xC9 JUMPI PUSH1 0x40 MLOAD PUSH3 0x461BCD PUSH1 0xE5 SHL DUP2 MSTORE PUSH1 0x4 ADD DUP1 DUP1 PUSH1 0x20 ADD DUP3 DUP2 SUB DUP3 MSTORE PUSH1 0x2E DUP2 MSTORE PUSH1 0x20 ADD DUP1 PUSH2 0x121 PUSH1 0x2E SWAP2 CODECOPY PUSH1 0x40 ADD SWAP2 POP POP PUSH1 0x40 MLOAD DUP1 SWAP2 SUB SWAP1 REVERT JUMPDEST PUSH1 0x0 SLOAD PUSH2 0x100 SWAP1 DIV PUSH1 0xFF AND ISZERO DUP1 ISZERO PUSH2 0xF4 JUMPI PUSH1 0x0 DUP1 SLOAD PUSH1 0xFF NOT PUSH2 0xFF00 NOT SWAP1 SWAP2 AND PUSH2 0x100 OR AND PUSH1 0x1 OR SWAP1 SSTORE JUMPDEST DUP1 ISZERO PUSH2 0x106 JUMPI PUSH1 0x0 DUP1 SLOAD PUSH2 0xFF00 NOT AND SWAP1 SSTORE JUMPDEST POP JUMP JUMPDEST PUSH1 0x0 PUSH2 0x114 ADDRESS PUSH2 0x11A JUMP JUMPDEST ISZERO SWAP1 POP SWAP1 JUMP JUMPDEST EXTCODESIZE ISZERO ISZERO SWAP1 JUMP INVALID 0x49 PUSH15 0x697469616C697A61626C653A20636F PUSH15 0x747261637420697320616C72656164 PUSH26 0x20696E697469616C697A6564A2646970667358221220BD6BDF45 SAR PUSH21 0x6B3EF61F335B00A833755A383304F40A07EA5A4B85 0xE6 0xE6 0xBB 0xB5 PUSH28 0x64736F6C634300060C00330000000000000000000000000000000000 ",
  "sha1": "bde50e481f2b5f895378960cdd15a4342c60929b",
  "source": "// SPDX-License-Identifier: MIT\n\npragma solidity >=0.6.0 <0.8.0;\n\nimport \"../proxy/Initializable.sol\";\n\ncontract Implementation1 is Initializable {\n  uint internal _value;\n\n  function initialize() public initializer {\n  }\n\n  function setValue(uint _number) public {\n    _value = _number;\n  }\n}\n\ncontract Implementation2 is Initializable {\n  uint internal _value;\n\n  function initialize() public initializer {\n  }\n\n  function setValue(uint _number) public {\n    _value = _number;\n  }\n\n  function getValue() public view returns (uint) {\n    return _value;\n  }\n}\n\ncontract Implementation3 is Initializable {\n  uint internal _value;\n\n  function initialize() public initializer {\n  }\n\n  function setValue(uint _number) public {\n    _value = _number;\n  }\n\n  function getValue(uint _number) public view returns (uint) {\n    return _value + _number;\n  }\n}\n\ncontract Implementation4 is Initializable {\n  uint internal _value;\n\n  function initialize() public initializer {\n  }\n\n  function setValue(uint _number) public {\n    _value = _number;\n  }\n\n  function getValue() public view returns (uint) {\n    return _value;\n  }\n\n  // solhint-disable-next-line payable-fallback\n  fallback() external {\n    _value = 1;\n  }\n}\n",
  "sourcePath": "contracts/openzeppelin-contracts@3.4.0/contracts/mocks/RegressionImplementation.sol",
  "type": "contract"
}