{
  "abi": [
    {
      "inputs": [
        {
          "internalType": "uint256",
          "name": "value",
          "type": "uint256"
        }
      ],
      "name": "initialize",
      "outputs": [],
      "stateMutability": "payable",
      "type": "function"
    },
    {
      "inputs": [
        {
          "internalType": "uint256",
          "name": "value",
          "type": "uint256"
        },
        {
          "internalType": "uint256",
          "name": "anotherValue",
          "type": "uint256"
        }
      ],
      "name": "migrate",
      "outputs": [],
      "stateMutability": "payable",
      "type": "function"
    },
    {
      "inputs": [],
      "name": "x",
      "outputs": [
        {
          "internalType": "uint256",
          "name": "",
          "type": "uint256"
        }
      ],
      "stateMutability": "view",
      "type": "function"
    },
    {
      "inputs": [],
      "name": "y",
      "outputs": [
        {
          "internalType": "uint256",
          "name": "",
          "type": "uint256"
        }
      ],
      "stateMutability": "view",
      "type": "function"
    }
  ],
  "bytecode": "608060405234801561001057600080fd5b50610218806100206000396000f3fe60806040526004361061003f5760003560e01c80630c55699c146100445780633e54bacb1461006b578063a56dfe4a14610090578063fe4b84df146100a5575b600080fd5b34801561005057600080fd5b506100596100c2565b60408051918252519081900360200190f35b61008e6004803603604081101561008157600080fd5b50803590602001356100c8565b005b34801561009c57600080fd5b506100596100ef565b61008e600480360360208110156100bb57600080fd5b50356100f5565b60015481565b60025460ff16156100d857600080fd5b60019182556003556002805460ff19169091179055565b60035481565b600054610100900460ff168061010e575061010e61019d565b8061011c575060005460ff16155b6101575760405162461bcd60e51b815260040180806020018281038252602e8152602001806101b5602e913960400191505060405180910390fd5b600054610100900460ff16158015610182576000805460ff1961ff0019909116610100171660011790555b60018290558015610199576000805461ff00191690555b5050565b60006101a8306101ae565b15905090565b3b15159056fe496e697469616c697a61626c653a20636f6e747261637420697320616c726561647920696e697469616c697a6564a264697066735822122079802838f2bca73d81b9b0ecaa3889c14527aebd057b78caa5bf4c5de7f65cfc64736f6c634300060c0033",
  "bytecodeSha1": "de4a2e82bce5e80916ae7e5a83bc166cddf3e9a1",
  "compiler": {
    "evm_version": "istanbul",
    "optimizer": {
      "enabled": true,
      "runs": 200
    },
    "version": "0.6.12+commit.27d51765"
  },
  "contractName": "MigratableMockV2",
  "language": "Solidity",
  "natspec": {
    "details": "This contract is a mock to test migratable functionality with params",
    "kind": "dev",
    "methods": {},
    "title": "MigratableMockV2",
    "version": 1
  },
  "opcodes": "PUSH1 0x80 PUSH1 0x40 MSTORE PUSH1 0x4 CALLDATASIZE LT PUSH2 0x3F JUMPI PUSH1 0x0 CALLDATALOAD PUSH1 0xE0 SHR DUP1 PUSH4 0xC55699C EQ PUSH2 0x44 JUMPI DUP1 PUSH4 0x3E54BACB EQ PUSH2 0x6B JUMPI DUP1 PUSH4 0xA56DFE4A EQ PUSH2 0x90 JUMPI DUP1 PUSH4 0xFE4B84DF EQ PUSH2 0xA5 JUMPI JUMPDEST PUSH1 0x0 DUP1 REVERT JUMPDEST CALLVALUE DUP1 ISZERO PUSH2 0x50 JUMPI PUSH1 0x0 DUP1 REVERT JUMPDEST POP PUSH2 0x59 PUSH2 0xC2 JUMP JUMPDEST PUSH1 0x40 DUP1 MLOAD SWAP2 DUP3 MSTORE MLOAD SWAP1 DUP2 SWAP1 SUB PUSH1 0x20 ADD SWAP1 RETURN JUMPDEST PUSH2 0x8E PUSH1 0x4 DUP1 CALLDATASIZE SUB PUSH1 0x40 DUP2 LT ISZERO PUSH2 0x81 JUMPI PUSH1 0x0 DUP1 REVERT JUMPDEST POP DUP1 CALLDATALOAD SWAP1 PUSH1 0x20 ADD CALLDATALOAD PUSH2 0xC8 JUMP JUMPDEST STOP JUMPDEST CALLVALUE DUP1 ISZERO PUSH2 0x9C JUMPI PUSH1 0x0 DUP1 REVERT JUMPDEST POP PUSH2 0x59 PUSH2 0xEF JUMP JUMPDEST PUSH2 0x8E PUSH1 0x4 DUP1 CALLDATASIZE SUB PUSH1 0x20 DUP2 LT ISZERO PUSH2 0xBB JUMPI PUSH1 0x0 DUP1 REVERT JUMPDEST POP CALLDATALOAD PUSH2 0xF5 JUMP JUMPDEST PUSH1 0x1 SLOAD DUP2 JUMP JUMPDEST PUSH1 0x2 SLOAD PUSH1 0xFF AND ISZERO PUSH2 0xD8 JUMPI PUSH1 0x0 DUP1 REVERT JUMPDEST PUSH1 0x1 SWAP2 DUP3 SSTORE PUSH1 0x3 SSTORE PUSH1 0x2 DUP1 SLOAD PUSH1 0xFF NOT AND SWAP1 SWAP2 OR SWAP1 SSTORE JUMP JUMPDEST PUSH1 0x3 SLOAD DUP2 JUMP JUMPDEST PUSH1 0x0 SLOAD PUSH2 0x100 SWAP1 DIV PUSH1 0xFF AND DUP1 PUSH2 0x10E JUMPI POP PUSH2 0x10E PUSH2 0x19D JUMP JUMPDEST DUP1 PUSH2 0x11C JUMPI POP PUSH1 0x0 SLOAD PUSH1 0xFF AND ISZERO JUMPDEST PUSH2 0x157 JUMPI PUSH1 0x40 MLOAD PUSH3 0x461BCD PUSH1 0xE5 SHL DUP2 MSTORE PUSH1 0x4 ADD DUP1 DUP1 PUSH1 0x20 ADD DUP3 DUP2 SUB DUP3 MSTORE PUSH1 0x2E DUP2 MSTORE PUSH1 0x20 ADD DUP1 PUSH2 0x1B5 PUSH1 0x2E SWAP2 CODECOPY PUSH1 0x40 ADD SWAP2 POP POP PUSH1 0x40 MLOAD DUP1 SWAP2 SUB SWAP1 REVERT JUMPDEST PUSH1 0x0 SLOAD PUSH2 0x100 SWAP1 DIV PUSH1 0xFF AND ISZERO DUP1 ISZERO PUSH2 0x182 JUMPI PUSH1 0x0 DUP1 SLOAD PUSH1 0xFF NOT PUSH2 0xFF00 NOT SWAP1 SWAP2 AND PUSH2 0x100 OR AND PUSH1 0x1 OR SWAP1 SSTORE JUMPDEST PUSH1 0x1 DUP3 SWAP1 SSTORE DUP1 ISZERO PUSH2 0x199 JUMPI PUSH1 0x0 DUP1 SLOAD PUSH2 0xFF00 NOT AND SWAP1 SSTORE JUMPDEST POP POP JUMP JUMPDEST PUSH1 0x0 PUSH2 0x1A8 ADDRESS PUSH2 0x1AE JUMP JUMPDEST ISZERO SWAP1 POP SWAP1 JUMP JUMPDEST EXTCODESIZE ISZERO ISZERO SWAP1 JUMP INVALID 0x49 PUSH15 0x697469616C697A61626C653A20636F PUSH15 0x747261637420697320616C72656164 PUSH26 0x20696E697469616C697A6564A264697066735822122079802838 CALLCODE 0xBC 0xA7 RETURNDATASIZE DUP2 0xB9 0xB0 0xEC 0xAA CODESIZE DUP10 0xC1 GASLIMIT 0x27 0xAE 0xBD SDIV PUSH28 0x78CAA5BF4C5DE7F65CFC64736F6C634300060C003300000000000000 ",
  "sha1": "4b0e8af406589c771586de13641f3868aa1cbd7b",
  "source": "// SPDX-License-Identifier: MIT\n\npragma solidity >=0.6.0 <0.8.0;\n\nimport \"../proxy/Initializable.sol\";\n\n/**\n * @title MigratableMockV1\n * @dev This contract is a mock to test initializable functionality through migrations\n */\ncontract MigratableMockV1 is Initializable {\n  uint256 public x;\n\n  function initialize(uint256 value) public payable initializer {\n    x = value;\n  }\n}\n\n/**\n * @title MigratableMockV2\n * @dev This contract is a mock to test migratable functionality with params\n */\ncontract MigratableMockV2 is MigratableMockV1 {\n  bool internal _migratedV2;\n  uint256 public y;\n\n  function migrate(uint256 value, uint256 anotherValue) public payable {\n    require(!_migratedV2);\n    x = value;\n    y = anotherValue;\n    _migratedV2 = true;\n  }\n}\n\n/**\n * @title MigratableMockV3\n * @dev This contract is a mock to test migratable functionality without params\n */\ncontract MigratableMockV3 is MigratableMockV2 {\n  bool internal _migratedV3;\n\n  function migrate() public payable {\n    require(!_migratedV3);\n    uint256 oldX = x;\n    x = y;\n    y = oldX;\n    _migratedV3 = true;\n  }\n}\n",
  "sourcePath": "contracts/openzeppelin-contracts@3.4.0/contracts/mocks/SingleInheritanceInitializableMocks.sol",
  "type": "contract"
}