{
  "abi": [
    {
      "inputs": [],
      "stateMutability": "payable",
      "type": "constructor"
    },
    {
      "inputs": [
        {
          "internalType": "address",
          "name": "dest",
          "type": "address"
        },
        {
          "internalType": "uint256",
          "name": "amount",
          "type": "uint256"
        }
      ],
      "name": "callTransfer",
      "outputs": [],
      "stateMutability": "nonpayable",
      "type": "function"
    },
    {
      "inputs": [
        {
          "internalType": "address",
          "name": "dest",
          "type": "address"
        }
      ],
      "name": "payments",
      "outputs": [
        {
          "internalType": "uint256",
          "name": "",
          "type": "uint256"
        }
      ],
      "stateMutability": "view",
      "type": "function"
    },
    {
      "inputs": [
        {
          "internalType": "address payable",
          "name": "payee",
          "type": "address"
        }
      ],
      "name": "withdrawPayments",
      "outputs": [],
      "stateMutability": "nonpayable",
      "type": "function"
    }
  ],
  "bytecode": "608060405260405161001090610052565b604051809103906000f08015801561002c573d6000803e3d6000fd5b50600080546001600160a01b0319166001600160a01b039290921691909117905561005f565b610777806102d483390190565b6102668061006e6000396000f3fe608060405234801561001057600080fd5b50600436106100415760003560e01c806331b3eb9414610046578063d44409911461006e578063e2982c211461009a575b600080fd5b61006c6004803603602081101561005c57600080fd5b50356001600160a01b03166100d2565b005b61006c6004803603604081101561008457600080fd5b506001600160a01b038135169060200135610138565b6100c0600480360360208110156100b057600080fd5b50356001600160a01b0316610146565b60408051918252519081900360200190f35b60008054604080516351cff8d960e01b81526001600160a01b038581166004830152915191909216926351cff8d9926024808201939182900301818387803b15801561011d57600080fd5b505af1158015610131573d6000803e3d6000fd5b5050505050565b61014282826101c6565b5050565b60008054604080516371d4ed8d60e11b81526001600160a01b0385811660048301529151919092169163e3a9db1a916024808301926020929190829003018186803b15801561019457600080fd5b505afa1580156101a8573d6000803e3d6000fd5b505050506040513d60208110156101be57600080fd5b505192915050565b600080546040805163f340fa0160e01b81526001600160a01b0386811660048301529151919092169263f340fa019285926024808301939282900301818588803b15801561021357600080fd5b505af1158015610227573d6000803e3d6000fd5b5050505050505056fea2646970667358221220cdf73fa85e1549caa981d8d398bc70462780dbd8715665c3a881d273769427ba64736f6c634300060c0033608060405234801561001057600080fd5b50600061001b61006a565b600080546001600160a01b0319166001600160a01b0383169081178255604051929350917f8be0079c531659141344cd1fd0a4f28419497f9722a3daafe3b4186f6b6457e0908290a35061006e565b3390565b6106fa8061007d6000396000f3fe6080604052600436106100555760003560e01c806351cff8d91461005a578063715018a61461008f5780638da5cb5b146100a4578063e3a9db1a146100d5578063f2fde38b1461011a578063f340fa011461014d575b600080fd5b34801561006657600080fd5b5061008d6004803603602081101561007d57600080fd5b50356001600160a01b0316610173565b005b34801561009b57600080fd5b5061008d610240565b3480156100b057600080fd5b506100b96102ec565b604080516001600160a01b039092168252519081900360200190f35b3480156100e157600080fd5b50610108600480360360208110156100f857600080fd5b50356001600160a01b03166102fb565b60408051918252519081900360200190f35b34801561012657600080fd5b5061008d6004803603602081101561013d57600080fd5b50356001600160a01b0316610316565b61008d6004803603602081101561016357600080fd5b50356001600160a01b0316610418565b61017b6104f5565b6001600160a01b031661018c6102ec565b6001600160a01b0316146101d5576040805162461bcd60e51b815260206004820181905260248201526000805160206106a5833981519152604482015290519081900360640190fd5b6001600160a01b03811660008181526001602052604081208054919055906101fd90826104f9565b6040805182815290516001600160a01b038416917f7084f5476618d8e60b11ef0d7d3f06914655adb8793e28ff7f018d4c76d505d5919081900360200190a25050565b6102486104f5565b6001600160a01b03166102596102ec565b6001600160a01b0316146102a2576040805162461bcd60e51b815260206004820181905260248201526000805160206106a5833981519152604482015290519081900360640190fd5b600080546040516001600160a01b03909116907f8be0079c531659141344cd1fd0a4f28419497f9722a3daafe3b4186f6b6457e0908390a3600080546001600160a01b0319169055565b6000546001600160a01b031690565b6001600160a01b031660009081526001602052604090205490565b61031e6104f5565b6001600160a01b031661032f6102ec565b6001600160a01b031614610378576040805162461bcd60e51b815260206004820181905260248201526000805160206106a5833981519152604482015290519081900360640190fd5b6001600160a01b0381166103bd5760405162461bcd60e51b81526004018080602001828103825260268152602001806106456026913960400191505060405180910390fd5b600080546040516001600160a01b03808516939216917f8be0079c531659141344cd1fd0a4f28419497f9722a3daafe3b4186f6b6457e091a3600080546001600160a01b0319166001600160a01b0392909216919091179055565b6104206104f5565b6001600160a01b03166104316102ec565b6001600160a01b03161461047a576040805162461bcd60e51b815260206004820181905260248201526000805160206106a5833981519152604482015290519081900360640190fd5b6001600160a01b038116600090815260016020526040902054349061049f90826105e3565b6001600160a01b038316600081815260016020908152604091829020939093558051848152905191927f2da466a7b24304f47e87fa2e1e5a81b9831ce54fec19055ce277ca2f39ba42c492918290030190a25050565b3390565b8047101561054e576040805162461bcd60e51b815260206004820152601d60248201527f416464726573733a20696e73756666696369656e742062616c616e6365000000604482015290519081900360640190fd5b6040516000906001600160a01b0384169083908381818185875af1925050503d8060008114610599576040519150601f19603f3d011682016040523d82523d6000602084013e61059e565b606091505b50509050806105de5760405162461bcd60e51b815260040180806020018281038252603a81526020018061066b603a913960400191505060405180910390fd5b505050565b60008282018381101561063d576040805162461bcd60e51b815260206004820152601b60248201527f536166654d6174683a206164646974696f6e206f766572666c6f770000000000604482015290519081900360640190fd5b939250505056fe4f776e61626c653a206e6577206f776e657220697320746865207a65726f2061646472657373416464726573733a20756e61626c6520746f2073656e642076616c75652c20726563697069656e74206d617920686176652072657665727465644f776e61626c653a2063616c6c6572206973206e6f7420746865206f776e6572a264697066735822122011c8e557ecfa70018b0e6bf3e6f6f5b353a45052348d1e9aedf60f159ba5988664736f6c634300060c0033",
  "bytecodeSha1": "05da97d9af694356d648bdc890822bf00e88cedb",
  "compiler": {
    "evm_version": "istanbul",
    "optimizer": {
      "enabled": true,
      "runs": 200
    },
    "version": "0.6.12+commit.27d51765"
  },
  "contractName": "PullPaymentMock",
  "language": "Solidity",
  "natspec": {
    "kind": "dev",
    "methods": {
      "payments(address)": {
        "details": "Returns the payments owed to an address.",
        "params": {
          "dest": "The creditor's address."
        }
      },
      "withdrawPayments(address)": {
        "details": "Withdraw accumulated payments, forwarding all gas to the recipient. Note that _any_ account can call this function, not just the `payee`. This means that contracts unaware of the `PullPayment` protocol can still receive funds this way, by having a separate account call {withdrawPayments}. WARNING: Forwarding all gas opens the door to reentrancy vulnerabilities. Make sure you trust the recipient, or are either following the checks-effects-interactions pattern or using {ReentrancyGuard}.",
        "params": {
          "payee": "Whose payments will be withdrawn."
        }
      }
    },
    "version": 1
  },
  "opcodes": "PUSH1 0x80 PUSH1 0x40 MSTORE CALLVALUE DUP1 ISZERO PUSH2 0x10 JUMPI PUSH1 0x0 DUP1 REVERT JUMPDEST POP PUSH1 0x4 CALLDATASIZE LT PUSH2 0x41 JUMPI PUSH1 0x0 CALLDATALOAD PUSH1 0xE0 SHR DUP1 PUSH4 0x31B3EB94 EQ PUSH2 0x46 JUMPI DUP1 PUSH4 0xD4440991 EQ PUSH2 0x6E JUMPI DUP1 PUSH4 0xE2982C21 EQ PUSH2 0x9A JUMPI JUMPDEST PUSH1 0x0 DUP1 REVERT JUMPDEST PUSH2 0x6C PUSH1 0x4 DUP1 CALLDATASIZE SUB PUSH1 0x20 DUP2 LT ISZERO PUSH2 0x5C JUMPI PUSH1 0x0 DUP1 REVERT JUMPDEST POP CALLDATALOAD PUSH1 0x1 PUSH1 0x1 PUSH1 0xA0 SHL SUB AND PUSH2 0xD2 JUMP JUMPDEST STOP JUMPDEST PUSH2 0x6C PUSH1 0x4 DUP1 CALLDATASIZE SUB PUSH1 0x40 DUP2 LT ISZERO PUSH2 0x84 JUMPI PUSH1 0x0 DUP1 REVERT JUMPDEST POP PUSH1 0x1 PUSH1 0x1 PUSH1 0xA0 SHL SUB DUP2 CALLDATALOAD AND SWAP1 PUSH1 0x20 ADD CALLDATALOAD PUSH2 0x138 JUMP JUMPDEST PUSH2 0xC0 PUSH1 0x4 DUP1 CALLDATASIZE SUB PUSH1 0x20 DUP2 LT ISZERO PUSH2 0xB0 JUMPI PUSH1 0x0 DUP1 REVERT JUMPDEST POP CALLDATALOAD PUSH1 0x1 PUSH1 0x1 PUSH1 0xA0 SHL SUB AND PUSH2 0x146 JUMP JUMPDEST PUSH1 0x40 DUP1 MLOAD SWAP2 DUP3 MSTORE MLOAD SWAP1 DUP2 SWAP1 SUB PUSH1 0x20 ADD SWAP1 RETURN JUMPDEST PUSH1 0x0 DUP1 SLOAD PUSH1 0x40 DUP1 MLOAD PUSH4 0x51CFF8D9 PUSH1 0xE0 SHL DUP2 MSTORE PUSH1 0x1 PUSH1 0x1 PUSH1 0xA0 SHL SUB DUP6 DUP2 AND PUSH1 0x4 DUP4 ADD MSTORE SWAP2 MLOAD SWAP2 SWAP1 SWAP3 AND SWAP3 PUSH4 0x51CFF8D9 SWAP3 PUSH1 0x24 DUP1 DUP3 ADD SWAP4 SWAP2 DUP3 SWAP1 SUB ADD DUP2 DUP4 DUP8 DUP1 EXTCODESIZE ISZERO DUP1 ISZERO PUSH2 0x11D JUMPI PUSH1 0x0 DUP1 REVERT JUMPDEST POP GAS CALL ISZERO DUP1 ISZERO PUSH2 0x131 JUMPI RETURNDATASIZE PUSH1 0x0 DUP1 RETURNDATACOPY RETURNDATASIZE PUSH1 0x0 REVERT JUMPDEST POP POP POP POP POP JUMP JUMPDEST PUSH2 0x142 DUP3 DUP3 PUSH2 0x1C6 JUMP JUMPDEST POP POP JUMP JUMPDEST PUSH1 0x0 DUP1 SLOAD PUSH1 0x40 DUP1 MLOAD PUSH4 0x71D4ED8D PUSH1 0xE1 SHL DUP2 MSTORE PUSH1 0x1 PUSH1 0x1 PUSH1 0xA0 SHL SUB DUP6 DUP2 AND PUSH1 0x4 DUP4 ADD MSTORE SWAP2 MLOAD SWAP2 SWAP1 SWAP3 AND SWAP2 PUSH4 0xE3A9DB1A SWAP2 PUSH1 0x24 DUP1 DUP4 ADD SWAP3 PUSH1 0x20 SWAP3 SWAP2 SWAP1 DUP3 SWAP1 SUB ADD DUP2 DUP7 DUP1 EXTCODESIZE ISZERO DUP1 ISZERO PUSH2 0x194 JUMPI PUSH1 0x0 DUP1 REVERT JUMPDEST POP GAS STATICCALL ISZERO DUP1 ISZERO PUSH2 0x1A8 JUMPI RETURNDATASIZE PUSH1 0x0 DUP1 RETURNDATACOPY RETURNDATASIZE PUSH1 0x0 REVERT JUMPDEST POP POP POP POP PUSH1 0x40 MLOAD RETURNDATASIZE PUSH1 0x20 DUP2 LT ISZERO PUSH2 0x1BE JUMPI PUSH1 0x0 DUP1 REVERT JUMPDEST POP MLOAD SWAP3 SWAP2 POP POP JUMP JUMPDEST PUSH1 0x0 DUP1 SLOAD PUSH1 0x40 DUP1 MLOAD PUSH4 0xF340FA01 PUSH1 0xE0 SHL DUP2 MSTORE PUSH1 0x1 PUSH1 0x1 PUSH1 0xA0 SHL SUB DUP7 DUP2 AND PUSH1 0x4 DUP4 ADD MSTORE SWAP2 MLOAD SWAP2 SWAP1 SWAP3 AND SWAP3 PUSH4 0xF340FA01 SWAP3 DUP6 SWAP3 PUSH1 0x24 DUP1 DUP4 ADD SWAP4 SWAP3 DUP3 SWAP1 SUB ADD DUP2 DUP6 DUP9 DUP1 EXTCODESIZE ISZERO DUP1 ISZERO PUSH2 0x213 JUMPI PUSH1 0x0 DUP1 REVERT JUMPDEST POP GAS CALL ISZERO DUP1 ISZERO PUSH2 0x227 JUMPI RETURNDATASIZE PUSH1 0x0 DUP1 RETURNDATACOPY RETURNDATASIZE PUSH1 0x0 REVERT JUMPDEST POP POP POP POP POP POP POP JUMP INVALID LOG2 PUSH5 0x6970667358 0x22 SLT KECCAK256 0xCD 0xF7 EXTCODEHASH 0xA8 0x5E ISZERO 0x49 0xCA 0xA9 DUP2 0xD8 0xD3 SWAP9 0xBC PUSH17 0x462780DBD8715665C3A881D273769427BA PUSH5 0x736F6C6343 STOP MOD 0xC STOP CALLER ",
  "sha1": "3016777642bcfc79c2ec02d34231e87208a25619",
  "source": "// SPDX-License-Identifier: MIT\n\npragma solidity >=0.6.0 <0.8.0;\n\nimport \"../payment/PullPayment.sol\";\n\n// mock class using PullPayment\ncontract PullPaymentMock is PullPayment {\n    constructor () public payable { }\n\n    // test helper function to call asyncTransfer\n    function callTransfer(address dest, uint256 amount) public {\n        _asyncTransfer(dest, amount);\n    }\n}\n",
  "sourcePath": "contracts/openzeppelin-contracts@3.4.0/contracts/mocks/PullPaymentMock.sol",
  "type": "contract"
}