{
  "abi": [
    {
      "inputs": [],
      "stateMutability": "nonpayable",
      "type": "constructor"
    },
    {
      "inputs": [],
      "name": "callback",
      "outputs": [],
      "stateMutability": "nonpayable",
      "type": "function"
    },
    {
      "inputs": [
        {
          "internalType": "contract ReentrancyAttack",
          "name": "attacker",
          "type": "address"
        }
      ],
      "name": "countAndCall",
      "outputs": [],
      "stateMutability": "nonpayable",
      "type": "function"
    },
    {
      "inputs": [
        {
          "internalType": "uint256",
          "name": "n",
          "type": "uint256"
        }
      ],
      "name": "countLocalRecursive",
      "outputs": [],
      "stateMutability": "nonpayable",
      "type": "function"
    },
    {
      "inputs": [
        {
          "internalType": "uint256",
          "name": "n",
          "type": "uint256"
        }
      ],
      "name": "countThisRecursive",
      "outputs": [],
      "stateMutability": "nonpayable",
      "type": "function"
    },
    {
      "inputs": [],
      "name": "counter",
      "outputs": [
        {
          "internalType": "uint256",
          "name": "",
          "type": "uint256"
        }
      ],
      "stateMutability": "view",
      "type": "function"
    }
  ],
  "bytecode": "608060405234801561001057600080fd5b50600160008181559055610478806100296000396000f3fe608060405234801561001057600080fd5b50600436106100575760003560e01c8063083b27321461005c57806361bc221a146100665780638c5344fa1461008057806396ffa6901461009d578063b672ad8b146100ba575b600080fd5b6100646100e0565b005b61006e61013a565b60408051918252519081900360200190f35b6100646004803603602081101561009657600080fd5b5035610140565b610064600480360360208110156100b357600080fd5b50356102ce565b610064600480360360208110156100d057600080fd5b50356001600160a01b0316610333565b60026000541415610126576040805162461bcd60e51b815260206004820152601f6024820152600080516020610423833981519152604482015290519081900360640190fd5b6002600055610133610418565b6001600055565b60015481565b60026000541415610186576040805162461bcd60e51b815260206004820152601f6024820152600080516020610423833981519152604482015290519081900360640190fd5b600260005580156102c657610199610418565b60408051600019830160248083019190915282518083039091018152604490910182526020810180516001600160e01b0316634629a27d60e11b17815291518151600093309392918291908083835b602083106102075780518252601f1990920191602091820191016101e8565b6001836020036101000a0380198251168184511680821785525050505050509050019150506000604051808303816000865af19150503d8060008114610269576040519150601f19603f3d011682016040523d82523d6000602084013e61026e565b606091505b50509050806102c4576040805162461bcd60e51b815260206004820152601b60248201527f5265656e7472616e63794d6f636b3a206661696c65642063616c6c0000000000604482015290519081900360640190fd5b505b506001600055565b60026000541415610314576040805162461bcd60e51b815260206004820152601f6024820152600080516020610423833981519152604482015290519081900360640190fd5b600260005580156102c657610327610418565b6102c6600182036102ce565b60026000541415610379576040805162461bcd60e51b815260206004820152601f6024820152600080516020610423833981519152604482015290519081900360640190fd5b6002600055610386610418565b60408051630a2df1ed60e01b815263041d939960e11b600482015290517f083b2732f78169bfaad6b407fa338cc97d697ed69d3915a18239cc111d51a402916001600160a01b03841691630a2df1ed9160248082019260009290919082900301818387803b1580156103f757600080fd5b505af115801561040b573d6000803e3d6000fd5b5050600160005550505050565b600180548101905556fe5265656e7472616e637947756172643a207265656e7472616e742063616c6c00a2646970667358221220c61aae486da1a492ce6958713abebf80ee3d8b0f04d97b0333a9656985322a2564736f6c634300060c0033",
  "bytecodeSha1": "3a79d84987d69043b8b2808503361d2c1ad1a811",
  "compiler": {
    "evm_version": "istanbul",
    "optimizer": {
      "enabled": true,
      "runs": 200
    },
    "version": "0.6.12+commit.27d51765"
  },
  "contractName": "ReentrancyMock",
  "language": "Solidity",
  "natspec": {
    "kind": "dev",
    "methods": {},
    "version": 1
  },
  "opcodes": "PUSH1 0x80 PUSH1 0x40 MSTORE CALLVALUE DUP1 ISZERO PUSH2 0x10 JUMPI PUSH1 0x0 DUP1 REVERT JUMPDEST POP PUSH1 0x4 CALLDATASIZE LT PUSH2 0x57 JUMPI PUSH1 0x0 CALLDATALOAD PUSH1 0xE0 SHR DUP1 PUSH4 0x83B2732 EQ PUSH2 0x5C JUMPI DUP1 PUSH4 0x61BC221A EQ PUSH2 0x66 JUMPI DUP1 PUSH4 0x8C5344FA EQ PUSH2 0x80 JUMPI DUP1 PUSH4 0x96FFA690 EQ PUSH2 0x9D JUMPI DUP1 PUSH4 0xB672AD8B EQ PUSH2 0xBA JUMPI JUMPDEST PUSH1 0x0 DUP1 REVERT JUMPDEST PUSH2 0x64 PUSH2 0xE0 JUMP JUMPDEST STOP JUMPDEST PUSH2 0x6E PUSH2 0x13A JUMP JUMPDEST PUSH1 0x40 DUP1 MLOAD SWAP2 DUP3 MSTORE MLOAD SWAP1 DUP2 SWAP1 SUB PUSH1 0x20 ADD SWAP1 RETURN JUMPDEST PUSH2 0x64 PUSH1 0x4 DUP1 CALLDATASIZE SUB PUSH1 0x20 DUP2 LT ISZERO PUSH2 0x96 JUMPI PUSH1 0x0 DUP1 REVERT JUMPDEST POP CALLDATALOAD PUSH2 0x140 JUMP JUMPDEST PUSH2 0x64 PUSH1 0x4 DUP1 CALLDATASIZE SUB PUSH1 0x20 DUP2 LT ISZERO PUSH2 0xB3 JUMPI PUSH1 0x0 DUP1 REVERT JUMPDEST POP CALLDATALOAD PUSH2 0x2CE JUMP JUMPDEST PUSH2 0x64 PUSH1 0x4 DUP1 CALLDATASIZE SUB PUSH1 0x20 DUP2 LT ISZERO PUSH2 0xD0 JUMPI PUSH1 0x0 DUP1 REVERT JUMPDEST POP CALLDATALOAD PUSH1 0x1 PUSH1 0x1 PUSH1 0xA0 SHL SUB AND PUSH2 0x333 JUMP JUMPDEST PUSH1 0x2 PUSH1 0x0 SLOAD EQ ISZERO PUSH2 0x126 JUMPI PUSH1 0x40 DUP1 MLOAD PUSH3 0x461BCD PUSH1 0xE5 SHL DUP2 MSTORE PUSH1 0x20 PUSH1 0x4 DUP3 ADD MSTORE PUSH1 0x1F PUSH1 0x24 DUP3 ADD MSTORE PUSH1 0x0 DUP1 MLOAD PUSH1 0x20 PUSH2 0x423 DUP4 CODECOPY DUP2 MLOAD SWAP2 MSTORE PUSH1 0x44 DUP3 ADD MSTORE SWAP1 MLOAD SWAP1 DUP2 SWAP1 SUB PUSH1 0x64 ADD SWAP1 REVERT JUMPDEST PUSH1 0x2 PUSH1 0x0 SSTORE PUSH2 0x133 PUSH2 0x418 JUMP JUMPDEST PUSH1 0x1 PUSH1 0x0 SSTORE JUMP JUMPDEST PUSH1 0x1 SLOAD DUP2 JUMP JUMPDEST PUSH1 0x2 PUSH1 0x0 SLOAD EQ ISZERO PUSH2 0x186 JUMPI PUSH1 0x40 DUP1 MLOAD PUSH3 0x461BCD PUSH1 0xE5 SHL DUP2 MSTORE PUSH1 0x20 PUSH1 0x4 DUP3 ADD MSTORE PUSH1 0x1F PUSH1 0x24 DUP3 ADD MSTORE PUSH1 0x0 DUP1 MLOAD PUSH1 0x20 PUSH2 0x423 DUP4 CODECOPY DUP2 MLOAD SWAP2 MSTORE PUSH1 0x44 DUP3 ADD MSTORE SWAP1 MLOAD SWAP1 DUP2 SWAP1 SUB PUSH1 0x64 ADD SWAP1 REVERT JUMPDEST PUSH1 0x2 PUSH1 0x0 SSTORE DUP1 ISZERO PUSH2 0x2C6 JUMPI PUSH2 0x199 PUSH2 0x418 JUMP JUMPDEST PUSH1 0x40 DUP1 MLOAD PUSH1 0x0 NOT DUP4 ADD PUSH1 0x24 DUP1 DUP4 ADD SWAP2 SWAP1 SWAP2 MSTORE DUP3 MLOAD DUP1 DUP4 SUB SWAP1 SWAP2 ADD DUP2 MSTORE PUSH1 0x44 SWAP1 SWAP2 ADD DUP3 MSTORE PUSH1 0x20 DUP2 ADD DUP1 MLOAD PUSH1 0x1 PUSH1 0x1 PUSH1 0xE0 SHL SUB AND PUSH4 0x4629A27D PUSH1 0xE1 SHL OR DUP2 MSTORE SWAP2 MLOAD DUP2 MLOAD PUSH1 0x0 SWAP4 ADDRESS SWAP4 SWAP3 SWAP2 DUP3 SWAP2 SWAP1 DUP1 DUP4 DUP4 JUMPDEST PUSH1 0x20 DUP4 LT PUSH2 0x207 JUMPI DUP1 MLOAD DUP3 MSTORE PUSH1 0x1F NOT SWAP1 SWAP3 ADD SWAP2 PUSH1 0x20 SWAP2 DUP3 ADD SWAP2 ADD PUSH2 0x1E8 JUMP JUMPDEST PUSH1 0x1 DUP4 PUSH1 0x20 SUB PUSH2 0x100 EXP SUB DUP1 NOT DUP3 MLOAD AND DUP2 DUP5 MLOAD AND DUP1 DUP3 OR DUP6 MSTORE POP POP POP POP POP POP SWAP1 POP ADD SWAP2 POP POP PUSH1 0x0 PUSH1 0x40 MLOAD DUP1 DUP4 SUB DUP2 PUSH1 0x0 DUP7 GAS CALL SWAP2 POP POP RETURNDATASIZE DUP1 PUSH1 0x0 DUP2 EQ PUSH2 0x269 JUMPI PUSH1 0x40 MLOAD SWAP2 POP PUSH1 0x1F NOT PUSH1 0x3F RETURNDATASIZE ADD AND DUP3 ADD PUSH1 0x40 MSTORE RETURNDATASIZE DUP3 MSTORE RETURNDATASIZE PUSH1 0x0 PUSH1 0x20 DUP5 ADD RETURNDATACOPY PUSH2 0x26E JUMP JUMPDEST PUSH1 0x60 SWAP2 POP JUMPDEST POP POP SWAP1 POP DUP1 PUSH2 0x2C4 JUMPI PUSH1 0x40 DUP1 MLOAD PUSH3 0x461BCD PUSH1 0xE5 SHL DUP2 MSTORE PUSH1 0x20 PUSH1 0x4 DUP3 ADD MSTORE PUSH1 0x1B PUSH1 0x24 DUP3 ADD MSTORE PUSH32 0x5265656E7472616E63794D6F636B3A206661696C65642063616C6C0000000000 PUSH1 0x44 DUP3 ADD MSTORE SWAP1 MLOAD SWAP1 DUP2 SWAP1 SUB PUSH1 0x64 ADD SWAP1 REVERT JUMPDEST POP JUMPDEST POP PUSH1 0x1 PUSH1 0x0 SSTORE JUMP JUMPDEST PUSH1 0x2 PUSH1 0x0 SLOAD EQ ISZERO PUSH2 0x314 JUMPI PUSH1 0x40 DUP1 MLOAD PUSH3 0x461BCD PUSH1 0xE5 SHL DUP2 MSTORE PUSH1 0x20 PUSH1 0x4 DUP3 ADD MSTORE PUSH1 0x1F PUSH1 0x24 DUP3 ADD MSTORE PUSH1 0x0 DUP1 MLOAD PUSH1 0x20 PUSH2 0x423 DUP4 CODECOPY DUP2 MLOAD SWAP2 MSTORE PUSH1 0x44 DUP3 ADD MSTORE SWAP1 MLOAD SWAP1 DUP2 SWAP1 SUB PUSH1 0x64 ADD SWAP1 REVERT JUMPDEST PUSH1 0x2 PUSH1 0x0 SSTORE DUP1 ISZERO PUSH2 0x2C6 JUMPI PUSH2 0x327 PUSH2 0x418 JUMP JUMPDEST PUSH2 0x2C6 PUSH1 0x1 DUP3 SUB PUSH2 0x2CE JUMP JUMPDEST PUSH1 0x2 PUSH1 0x0 SLOAD EQ ISZERO PUSH2 0x379 JUMPI PUSH1 0x40 DUP1 MLOAD PUSH3 0x461BCD PUSH1 0xE5 SHL DUP2 MSTORE PUSH1 0x20 PUSH1 0x4 DUP3 ADD MSTORE PUSH1 0x1F PUSH1 0x24 DUP3 ADD MSTORE PUSH1 0x0 DUP1 MLOAD PUSH1 0x20 PUSH2 0x423 DUP4 CODECOPY DUP2 MLOAD SWAP2 MSTORE PUSH1 0x44 DUP3 ADD MSTORE SWAP1 MLOAD SWAP1 DUP2 SWAP1 SUB PUSH1 0x64 ADD SWAP1 REVERT JUMPDEST PUSH1 0x2 PUSH1 0x0 SSTORE PUSH2 0x386 PUSH2 0x418 JUMP JUMPDEST PUSH1 0x40 DUP1 MLOAD PUSH4 0xA2DF1ED PUSH1 0xE0 SHL DUP2 MSTORE PUSH4 0x41D9399 PUSH1 0xE1 SHL PUSH1 0x4 DUP3 ADD MSTORE SWAP1 MLOAD PUSH32 0x83B2732F78169BFAAD6B407FA338CC97D697ED69D3915A18239CC111D51A402 SWAP2 PUSH1 0x1 PUSH1 0x1 PUSH1 0xA0 SHL SUB DUP5 AND SWAP2 PUSH4 0xA2DF1ED SWAP2 PUSH1 0x24 DUP1 DUP3 ADD SWAP3 PUSH1 0x0 SWAP3 SWAP1 SWAP2 SWAP1 DUP3 SWAP1 SUB ADD DUP2 DUP4 DUP8 DUP1 EXTCODESIZE ISZERO DUP1 ISZERO PUSH2 0x3F7 JUMPI PUSH1 0x0 DUP1 REVERT JUMPDEST POP GAS CALL ISZERO DUP1 ISZERO PUSH2 0x40B JUMPI RETURNDATASIZE PUSH1 0x0 DUP1 RETURNDATACOPY RETURNDATASIZE PUSH1 0x0 REVERT JUMPDEST POP POP PUSH1 0x1 PUSH1 0x0 SSTORE POP POP POP POP JUMP JUMPDEST PUSH1 0x1 DUP1 SLOAD DUP2 ADD SWAP1 SSTORE JUMP INVALID MSTORE PUSH6 0x656E7472616E PUSH4 0x79477561 PUSH19 0x643A207265656E7472616E742063616C6C00A2 PUSH5 0x6970667358 0x22 SLT KECCAK256 0xC6 BYTE 0xAE 0x48 PUSH14 0xA1A492CE6958713ABEBF80EE3D8B 0xF DIV 0xD9 PUSH28 0x333A9656985322A2564736F6C634300060C00330000000000000000 ",
  "sha1": "12fabf3efa2d29c7ab50f1f50b39aadbc3924854",
  "source": "// SPDX-License-Identifier: MIT\n\npragma solidity >=0.6.0 <0.8.0;\n\nimport \"../utils/ReentrancyGuard.sol\";\nimport \"./ReentrancyAttack.sol\";\n\ncontract ReentrancyMock is ReentrancyGuard {\n    uint256 public counter;\n\n    constructor () public {\n        counter = 0;\n    }\n\n    function callback() external nonReentrant {\n        _count();\n    }\n\n    function countLocalRecursive(uint256 n) public nonReentrant {\n        if (n > 0) {\n            _count();\n            countLocalRecursive(n - 1);\n        }\n    }\n\n    function countThisRecursive(uint256 n) public nonReentrant {\n        if (n > 0) {\n            _count();\n            // solhint-disable-next-line avoid-low-level-calls\n            (bool success,) = address(this).call(abi.encodeWithSignature(\"countThisRecursive(uint256)\", n - 1));\n            require(success, \"ReentrancyMock: failed call\");\n        }\n    }\n\n    function countAndCall(ReentrancyAttack attacker) public nonReentrant {\n        _count();\n        bytes4 func = bytes4(keccak256(\"callback()\"));\n        attacker.callSender(func);\n    }\n\n    function _count() private {\n        counter += 1;\n    }\n}\n",
  "sourcePath": "contracts/openzeppelin-contracts@3.4.0/contracts/mocks/ReentrancyMock.sol",
  "type": "contract"
}