{
  "abi": [
    {
      "inputs": [
        {
          "internalType": "int256",
          "name": "a",
          "type": "int256"
        }
      ],
      "name": "toInt128",
      "outputs": [
        {
          "internalType": "int128",
          "name": "",
          "type": "int128"
        }
      ],
      "stateMutability": "pure",
      "type": "function"
    },
    {
      "inputs": [
        {
          "internalType": "int256",
          "name": "a",
          "type": "int256"
        }
      ],
      "name": "toInt16",
      "outputs": [
        {
          "internalType": "int16",
          "name": "",
          "type": "int16"
        }
      ],
      "stateMutability": "pure",
      "type": "function"
    },
    {
      "inputs": [
        {
          "internalType": "uint256",
          "name": "a",
          "type": "uint256"
        }
      ],
      "name": "toInt256",
      "outputs": [
        {
          "internalType": "int256",
          "name": "",
          "type": "int256"
        }
      ],
      "stateMutability": "pure",
      "type": "function"
    },
    {
      "inputs": [
        {
          "internalType": "int256",
          "name": "a",
          "type": "int256"
        }
      ],
      "name": "toInt32",
      "outputs": [
        {
          "internalType": "int32",
          "name": "",
          "type": "int32"
        }
      ],
      "stateMutability": "pure",
      "type": "function"
    },
    {
      "inputs": [
        {
          "internalType": "int256",
          "name": "a",
          "type": "int256"
        }
      ],
      "name": "toInt64",
      "outputs": [
        {
          "internalType": "int64",
          "name": "",
          "type": "int64"
        }
      ],
      "stateMutability": "pure",
      "type": "function"
    },
    {
      "inputs": [
        {
          "internalType": "int256",
          "name": "a",
          "type": "int256"
        }
      ],
      "name": "toInt8",
      "outputs": [
        {
          "internalType": "int8",
          "name": "",
          "type": "int8"
        }
      ],
      "stateMutability": "pure",
      "type": "function"
    },
    {
      "inputs": [
        {
          "internalType": "uint256",
          "name": "a",
          "type": "uint256"
        }
      ],
      "name": "toUint128",
      "outputs": [
        {
          "internalType": "uint128",
          "name": "",
          "type": "uint128"
        }
      ],
      "stateMutability": "pure",
      "type": "function"
    },
    {
      "inputs": [
        {
          "internalType": "uint256",
          "name": "a",
          "type": "uint256"
        }
      ],
      "name": "toUint16",
      "outputs": [
        {
          "internalType": "uint16",
          "name": "",
          "type": "uint16"
        }
      ],
      "stateMutability": "pure",
      "type": "function"
    },
    {
      "inputs": [
        {
          "internalType": "int256",
          "name": "a",
          "type": "int256"
        }
      ],
      "name": "toUint256",
      "outputs": [
        {
          "internalType": "uint256",
          "name": "",
          "type": "uint256"
        }
      ],
      "stateMutability": "pure",
      "type": "function"
    },
    {
      "inputs": [
        {
          "internalType": "uint256",
          "name": "a",
          "type": "uint256"
        }
      ],
      "name": "toUint32",
      "outputs": [
        {
          "internalType": "uint32",
          "name": "",
          "type": "uint32"
        }
      ],
      "stateMutability": "pure",
      "type": "function"
    },
    {
      "inputs": [
        {
          "internalType": "uint256",
          "name": "a",
          "type": "uint256"
        }
      ],
      "name": "toUint64",
      "outputs": [
        {
          "internalType": "uint64",
          "name": "",
          "type": "uint64"
        }
      ],
      "stateMutability": "pure",
      "type": "function"
    },
    {
      "inputs": [
        {
          "internalType": "uint256",
          "name": "a",
          "type": "uint256"
        }
      ],
      "name": "toUint8",
      "outputs": [
        {
          "internalType": "uint8",
          "name": "",
          "type": "uint8"
        }
      ],
      "stateMutability": "pure",
      "type": "function"
    }
  ],
  "bytecode": "608060405234801561001057600080fd5b50610871806100206000396000f3fe608060405234801561001057600080fd5b50600436106100b45760003560e01c8063cf65b4d311610071578063cf65b4d314610206578063d6bd32aa1461023a578063dd2a03161461026e578063dfbe873b146102a2578063f136dc02146102d1578063fdcf791b14610305576100b4565b80630cc4681e146100b95780632665fad0146100ec578063809fdd33146101265780639374068f146101685780639c6f59be1461019c578063c8193255146101d0575b600080fd5b6100d6600480360360208110156100cf57600080fd5b5035610322565b6040805160ff9092168252519081900360200190f35b6101096004803603602081101561010257600080fd5b5035610333565b6040805167ffffffffffffffff9092168252519081900360200190f35b6101436004803603602081101561013c57600080fd5b503561033e565b604080516fffffffffffffffffffffffffffffffff9092168252519081900360200190f35b6101856004803603602081101561017e57600080fd5b5035610349565b6040805161ffff9092168252519081900360200190f35b6101b9600480360360208110156101b257600080fd5b5035610354565b6040805160039290920b8252519081900360200190f35b6101ed600480360360208110156101e657600080fd5b503561035f565b6040805163ffffffff9092168252519081900360200190f35b6102236004803603602081101561021c57600080fd5b503561036a565b6040805160019290920b8252519081900360200190f35b6102576004803603602081101561025057600080fd5b5035610375565b6040805160079290920b8252519081900360200190f35b61028b6004803603602081101561028457600080fd5b5035610380565b60408051600f9290920b8252519081900360200190f35b6102bf600480360360208110156102b857600080fd5b503561038b565b60408051918252519081900360200190f35b6102ee600480360360208110156102e757600080fd5b5035610396565b6040805160009290920b8252519081900360200190f35b6102bf6004803603602081101561031b57600080fd5b50356103a1565b600061032d826103ac565b92915050565b600061032d826103f2565b600061032d8261043b565b600061032d8261047f565b600061032d826104c2565b600061032d82610517565b600061032d8261055c565b600061032d826105ad565b600061032d8261060a565b600061032d8261066b565b600061032d826106af565b600061032d826106fe565b600061010082106103ee5760405162461bcd60e51b815260040180806020018281038252602581526020018061077c6025913960400191505060405180910390fd5b5090565b60006801000000000000000082106103ee5760405162461bcd60e51b81526004018080602001828103825260268152602001806107c86026913960400191505060405180910390fd5b6000600160801b82106103ee5760405162461bcd60e51b81526004018080602001828103825260278152602001806107a16027913960400191505060405180910390fd5b60006201000082106103ee5760405162461bcd60e51b81526004018080602001828103825260268152602001806107566026913960400191505060405180910390fd5b6000637fffffff1982121580156104dc5750638000000082125b6103ee5760405162461bcd60e51b81526004018080602001828103825260268152602001806107ee6026913960400191505060405180910390fd5b600064010000000082106103ee5760405162461bcd60e51b81526004018080602001828103825260268152602001806107ee6026913960400191505060405180910390fd5b6000617fff198212158015610572575061800082125b6103ee5760405162461bcd60e51b81526004018080602001828103825260268152602001806107566026913960400191505060405180910390fd5b6000677fffffffffffffff1982121580156105cf575067800000000000000082125b6103ee5760405162461bcd60e51b81526004018080602001828103825260268152602001806107c86026913960400191505060405180910390fd5b60006f7fffffffffffffffffffffffffffffff19821215801561063057506001607f1b82125b6103ee5760405162461bcd60e51b81526004018080602001828103825260278152602001806107a16027913960400191505060405180910390fd5b6000600160ff1b82106103ee5760405162461bcd60e51b81526004018080602001828103825260288152602001806108146028913960400191505060405180910390fd5b6000607f1982121580156106c35750608082125b6103ee5760405162461bcd60e51b815260040180806020018281038252602581526020018061077c6025913960400191505060405180910390fd5b6000808212156103ee576040805162461bcd60e51b815260206004820181905260248201527f53616665436173743a2076616c7565206d75737420626520706f736974697665604482015290519081900360640190fdfe53616665436173743a2076616c756520646f65736e27742066697420696e203136206269747353616665436173743a2076616c756520646f65736e27742066697420696e2038206269747353616665436173743a2076616c756520646f65736e27742066697420696e20313238206269747353616665436173743a2076616c756520646f65736e27742066697420696e203634206269747353616665436173743a2076616c756520646f65736e27742066697420696e203332206269747353616665436173743a2076616c756520646f65736e27742066697420696e20616e20696e74323536a26469706673582212209308e15b6cad05c426f069e207a5fad019b2a4c035259b38c383908baeeffcd964736f6c634300060c0033",
  "bytecodeSha1": "52240715b3c8b301b6b25145de1302179a8f228a",
  "compiler": {
    "evm_version": "istanbul",
    "optimizer": {
      "enabled": true,
      "runs": 200
    },
    "version": "0.6.12+commit.27d51765"
  },
  "contractName": "SafeCastMock",
  "language": "Solidity",
  "natspec": {
    "kind": "dev",
    "methods": {},
    "version": 1
  },
  "opcodes": "PUSH1 0x80 PUSH1 0x40 MSTORE CALLVALUE DUP1 ISZERO PUSH2 0x10 JUMPI PUSH1 0x0 DUP1 REVERT JUMPDEST POP PUSH1 0x4 CALLDATASIZE LT PUSH2 0xB4 JUMPI PUSH1 0x0 CALLDATALOAD PUSH1 0xE0 SHR DUP1 PUSH4 0xCF65B4D3 GT PUSH2 0x71 JUMPI DUP1 PUSH4 0xCF65B4D3 EQ PUSH2 0x206 JUMPI DUP1 PUSH4 0xD6BD32AA EQ PUSH2 0x23A JUMPI DUP1 PUSH4 0xDD2A0316 EQ PUSH2 0x26E JUMPI DUP1 PUSH4 0xDFBE873B EQ PUSH2 0x2A2 JUMPI DUP1 PUSH4 0xF136DC02 EQ PUSH2 0x2D1 JUMPI DUP1 PUSH4 0xFDCF791B EQ PUSH2 0x305 JUMPI PUSH2 0xB4 JUMP JUMPDEST DUP1 PUSH4 0xCC4681E EQ PUSH2 0xB9 JUMPI DUP1 PUSH4 0x2665FAD0 EQ PUSH2 0xEC JUMPI DUP1 PUSH4 0x809FDD33 EQ PUSH2 0x126 JUMPI DUP1 PUSH4 0x9374068F EQ PUSH2 0x168 JUMPI DUP1 PUSH4 0x9C6F59BE EQ PUSH2 0x19C JUMPI DUP1 PUSH4 0xC8193255 EQ PUSH2 0x1D0 JUMPI JUMPDEST PUSH1 0x0 DUP1 REVERT JUMPDEST PUSH2 0xD6 PUSH1 0x4 DUP1 CALLDATASIZE SUB PUSH1 0x20 DUP2 LT ISZERO PUSH2 0xCF JUMPI PUSH1 0x0 DUP1 REVERT JUMPDEST POP CALLDATALOAD PUSH2 0x322 JUMP JUMPDEST PUSH1 0x40 DUP1 MLOAD PUSH1 0xFF SWAP1 SWAP3 AND DUP3 MSTORE MLOAD SWAP1 DUP2 SWAP1 SUB PUSH1 0x20 ADD SWAP1 RETURN JUMPDEST PUSH2 0x109 PUSH1 0x4 DUP1 CALLDATASIZE SUB PUSH1 0x20 DUP2 LT ISZERO PUSH2 0x102 JUMPI PUSH1 0x0 DUP1 REVERT JUMPDEST POP CALLDATALOAD PUSH2 0x333 JUMP JUMPDEST PUSH1 0x40 DUP1 MLOAD PUSH8 0xFFFFFFFFFFFFFFFF SWAP1 SWAP3 AND DUP3 MSTORE MLOAD SWAP1 DUP2 SWAP1 SUB PUSH1 0x20 ADD SWAP1 RETURN JUMPDEST PUSH2 0x143 PUSH1 0x4 DUP1 CALLDATASIZE SUB PUSH1 0x20 DUP2 LT ISZERO PUSH2 0x13C JUMPI PUSH1 0x0 DUP1 REVERT JUMPDEST POP CALLDATALOAD PUSH2 0x33E JUMP JUMPDEST PUSH1 0x40 DUP1 MLOAD PUSH16 0xFFFFFFFFFFFFFFFFFFFFFFFFFFFFFFFF SWAP1 SWAP3 AND DUP3 MSTORE MLOAD SWAP1 DUP2 SWAP1 SUB PUSH1 0x20 ADD SWAP1 RETURN JUMPDEST PUSH2 0x185 PUSH1 0x4 DUP1 CALLDATASIZE SUB PUSH1 0x20 DUP2 LT ISZERO PUSH2 0x17E JUMPI PUSH1 0x0 DUP1 REVERT JUMPDEST POP CALLDATALOAD PUSH2 0x349 JUMP JUMPDEST PUSH1 0x40 DUP1 MLOAD PUSH2 0xFFFF SWAP1 SWAP3 AND DUP3 MSTORE MLOAD SWAP1 DUP2 SWAP1 SUB PUSH1 0x20 ADD SWAP1 RETURN JUMPDEST PUSH2 0x1B9 PUSH1 0x4 DUP1 CALLDATASIZE SUB PUSH1 0x20 DUP2 LT ISZERO PUSH2 0x1B2 JUMPI PUSH1 0x0 DUP1 REVERT JUMPDEST POP CALLDATALOAD PUSH2 0x354 JUMP JUMPDEST PUSH1 0x40 DUP1 MLOAD PUSH1 0x3 SWAP3 SWAP1 SWAP3 SIGNEXTEND DUP3 MSTORE MLOAD SWAP1 DUP2 SWAP1 SUB PUSH1 0x20 ADD SWAP1 RETURN JUMPDEST PUSH2 0x1ED PUSH1 0x4 DUP1 CALLDATASIZE SUB PUSH1 0x20 DUP2 LT ISZERO PUSH2 0x1E6 JUMPI PUSH1 0x0 DUP1 REVERT JUMPDEST POP CALLDATALOAD PUSH2 0x35F JUMP JUMPDEST PUSH1 0x40 DUP1 MLOAD PUSH4 0xFFFFFFFF SWAP1 SWAP3 AND DUP3 MSTORE MLOAD SWAP1 DUP2 SWAP1 SUB PUSH1 0x20 ADD SWAP1 RETURN JUMPDEST PUSH2 0x223 PUSH1 0x4 DUP1 CALLDATASIZE SUB PUSH1 0x20 DUP2 LT ISZERO PUSH2 0x21C JUMPI PUSH1 0x0 DUP1 REVERT JUMPDEST POP CALLDATALOAD PUSH2 0x36A JUMP JUMPDEST PUSH1 0x40 DUP1 MLOAD PUSH1 0x1 SWAP3 SWAP1 SWAP3 SIGNEXTEND DUP3 MSTORE MLOAD SWAP1 DUP2 SWAP1 SUB PUSH1 0x20 ADD SWAP1 RETURN JUMPDEST PUSH2 0x257 PUSH1 0x4 DUP1 CALLDATASIZE SUB PUSH1 0x20 DUP2 LT ISZERO PUSH2 0x250 JUMPI PUSH1 0x0 DUP1 REVERT JUMPDEST POP CALLDATALOAD PUSH2 0x375 JUMP JUMPDEST PUSH1 0x40 DUP1 MLOAD PUSH1 0x7 SWAP3 SWAP1 SWAP3 SIGNEXTEND DUP3 MSTORE MLOAD SWAP1 DUP2 SWAP1 SUB PUSH1 0x20 ADD SWAP1 RETURN JUMPDEST PUSH2 0x28B PUSH1 0x4 DUP1 CALLDATASIZE SUB PUSH1 0x20 DUP2 LT ISZERO PUSH2 0x284 JUMPI PUSH1 0x0 DUP1 REVERT JUMPDEST POP CALLDATALOAD PUSH2 0x380 JUMP JUMPDEST PUSH1 0x40 DUP1 MLOAD PUSH1 0xF SWAP3 SWAP1 SWAP3 SIGNEXTEND DUP3 MSTORE MLOAD SWAP1 DUP2 SWAP1 SUB PUSH1 0x20 ADD SWAP1 RETURN JUMPDEST PUSH2 0x2BF PUSH1 0x4 DUP1 CALLDATASIZE SUB PUSH1 0x20 DUP2 LT ISZERO PUSH2 0x2B8 JUMPI PUSH1 0x0 DUP1 REVERT JUMPDEST POP CALLDATALOAD PUSH2 0x38B JUMP JUMPDEST PUSH1 0x40 DUP1 MLOAD SWAP2 DUP3 MSTORE MLOAD SWAP1 DUP2 SWAP1 SUB PUSH1 0x20 ADD SWAP1 RETURN JUMPDEST PUSH2 0x2EE PUSH1 0x4 DUP1 CALLDATASIZE SUB PUSH1 0x20 DUP2 LT ISZERO PUSH2 0x2E7 JUMPI PUSH1 0x0 DUP1 REVERT JUMPDEST POP CALLDATALOAD PUSH2 0x396 JUMP JUMPDEST PUSH1 0x40 DUP1 MLOAD PUSH1 0x0 SWAP3 SWAP1 SWAP3 SIGNEXTEND DUP3 MSTORE MLOAD SWAP1 DUP2 SWAP1 SUB PUSH1 0x20 ADD SWAP1 RETURN JUMPDEST PUSH2 0x2BF PUSH1 0x4 DUP1 CALLDATASIZE SUB PUSH1 0x20 DUP2 LT ISZERO PUSH2 0x31B JUMPI PUSH1 0x0 DUP1 REVERT JUMPDEST POP CALLDATALOAD PUSH2 0x3A1 JUMP JUMPDEST PUSH1 0x0 PUSH2 0x32D DUP3 PUSH2 0x3AC JUMP JUMPDEST SWAP3 SWAP2 POP POP JUMP JUMPDEST PUSH1 0x0 PUSH2 0x32D DUP3 PUSH2 0x3F2 JUMP JUMPDEST PUSH1 0x0 PUSH2 0x32D DUP3 PUSH2 0x43B JUMP JUMPDEST PUSH1 0x0 PUSH2 0x32D DUP3 PUSH2 0x47F JUMP JUMPDEST PUSH1 0x0 PUSH2 0x32D DUP3 PUSH2 0x4C2 JUMP JUMPDEST PUSH1 0x0 PUSH2 0x32D DUP3 PUSH2 0x517 JUMP JUMPDEST PUSH1 0x0 PUSH2 0x32D DUP3 PUSH2 0x55C JUMP JUMPDEST PUSH1 0x0 PUSH2 0x32D DUP3 PUSH2 0x5AD JUMP JUMPDEST PUSH1 0x0 PUSH2 0x32D DUP3 PUSH2 0x60A JUMP JUMPDEST PUSH1 0x0 PUSH2 0x32D DUP3 PUSH2 0x66B JUMP JUMPDEST PUSH1 0x0 PUSH2 0x32D DUP3 PUSH2 0x6AF JUMP JUMPDEST PUSH1 0x0 PUSH2 0x32D DUP3 PUSH2 0x6FE JUMP JUMPDEST PUSH1 0x0 PUSH2 0x100 DUP3 LT PUSH2 0x3EE JUMPI PUSH1 0x40 MLOAD PUSH3 0x461BCD PUSH1 0xE5 SHL DUP2 MSTORE PUSH1 0x4 ADD DUP1 DUP1 PUSH1 0x20 ADD DUP3 DUP2 SUB DUP3 MSTORE PUSH1 0x25 DUP2 MSTORE PUSH1 0x20 ADD DUP1 PUSH2 0x77C PUSH1 0x25 SWAP2 CODECOPY PUSH1 0x40 ADD SWAP2 POP POP PUSH1 0x40 MLOAD DUP1 SWAP2 SUB SWAP1 REVERT JUMPDEST POP SWAP1 JUMP JUMPDEST PUSH1 0x0 PUSH9 0x10000000000000000 DUP3 LT PUSH2 0x3EE JUMPI PUSH1 0x40 MLOAD PUSH3 0x461BCD PUSH1 0xE5 SHL DUP2 MSTORE PUSH1 0x4 ADD DUP1 DUP1 PUSH1 0x20 ADD DUP3 DUP2 SUB DUP3 MSTORE PUSH1 0x26 DUP2 MSTORE PUSH1 0x20 ADD DUP1 PUSH2 0x7C8 PUSH1 0x26 SWAP2 CODECOPY PUSH1 0x40 ADD SWAP2 POP POP PUSH1 0x40 MLOAD DUP1 SWAP2 SUB SWAP1 REVERT JUMPDEST PUSH1 0x0 PUSH1 0x1 PUSH1 0x80 SHL DUP3 LT PUSH2 0x3EE JUMPI PUSH1 0x40 MLOAD PUSH3 0x461BCD PUSH1 0xE5 SHL DUP2 MSTORE PUSH1 0x4 ADD DUP1 DUP1 PUSH1 0x20 ADD DUP3 DUP2 SUB DUP3 MSTORE PUSH1 0x27 DUP2 MSTORE PUSH1 0x20 ADD DUP1 PUSH2 0x7A1 PUSH1 0x27 SWAP2 CODECOPY PUSH1 0x40 ADD SWAP2 POP POP PUSH1 0x40 MLOAD DUP1 SWAP2 SUB SWAP1 REVERT JUMPDEST PUSH1 0x0 PUSH3 0x10000 DUP3 LT PUSH2 0x3EE JUMPI PUSH1 0x40 MLOAD PUSH3 0x461BCD PUSH1 0xE5 SHL DUP2 MSTORE PUSH1 0x4 ADD DUP1 DUP1 PUSH1 0x20 ADD DUP3 DUP2 SUB DUP3 MSTORE PUSH1 0x26 DUP2 MSTORE PUSH1 0x20 ADD DUP1 PUSH2 0x756 PUSH1 0x26 SWAP2 CODECOPY PUSH1 0x40 ADD SWAP2 POP POP PUSH1 0x40 MLOAD DUP1 SWAP2 SUB SWAP1 REVERT JUMPDEST PUSH1 0x0 PUSH4 0x7FFFFFFF NOT DUP3 SLT ISZERO DUP1 ISZERO PUSH2 0x4DC JUMPI POP PUSH4 0x80000000 DUP3 SLT JUMPDEST PUSH2 0x3EE JUMPI PUSH1 0x40 MLOAD PUSH3 0x461BCD PUSH1 0xE5 SHL DUP2 MSTORE PUSH1 0x4 ADD DUP1 DUP1 PUSH1 0x20 ADD DUP3 DUP2 SUB DUP3 MSTORE PUSH1 0x26 DUP2 MSTORE PUSH1 0x20 ADD DUP1 PUSH2 0x7EE PUSH1 0x26 SWAP2 CODECOPY PUSH1 0x40 ADD SWAP2 POP POP PUSH1 0x40 MLOAD DUP1 SWAP2 SUB SWAP1 REVERT JUMPDEST PUSH1 0x0 PUSH5 0x100000000 DUP3 LT PUSH2 0x3EE JUMPI PUSH1 0x40 MLOAD PUSH3 0x461BCD PUSH1 0xE5 SHL DUP2 MSTORE PUSH1 0x4 ADD DUP1 DUP1 PUSH1 0x20 ADD DUP3 DUP2 SUB DUP3 MSTORE PUSH1 0x26 DUP2 MSTORE PUSH1 0x20 ADD DUP1 PUSH2 0x7EE PUSH1 0x26 SWAP2 CODECOPY PUSH1 0x40 ADD SWAP2 POP POP PUSH1 0x40 MLOAD DUP1 SWAP2 SUB SWAP1 REVERT JUMPDEST PUSH1 0x0 PUSH2 0x7FFF NOT DUP3 SLT ISZERO DUP1 ISZERO PUSH2 0x572 JUMPI POP PUSH2 0x8000 DUP3 SLT JUMPDEST PUSH2 0x3EE JUMPI PUSH1 0x40 MLOAD PUSH3 0x461BCD PUSH1 0xE5 SHL DUP2 MSTORE PUSH1 0x4 ADD DUP1 DUP1 PUSH1 0x20 ADD DUP3 DUP2 SUB DUP3 MSTORE PUSH1 0x26 DUP2 MSTORE PUSH1 0x20 ADD DUP1 PUSH2 0x756 PUSH1 0x26 SWAP2 CODECOPY PUSH1 0x40 ADD SWAP2 POP POP PUSH1 0x40 MLOAD DUP1 SWAP2 SUB SWAP1 REVERT JUMPDEST PUSH1 0x0 PUSH8 0x7FFFFFFFFFFFFFFF NOT DUP3 SLT ISZERO DUP1 ISZERO PUSH2 0x5CF JUMPI POP PUSH8 0x8000000000000000 DUP3 SLT JUMPDEST PUSH2 0x3EE JUMPI PUSH1 0x40 MLOAD PUSH3 0x461BCD PUSH1 0xE5 SHL DUP2 MSTORE PUSH1 0x4 ADD DUP1 DUP1 PUSH1 0x20 ADD DUP3 DUP2 SUB DUP3 MSTORE PUSH1 0x26 DUP2 MSTORE PUSH1 0x20 ADD DUP1 PUSH2 0x7C8 PUSH1 0x26 SWAP2 CODECOPY PUSH1 0x40 ADD SWAP2 POP POP PUSH1 0x40 MLOAD DUP1 SWAP2 SUB SWAP1 REVERT JUMPDEST PUSH1 0x0 PUSH16 0x7FFFFFFFFFFFFFFFFFFFFFFFFFFFFFFF NOT DUP3 SLT ISZERO DUP1 ISZERO PUSH2 0x630 JUMPI POP PUSH1 0x1 PUSH1 0x7F SHL DUP3 SLT JUMPDEST PUSH2 0x3EE JUMPI PUSH1 0x40 MLOAD PUSH3 0x461BCD PUSH1 0xE5 SHL DUP2 MSTORE PUSH1 0x4 ADD DUP1 DUP1 PUSH1 0x20 ADD DUP3 DUP2 SUB DUP3 MSTORE PUSH1 0x27 DUP2 MSTORE PUSH1 0x20 ADD DUP1 PUSH2 0x7A1 PUSH1 0x27 SWAP2 CODECOPY PUSH1 0x40 ADD SWAP2 POP POP PUSH1 0x40 MLOAD DUP1 SWAP2 SUB SWAP1 REVERT JUMPDEST PUSH1 0x0 PUSH1 0x1 PUSH1 0xFF SHL DUP3 LT PUSH2 0x3EE JUMPI PUSH1 0x40 MLOAD PUSH3 0x461BCD PUSH1 0xE5 SHL DUP2 MSTORE PUSH1 0x4 ADD DUP1 DUP1 PUSH1 0x20 ADD DUP3 DUP2 SUB DUP3 MSTORE PUSH1 0x28 DUP2 MSTORE PUSH1 0x20 ADD DUP1 PUSH2 0x814 PUSH1 0x28 SWAP2 CODECOPY PUSH1 0x40 ADD SWAP2 POP POP PUSH1 0x40 MLOAD DUP1 SWAP2 SUB SWAP1 REVERT JUMPDEST PUSH1 0x0 PUSH1 0x7F NOT DUP3 SLT ISZERO DUP1 ISZERO PUSH2 0x6C3 JUMPI POP PUSH1 0x80 DUP3 SLT JUMPDEST PUSH2 0x3EE JUMPI PUSH1 0x40 MLOAD PUSH3 0x461BCD PUSH1 0xE5 SHL DUP2 MSTORE PUSH1 0x4 ADD DUP1 DUP1 PUSH1 0x20 ADD DUP3 DUP2 SUB DUP3 MSTORE PUSH1 0x25 DUP2 MSTORE PUSH1 0x20 ADD DUP1 PUSH2 0x77C PUSH1 0x25 SWAP2 CODECOPY PUSH1 0x40 ADD SWAP2 POP POP PUSH1 0x40 MLOAD DUP1 SWAP2 SUB SWAP1 REVERT JUMPDEST PUSH1 0x0 DUP1 DUP3 SLT ISZERO PUSH2 0x3EE JUMPI PUSH1 0x40 DUP1 MLOAD PUSH3 0x461BCD PUSH1 0xE5 SHL DUP2 MSTORE PUSH1 0x20 PUSH1 0x4 DUP3 ADD DUP2 SWAP1 MSTORE PUSH1 0x24 DUP3 ADD MSTORE PUSH32 0x53616665436173743A2076616C7565206D75737420626520706F736974697665 PUSH1 0x44 DUP3 ADD MSTORE SWAP1 MLOAD SWAP1 DUP2 SWAP1 SUB PUSH1 0x64 ADD SWAP1 REVERT INVALID MSTORE8 PUSH2 0x6665 NUMBER PUSH2 0x7374 GASPRICE KECCAK256 PUSH23 0x616C756520646F65736E27742066697420696E20313620 PUSH3 0x697473 MSTORE8 PUSH2 0x6665 NUMBER PUSH2 0x7374 GASPRICE KECCAK256 PUSH23 0x616C756520646F65736E27742066697420696E20382062 PUSH10 0x74735361666543617374 GASPRICE KECCAK256 PUSH23 0x616C756520646F65736E27742066697420696E20313238 KECCAK256 PUSH3 0x697473 MSTORE8 PUSH2 0x6665 NUMBER PUSH2 0x7374 GASPRICE KECCAK256 PUSH23 0x616C756520646F65736E27742066697420696E20363420 PUSH3 0x697473 MSTORE8 PUSH2 0x6665 NUMBER PUSH2 0x7374 GASPRICE KECCAK256 PUSH23 0x616C756520646F65736E27742066697420696E20333220 PUSH3 0x697473 MSTORE8 PUSH2 0x6665 NUMBER PUSH2 0x7374 GASPRICE KECCAK256 PUSH23 0x616C756520646F65736E27742066697420696E20616E20 PUSH10 0x6E74323536A264697066 PUSH20 0x582212209308E15B6CAD05C426F069E207A5FAD0 NOT 0xB2 LOG4 0xC0 CALLDATALOAD 0x25 SWAP12 CODESIZE 0xC3 DUP4 SWAP1 DUP12 0xAE 0xEF 0xFC 0xD9 PUSH5 0x736F6C6343 STOP MOD 0xC STOP CALLER ",
  "sha1": "ab5c9c411e9b34e963030cfd4ad0b5cc1a83ccb6",
  "source": "// SPDX-License-Identifier: MIT\n\npragma solidity >=0.6.0 <0.8.0;\n\nimport \"../utils/SafeCast.sol\";\n\ncontract SafeCastMock {\n    using SafeCast for uint;\n    using SafeCast for int;\n\n    function toUint256(int a) public pure returns (uint256) {\n        return a.toUint256();\n    }\n\n    function toInt256(uint a) public pure returns (int256) {\n        return a.toInt256();\n    }\n\n    function toUint128(uint a) public pure returns (uint128) {\n        return a.toUint128();\n    }\n\n    function toUint64(uint a) public pure returns (uint64) {\n        return a.toUint64();\n    }\n\n    function toUint32(uint a) public pure returns (uint32) {\n        return a.toUint32();\n    }\n\n    function toUint16(uint a) public pure returns (uint16) {\n        return a.toUint16();\n    }\n\n    function toUint8(uint a) public pure returns (uint8) {\n        return a.toUint8();\n    }\n\n    function toInt128(int a) public pure returns (int128) {\n        return a.toInt128();\n    }\n\n    function toInt64(int a) public pure returns (int64) {\n        return a.toInt64();\n    }\n\n    function toInt32(int a) public pure returns (int32) {\n        return a.toInt32();\n    }\n\n    function toInt16(int a) public pure returns (int16) {\n        return a.toInt16();\n    }\n\n    function toInt8(int a) public pure returns (int8) {\n        return a.toInt8();\n    }\n}\n",
  "sourcePath": "contracts/openzeppelin-contracts@3.4.0/contracts/mocks/SafeCastMock.sol",
  "type": "contract"
}