{
  "abi": [
    {
      "inputs": [],
      "name": "addMemoryCheck",
      "outputs": [
        {
          "internalType": "uint256",
          "name": "mem",
          "type": "uint256"
        }
      ],
      "stateMutability": "pure",
      "type": "function"
    },
    {
      "inputs": [],
      "name": "divMemoryCheck",
      "outputs": [
        {
          "internalType": "uint256",
          "name": "mem",
          "type": "uint256"
        }
      ],
      "stateMutability": "pure",
      "type": "function"
    },
    {
      "inputs": [
        {
          "internalType": "uint256",
          "name": "a",
          "type": "uint256"
        },
        {
          "internalType": "uint256",
          "name": "b",
          "type": "uint256"
        },
        {
          "internalType": "string",
          "name": "errorMessage",
          "type": "string"
        }
      ],
      "name": "divWithMessage",
      "outputs": [
        {
          "internalType": "uint256",
          "name": "",
          "type": "uint256"
        }
      ],
      "stateMutability": "pure",
      "type": "function"
    },
    {
      "inputs": [
        {
          "internalType": "uint256",
          "name": "a",
          "type": "uint256"
        },
        {
          "internalType": "uint256",
          "name": "b",
          "type": "uint256"
        }
      ],
      "name": "doAdd",
      "outputs": [
        {
          "internalType": "uint256",
          "name": "",
          "type": "uint256"
        }
      ],
      "stateMutability": "pure",
      "type": "function"
    },
    {
      "inputs": [
        {
          "internalType": "uint256",
          "name": "a",
          "type": "uint256"
        },
        {
          "internalType": "uint256",
          "name": "b",
          "type": "uint256"
        }
      ],
      "name": "doDiv",
      "outputs": [
        {
          "internalType": "uint256",
          "name": "",
          "type": "uint256"
        }
      ],
      "stateMutability": "pure",
      "type": "function"
    },
    {
      "inputs": [
        {
          "internalType": "uint256",
          "name": "a",
          "type": "uint256"
        },
        {
          "internalType": "uint256",
          "name": "b",
          "type": "uint256"
        }
      ],
      "name": "doMod",
      "outputs": [
        {
          "internalType": "uint256",
          "name": "",
          "type": "uint256"
        }
      ],
      "stateMutability": "pure",
      "type": "function"
    },
    {
      "inputs": [
        {
          "internalType": "uint256",
          "name": "a",
          "type": "uint256"
        },
        {
          "internalType": "uint256",
          "name": "b",
          "type": "uint256"
        }
      ],
      "name": "doMul",
      "outputs": [
        {
          "internalType": "uint256",
          "name": "",
          "type": "uint256"
        }
      ],
      "stateMutability": "pure",
      "type": "function"
    },
    {
      "inputs": [
        {
          "internalType": "uint256",
          "name": "a",
          "type": "uint256"
        },
        {
          "internalType": "uint256",
          "name": "b",
          "type": "uint256"
        }
      ],
      "name": "doSub",
      "outputs": [
        {
          "internalType": "uint256",
          "name": "",
          "type": "uint256"
        }
      ],
      "stateMutability": "pure",
      "type": "function"
    },
    {
      "inputs": [],
      "name": "modMemoryCheck",
      "outputs": [
        {
          "internalType": "uint256",
          "name": "mem",
          "type": "uint256"
        }
      ],
      "stateMutability": "pure",
      "type": "function"
    },
    {
      "inputs": [
        {
          "internalType": "uint256",
          "name": "a",
          "type": "uint256"
        },
        {
          "internalType": "uint256",
          "name": "b",
          "type": "uint256"
        },
        {
          "internalType": "string",
          "name": "errorMessage",
          "type": "string"
        }
      ],
      "name": "modWithMessage",
      "outputs": [
        {
          "internalType": "uint256",
          "name": "",
          "type": "uint256"
        }
      ],
      "stateMutability": "pure",
      "type": "function"
    },
    {
      "inputs": [],
      "name": "mulMemoryCheck",
      "outputs": [
        {
          "internalType": "uint256",
          "name": "mem",
          "type": "uint256"
        }
      ],
      "stateMutability": "pure",
      "type": "function"
    },
    {
      "inputs": [],
      "name": "subMemoryCheck",
      "outputs": [
        {
          "internalType": "uint256",
          "name": "mem",
          "type": "uint256"
        }
      ],
      "stateMutability": "pure",
      "type": "function"
    },
    {
      "inputs": [
        {
          "internalType": "uint256",
          "name": "a",
          "type": "uint256"
        },
        {
          "internalType": "uint256",
          "name": "b",
          "type": "uint256"
        },
        {
          "internalType": "string",
          "name": "errorMessage",
          "type": "string"
        }
      ],
      "name": "subWithMessage",
      "outputs": [
        {
          "internalType": "uint256",
          "name": "",
          "type": "uint256"
        }
      ],
      "stateMutability": "pure",
      "type": "function"
    },
    {
      "inputs": [
        {
          "internalType": "uint256",
          "name": "a",
          "type": "uint256"
        },
        {
          "internalType": "uint256",
          "name": "b",
          "type": "uint256"
        }
      ],
      "name": "tryAdd",
      "outputs": [
        {
          "internalType": "bool",
          "name": "flag",
          "type": "bool"
        },
        {
          "internalType": "uint256",
          "name": "value",
          "type": "uint256"
        }
      ],
      "stateMutability": "pure",
      "type": "function"
    },
    {
      "inputs": [
        {
          "internalType": "uint256",
          "name": "a",
          "type": "uint256"
        },
        {
          "internalType": "uint256",
          "name": "b",
          "type": "uint256"
        }
      ],
      "name": "tryDiv",
      "outputs": [
        {
          "internalType": "bool",
          "name": "flag",
          "type": "bool"
        },
        {
          "internalType": "uint256",
          "name": "value",
          "type": "uint256"
        }
      ],
      "stateMutability": "pure",
      "type": "function"
    },
    {
      "inputs": [
        {
          "internalType": "uint256",
          "name": "a",
          "type": "uint256"
        },
        {
          "internalType": "uint256",
          "name": "b",
          "type": "uint256"
        }
      ],
      "name": "tryMod",
      "outputs": [
        {
          "internalType": "bool",
          "name": "flag",
          "type": "bool"
        },
        {
          "internalType": "uint256",
          "name": "value",
          "type": "uint256"
        }
      ],
      "stateMutability": "pure",
      "type": "function"
    },
    {
      "inputs": [
        {
          "internalType": "uint256",
          "name": "a",
          "type": "uint256"
        },
        {
          "internalType": "uint256",
          "name": "b",
          "type": "uint256"
        }
      ],
      "name": "tryMul",
      "outputs": [
        {
          "internalType": "bool",
          "name": "flag",
          "type": "bool"
        },
        {
          "internalType": "uint256",
          "name": "value",
          "type": "uint256"
        }
      ],
      "stateMutability": "pure",
      "type": "function"
    },
    {
      "inputs": [
        {
          "internalType": "uint256",
          "name": "a",
          "type": "uint256"
        },
        {
          "internalType": "uint256",
          "name": "b",
          "type": "uint256"
        }
      ],
      "name": "trySub",
      "outputs": [
        {
          "internalType": "bool",
          "name": "flag",
          "type": "bool"
        },
        {
          "internalType": "uint256",
          "name": "value",
          "type": "uint256"
        }
      ],
      "stateMutability": "pure",
      "type": "function"
    }
  ],
  "bytecode": "608060405234801561001057600080fd5b50610ac3806100206000396000f3fe608060405234801561001057600080fd5b50600436106101165760003560e01c80639f5cec89116100a2578063dcc721d211610071578063dcc721d21461046b578063fb1191981461048e578063fb24c860146104b1578063fb999ded146104b9578063fc0ce503146104c157610116565b80639f5cec89146102dc578063a155bd621461038e578063a29962b114610440578063c460ae041461046357610116565b80636f91e802116100e95780636f91e80214610263578063736ecb181461026b5780637e86d25c1461028e578063869f602f14610296578063884557bf146102b957610116565b80633449b5fb1461011b57806338dc0867146101df5780636281efa41461021d5780636c7ac63714610240575b600080fd5b6101cd6004803603606081101561013157600080fd5b81359160208101359181019060608101604082013564010000000081111561015857600080fd5b82018360208201111561016a57600080fd5b8035906020019184600183028401116401000000008311171561018c57600080fd5b91908080601f0160208091040260200160405190810160405280939291908181526020018383808284376000920191909152509295506104e4945050505050565b60408051918252519081900360200190f35b610202600480360360408110156101f557600080fd5b50803590602001356104f9565b60408051921515835260208301919091528051918290030190f35b6102026004803603604081101561023357600080fd5b5080359060200135610512565b6101cd6004803603604081101561025657600080fd5b508035906020013561051f565b6101cd610534565b6102026004803603604081101561028157600080fd5b5080359060200135610561565b6101cd61056e565b6101cd600480360360408110156102ac57600080fd5b5080359060200135610592565b610202600480360360408110156102cf57600080fd5b508035906020013561059e565b6101cd600480360360608110156102f257600080fd5b81359160208101359181019060608101604082013564010000000081111561031957600080fd5b82018360208201111561032b57600080fd5b8035906020019184600183028401116401000000008311171561034d57600080fd5b91908080601f0160208091040260200160405190810160405280939291908181526020018383808284376000920191909152509295506105ab945050505050565b6101cd600480360360608110156103a457600080fd5b8135916020810135918101906060810160408201356401000000008111156103cb57600080fd5b8201836020820111156103dd57600080fd5b803590602001918460018302840111640100000000831117156103ff57600080fd5b91908080601f0160208091040260200160405190810160405280939291908181526020018383808284376000920191909152509295506105b8945050505050565b6102026004803603604081101561045657600080fd5b50803590602001356105c5565b6101cd6105d2565b6101cd6004803603604081101561048157600080fd5b50803590602001356105f6565b6101cd600480360360408110156104a457600080fd5b5080359060200135610602565b6101cd61060e565b6101cd610632565b6101cd600480360360408110156104d757600080fd5b5080359060200135610656565b60006104f1848484610662565b949350505050565b6000806105068484610701565b915091505b9250929050565b600080610506848461072b565b600061052b838361076b565b90505b92915050565b604051602060005b818110156105585761054f6001806107c8565b5060010161053c565b50506040510390565b600080610506848461082f565b604051602060005b8181101561055857610589600180610859565b50600101610576565b600061052b83836107c8565b60008061050684846108b2565b60006104f18484846108cd565b60006104f1848484610927565b6000806105068484610989565b604051602060005b81811015610558576105ed6001806109ab565b506001016105da565b600061052b8383610a12565b600061052b8383610859565b604051602060005b8181101561055857610629600180610a12565b50600101610616565b604051602060005b818110156105585761064d60018061076b565b5060010161063a565b600061052b83836109ab565b600081836106ee5760405162461bcd60e51b81526004018080602001828103825283818151815260200191508051906020019080838360005b838110156106b357818101518382015260200161069b565b50505050905090810190601f1680156106e05780820380516001836020036101000a031916815260200191505b509250505060405180910390fd5b508284816106f857fe5b04949350505050565b600080826107145750600090508061050b565b600183858161071f57fe5b06915091509250929050565b6000808361073f575060019050600061050b565b8383028385828161074c57fe5b041461075f57600080925092505061050b565b60019590945092505050565b6000828211156107c2576040805162461bcd60e51b815260206004820152601e60248201527f536166654d6174683a207375627472616374696f6e206f766572666c6f770000604482015290519081900360640190fd5b50900390565b600080821161081e576040805162461bcd60e51b815260206004820152601860248201527f536166654d6174683a206d6f64756c6f206279207a65726f0000000000000000604482015290519081900360640190fd5b81838161082757fe5b069392505050565b600080826108425750600090508061050b565b600183858161084d57fe5b04915091509250929050565b6000826108685750600061052e565b8282028284828161087557fe5b041461052b5760405162461bcd60e51b8152600401808060200182810382526021815260200180610a6d6021913960400191505060405180910390fd5b6000808383018481101561075f57600080925092505061050b565b6000818484111561091f5760405162461bcd60e51b81526020600482018181528351602484015283519092839260449091019190850190808383600083156106b357818101518382015260200161069b565b505050900390565b600081836109765760405162461bcd60e51b81526020600482018181528351602484015283519092839260449091019190850190808383600083156106b357818101518382015260200161069b565b5082848161098057fe5b06949350505050565b6000808383111561099f5750600090508061050b565b50600193919092039150565b6000808211610a01576040805162461bcd60e51b815260206004820152601a60248201527f536166654d6174683a206469766973696f6e206279207a65726f000000000000604482015290519081900360640190fd5b818381610a0a57fe5b049392505050565b60008282018381101561052b576040805162461bcd60e51b815260206004820152601b60248201527f536166654d6174683a206164646974696f6e206f766572666c6f770000000000604482015290519081900360640190fdfe536166654d6174683a206d756c7469706c69636174696f6e206f766572666c6f77a26469706673582212201d7d5de4767521e0496d578752bdde245508a617eb7a64d0c1e86a916ca06cbc64736f6c634300060c0033",
  "bytecodeSha1": "de792f09e3e47f80a0d87746b79cdcb033beec85",
  "compiler": {
    "evm_version": "istanbul",
    "optimizer": {
      "enabled": true,
      "runs": 200
    },
    "version": "0.6.12+commit.27d51765"
  },
  "contractName": "SafeMathMock",
  "language": "Solidity",
  "natspec": {
    "kind": "dev",
    "methods": {},
    "version": 1
  },
  "opcodes": "PUSH1 0x80 PUSH1 0x40 MSTORE CALLVALUE DUP1 ISZERO PUSH2 0x10 JUMPI PUSH1 0x0 DUP1 REVERT JUMPDEST POP PUSH1 0x4 CALLDATASIZE LT PUSH2 0x116 JUMPI PUSH1 0x0 CALLDATALOAD PUSH1 0xE0 SHR DUP1 PUSH4 0x9F5CEC89 GT PUSH2 0xA2 JUMPI DUP1 PUSH4 0xDCC721D2 GT PUSH2 0x71 JUMPI DUP1 PUSH4 0xDCC721D2 EQ PUSH2 0x46B JUMPI DUP1 PUSH4 0xFB119198 EQ PUSH2 0x48E JUMPI DUP1 PUSH4 0xFB24C860 EQ PUSH2 0x4B1 JUMPI DUP1 PUSH4 0xFB999DED EQ PUSH2 0x4B9 JUMPI DUP1 PUSH4 0xFC0CE503 EQ PUSH2 0x4C1 JUMPI PUSH2 0x116 JUMP JUMPDEST DUP1 PUSH4 0x9F5CEC89 EQ PUSH2 0x2DC JUMPI DUP1 PUSH4 0xA155BD62 EQ PUSH2 0x38E JUMPI DUP1 PUSH4 0xA29962B1 EQ PUSH2 0x440 JUMPI DUP1 PUSH4 0xC460AE04 EQ PUSH2 0x463 JUMPI PUSH2 0x116 JUMP JUMPDEST DUP1 PUSH4 0x6F91E802 GT PUSH2 0xE9 JUMPI DUP1 PUSH4 0x6F91E802 EQ PUSH2 0x263 JUMPI DUP1 PUSH4 0x736ECB18 EQ PUSH2 0x26B JUMPI DUP1 PUSH4 0x7E86D25C EQ PUSH2 0x28E JUMPI DUP1 PUSH4 0x869F602F EQ PUSH2 0x296 JUMPI DUP1 PUSH4 0x884557BF EQ PUSH2 0x2B9 JUMPI PUSH2 0x116 JUMP JUMPDEST DUP1 PUSH4 0x3449B5FB EQ PUSH2 0x11B JUMPI DUP1 PUSH4 0x38DC0867 EQ PUSH2 0x1DF JUMPI DUP1 PUSH4 0x6281EFA4 EQ PUSH2 0x21D JUMPI DUP1 PUSH4 0x6C7AC637 EQ PUSH2 0x240 JUMPI JUMPDEST PUSH1 0x0 DUP1 REVERT JUMPDEST PUSH2 0x1CD PUSH1 0x4 DUP1 CALLDATASIZE SUB PUSH1 0x60 DUP2 LT ISZERO PUSH2 0x131 JUMPI PUSH1 0x0 DUP1 REVERT JUMPDEST DUP2 CALLDATALOAD SWAP2 PUSH1 0x20 DUP2 ADD CALLDATALOAD SWAP2 DUP2 ADD SWAP1 PUSH1 0x60 DUP2 ADD PUSH1 0x40 DUP3 ADD CALLDATALOAD PUSH5 0x100000000 DUP2 GT ISZERO PUSH2 0x158 JUMPI PUSH1 0x0 DUP1 REVERT JUMPDEST DUP3 ADD DUP4 PUSH1 0x20 DUP3 ADD GT ISZERO PUSH2 0x16A JUMPI PUSH1 0x0 DUP1 REVERT JUMPDEST DUP1 CALLDATALOAD SWAP1 PUSH1 0x20 ADD SWAP2 DUP5 PUSH1 0x1 DUP4 MUL DUP5 ADD GT PUSH5 0x100000000 DUP4 GT OR ISZERO PUSH2 0x18C JUMPI PUSH1 0x0 DUP1 REVERT JUMPDEST SWAP2 SWAP1 DUP1 DUP1 PUSH1 0x1F ADD PUSH1 0x20 DUP1 SWAP2 DIV MUL PUSH1 0x20 ADD PUSH1 0x40 MLOAD SWAP1 DUP2 ADD PUSH1 0x40 MSTORE DUP1 SWAP4 SWAP3 SWAP2 SWAP1 DUP2 DUP2 MSTORE PUSH1 0x20 ADD DUP4 DUP4 DUP1 DUP3 DUP5 CALLDATACOPY PUSH1 0x0 SWAP3 ADD SWAP2 SWAP1 SWAP2 MSTORE POP SWAP3 SWAP6 POP PUSH2 0x4E4 SWAP5 POP POP POP POP POP JUMP JUMPDEST PUSH1 0x40 DUP1 MLOAD SWAP2 DUP3 MSTORE MLOAD SWAP1 DUP2 SWAP1 SUB PUSH1 0x20 ADD SWAP1 RETURN JUMPDEST PUSH2 0x202 PUSH1 0x4 DUP1 CALLDATASIZE SUB PUSH1 0x40 DUP2 LT ISZERO PUSH2 0x1F5 JUMPI PUSH1 0x0 DUP1 REVERT JUMPDEST POP DUP1 CALLDATALOAD SWAP1 PUSH1 0x20 ADD CALLDATALOAD PUSH2 0x4F9 JUMP JUMPDEST PUSH1 0x40 DUP1 MLOAD SWAP3 ISZERO ISZERO DUP4 MSTORE PUSH1 0x20 DUP4 ADD SWAP2 SWAP1 SWAP2 MSTORE DUP1 MLOAD SWAP2 DUP3 SWAP1 SUB ADD SWAP1 RETURN JUMPDEST PUSH2 0x202 PUSH1 0x4 DUP1 CALLDATASIZE SUB PUSH1 0x40 DUP2 LT ISZERO PUSH2 0x233 JUMPI PUSH1 0x0 DUP1 REVERT JUMPDEST POP DUP1 CALLDATALOAD SWAP1 PUSH1 0x20 ADD CALLDATALOAD PUSH2 0x512 JUMP JUMPDEST PUSH2 0x1CD PUSH1 0x4 DUP1 CALLDATASIZE SUB PUSH1 0x40 DUP2 LT ISZERO PUSH2 0x256 JUMPI PUSH1 0x0 DUP1 REVERT JUMPDEST POP DUP1 CALLDATALOAD SWAP1 PUSH1 0x20 ADD CALLDATALOAD PUSH2 0x51F JUMP JUMPDEST PUSH2 0x1CD PUSH2 0x534 JUMP JUMPDEST PUSH2 0x202 PUSH1 0x4 DUP1 CALLDATASIZE SUB PUSH1 0x40 DUP2 LT ISZERO PUSH2 0x281 JUMPI PUSH1 0x0 DUP1 REVERT JUMPDEST POP DUP1 CALLDATALOAD SWAP1 PUSH1 0x20 ADD CALLDATALOAD PUSH2 0x561 JUMP JUMPDEST PUSH2 0x1CD PUSH2 0x56E JUMP JUMPDEST PUSH2 0x1CD PUSH1 0x4 DUP1 CALLDATASIZE SUB PUSH1 0x40 DUP2 LT ISZERO PUSH2 0x2AC JUMPI PUSH1 0x0 DUP1 REVERT JUMPDEST POP DUP1 CALLDATALOAD SWAP1 PUSH1 0x20 ADD CALLDATALOAD PUSH2 0x592 JUMP JUMPDEST PUSH2 0x202 PUSH1 0x4 DUP1 CALLDATASIZE SUB PUSH1 0x40 DUP2 LT ISZERO PUSH2 0x2CF JUMPI PUSH1 0x0 DUP1 REVERT JUMPDEST POP DUP1 CALLDATALOAD SWAP1 PUSH1 0x20 ADD CALLDATALOAD PUSH2 0x59E JUMP JUMPDEST PUSH2 0x1CD PUSH1 0x4 DUP1 CALLDATASIZE SUB PUSH1 0x60 DUP2 LT ISZERO PUSH2 0x2F2 JUMPI PUSH1 0x0 DUP1 REVERT JUMPDEST DUP2 CALLDATALOAD SWAP2 PUSH1 0x20 DUP2 ADD CALLDATALOAD SWAP2 DUP2 ADD SWAP1 PUSH1 0x60 DUP2 ADD PUSH1 0x40 DUP3 ADD CALLDATALOAD PUSH5 0x100000000 DUP2 GT ISZERO PUSH2 0x319 JUMPI PUSH1 0x0 DUP1 REVERT JUMPDEST DUP3 ADD DUP4 PUSH1 0x20 DUP3 ADD GT ISZERO PUSH2 0x32B JUMPI PUSH1 0x0 DUP1 REVERT JUMPDEST DUP1 CALLDATALOAD SWAP1 PUSH1 0x20 ADD SWAP2 DUP5 PUSH1 0x1 DUP4 MUL DUP5 ADD GT PUSH5 0x100000000 DUP4 GT OR ISZERO PUSH2 0x34D JUMPI PUSH1 0x0 DUP1 REVERT JUMPDEST SWAP2 SWAP1 DUP1 DUP1 PUSH1 0x1F ADD PUSH1 0x20 DUP1 SWAP2 DIV MUL PUSH1 0x20 ADD PUSH1 0x40 MLOAD SWAP1 DUP2 ADD PUSH1 0x40 MSTORE DUP1 SWAP4 SWAP3 SWAP2 SWAP1 DUP2 DUP2 MSTORE PUSH1 0x20 ADD DUP4 DUP4 DUP1 DUP3 DUP5 CALLDATACOPY PUSH1 0x0 SWAP3 ADD SWAP2 SWAP1 SWAP2 MSTORE POP SWAP3 SWAP6 POP PUSH2 0x5AB SWAP5 POP POP POP POP POP JUMP JUMPDEST PUSH2 0x1CD PUSH1 0x4 DUP1 CALLDATASIZE SUB PUSH1 0x60 DUP2 LT ISZERO PUSH2 0x3A4 JUMPI PUSH1 0x0 DUP1 REVERT JUMPDEST DUP2 CALLDATALOAD SWAP2 PUSH1 0x20 DUP2 ADD CALLDATALOAD SWAP2 DUP2 ADD SWAP1 PUSH1 0x60 DUP2 ADD PUSH1 0x40 DUP3 ADD CALLDATALOAD PUSH5 0x100000000 DUP2 GT ISZERO PUSH2 0x3CB JUMPI PUSH1 0x0 DUP1 REVERT JUMPDEST DUP3 ADD DUP4 PUSH1 0x20 DUP3 ADD GT ISZERO PUSH2 0x3DD JUMPI PUSH1 0x0 DUP1 REVERT JUMPDEST DUP1 CALLDATALOAD SWAP1 PUSH1 0x20 ADD SWAP2 DUP5 PUSH1 0x1 DUP4 MUL DUP5 ADD GT PUSH5 0x100000000 DUP4 GT OR ISZERO PUSH2 0x3FF JUMPI PUSH1 0x0 DUP1 REVERT JUMPDEST SWAP2 SWAP1 DUP1 DUP1 PUSH1 0x1F ADD PUSH1 0x20 DUP1 SWAP2 DIV MUL PUSH1 0x20 ADD PUSH1 0x40 MLOAD SWAP1 DUP2 ADD PUSH1 0x40 MSTORE DUP1 SWAP4 SWAP3 SWAP2 SWAP1 DUP2 DUP2 MSTORE PUSH1 0x20 ADD DUP4 DUP4 DUP1 DUP3 DUP5 CALLDATACOPY PUSH1 0x0 SWAP3 ADD SWAP2 SWAP1 SWAP2 MSTORE POP SWAP3 SWAP6 POP PUSH2 0x5B8 SWAP5 POP POP POP POP POP JUMP JUMPDEST PUSH2 0x202 PUSH1 0x4 DUP1 CALLDATASIZE SUB PUSH1 0x40 DUP2 LT ISZERO PUSH2 0x456 JUMPI PUSH1 0x0 DUP1 REVERT JUMPDEST POP DUP1 CALLDATALOAD SWAP1 PUSH1 0x20 ADD CALLDATALOAD PUSH2 0x5C5 JUMP JUMPDEST PUSH2 0x1CD PUSH2 0x5D2 JUMP JUMPDEST PUSH2 0x1CD PUSH1 0x4 DUP1 CALLDATASIZE SUB PUSH1 0x40 DUP2 LT ISZERO PUSH2 0x481 JUMPI PUSH1 0x0 DUP1 REVERT JUMPDEST POP DUP1 CALLDATALOAD SWAP1 PUSH1 0x20 ADD CALLDATALOAD PUSH2 0x5F6 JUMP JUMPDEST PUSH2 0x1CD PUSH1 0x4 DUP1 CALLDATASIZE SUB PUSH1 0x40 DUP2 LT ISZERO PUSH2 0x4A4 JUMPI PUSH1 0x0 DUP1 REVERT JUMPDEST POP DUP1 CALLDATALOAD SWAP1 PUSH1 0x20 ADD CALLDATALOAD PUSH2 0x602 JUMP JUMPDEST PUSH2 0x1CD PUSH2 0x60E JUMP JUMPDEST PUSH2 0x1CD PUSH2 0x632 JUMP JUMPDEST PUSH2 0x1CD PUSH1 0x4 DUP1 CALLDATASIZE SUB PUSH1 0x40 DUP2 LT ISZERO PUSH2 0x4D7 JUMPI PUSH1 0x0 DUP1 REVERT JUMPDEST POP DUP1 CALLDATALOAD SWAP1 PUSH1 0x20 ADD CALLDATALOAD PUSH2 0x656 JUMP JUMPDEST PUSH1 0x0 PUSH2 0x4F1 DUP5 DUP5 DUP5 PUSH2 0x662 JUMP JUMPDEST SWAP5 SWAP4 POP POP POP POP JUMP JUMPDEST PUSH1 0x0 DUP1 PUSH2 0x506 DUP5 DUP5 PUSH2 0x701 JUMP JUMPDEST SWAP2 POP SWAP2 POP JUMPDEST SWAP3 POP SWAP3 SWAP1 POP JUMP JUMPDEST PUSH1 0x0 DUP1 PUSH2 0x506 DUP5 DUP5 PUSH2 0x72B JUMP JUMPDEST PUSH1 0x0 PUSH2 0x52B DUP4 DUP4 PUSH2 0x76B JUMP JUMPDEST SWAP1 POP JUMPDEST SWAP3 SWAP2 POP POP JUMP JUMPDEST PUSH1 0x40 MLOAD PUSH1 0x20 PUSH1 0x0 JUMPDEST DUP2 DUP2 LT ISZERO PUSH2 0x558 JUMPI PUSH2 0x54F PUSH1 0x1 DUP1 PUSH2 0x7C8 JUMP JUMPDEST POP PUSH1 0x1 ADD PUSH2 0x53C JUMP JUMPDEST POP POP PUSH1 0x40 MLOAD SUB SWAP1 JUMP JUMPDEST PUSH1 0x0 DUP1 PUSH2 0x506 DUP5 DUP5 PUSH2 0x82F JUMP JUMPDEST PUSH1 0x40 MLOAD PUSH1 0x20 PUSH1 0x0 JUMPDEST DUP2 DUP2 LT ISZERO PUSH2 0x558 JUMPI PUSH2 0x589 PUSH1 0x1 DUP1 PUSH2 0x859 JUMP JUMPDEST POP PUSH1 0x1 ADD PUSH2 0x576 JUMP JUMPDEST PUSH1 0x0 PUSH2 0x52B DUP4 DUP4 PUSH2 0x7C8 JUMP JUMPDEST PUSH1 0x0 DUP1 PUSH2 0x506 DUP5 DUP5 PUSH2 0x8B2 JUMP JUMPDEST PUSH1 0x0 PUSH2 0x4F1 DUP5 DUP5 DUP5 PUSH2 0x8CD JUMP JUMPDEST PUSH1 0x0 PUSH2 0x4F1 DUP5 DUP5 DUP5 PUSH2 0x927 JUMP JUMPDEST PUSH1 0x0 DUP1 PUSH2 0x506 DUP5 DUP5 PUSH2 0x989 JUMP JUMPDEST PUSH1 0x40 MLOAD PUSH1 0x20 PUSH1 0x0 JUMPDEST DUP2 DUP2 LT ISZERO PUSH2 0x558 JUMPI PUSH2 0x5ED PUSH1 0x1 DUP1 PUSH2 0x9AB JUMP JUMPDEST POP PUSH1 0x1 ADD PUSH2 0x5DA JUMP JUMPDEST PUSH1 0x0 PUSH2 0x52B DUP4 DUP4 PUSH2 0xA12 JUMP JUMPDEST PUSH1 0x0 PUSH2 0x52B DUP4 DUP4 PUSH2 0x859 JUMP JUMPDEST PUSH1 0x40 MLOAD PUSH1 0x20 PUSH1 0x0 JUMPDEST DUP2 DUP2 LT ISZERO PUSH2 0x558 JUMPI PUSH2 0x629 PUSH1 0x1 DUP1 PUSH2 0xA12 JUMP JUMPDEST POP PUSH1 0x1 ADD PUSH2 0x616 JUMP JUMPDEST PUSH1 0x40 MLOAD PUSH1 0x20 PUSH1 0x0 JUMPDEST DUP2 DUP2 LT ISZERO PUSH2 0x558 JUMPI PUSH2 0x64D PUSH1 0x1 DUP1 PUSH2 0x76B JUMP JUMPDEST POP PUSH1 0x1 ADD PUSH2 0x63A JUMP JUMPDEST PUSH1 0x0 PUSH2 0x52B DUP4 DUP4 PUSH2 0x9AB JUMP JUMPDEST PUSH1 0x0 DUP2 DUP4 PUSH2 0x6EE JUMPI PUSH1 0x40 MLOAD PUSH3 0x461BCD PUSH1 0xE5 SHL DUP2 MSTORE PUSH1 0x4 ADD DUP1 DUP1 PUSH1 0x20 ADD DUP3 DUP2 SUB DUP3 MSTORE DUP4 DUP2 DUP2 MLOAD DUP2 MSTORE PUSH1 0x20 ADD SWAP2 POP DUP1 MLOAD SWAP1 PUSH1 0x20 ADD SWAP1 DUP1 DUP4 DUP4 PUSH1 0x0 JUMPDEST DUP4 DUP2 LT ISZERO PUSH2 0x6B3 JUMPI DUP2 DUP2 ADD MLOAD DUP4 DUP3 ADD MSTORE PUSH1 0x20 ADD PUSH2 0x69B JUMP JUMPDEST POP POP POP POP SWAP1 POP SWAP1 DUP2 ADD SWAP1 PUSH1 0x1F AND DUP1 ISZERO PUSH2 0x6E0 JUMPI DUP1 DUP3 SUB DUP1 MLOAD PUSH1 0x1 DUP4 PUSH1 0x20 SUB PUSH2 0x100 EXP SUB NOT AND DUP2 MSTORE PUSH1 0x20 ADD SWAP2 POP JUMPDEST POP SWAP3 POP POP POP PUSH1 0x40 MLOAD DUP1 SWAP2 SUB SWAP1 REVERT JUMPDEST POP DUP3 DUP5 DUP2 PUSH2 0x6F8 JUMPI INVALID JUMPDEST DIV SWAP5 SWAP4 POP POP POP POP JUMP JUMPDEST PUSH1 0x0 DUP1 DUP3 PUSH2 0x714 JUMPI POP PUSH1 0x0 SWAP1 POP DUP1 PUSH2 0x50B JUMP JUMPDEST PUSH1 0x1 DUP4 DUP6 DUP2 PUSH2 0x71F JUMPI INVALID JUMPDEST MOD SWAP2 POP SWAP2 POP SWAP3 POP SWAP3 SWAP1 POP JUMP JUMPDEST PUSH1 0x0 DUP1 DUP4 PUSH2 0x73F JUMPI POP PUSH1 0x1 SWAP1 POP PUSH1 0x0 PUSH2 0x50B JUMP JUMPDEST DUP4 DUP4 MUL DUP4 DUP6 DUP3 DUP2 PUSH2 0x74C JUMPI INVALID JUMPDEST DIV EQ PUSH2 0x75F JUMPI PUSH1 0x0 DUP1 SWAP3 POP SWAP3 POP POP PUSH2 0x50B JUMP JUMPDEST PUSH1 0x1 SWAP6 SWAP1 SWAP5 POP SWAP3 POP POP POP JUMP JUMPDEST PUSH1 0x0 DUP3 DUP3 GT ISZERO PUSH2 0x7C2 JUMPI PUSH1 0x40 DUP1 MLOAD PUSH3 0x461BCD PUSH1 0xE5 SHL DUP2 MSTORE PUSH1 0x20 PUSH1 0x4 DUP3 ADD MSTORE PUSH1 0x1E PUSH1 0x24 DUP3 ADD MSTORE PUSH32 0x536166654D6174683A207375627472616374696F6E206F766572666C6F770000 PUSH1 0x44 DUP3 ADD MSTORE SWAP1 MLOAD SWAP1 DUP2 SWAP1 SUB PUSH1 0x64 ADD SWAP1 REVERT JUMPDEST POP SWAP1 SUB SWAP1 JUMP JUMPDEST PUSH1 0x0 DUP1 DUP3 GT PUSH2 0x81E JUMPI PUSH1 0x40 DUP1 MLOAD PUSH3 0x461BCD PUSH1 0xE5 SHL DUP2 MSTORE PUSH1 0x20 PUSH1 0x4 DUP3 ADD MSTORE PUSH1 0x18 PUSH1 0x24 DUP3 ADD MSTORE PUSH32 0x536166654D6174683A206D6F64756C6F206279207A65726F0000000000000000 PUSH1 0x44 DUP3 ADD MSTORE SWAP1 MLOAD SWAP1 DUP2 SWAP1 SUB PUSH1 0x64 ADD SWAP1 REVERT JUMPDEST DUP2 DUP4 DUP2 PUSH2 0x827 JUMPI INVALID JUMPDEST MOD SWAP4 SWAP3 POP POP POP JUMP JUMPDEST PUSH1 0x0 DUP1 DUP3 PUSH2 0x842 JUMPI POP PUSH1 0x0 SWAP1 POP DUP1 PUSH2 0x50B JUMP JUMPDEST PUSH1 0x1 DUP4 DUP6 DUP2 PUSH2 0x84D JUMPI INVALID JUMPDEST DIV SWAP2 POP SWAP2 POP SWAP3 POP SWAP3 SWAP1 POP JUMP JUMPDEST PUSH1 0x0 DUP3 PUSH2 0x868 JUMPI POP PUSH1 0x0 PUSH2 0x52E JUMP JUMPDEST DUP3 DUP3 MUL DUP3 DUP5 DUP3 DUP2 PUSH2 0x875 JUMPI INVALID JUMPDEST DIV EQ PUSH2 0x52B JUMPI PUSH1 0x40 MLOAD PUSH3 0x461BCD PUSH1 0xE5 SHL DUP2 MSTORE PUSH1 0x4 ADD DUP1 DUP1 PUSH1 0x20 ADD DUP3 DUP2 SUB DUP3 MSTORE PUSH1 0x21 DUP2 MSTORE PUSH1 0x20 ADD DUP1 PUSH2 0xA6D PUSH1 0x21 SWAP2 CODECOPY PUSH1 0x40 ADD SWAP2 POP POP PUSH1 0x40 MLOAD DUP1 SWAP2 SUB SWAP1 REVERT JUMPDEST PUSH1 0x0 DUP1 DUP4 DUP4 ADD DUP5 DUP2 LT ISZERO PUSH2 0x75F JUMPI PUSH1 0x0 DUP1 SWAP3 POP SWAP3 POP POP PUSH2 0x50B JUMP JUMPDEST PUSH1 0x0 DUP2 DUP5 DUP5 GT ISZERO PUSH2 0x91F JUMPI PUSH1 0x40 MLOAD PUSH3 0x461BCD PUSH1 0xE5 SHL DUP2 MSTORE PUSH1 0x20 PUSH1 0x4 DUP3 ADD DUP2 DUP2 MSTORE DUP4 MLOAD PUSH1 0x24 DUP5 ADD MSTORE DUP4 MLOAD SWAP1 SWAP3 DUP4 SWAP3 PUSH1 0x44 SWAP1 SWAP2 ADD SWAP2 SWAP1 DUP6 ADD SWAP1 DUP1 DUP4 DUP4 PUSH1 0x0 DUP4 ISZERO PUSH2 0x6B3 JUMPI DUP2 DUP2 ADD MLOAD DUP4 DUP3 ADD MSTORE PUSH1 0x20 ADD PUSH2 0x69B JUMP JUMPDEST POP POP POP SWAP1 SUB SWAP1 JUMP JUMPDEST PUSH1 0x0 DUP2 DUP4 PUSH2 0x976 JUMPI PUSH1 0x40 MLOAD PUSH3 0x461BCD PUSH1 0xE5 SHL DUP2 MSTORE PUSH1 0x20 PUSH1 0x4 DUP3 ADD DUP2 DUP2 MSTORE DUP4 MLOAD PUSH1 0x24 DUP5 ADD MSTORE DUP4 MLOAD SWAP1 SWAP3 DUP4 SWAP3 PUSH1 0x44 SWAP1 SWAP2 ADD SWAP2 SWAP1 DUP6 ADD SWAP1 DUP1 DUP4 DUP4 PUSH1 0x0 DUP4 ISZERO PUSH2 0x6B3 JUMPI DUP2 DUP2 ADD MLOAD DUP4 DUP3 ADD MSTORE PUSH1 0x20 ADD PUSH2 0x69B JUMP JUMPDEST POP DUP3 DUP5 DUP2 PUSH2 0x980 JUMPI INVALID JUMPDEST MOD SWAP5 SWAP4 POP POP POP POP JUMP JUMPDEST PUSH1 0x0 DUP1 DUP4 DUP4 GT ISZERO PUSH2 0x99F JUMPI POP PUSH1 0x0 SWAP1 POP DUP1 PUSH2 0x50B JUMP JUMPDEST POP PUSH1 0x1 SWAP4 SWAP2 SWAP1 SWAP3 SUB SWAP2 POP JUMP JUMPDEST PUSH1 0x0 DUP1 DUP3 GT PUSH2 0xA01 JUMPI PUSH1 0x40 DUP1 MLOAD PUSH3 0x461BCD PUSH1 0xE5 SHL DUP2 MSTORE PUSH1 0x20 PUSH1 0x4 DUP3 ADD MSTORE PUSH1 0x1A PUSH1 0x24 DUP3 ADD MSTORE PUSH32 0x536166654D6174683A206469766973696F6E206279207A65726F000000000000 PUSH1 0x44 DUP3 ADD MSTORE SWAP1 MLOAD SWAP1 DUP2 SWAP1 SUB PUSH1 0x64 ADD SWAP1 REVERT JUMPDEST DUP2 DUP4 DUP2 PUSH2 0xA0A JUMPI INVALID JUMPDEST DIV SWAP4 SWAP3 POP POP POP JUMP JUMPDEST PUSH1 0x0 DUP3 DUP3 ADD DUP4 DUP2 LT ISZERO PUSH2 0x52B JUMPI PUSH1 0x40 DUP1 MLOAD PUSH3 0x461BCD PUSH1 0xE5 SHL DUP2 MSTORE PUSH1 0x20 PUSH1 0x4 DUP3 ADD MSTORE PUSH1 0x1B PUSH1 0x24 DUP3 ADD MSTORE PUSH32 0x536166654D6174683A206164646974696F6E206F766572666C6F770000000000 PUSH1 0x44 DUP3 ADD MSTORE SWAP1 MLOAD SWAP1 DUP2 SWAP1 SUB PUSH1 0x64 ADD SWAP1 REVERT INVALID MSTORE8 PUSH2 0x6665 0x4D PUSH2 0x7468 GASPRICE KECCAK256 PUSH14 0x756C7469706C69636174696F6E20 PUSH16 0x766572666C6F77A26469706673582212 KECCAK256 SAR PUSH30 0x5DE4767521E0496D578752BDDE245508A617EB7A64D0C1E86A916CA06CBC PUSH5 0x736F6C6343 STOP MOD 0xC STOP CALLER ",
  "sha1": "9c9126e9f816a69f8f8fd8689c1e8a47468279d5",
  "source": "// SPDX-License-Identifier: MIT\n\npragma solidity >=0.6.0 <0.8.0;\n\nimport \"../math/SafeMath.sol\";\n\ncontract SafeMathMock {\n    function tryAdd(uint256 a, uint256 b) public pure returns (bool flag, uint256 value) {\n        return SafeMath.tryAdd(a, b);\n    }\n\n    function trySub(uint256 a, uint256 b) public pure returns (bool flag, uint256 value) {\n        return SafeMath.trySub(a, b);\n    }\n\n    function tryMul(uint256 a, uint256 b) public pure returns (bool flag, uint256 value) {\n        return SafeMath.tryMul(a, b);\n    }\n\n    function tryDiv(uint256 a, uint256 b) public pure returns (bool flag, uint256 value) {\n        return SafeMath.tryDiv(a, b);\n    }\n\n    function tryMod(uint256 a, uint256 b) public pure returns (bool flag, uint256 value) {\n        return SafeMath.tryMod(a, b);\n    }\n\n    // using the do* naming convention to avoid warnings due to clashing opcode names\n\n    function doAdd(uint256 a, uint256 b) public pure returns (uint256) {\n        return SafeMath.add(a, b);\n    }\n\n    function doSub(uint256 a, uint256 b) public pure returns (uint256) {\n        return SafeMath.sub(a, b);\n    }\n\n    function doMul(uint256 a, uint256 b) public pure returns (uint256) {\n        return SafeMath.mul(a, b);\n    }\n\n    function doDiv(uint256 a, uint256 b) public pure returns (uint256) {\n        return SafeMath.div(a, b);\n    }\n\n    function doMod(uint256 a, uint256 b) public pure returns (uint256) {\n        return SafeMath.mod(a, b);\n    }\n\n    function subWithMessage(uint256 a, uint256 b, string memory errorMessage) public pure returns (uint256) {\n        return SafeMath.sub(a, b, errorMessage);\n    }\n\n    function divWithMessage(uint256 a, uint256 b, string memory errorMessage) public pure returns (uint256) {\n        return SafeMath.div(a, b, errorMessage);\n    }\n\n    function modWithMessage(uint256 a, uint256 b, string memory errorMessage) public pure returns (uint256) {\n        return SafeMath.mod(a, b, errorMessage);\n    }\n\n    function addMemoryCheck() public pure returns (uint256 mem) {\n        uint256 length = 32;\n        // solhint-disable-next-line no-inline-assembly\n        assembly { mem := mload(0x40) }\n        for (uint256 i = 0; i < length; ++i) { SafeMath.add(1, 1); }\n        // solhint-disable-next-line no-inline-assembly\n        assembly { mem := sub(mload(0x40), mem) }\n    }\n\n    function subMemoryCheck() public pure returns (uint256 mem) {\n        uint256 length = 32;\n        // solhint-disable-next-line no-inline-assembly\n        assembly { mem := mload(0x40) }\n        for (uint256 i = 0; i < length; ++i) { SafeMath.sub(1, 1); }\n        // solhint-disable-next-line no-inline-assembly\n        assembly { mem := sub(mload(0x40), mem) }\n    }\n\n    function mulMemoryCheck() public pure returns (uint256 mem) {\n        uint256 length = 32;\n        // solhint-disable-next-line no-inline-assembly\n        assembly { mem := mload(0x40) }\n        for (uint256 i = 0; i < length; ++i) { SafeMath.mul(1, 1); }\n        // solhint-disable-next-line no-inline-assembly\n        assembly { mem := sub(mload(0x40), mem) }\n    }\n\n    function divMemoryCheck() public pure returns (uint256 mem) {\n        uint256 length = 32;\n        // solhint-disable-next-line no-inline-assembly\n        assembly { mem := mload(0x40) }\n        for (uint256 i = 0; i < length; ++i) { SafeMath.div(1, 1); }\n        // solhint-disable-next-line no-inline-assembly\n        assembly { mem := sub(mload(0x40), mem) }\n    }\n\n    function modMemoryCheck() public pure returns (uint256 mem) {\n        uint256 length = 32;\n        // solhint-disable-next-line no-inline-assembly\n        assembly { mem := mload(0x40) }\n        for (uint256 i = 0; i < length; ++i) { SafeMath.mod(1, 1); }\n        // solhint-disable-next-line no-inline-assembly\n        assembly { mem := sub(mload(0x40), mem) }\n    }\n\n}\n",
  "sourcePath": "contracts/openzeppelin-contracts@3.4.0/contracts/mocks/SafeMathMock.sol",
  "type": "contract"
}